{"abi":[{"type":"function","name":"getTimeout","inputs":[],"outputs":[{"name":"","type":"uint256","internalType":"uint256"}],"stateMutability":"pure"},{"type":"function","name":"staleCheckLatestRoundData","inputs":[{"name":"chainlinkFeed","type":"AggregatorV3Interface","internalType":"contract AggregatorV3Interface"}],"outputs":[{"name":"","type":"uint80","internalType":"uint80"},{"name":"","type":"int256","internalType":"int256"},{"name":"","type":"uint256","internalType":"uint256"},{"name":"","type":"uint256","internalType":"uint256"},{"name":"","type":"uint80","internalType":"uint80"}],"stateMutability":"view"},{"type":"error","name":"OracleLib__StalePrice","inputs":[]}],"bytecode":{"object":"0x60808060405234601957610219908161001f823930815050f35b600080fdfe608080604052600436101561001357600080fd5b60003560e01c9081632ba1c96a146100535750633499ba951461003557600080fd5b600036600319011261004e576020604051620151808152f35b600080fd5b602036600319011261004e576004356001600160a01b0381169081900361004e578160048160a093633fabe5a360e21b82525afa80156101c0576000908190829383908492610134575b5080158015610113575b6100ec578042034281116100fd5762015180106100ec5760a09469ffffffffffffffffffff938460405196168652602086015260408501526060840152166080820152f35b636250849d60e11b60005260046000fd5b634e487b7160e01b600052601160045260246000fd5b5069ffffffffffffffffffff841669ffffffffffffffffffff8316106100a7565b945050505060a03d60a0116101b9575b601f8101601f1916830167ffffffffffffffff8111848210176101a55760a0918491604052810103126101a2575061017b816101cc565b6020820151906040830151906101986080606086015195016101cc565b909291938561009d565b80fd5b634e487b7160e01b83526041600452602483fd5b503d610144565b6040513d6000823e3d90fd5b519069ffffffffffffffffffff8216820361004e5756fea26469706673582212205e1fa28d51c5c71e0403b27c77c9a14644af579f0c28869bfa04e2fcccce1e5264736f6c634300081a0033","linkReferences":{}},"methodIdentifiers":{"getTimeout()":"3499ba95","staleCheckLatestRoundData(AggregatorV3Interface)":"2ba1c96a"},"id":91}