{"abi":[{"type":"constructor","inputs":[{"name":"_accessManager","type":"address","internalType":"address"}],"stateMutability":"nonpayable"},{"type":"function","name":"MINTER_ROLE","inputs":[],"outputs":[{"name":"","type":"bytes32","internalType":"bytes32"}],"stateMutability":"view"},{"type":"function","name":"allowance","inputs":[{"name":"owner","type":"address","internalType":"address"},{"name":"spender","type":"address","internalType":"address"}],"outputs":[{"name":"","type":"uint256","internalType":"uint256"}],"stateMutability":"view"},{"type":"function","name":"approve","inputs":[{"name":"spender","type":"address","internalType":"address"},{"name":"value","type":"uint256","internalType":"uint256"}],"outputs":[{"name":"","type":"bool","internalType":"bool"}],"stateMutability":"nonpayable"},{"type":"function","name":"balanceOf","inputs":[{"name":"account","type":"address","internalType":"address"}],"outputs":[{"name":"","type":"uint256","internalType":"uint256"}],"stateMutability":"view"},{"type":"function","name":"burnFrom","inputs":[{"name":"_add","type":"address","internalType":"address"},{"name":"_amount","type":"uint256","internalType":"uint256"}],"outputs":[],"stateMutability":"nonpayable"},{"type":"function","name":"decimals","inputs":[],"outputs":[{"name":"","type":"uint8","internalType":"uint8"}],"stateMutability":"pure"},{"type":"function","name":"mint","inputs":[{"name":"_add","type":"address","internalType":"address"},{"name":"_amount","type":"uint256","internalType":"uint256"}],"outputs":[],"stateMutability":"nonpayable"},{"type":"function","name":"name","inputs":[],"outputs":[{"name":"","type":"string","internalType":"string"}],"stateMutability":"view"},{"type":"function","name":"symbol","inputs":[],"outputs":[{"name":"","type":"string","internalType":"string"}],"stateMutability":"view"},{"type":"function","name":"totalSupply","inputs":[],"outputs":[{"name":"","type":"uint256","internalType":"uint256"}],"stateMutability":"view"},{"type":"function","name":"transfer","inputs":[{"name":"to","type":"address","internalType":"address"},{"name":"value","type":"uint256","internalType":"uint256"}],"outputs":[{"name":"","type":"bool","internalType":"bool"}],"stateMutability":"nonpayable"},{"type":"function","name":"transferFrom","inputs":[{"name":"from","type":"address","internalType":"address"},{"name":"to","type":"address","internalType":"address"},{"name":"value","type":"uint256","internalType":"uint256"}],"outputs":[{"name":"","type":"bool","internalType":"bool"}],"stateMutability":"nonpayable"},{"type":"event","name":"Approval","inputs":[{"name":"owner","type":"address","indexed":true,"internalType":"address"},{"name":"spender","type":"address","indexed":true,"internalType":"address"},{"name":"value","type":"uint256","indexed":false,"internalType":"uint256"}],"anonymous":false},{"type":"event","name":"Transfer","inputs":[{"name":"from","type":"address","indexed":true,"internalType":"address"},{"name":"to","type":"address","indexed":true,"internalType":"address"},{"name":"value","type":"uint256","indexed":false,"internalType":"uint256"}],"anonymous":false},{"type":"error","name":"ERC20InsufficientAllowance","inputs":[{"name":"spender","type":"address","internalType":"address"},{"name":"allowance","type":"uint256","internalType":"uint256"},{"name":"needed","type":"uint256","internalType":"uint256"}]},{"type":"error","name":"ERC20InsufficientBalance","inputs":[{"name":"sender","type":"address","internalType":"address"},{"name":"balance","type":"uint256","internalType":"uint256"},{"name":"needed","type":"uint256","internalType":"uint256"}]},{"type":"error","name":"ERC20InvalidApprover","inputs":[{"name":"approver","type":"address","internalType":"address"}]},{"type":"error","name":"ERC20InvalidReceiver","inputs":[{"name":"receiver","type":"address","internalType":"address"}]},{"type":"error","name":"ERC20InvalidSender","inputs":[{"name":"sender","type":"address","internalType":"address"}]},{"type":"error","name":"ERC20InvalidSpender","inputs":[{"name":"spender","type":"address","internalType":"address"}]}],"bytecode":{"object":"0x60806040523461034c57610b5c6020813803918261001c81610351565b93849283398101031261034c57516001600160a01b0381169081900361034c576100466040610351565b906005825264494e44414960d81b60208301526100636040610351565b600381526212539160ea1b602082015282519091906001600160401b03811161025557600354600181811c91168015610342575b602082101461023557601f81116102dd575b506020601f8211600114610276578192939460009261026b575b50508160011b916000199060031b1c1916176003555b81516001600160401b03811161025557600454600181811c9116801561024b575b602082101461023557601f81116101d0575b50602092601f821160011461016b5792819293600092610160575b50508160011b916000199060031b1c1916176004555b600580546001600160a01b0319169190911790556040516107e590816103778239f35b015190503880610127565b601f198216936004600052806000209160005b8681106101b8575083600195961061019f575b505050811b0160045561013d565b015160001960f88460031b161c19169055388080610191565b9192602060018192868501518155019401920161017e565b60046000527f8a35acfbc15ff81a39ae7d344fd709f28e8600b4aa8c65c6b64bfe7fe36bd19b601f830160051c8101916020841061022b575b601f0160051c01905b81811061021f575061010c565b60008155600101610212565b9091508190610209565b634e487b7160e01b600052602260045260246000fd5b90607f16906100fa565b634e487b7160e01b600052604160045260246000fd5b0151905038806100c3565b601f198216906003600052806000209160005b8181106102c5575095836001959697106102ac575b505050811b016003556100d9565b015160001960f88460031b161c1916905538808061029e565b9192602060018192868b015181550194019201610289565b60036000527fc2575a0e9e593c00f959f8c92f12db2869c3395a3b0502d05e2516446f71f85b601f830160051c81019160208410610338575b601f0160051c01905b81811061032c57506100a9565b6000815560010161031f565b9091508190610316565b90607f1690610097565b600080fd5b6040519190601f01601f191682016001600160401b038111838210176102555760405256fe608080604052600436101561001357600080fd5b60003560e01c90816306fdde03146105ce57508063095ea7b31461054857806318160ddd1461052a57806323b872dd1461043d578063313ce5671461042157806340c10f191461037557806370a082311461033b57806379cc67901461028657806395d89b4114610165578063a9059cbb14610134578063d5391393146100f95763dd62ed3e146100a357600080fd5b346100f45760403660031901126100f4576100bc6106ea565b6100c4610700565b6001600160a01b039182166000908152600160209081526040808320949093168252928352819020549051908152f35b600080fd5b346100f45760003660031901126100f45760206040517f9f2df0fed2c77648de5860a4cc508cd0818c85b8b8a1ab4ceeef8d981c8956a68152f35b346100f45760403660031901126100f45761015a6101506106ea565b6024359033610716565b602060405160018152f35b346100f45760003660031901126100f45760405160006004548060011c9060018116801561027c575b6020831081146102685782855290811561024c57506001146101f5575b50819003601f01601f191681019067ffffffffffffffff8211818310176101df576101db829182604052826106a1565b0390f35b634e487b7160e01b600052604160045260246000fd5b905060046000527f8a35acfbc15ff81a39ae7d344fd709f28e8600b4aa8c65c6b64bfe7fe36bd19b6000905b828210610236575060209150820101826101ab565b6001816020925483858801015201910190610221565b90506020925060ff191682840152151560051b820101826101ab565b634e487b7160e01b84526022600452602484fd5b91607f169161018e565b346100f45760403660031901126100f45761029f6106ea565b6001600160a01b031660243581156103255760009082825281602052604082205481811061030d5760208285937fddf252ad1be2c89b69c2b068fc378daa952ba7f163c4a11628f55a4df523b3ef93869787528684520360408620558060025403600255604051908152a380f35b60649363391434e360e21b8452600452602452604452fd5b634b637e8f60e11b600052600060045260246000fd5b346100f45760203660031901126100f4576001600160a01b0361035c6106ea565b1660005260006020526020604060002054604051908152f35b346100f45760403660031901126100f45761038e6106ea565b602435906001600160a01b0316801561040b57600254918083018093116103f5576020926002557fddf252ad1be2c89b69c2b068fc378daa952ba7f163c4a11628f55a4df523b3ef600093849284845283825260408420818154019055604051908152a380f35b634e487b7160e01b600052601160045260246000fd5b63ec442f0560e01b600052600060045260246000fd5b346100f45760003660031901126100f457602060405160088152f35b346100f45760603660031901126100f4576104566106ea565b61045e610700565b6001600160a01b038216600081815260016020818152604080842033855290915290912054919360443593929091810161049e575b5061015a9350610716565b83811061050d5784156104f75733156104e15761015a946000526001602052604060002060018060a01b0333166000526020528360406000209103905584610493565b634a1406b160e11b600052600060045260246000fd5b63e602df0560e01b600052600060045260246000fd5b8390637dc7a0d960e11b6000523360045260245260445260646000fd5b346100f45760003660031901126100f4576020600254604051908152f35b346100f45760403660031901126100f4576105616106ea565b6024359033156104f7576001600160a01b03169081156104e157336000526001602052604060002082600052602052806040600020556040519081527f8c5be1e5ebec7d5bd14f71427d1e84f3dd0314c0f7b2291e5b200ac8c7c3b92560203392a3602060405160018152f35b346100f45760003660031901126100f45760006003548060011c90600181168015610697575b6020831081146102685782855290811561024c57506001146106405750819003601f01601f191681019067ffffffffffffffff8211818310176101df576101db829182604052826106a1565b905060036000527fc2575a0e9e593c00f959f8c92f12db2869c3395a3b0502d05e2516446f71f85b6000905b828210610681575060209150820101826101ab565b600181602092548385880101520191019061066c565b91607f16916105f4565b91909160208152825180602083015260005b8181106106d4575060409293506000838284010152601f8019910116010190565b80602080928701015160408286010152016106b3565b600435906001600160a01b03821682036100f457565b602435906001600160a01b03821682036100f457565b6001600160a01b0316908115610325576001600160a01b031691821561040b5760008281528060205260408120548281106107955791604082827fddf252ad1be2c89b69c2b068fc378daa952ba7f163c4a11628f55a4df523b3ef958760209652828652038282205586815280845220818154019055604051908152a3565b916064928463391434e360e21b8452600452602452604452fdfea2646970667358221220f422c8ba578015df31d7188828fed6c5eff321c7fe301702d100225c76b739bf64736f6c634300081a0033","linkReferences":{}},"methodIdentifiers":{"MINTER_ROLE()":"d5391393","allowance(address,address)":"dd62ed3e","approve(address,uint256)":"095ea7b3","balanceOf(address)":"70a08231","burnFrom(address,uint256)":"79cc6790","decimals()":"313ce567","mint(address,uint256)":"40c10f19","name()":"06fdde03","symbol()":"95d89b41","totalSupply()":"18160ddd","transfer(address,uint256)":"a9059cbb","transferFrom(address,address,uint256)":"23b872dd"},"id":52}