{"abi":[{"type":"constructor","inputs":[{"name":"_savingsRate","type":"uint256","internalType":"uint256"},{"name":"_token","type":"address","internalType":"address"},{"name":"_accessManager","type":"address","internalType":"address"}],"stateMutability":"nonpayable"},{"type":"function","name":"MODERATOR_ROLE","inputs":[],"outputs":[{"name":"","type":"bytes32","internalType":"bytes32"}],"stateMutability":"view"},{"type":"function","name":"accessManager","inputs":[],"outputs":[{"name":"","type":"address","internalType":"contract AccessManager"}],"stateMutability":"view"},{"type":"function","name":"claimReward","inputs":[],"outputs":[],"stateMutability":"nonpayable"},{"type":"function","name":"lockRupio","inputs":[{"name":"_amount","type":"uint256","internalType":"uint256"}],"outputs":[],"stateMutability":"nonpayable"},{"type":"function","name":"token","inputs":[],"outputs":[{"name":"","type":"address","internalType":"contract Rupio"}],"stateMutability":"view"},{"type":"function","name":"totalDeposited","inputs":[],"outputs":[{"name":"","type":"uint256","internalType":"uint256"}],"stateMutability":"view"},{"type":"function","name":"totalInvestersCount","inputs":[],"outputs":[{"name":"","type":"uint256","internalType":"uint256"}],"stateMutability":"view"},{"type":"function","name":"updateLockPeriod","inputs":[{"name":"value","type":"uint256","internalType":"uint256"}],"outputs":[],"stateMutability":"nonpayable"},{"type":"function","name":"updateSavingsRate","inputs":[{"name":"value","type":"uint256","internalType":"uint256"}],"outputs":[],"stateMutability":"nonpayable"},{"type":"function","name":"withdrawRupio","inputs":[{"name":"_amount","type":"uint256","internalType":"uint256"}],"outputs":[],"stateMutability":"nonpayable"}],"bytecode":{"object":"0x608034609257601f610b9538819003918201601f19168301916001600160401b03831184841017609757808492606094604052833981010312609257805160516040604b6020850160ad565b930160ad565b600080546001600160a01b039485166001600160a01b03199182161790915560039290925560018054919093169116179055604051610ad490816100c18239f35b600080fd5b634e487b7160e01b600052604160045260246000fd5b51906001600160a01b038216820360925756fe608080604052600436101561001357600080fd5b600090813560e01c9081630a618a421461097157508063797669c91461093657806391db7b0d146108b35780639b78f69f14610810578063ac2ff37114610554578063ade2be1014610305578063b88a802f146100ff578063fc0c546a146100d8578063fdcb6068146100af5763ff50abdc1461008f57600080fd5b346100ac57806003193601126100ac576020600454604051908152f35b80fd5b50346100ac57806003193601126100ac576001546040516001600160a01b039091168152602090f35b50346100ac57806003193601126100ac57546040516001600160a01b039091168152602090f35b50346100ac57806003193601126100ac573381526006602052806040812060405161012981610991565b8154815260086001830154926020830193845260028101546040840190815260ff60038301541660608501901515815260048301546080860190815260058401549160a0870192835260068501549360c088019485528660078701549660e08a019788520154986101008901998a52338b52600660205260408b2061016d60646102366040516101b881610991565b845481526102316201518061022560018801548060208601526002890154604086015260ff60038a01541615156060860152600860048a015499608087019a8b52600581015460a0880152600681015460c0880152600781015460e0880152015461010086015242610a7e565b04915160035490610a8b565b610a8b565b040490526102478451875190610a7e565b8088528652428a52338b52600660205260408b2098518955516001890155516002880155600387019051151560ff8019835416911617905551600486015551600585015551600684015551928360078401555191015560018060a01b03825416803b15610301576040516340c10f1960e01b8152336004820152602481019290925290919081908390604490829084905af180156102f4576102e65780f35b6102ef916109c4565b388180f35b50604051903d90823e3d90fd5b5050fd5b50346100ac5760203660031901126100ac576004353382526006602052604082209060405161033381610991565b82548152600183015491602082019283526002840154916040810192835260ff600386015416936060820194151580865260048701549660808401978852600581015460a0850190815260068201549060c08601918252600860078401549360e088019485520154936101008701948552610518576103b6855160025490610a5b565b42106104bc578a9960209961046a9960089760408e6103d68d8d51610a7e565b808d524285528d8852156104b3575b33815260068f522099518a555160018a0155516002890155600388019051151560ff801983541691161790555160048701555160058601555160068501555160078401555191015560018060a01b038454169060405194858094819363a9059cbb60e01b8352336004840160209093929193604081019460018060a01b031681520152565b03925af180156104a85761047c575080f35b61049d9060203d6020116104a1575b61049581836109c4565b8101906109e6565b5080f35b503d61048b565b6040513d84823e3d90fd5b600185526103e5565b60405162461bcd60e51b815260206004820152602e60248201527f776974686472617720796f757220746f6b656e20616674657220746865206c6f60448201526d636b20706572696f6420656e647360901b6064820152608490fd5b60405162461bcd60e51b8152602060048201526014602482015273596f75722062616c616e6365206973207a65726f60601b6044820152606490fd5b50346100ac5760203660031901126100ac5780546040516370a0823160e01b81523360048281019190915235916001600160a01b031690602081602481855afa801561080557839185916107cc575b501061078757602060449160405192838092636eb1769f60e11b82523360048301523060248301525afa801561077c5782918491610743575b50106106fe576040516105ee81610991565b8181526020810142815260408201848152606083018581526080840186815260a085019087825260c086019288845260e08701948986526101008801968a885261063a8a600454610a5b565b60045560055460001981146106ea57928b9a98959260209a98959260016008999601600555338d5260068c5260408d2099518a555160018a0155516002890155600388019051151560ff8019835416911617905551600487015551600586015551600685015551600784015551910155606460018060a01b038454169160405194859384926323b872dd60e01b845233600485015230602485015260448401525af180156104a85761047c575080f35b634e487b7160e01b8c52601160045260248cfd5b60405162461bcd60e51b815260206004820152601860248201527f4e6f742073756666696369656e7420616c6c6f77616e636500000000000000006044820152606490fd5b9150506020813d602011610774575b8161075f602093836109c4565b8101031261077057819051386105dc565b8280fd5b3d9150610752565b6040513d85823e3d90fd5b60405162461bcd60e51b815260206004820152601760248201527f596f7520646f6e74204861766520612062616c616e63650000000000000000006044820152606490fd5b9150506020813d6020116107fd575b816107e8602093836109c4565b810103126107f957829051386105a3565b8380fd5b3d91506107db565b6040513d86823e3d90fd5b50346100ac5760203660031901126100ac57600154604051632474521560e21b81527f71f3d55856e4058ed06ee057d79ada615f65cdf5f9ee88181b914225088f834f600482015233602482015290602090829060449082906001600160a01b03165afa80156104a85761088b918391610894575b50610a03565b60043560035580f35b6108ad915060203d6020116104a15761049581836109c4565b38610885565b50346100ac5760203660031901126100ac57600154604051632474521560e21b81527f71f3d55856e4058ed06ee057d79ada615f65cdf5f9ee88181b914225088f834f600482015233602482015290602090829060449082906001600160a01b03165afa80156104a85761092d9183916108945750610a03565b60043560025580f35b50346100ac57806003193601126100ac5760206040517f71f3d55856e4058ed06ee057d79ada615f65cdf5f9ee88181b914225088f834f8152f35b90503461098d578160031936011261098d576020906005548152f35b5080fd5b610120810190811067ffffffffffffffff8211176109ae57604052565b634e487b7160e01b600052604160045260246000fd5b90601f8019910116810190811067ffffffffffffffff8211176109ae57604052565b908160209103126109fe575180151581036109fe5790565b600080fd5b15610a0a57565b60405162461bcd60e51b8152602060048201526024808201527f4f776e6572206f6620746869732063616e2063616c6c20746869732066756e636044820152633a34b7b760e11b6064820152608490fd5b91908201809211610a6857565b634e487b7160e01b600052601160045260246000fd5b91908203918211610a6857565b81810292918115918404141715610a685756fea2646970667358221220cf83badf53e84163f57d7ae62966804084bd3bea622b2bc94b33254a5f7bacb764736f6c634300081a0033","linkReferences":{}},"methodIdentifiers":{"MODERATOR_ROLE()":"797669c9","accessManager()":"fdcb6068","claimReward()":"b88a802f","lockRupio(uint256)":"ac2ff371","token()":"fc0c546a","totalDeposited()":"ff50abdc","totalInvestersCount()":"0a618a42","updateLockPeriod(uint256)":"91db7b0d","updateSavingsRate(uint256)":"9b78f69f","withdrawRupio(uint256)":"ade2be10"},"id":90}