{"abi":[{"type":"constructor","inputs":[{"name":"_CRP","type":"uint256","internalType":"uint256"},{"name":"_BASE_RISK_RATE","type":"uint256","internalType":"uint256"},{"name":"_RISK_PREMIUM_RATE","type":"uint256","internalType":"uint256"},{"name":"_accessManager","type":"address","internalType":"address"},{"name":"_rupio","type":"address","internalType":"address"},{"name":"_priceContract","type":"address","internalType":"address"}],"stateMutability":"nonpayable"},{"type":"function","name":"BASE_RISK_RATE","inputs":[],"outputs":[{"name":"","type":"uint256","internalType":"uint256"}],"stateMutability":"view"},{"type":"function","name":"CRP","inputs":[],"outputs":[{"name":"","type":"uint256","internalType":"uint256"}],"stateMutability":"view"},{"type":"function","name":"MODERATOR_ROLE","inputs":[],"outputs":[{"name":"","type":"bytes32","internalType":"bytes32"}],"stateMutability":"view"},{"type":"function","name":"RISK_PREMIUM_RATE","inputs":[],"outputs":[{"name":"","type":"uint256","internalType":"uint256"}],"stateMutability":"view"},{"type":"function","name":"burnRupioAndRelieveCollateral","inputs":[{"name":"amount","type":"uint256","internalType":"uint256"}],"outputs":[],"stateMutability":"nonpayable"},{"type":"function","name":"checkUpkeep","inputs":[{"name":"","type":"bytes","internalType":"bytes"}],"outputs":[{"name":"upkeepNeeded","type":"bool","internalType":"bool"},{"name":"","type":"bytes","internalType":"bytes"}],"stateMutability":"view"},{"type":"function","name":"createOrUpdateVault","inputs":[],"outputs":[{"name":"vaultId","type":"uint256","internalType":"uint256"}],"stateMutability":"payable"},{"type":"function","name":"getAmountINRToETH","inputs":[{"name":"amountINR","type":"uint256","internalType":"uint256"}],"outputs":[{"name":"","type":"uint256","internalType":"uint256"}],"stateMutability":"view"},{"type":"function","name":"getBASE_RISK_RATE","inputs":[],"outputs":[{"name":"","type":"uint256","internalType":"uint256"}],"stateMutability":"view"},{"type":"function","name":"getCRP","inputs":[],"outputs":[{"name":"","type":"uint256","internalType":"uint256"}],"stateMutability":"view"},{"type":"function","name":"getCurrentVaultId","inputs":[],"outputs":[{"name":"","type":"uint256","internalType":"uint256"}],"stateMutability":"view"},{"type":"function","name":"getMaxMintableRupio","inputs":[{"name":"user","type":"address","internalType":"address"}],"outputs":[{"name":"","type":"uint256","internalType":"uint256"}],"stateMutability":"view"},{"type":"function","name":"getMaxWithdrawableCollateral","inputs":[{"name":"user","type":"address","internalType":"address"}],"outputs":[{"name":"","type":"uint256","internalType":"uint256"}],"stateMutability":"view"},{"type":"function","name":"getRISK_PREMIUM_RATE","inputs":[],"outputs":[{"name":"","type":"uint256","internalType":"uint256"}],"stateMutability":"view"},{"type":"function","name":"getTotalCollateralPrice","inputs":[],"outputs":[{"name":"","type":"int256","internalType":"int256"}],"stateMutability":"view"},{"type":"function","name":"getTotalVaultDetails","inputs":[],"outputs":[{"name":"","type":"tuple[]","internalType":"struct CollateralSafekeep.vault[]","components":[{"name":"vaultId","type":"uint256","internalType":"uint256"},{"name":"userAddress","type":"address","internalType":"address"},{"name":"balance","type":"uint256","internalType":"uint256"},{"name":"balanceInINR","type":"uint256","internalType":"uint256"},{"name":"rupioIssued","type":"uint256","internalType":"uint256"},{"name":"vaultHealth","type":"uint256","internalType":"uint256"}]}],"stateMutability":"view"},{"type":"function","name":"getUserBalanceInINR","inputs":[{"name":"_address","type":"address","internalType":"address"}],"outputs":[{"name":"","type":"uint256","internalType":"uint256"}],"stateMutability":"view"},{"type":"function","name":"getUserCollateralBalance","inputs":[{"name":"_address","type":"address","internalType":"address"}],"outputs":[{"name":"","type":"uint256","internalType":"uint256"}],"stateMutability":"view"},{"type":"function","name":"getVaultDetailsForTheUser","inputs":[],"outputs":[{"name":"","type":"tuple","internalType":"struct CollateralSafekeep.vault","components":[{"name":"vaultId","type":"uint256","internalType":"uint256"},{"name":"userAddress","type":"address","internalType":"address"},{"name":"balance","type":"uint256","internalType":"uint256"},{"name":"balanceInINR","type":"uint256","internalType":"uint256"},{"name":"rupioIssued","type":"uint256","internalType":"uint256"},{"name":"vaultHealth","type":"uint256","internalType":"uint256"}]}],"stateMutability":"view"},{"type":"function","name":"getVaultHealth","inputs":[{"name":"_user","type":"address","internalType":"address"}],"outputs":[{"name":"","type":"uint256","internalType":"uint256"}],"stateMutability":"view"},{"type":"function","name":"liquidateVault","inputs":[{"name":"_vaultAddress","type":"address","internalType":"address"}],"outputs":[],"stateMutability":"nonpayable"},{"type":"function","name":"mintRupio","inputs":[{"name":"amount","type":"uint256","internalType":"uint256"}],"outputs":[{"name":"","type":"uint256","internalType":"uint256"}],"stateMutability":"nonpayable"},{"type":"function","name":"performUpkeep","inputs":[{"name":"","type":"bytes","internalType":"bytes"}],"outputs":[],"stateMutability":"nonpayable"},{"type":"function","name":"scanVaults","inputs":[],"outputs":[],"stateMutability":"nonpayable"},{"type":"function","name":"userIndexes","inputs":[{"name":"","type":"address","internalType":"address"}],"outputs":[{"name":"","type":"uint256","internalType":"uint256"}],"stateMutability":"view"},{"type":"function","name":"withdrawFromVault","inputs":[{"name":"amount","type":"uint256","internalType":"uint256"}],"outputs":[],"stateMutability":"payable"},{"type":"event","name":"thisIsARiskyVault","inputs":[{"name":"vaultId","type":"uint256","indexed":false,"internalType":"uint256"},{"name":"userAddress","type":"address","indexed":false,"internalType":"address"},{"name":"balance","type":"uint256","indexed":false,"internalType":"uint256"},{"name":"balanceInINR","type":"uint256","indexed":false,"internalType":"uint256"},{"name":"rupioIssued","type":"uint256","indexed":false,"internalType":"uint256"},{"name":"vaultHealth","type":"uint256","indexed":false,"internalType":"uint256"}],"anonymous":false},{"type":"error","name":"CollateralSafeKeep__ETHAmountMustBeGreaterThanZero","inputs":[]},{"type":"error","name":"CollateralSafekeep__UpkeepNotNeeded","inputs":[]},{"type":"error","name":"CollateralSafekeep__UserInDebt","inputs":[]},{"type":"error","name":"ReentrancyGuardReentrantCall","inputs":[]}],"bytecode":{"object":"0x60e0604052346101f257604051601f61195e38819003918201601f19168301916001600160401b038311848410176101dc5780849260c0946040528339810103126101f257805160208201519060408301519261005e606082016101f7565b9061007760a0610070608084016101f7565b92016101f7565b600160008190556003819055600480546001600160a01b03199081166001600160a01b039687161790915560058054821694861694909417909355600680549093169390911692909217905542905560805260a05260c09081526040519081016001600160401b038111828210176101dc576040526000815260208101600081526040820160008152606083016000815260808401906000825260a08501926000845260075494680100000000000000008610156101dc5760018601806007558610156101c65760059560076000526006602060002091020196518755600187019060018060a01b0390511660018060a01b031982541617905551600286015551600385015551600484015551910155604051611752908161020c823960805181818161080801528181610e65015281816113a101526116ed015260a05181610e2a015260c05181610d990152f35b634e487b7160e01b600052603260045260246000fd5b634e487b7160e01b600052604160045260246000fd5b600080fd5b51906001600160a01b03821682036101f25756fe6080604052600436101561001257600080fd5b6000803560e01c908163076d081514610c29578163188afb7414610a76578163194d7494146109635781632b5e4fa114610798578163310e84b514610603578163314860f8146107685781633f3d2a88146106d15781634585e33b146106b95781634a83cf49146106895781636653b8171461066b5781636e04ff0d146106085781637649aef114610603578163797669c9146105c9578163839159fb1461013d5781639210ae64146105995781639dc1b45b1461057c578163ab84541314610533578163ae0b163f14610516578163b2088164146104de578163b603540f1461049e578163bb8281321461028b578163c48589cb14610165578163d7bf2aef1461014757508063ea6cfd4a14610142578063eaa45b42146101425763fb5989a61461013d57600080fd5b610e12565b610e4d565b3461016257806003193601126101625761015f61105b565b80f35b80fd5b3461016257806003193601126101625760075467ffffffffffffffff81116102775760405161019a60208360051b0182610f73565b818152600783526020810191837fa66cc928b5edb82af9bd49922954155ab7b0942694bea4ce44661d9a8736c688845b83831061025957868587604051928392602084019060208552518091526040840192915b8181106101fc575050500390f35b91935091602060c08261024b600194885160a0809180518452600180831b0360208201511660208501526040810151604085015260608101516060850152608081015160808501520151910152565b0194019101918493926101ee565b6006602060019261026985610ff9565b8152019201920191906101ca565b634e487b7160e01b82526041600452602482fd5b8060031936011261016257341561048f5733815260086020526040812054610405576102b5610fc8565b906040820134815260208301903382526003548452608084018381526102da34611481565b916064830292808404606414901517156103f15760a086019283526102fe34611481565b9060608701918252600754680100000000000000008110156103dd5780600161032a9201600755610ee9565b9590956103c9576005959697518755600187019060018060a01b039051166bffffffffffffffffffffffff60a01b825416179055516002860155516003850155516004840155519101556003543382526008602052806040832055600181018091116103b55760406020926103ab926003555b338152600884522054610ee9565b5054604051908152f35b634e487b7160e01b82526011600452602482fd5b634e487b7160e01b87526004879052602487fd5b634e487b7160e01b87526041600452602487fd5b634e487b7160e01b85526011600452602485fd5b6103ab604060209233815260088452600261042283832054610ee9565b500161042f348254610f95565b905533815260088452610451600261044984842054610ee9565b500154611481565b33825260088552600361046684842054610ee9565b50015561047233611256565b33825260088552600561048784842054610ee9565b50015561039d565b6316670b4760e21b8152600490fd5b34610162576020366003190112610162576004356001600160a01b038116908190036104da578160409160209352600883522054604051908152f35b5080fd5b3461016257602036600319011261016257600435906001600160a01b038216820361016257602061050e83611568565b604051908152f35b346101625780600319360112610162576020600354604051908152f35b34610162576020366003190112610162576004356001600160a01b038116908190036104da5761057160408360029360209552600885522054610ee9565b500154604051908152f35b346101625780600319360112610162576020600254604051908152f35b3461016257602036600319011261016257600435906001600160a01b038216820361016257602061050e836112e8565b3461016257806003193601126101625760206040517f71f3d55856e4058ed06ee057d79ada615f65cdf5f9ee88181b914225088f834f8152f35b610d81565b346101625761061636610dc1565b50506040519060018252604060208301528160605191826040830152805b838110610654575091606092838284010152601f80199101168101030190f35b608081015185820160600152849250602001610634565b3461016257602036600319011261016257602061050e6004356115f3565b3461016257602036600319011261016257600435906001600160a01b038216820361016257602061050e83611256565b34610162576106c736610dc1565b505061015f61105b565b3461016257806003193601126101625761072061071a604060c0936106f4610fc8565b50338152600860205261070b828220541515610e88565b33815260086020522054610ee9565b50610ff9565b610766604051809260a0809180518452600180831b0360208201511660208501526040810151604085015260608101516060850152608081015160808501520151910152565bf35b3461016257602036600319011261016257600435906001600160a01b038216820361016257602061050e83610fa2565b346101625760203660031901126101625760043533825260086020526107c360408320541515610e88565b8015610954576107d233611256565b338352600860205260056107e96040852054610ee9565b500155338252600860205260056108036040842054610ee9565b5001547f000000000000000000000000000000000000000000000000000000000000000010156109455761083633611568565b9081811015610901576005546001600160a01b0316803b156108fd576040516340c10f1960e01b8152336004820152602481018390529084908290604490829084905af180156108f2576108d9575b5091602092338252600884526108ad60046108a36040852054610ee9565b5001918254610f95565b905560056108ce60406108bf33611256565b93338152600887522054610ee9565b500155604051908152f35b6108e4848092610f73565b6108ee5783610885565b8280fd5b6040513d86823e3d90fd5b8380fd5b606460405162461bcd60e51b815260206004820152602060248201527f656e74657220616d6f756e74206c657373207468616e204352502063726f73736044820152fd5b637f8953f760e01b8252600482fd5b6316670b4760e21b8252600482fd5b34610162576020366003190112610162576004356001600160a01b03811603610162576044602060018060a01b036004541660405192838092632474521560e21b82527f71f3d55856e4058ed06ee057d79ada615f65cdf5f9ee88181b914225088f834f60048301523360248301525afa908115610a6b578291610a30575b50156109eb5780f35b60405162461bcd60e51b815260206004820152601860248201527f4d7573742068617665204d4f44455241544f525f524f4c4500000000000000006044820152606490fd5b90506020813d602011610a63575b81610a4b60209383610f73565b810103126104da575180151581036104da57826109e2565b3d9150610a3e565b6040513d84823e3d90fd5b3461016257602036600319011261016257600435903381526008602052610aa260408220541515610e88565b610aab33611256565b33825260086020526005610ac26040842054610ee9565b50015533815260086020526004610adc6040832054610ee9565b50015415610bed573381526008602052816004610afc6040842054610ee9565b50015410610ba8576005546001600160a01b0316803b156104da5760405163079cc67960e41b8152336004820152602481018490529082908290604490829084905af18015610a6b57610b98575b50903382526008602052610b706004610b666040852054610ee9565b5001918254610f1e565b9055610b7b33611256565b33825260086020526005610b926040842054610ee9565b50015580f35b81610ba291610f73565b82610b4a565b60405162461bcd60e51b815260206004820152601b60248201527f4c65737320616d6f756e74206f6620727570696f2069737375656400000000006044820152606490fd5b60405162461bcd60e51b8152602060048201526014602482015273273790393ab834b79034b9b9bab2b2103cb2ba1760611b6044820152606490fd5b6020366003190112610162576004353382526008602052610c4f60408320541515610e88565b610c5833611256565b33835260086020526005610c6f6040852054610ee9565b5001558015610954573382526008602052806002610c906040852054610ee9565b50015410610d3c57338252600860205260966005610cb16040852054610ee9565b500154111561094557610cc3336112e8565b81116109455781808080843382f115610d2f573382526008602052610cf06002610b666040852054610ee9565b90553381526008602052610d0c60026104496040842054610ee9565b33825260086020526003610d236040842054610ee9565b500155610b7b33611256565b50604051903d90823e3d90fd5b60405162461bcd60e51b815260206004820152601d60248201527f696e73756666696369656e742062616c616e636520696e207661756c740000006044820152606490fd5b34610dbc576000366003190112610dbc5760206040517f00000000000000000000000000000000000000000000000000000000000000008152f35b600080fd5b906020600319830112610dbc5760043567ffffffffffffffff8111610dbc5782602382011215610dbc5780600401359267ffffffffffffffff8411610dbc5760248483010111610dbc576024019190565b34610dbc576000366003190112610dbc5760206040517f00000000000000000000000000000000000000000000000000000000000000008152f35b34610dbc576000366003190112610dbc5760206040517f00000000000000000000000000000000000000000000000000000000000000008152f35b15610e8f57565b60405162461bcd60e51b815260206004820152602c60248201527f596f7520646f6e7420686176652061205661756c742c2063726561746520612060448201526b7661756c742066697273742160a01b6064820152608490fd5b600754811015610f085760076000526006602060002091020190600090565b634e487b7160e01b600052603260045260246000fd5b91908203918211610f2b57565b634e487b7160e01b600052601160045260246000fd5b60c0810190811067ffffffffffffffff821117610f5d57604052565b634e487b7160e01b600052604160045260246000fd5b90601f8019910116810190811067ffffffffffffffff821117610f5d57604052565b91908201809211610f2b57565b60018060a01b03166000526008602052610fc56002610449604060002054610ee9565b90565b60405190610fd582610f41565b600060a0838281528260208201528260408201528260608201528260808201520152565b9060405161100681610f41565b8254815260018301546001600160a01b0316602082015260028301546040820152600383015460608201526004830154608082015260059092015460a0830152565b81810292918115918404141715610f2b57565b60075460005b81811061106c575050565b61108b61107882610ee9565b50600101546001600160a01b0316610fa2565b600361109683610ee9565b5001556110b86110a582610ee9565b50600101546001600160a01b0316611256565b60056110c383610ee9565b5001556110e56110d282610ee9565b50600101546001600160a01b03166116e2565b506110ef81610ee9565b50506044602060018060a01b036004541660405192838092632474521560e21b82527f71f3d55856e4058ed06ee057d79ada615f65cdf5f9ee88181b914225088f834f60048301523360248301525afa90811561122a576000916111f0575b50156109eb57807f5c0ddc9ba6a3ee218f8b0b2e6583514fb1a2403fc52dd2adb715d5cb41ab1a2060c0611183600194610ee9565b5084808060a01b0391015416600261119a85610ee9565b50015460036111a886610ee9565b50015460046111b687610ee9565b5001549060056111c588610ee9565b5001549260405194888652602086015260408501526060840152608083015260a0820152a101611061565b6020813d8211611222575b8161120860209383610f73565b810103126104da575190811515820361016257503861114e565b3d91506111fb565b6040513d6000823e3d90fd5b8115611240570490565b634e487b7160e01b600052601260045260246000fd5b6001600160a01b031660008181526008602052604090205460039061127a90610ee9565b5001549060005260086020526004611296604060002054610ee9565b500154806112b55750606481029080820460641490151715610f2b5790565b6305f5e10081029081046305f5e10003610f2b576112d291611236565b606481029080820460641490151715610f2b5790565b6001600160a01b031660008181526008602052604090205460039061130c90610ee9565b500154908060005260086020526004611329604060002054610ee9565b500154908060005260086020526004611346604060002054610ee9565b5001546305f5e1008102908082046305f5e1001490151715610f2b57816000526008602052600361137b604060002054610ee9565b5001541115611449576000526008602052600561139c604060002054610ee9565b5001547f0000000000000000000000000000000000000000000000000000000000000000101561141257806113d55750610fc5906115f3565b60038102908104600303610f2b5760011c906305f5e1008202918083046305f5e1001490151715610f2b57610fc59161140d91610f1e565b6115f3565b60405162461bcd60e51b815260206004820152600f60248201526e1e5bdd48185c99481a5b881919589d608a1b6044820152606490fd5b60405162461bcd60e51b815260206004820152601060248201526f796f752061726520696e20646562742160801b6044820152606490fd5b600654604051639bd713cf60e01b81526001600160a01b0390911691602082600481865afa91821561122a57600092611531575b5060206004936040519485809263693cf00560e11b82525afa92831561122a576000936114fb575b50916114f26114f7926402540be40094611048565b611236565b0490565b92506020833d602011611529575b8161151660209383610f73565b81010312610dbc579151916114f26114dd565b3d9150611509565b9291506020833d602011611560575b8161154d60209383610f73565b81010312610dbc579151909160206114b5565b3d9150611540565b60018060a01b03168060005260086020526096600561158b604060002054610ee9565b500154106115ed578060005260086020526115af6002610449604060002054610ee9565b90600052600860205260046115c8604060002054610ee9565b5001548160011b9180830460021490151715610f2b576311e1a300610fc59204610f1e565b50600090565b600654604051639bd713cf60e01b8152906001600160a01b0316602082600481845afa91821561122a576000926116ad575b5060206004916040519283809263693cf00560e11b82525afa90811561122a57600091611679575b5061165b926114f291611048565b6402540be4008102908082046402540be4001490151715610f2b5790565b90506020813d6020116116a5575b8161169460209383610f73565b81010312610dbc575161165b61164d565b3d9150611687565b9091506020813d6020116116da575b816116c960209383610f73565b81010312610dbc5751906020611625565b3d91506116bc565b6116eb90611256565b7f0000000000000000000000000000000000000000000000000000000000000000101561171757600090565b60019056fea26469706673582212206a19e41a67d495e708f49822563f028176df835ccda888cb226ca12e7641c23564736f6c634300081a0033","linkReferences":{}},"methodIdentifiers":{"BASE_RISK_RATE()":"839159fb","CRP()":"ea6cfd4a","MODERATOR_ROLE()":"797669c9","RISK_PREMIUM_RATE()":"310e84b5","burnRupioAndRelieveCollateral(uint256)":"188afb74","checkUpkeep(bytes)":"6e04ff0d","createOrUpdateVault()":"bb828132","getAmountINRToETH(uint256)":"6653b817","getBASE_RISK_RATE()":"fb5989a6","getCRP()":"eaa45b42","getCurrentVaultId()":"ae0b163f","getMaxMintableRupio(address)":"b2088164","getMaxWithdrawableCollateral(address)":"9210ae64","getRISK_PREMIUM_RATE()":"7649aef1","getTotalCollateralPrice()":"9dc1b45b","getTotalVaultDetails()":"c48589cb","getUserBalanceInINR(address)":"314860f8","getUserCollateralBalance(address)":"ab845413","getVaultDetailsForTheUser()":"3f3d2a88","getVaultHealth(address)":"4a83cf49","liquidateVault(address)":"194d7494","mintRupio(uint256)":"2b5e4fa1","performUpkeep(bytes)":"4585e33b","scanVaults()":"d7bf2aef","userIndexes(address)":"b603540f","withdrawFromVault(uint256)":"076d0815"},"id":81}