{"abi":[{"type":"constructor","inputs":[{"name":"_CRP","type":"uint256","internalType":"uint256"},{"name":"_BASE_RISK_RATE","type":"uint256","internalType":"uint256"},{"name":"_RISK_PREMIUM_RATE","type":"uint256","internalType":"uint256"},{"name":"_accessManager","type":"address","internalType":"address"},{"name":"_rupio","type":"address","internalType":"address"},{"name":"_priceContract","type":"address","internalType":"address"}],"stateMutability":"nonpayable"},{"type":"function","name":"BASE_RISK_RATE","inputs":[],"outputs":[{"name":"","type":"uint256","internalType":"uint256"}],"stateMutability":"view"},{"type":"function","name":"CRP","inputs":[],"outputs":[{"name":"","type":"uint256","internalType":"uint256"}],"stateMutability":"view"},{"type":"function","name":"MODERATOR_ROLE","inputs":[],"outputs":[{"name":"","type":"bytes32","internalType":"bytes32"}],"stateMutability":"view"},{"type":"function","name":"RISK_PREMIUM_RATE","inputs":[],"outputs":[{"name":"","type":"uint256","internalType":"uint256"}],"stateMutability":"view"},{"type":"function","name":"burnRupioAndRelieveCollateral","inputs":[{"name":"amount","type":"uint256","internalType":"uint256"}],"outputs":[],"stateMutability":"nonpayable"},{"type":"function","name":"checkUpkeep","inputs":[{"name":"","type":"bytes","internalType":"bytes"}],"outputs":[{"name":"upkeepNeeded","type":"bool","internalType":"bool"},{"name":"","type":"bytes","internalType":"bytes"}],"stateMutability":"view"},{"type":"function","name":"createOrUpdateVault","inputs":[],"outputs":[{"name":"vaultId","type":"uint256","internalType":"uint256"}],"stateMutability":"payable"},{"type":"function","name":"getAmountINRToETH","inputs":[{"name":"amountINR","type":"uint256","internalType":"uint256"}],"outputs":[{"name":"","type":"uint256","internalType":"uint256"}],"stateMutability":"view"},{"type":"function","name":"getBASE_RISK_RATE","inputs":[],"outputs":[{"name":"","type":"uint256","internalType":"uint256"}],"stateMutability":"view"},{"type":"function","name":"getCRP","inputs":[],"outputs":[{"name":"","type":"uint256","internalType":"uint256"}],"stateMutability":"view"},{"type":"function","name":"getCurrentVaultId","inputs":[],"outputs":[{"name":"","type":"uint256","internalType":"uint256"}],"stateMutability":"view"},{"type":"function","name":"getMaxMintableRupio","inputs":[{"name":"user","type":"address","internalType":"address"}],"outputs":[{"name":"","type":"uint256","internalType":"uint256"}],"stateMutability":"view"},{"type":"function","name":"getMaxWithdrawableCollateral","inputs":[{"name":"user","type":"address","internalType":"address"}],"outputs":[{"name":"","type":"uint256","internalType":"uint256"}],"stateMutability":"view"},{"type":"function","name":"getRISK_PREMIUM_RATE","inputs":[],"outputs":[{"name":"","type":"uint256","internalType":"uint256"}],"stateMutability":"view"},{"type":"function","name":"getTotalCollateralPrice","inputs":[],"outputs":[{"name":"","type":"int256","internalType":"int256"}],"stateMutability":"view"},{"type":"function","name":"getTotalVaultDetails","inputs":[],"outputs":[{"name":"","type":"tuple[]","internalType":"struct CollateralSafekeep.vault[]","components":[{"name":"vaultId","type":"uint256","internalType":"uint256"},{"name":"userAddress","type":"address","internalType":"address"},{"name":"balance","type":"uint256","internalType":"uint256"},{"name":"balanceInINR","type":"uint256","internalType":"uint256"},{"name":"rupioIssued","type":"uint256","internalType":"uint256"},{"name":"vaultHealth","type":"uint256","internalType":"uint256"}]}],"stateMutability":"view"},{"type":"function","name":"getUserBalanceInINR","inputs":[{"name":"_address","type":"address","internalType":"address"}],"outputs":[{"name":"","type":"uint256","internalType":"uint256"}],"stateMutability":"view"},{"type":"function","name":"getUserCollateralBalance","inputs":[{"name":"_address","type":"address","internalType":"address"}],"outputs":[{"name":"","type":"uint256","internalType":"uint256"}],"stateMutability":"view"},{"type":"function","name":"getVaultDetailsForTheUser","inputs":[],"outputs":[{"name":"","type":"tuple","internalType":"struct CollateralSafekeep.vault","components":[{"name":"vaultId","type":"uint256","internalType":"uint256"},{"name":"userAddress","type":"address","internalType":"address"},{"name":"balance","type":"uint256","internalType":"uint256"},{"name":"balanceInINR","type":"uint256","internalType":"uint256"},{"name":"rupioIssued","type":"uint256","internalType":"uint256"},{"name":"vaultHealth","type":"uint256","internalType":"uint256"}]}],"stateMutability":"view"},{"type":"function","name":"getVaultHealth","inputs":[{"name":"_user","type":"address","internalType":"address"}],"outputs":[{"name":"","type":"uint256","internalType":"uint256"}],"stateMutability":"view"},{"type":"function","name":"liquidateVault","inputs":[{"name":"_vaultAddress","type":"address","internalType":"address"}],"outputs":[],"stateMutability":"nonpayable"},{"type":"function","name":"mintRupio","inputs":[{"name":"amount","type":"uint256","internalType":"uint256"},{"name":"chainEid","type":"uint32","internalType":"uint32"}],"outputs":[{"name":"","type":"uint256","internalType":"uint256"}],"stateMutability":"nonpayable"},{"type":"function","name":"performUpkeep","inputs":[{"name":"","type":"bytes","internalType":"bytes"}],"outputs":[],"stateMutability":"nonpayable"},{"type":"function","name":"scanVaults","inputs":[],"outputs":[],"stateMutability":"nonpayable"},{"type":"function","name":"userIndexes","inputs":[{"name":"","type":"address","internalType":"address"}],"outputs":[{"name":"","type":"uint256","internalType":"uint256"}],"stateMutability":"view"},{"type":"function","name":"withdrawFromVault","inputs":[{"name":"amount","type":"uint256","internalType":"uint256"}],"outputs":[],"stateMutability":"payable"},{"type":"event","name":"thisIsARiskyVault","inputs":[{"name":"vaultId","type":"uint256","indexed":false,"internalType":"uint256"},{"name":"userAddress","type":"address","indexed":false,"internalType":"address"},{"name":"balance","type":"uint256","indexed":false,"internalType":"uint256"},{"name":"balanceInINR","type":"uint256","indexed":false,"internalType":"uint256"},{"name":"rupioIssued","type":"uint256","indexed":false,"internalType":"uint256"},{"name":"vaultHealth","type":"uint256","indexed":false,"internalType":"uint256"}],"anonymous":false},{"type":"error","name":"CollateralSafeKeep__ETHAmountMustBeGreaterThanZero","inputs":[]},{"type":"error","name":"CollateralSafekeep__UpkeepNotNeeded","inputs":[]},{"type":"error","name":"CollateralSafekeep__UserInDebt","inputs":[]},{"type":"error","name":"InvalidOptionType","inputs":[{"name":"optionType","type":"uint16","internalType":"uint16"}]},{"type":"error","name":"ReentrancyGuardReentrantCall","inputs":[]},{"type":"error","name":"SafeCastOverflowedUintDowncast","inputs":[{"name":"bits","type":"uint8","internalType":"uint8"},{"name":"value","type":"uint256","internalType":"uint256"}]}],"bytecode":{"object":"0x60e0604052346101f257604051601f611f8638819003918201601f19168301916001600160401b038311848410176101dc5780849260c0946040528339810103126101f257805160208201519060408301519261005e606082016101f7565b9061007760a0610070608084016101f7565b92016101f7565b600160008190556003819055600480546001600160a01b03199081166001600160a01b039687161790915560058054821694861694909417909355600680549093169390911692909217905542905560805260a05260c09081526040519081016001600160401b038111828210176101dc576040526000815260208101600081526040820160008152606083016000815260808401906000825260a08501926000845260075494680100000000000000008610156101dc5760018601806007558610156101c65760059560076000526006602060002091020196518755600187019060018060a01b0390511660018060a01b031982541617905551600286015551600385015551600484015551910155604051611d7a908161020c8239608051818181610bee01528181610ed8015281816118f10152611b9c015260a051816107c7015260c051816105640152f35b634e487b7160e01b600052603260045260246000fd5b634e487b7160e01b600052604160045260246000fd5b600080fd5b51906001600160a01b03821682036101f25756fe6080604052600436101561001257600080fd5b60003560e01c8063076d0815146101a8578063188afb74146101a3578063194d74941461019e578063310e84b51461017b578063314860f8146101995780633f3d2a88146101945780634585e33b1461018f5780634a83cf491461018a5780636653b817146101855780636e04ff0d146101805780637649aef11461017b578063797669c914610176578063839159fb1461013a5780639210ae64146101715780639dc1b45b1461016c578063ab84541314610167578063ae0b163f14610162578063b20881641461015d578063b603540f14610158578063bb82813214610153578063c48589cb1461014e578063d7bf2aef14610149578063d91569ad14610144578063ea6cfd4a1461013f578063eaa45b421461013f5763fb5989a61461013a57600080fd5b6107af565b610ec0565b610b59565b610b40565b610aa0565b6108c1565b610892565b61087a565b61085c565b610820565b610802565b6107ea565b610774565b61054c565b61072b565b6106c5565b6106ad565b610695565b6105a7565b610587565b61049b565b610333565b602036600319011261032e576004353360005260086020526101d06040600020541515610efb565b6101d933611739565b3360009081526008602052604090206005906101f6905b54610f72565b5001558080156102068115610fb2565b336000908152600860205260409020610231908390600290610227906101f0565b5001541015610fca565b33600090815260086020526040902061025c90609690600590610253906101f0565b50015411611016565b6102706102683361181e565b831115611016565b600090610325575b600080809381933390f115610320573360009081526008602052604090206102b0906002906102a6906101f0565b5001918254611050565b90553360009081526008602052604090206102d9906002906102d1906101f0565b500154611960565b3360009081526008602052604090206003906102f4906101f0565b50015561030033611739565b33600090815260086020526040902060059061031b906101f0565b500155005b61102e565b506108fc610278565b600080fd5b3461032e57602036600319011261032e576004353360005260086020526103606040600020541515610efb565b61036933611739565b336000908152600860205260409020600590610384906101f0565b5001553360009081526008602052604090206103b0906004906103a6906101f0565b5001541515611062565b3360009081526008602052604090206103db9082906004906103d1906101f0565b50015410156110a5565b6005546103f8906001600160a01b03165b6001600160a01b031690565b803b1561032e5760405163079cc67960e41b815233600482015260248101839052906000908290604490829084905af180156103205761045e575b50336000908152600860205260409020610453906004906102a6906101f0565b905561030033611739565b8061046d600061047393611123565b80610541565b38610433565b602090600319011261032e576004356001600160a01b038116810361032e5790565b3461032e576104a936610479565b506044602060018060a01b036004541660405192838092632474521560e21b82527f71f3d55856e4058ed06ee057d79ada615f65cdf5f9ee88181b914225088f834f60048301523360248301525afa80156103205761051091600091610512575b5061115d565b005b610534915060203d60201161053a575b61052c8183611123565b810190611145565b3861050a565b503d610522565b600091031261032e57565b3461032e57600036600319011261032e5760206040517f00000000000000000000000000000000000000000000000000000000000000008152f35b3461032e57602061059f61059a36610479565b611210565b604051908152f35b3461032e57600036600319011261032e576105c0611245565b503360005260086020526105da6040600020541515610efb565b33600052600860205260c06105fc6105f6604060002054610f72565b50611276565b610642604051809260a0809180518452600180831b0360208201511660208501526040810151604085015260608101516060850152608081015160808501520151910152565bf35b90602060031983011261032e5760043567ffffffffffffffff811161032e578260238201121561032e5780600401359267ffffffffffffffff841161032e576024848301011161032e576024019190565b3461032e576106a336610644565b5050610510611405565b3461032e57602061059f6106c036610479565b611739565b3461032e57602036600319011261032e57602061059f600435611a3d565b60005b8381106106f65750506000910152565b81810151838201526020016106e6565b9060209161071f815180928185528580860191016106e3565b601f01601f1916010190565b3461032e5761073936610644565b5050604051600181526040602082015260208160406060518082840152610765816060850160806106e3565b601f01601f1916820101030190f35b3461032e57600036600319011261032e5760206040517f71f3d55856e4058ed06ee057d79ada615f65cdf5f9ee88181b914225088f834f8152f35b3461032e57600036600319011261032e5760206040517f00000000000000000000000000000000000000000000000000000000000000008152f35b3461032e57602061059f6107fd36610479565b61181e565b3461032e57600036600319011261032e576020600254604051908152f35b3461032e576001600160a01b0361083636610479565b16600052600860205260206002610851604060002054610f72565b500154604051908152f35b3461032e57600036600319011261032e576020600354604051908152f35b3461032e57602061059f61088d36610479565b611af9565b3461032e576001600160a01b036108a836610479565b1660005260086020526020604060002054604051908152f35b600036600319011261032e576108d8341515610fb2565b33600090815260086020526040902054610990576109386108f7611245565b34604082015233602082015260035481526000608082015261092061091b34611960565b6112e0565b60a082015261092e34611960565b606082015261136f565b6003543360009081526008602052604090205561095e6109596003546112c5565b600355565b33600090815260086020526040902061098c9061097a906101f0565b50546040519081529081906020820190565b0390f35b3360009081526008602052604090206002906109ab906101f0565b50016109b83482546112d3565b90553360009081526008602052604090206109d9906002906102d1906101f0565b3360009081526008602052604090206003906109f4906101f0565b500155610a0033611739565b336000908152600860205260409020600590610a1b906101f0565b50015561095e565b602060408183019282815284518094520192019060005b818110610a475750505090565b909192602060c082610a95600194885160a0809180518452600180831b0360208201511660208501526040810151604085015260608101516060850152608081015160808501520151910152565b019401929101610a3a565b3461032e57600036600319011261032e5760075467ffffffffffffffff8111610b3b5760405190610ad760208260051b0183611123565b8082526020820160076000527fa66cc928b5edb82af9bd49922954155ab7b0942694bea4ce44661d9a8736c6886000915b838310610b1d576040518061098c8782610a23565b60066020600192610b2d85611276565b815201920192019190610b08565b6110f1565b3461032e57600036600319011261032e57610510611405565b3461032e57604036600319011261032e5760043560243563ffffffff81169081810361032e57336000526008602052610b986040600020541515610efb565b610ba3831515610fb2565b610bac33611739565b336000908152600860205260409020600590610bc7906101f0565b500155336000908152600860205260409020610c1390600590610be9906101f0565b5001547f000000000000000000000000000000000000000000000000000000000000000010611016565b610c1c33611af9565b91610c2883851061153c565b610cfc5750600554610c42906001600160a01b03166103ec565b91823b1561032e576040516340c10f1960e01b815233600482015260248101829052926000908490604490829084905af19283156103205761098c93610ce7575b505b336000908152600860205260409020610cae90600490610ca4906101f0565b50019182546112d3565b9055610cb933611739565b336000908152600860205260409020600590610cd4906101f0565b5001556040519081529081906020820190565b8061046d6000610cf693611123565b38610c83565b600554909290610d14906001600160a01b03166103ec565b803b1561032e576040516340c10f1960e01b815233600482015260248101839052906000908290604490829084905af1801561032057610eab575b50610d60610d5b611bcb565b611be7565b610d69336103ec565b610d7c610d75846112f6565b600a900490565b90610d94610d88611236565b63ffffffff9097168752565b602086015282604086015260608501526080840152610db16115a7565b60a0840152610dbe6115a7565b60c0840152600554610dd8906001600160a01b03166103ec565b60408051633b6f743b60e01b81529194908280610df88460048301611676565b0381885afa94851561032057610e349560c093600091610e7c575b50805160405180988195829463c7c7f5b360e01b8452339160048501611704565b03925af19283156103205761098c93610e4e575b50610c85565b610e6f9060c03d60c011610e75575b610e678183611123565b810190611693565b50610e48565b503d610e5d565b610e9e915060403d604011610ea4575b610e968183611123565b8101906115f5565b38610e13565b503d610e8c565b8061046d6000610eba93611123565b38610d4f565b3461032e57600036600319011261032e5760206040517f00000000000000000000000000000000000000000000000000000000000000008152f35b15610f0257565b60405162461bcd60e51b815260206004820152602c60248201527f596f7520646f6e7420686176652061205661756c742c2063726561746520612060448201526b7661756c742066697273742160a01b6064820152608490fd5b634e487b7160e01b600052603260045260246000fd5b600754811015610f915760076000526006602060002091020190600090565b610f5c565b8054821015610f91576000526006602060002091020190600090565b15610fb957565b6316670b4760e21b60005260046000fd5b15610fd157565b60405162461bcd60e51b815260206004820152601d60248201527f696e73756666696369656e742062616c616e636520696e207661756c740000006044820152606490fd5b1561101d57565b637f8953f760e01b60005260046000fd5b6040513d6000823e3d90fd5b634e487b7160e01b600052601160045260246000fd5b9190820391821161105d57565b61103a565b1561106957565b60405162461bcd60e51b8152602060048201526014602482015273273790393ab834b79034b9b9bab2b2103cb2ba1760611b6044820152606490fd5b156110ac57565b60405162461bcd60e51b815260206004820152601b60248201527f4c65737320616d6f756e74206f6620727570696f2069737375656400000000006044820152606490fd5b634e487b7160e01b600052604160045260246000fd5b60c0810190811067ffffffffffffffff821117610b3b57604052565b90601f8019910116810190811067ffffffffffffffff821117610b3b57604052565b9081602091031261032e5751801515810361032e5790565b1561116457565b60405162461bcd60e51b815260206004820152601860248201527f4d7573742068617665204d4f44455241544f525f524f4c4500000000000000006044820152606490fd5b6044602060018060a01b036004541660405192838092632474521560e21b82527f71f3d55856e4058ed06ee057d79ada615f65cdf5f9ee88181b914225088f834f60048301523360248301525afa80156103205761120e91600091610512575061115d565b565b60018060a01b0316600052600860205261123360026102d1604060002054610f72565b90565b6040519061120e60e083611123565b6040519061125282611107565b600060a0838281528260208201528260408201528260608201528260808201520152565b9060405161128381611107565b8254815260018301546001600160a01b0316602082015260028301546040820152600383015460608201526004830154608082015260059092015460a0830152565b906001820180921161105d57565b9190820180921161105d57565b9060648202918083046064149015171561105d57565b9060098202918083046009149015171561105d57565b906305f5e1008202918083046305f5e100149015171561105d57565b9060038202918083046003149015171561105d57565b906402540be4008202918083046402540be400149015171561105d57565b8181029291811591840414171561105d57565b60075468010000000000000000811015610b3b5780600161139592016007556007610f96565b9190916113ef5760a08160059251845560018401600180841b036020830151166bffffffffffffffffffffffff841b8254161790556040810151600285015560608101516003850155608081015160048501550151910155565b634e487b7160e01b600052600060045260246000fd5b60075460005b818110611416575050565b8061143861059a60016114298195610f72565b5001546001600160a01b031690565b600361144383610f72565b5001556114566106c08361142984610f72565b600561146183610f72565b5001556114796114748361142984610f72565b611b91565b5061148381610f72565b505061148d6111a9565b7f5c0ddc9ba6a3ee218f8b0b2e6583514fb1a2403fc52dd2adb715d5cb41ab1a206114bb8361142984610f72565b60026114c684610f72565b5001549061153360036114d886610f72565b50015460046114e687610f72565b50015460056114f488610f72565b500154604080518981526001600160a01b0390961660208701528501959095526060840191909152608083015260a082019290925290819060c0820190565b0390a10161140b565b1561154357565b606460405162461bcd60e51b815260206004820152602060248201527f656e74657220616d6f756e74206c657373207468616e204352502063726f73736044820152fd5b8115611591570490565b634e487b7160e01b600052601260045260246000fd5b604051906115b6602083611123565b60008252565b919082604091031261032e576040516040810181811067ffffffffffffffff821117610b3b576040526020808294805184520151910152565b9060408282031261032e57611233916115bc565b6112339163ffffffff825116815260208201516020820152604082015160408201526060820151606082015260c0611665611653608085015160e0608086015260e0850190610706565b60a085015184820360a0860152610706565b9201519060c0818403910152610706565b9190602061168e600092604086526040860190611609565b930152565b919082810360c0811261032e5760801361032e57604051906060820182811067ffffffffffffffff821117610b3b5760405283518252602084015167ffffffffffffffff8116810361032e578260809160206112339501526116f883604088016115bc565b604082015294016115bc565b919392602061171d606093608086526080860190611609565b86518583015295015160408401526001600160a01b0316910152565b6001600160a01b031660008181526008602052604090205460039061175d90610f72565b5001549060005260086020526004611779604060002054610f72565b5001548061178b5750611233906112e0565b6112339161179b61091b9261130c565b90611587565b156117a857565b60405162461bcd60e51b815260206004820152601060248201526f796f752061726520696e20646562742160801b6044820152606490fd5b156117e757565b60405162461bcd60e51b815260206004820152600f60248201526e1e5bdd48185c99481a5b881919589d608a1b6044820152606490fd5b6001600160a01b0381166000908152600860205260409020600390611842906101f0565b5001549061191660056118ec6101f060046118726101f08760018060a01b03166000526008602052604060002090565b500154946118d26118a5600461189d6101f08560018060a01b03166000526008602052604060002090565b50015461130c565b6001600160a01b03831660009081526008602052604090206003906118c9906101f0565b500154116117a1565b6001600160a01b0316600090815260086020526040902090565b5001547f0000000000000000000000000000000000000000000000000000000000000000106117e0565b80611925575061123390611a3d565b6112339161194661194161193b61194c94611328565b60011c90565b61130c565b90611050565b611a3d565b9081602091031261032e575190565b600654611975906001600160a01b03166103ec565b604051639bd713cf60e01b81529091602082600481865afa91821561032057600092611a1a575b506020600492936040519384809263693cf00560e11b82525afa801561032057611233936119dc936000926119e7575b506119d7919261135c565b611587565b6402540be400900490565b6119d79250611a0d9060203d602011611a13575b611a058183611123565b810190611951565b916119cc565b503d6119fb565b60049250611a36602091823d8411611a1357611a058183611123565b925061199c565b600654611a52906001600160a01b03166103ec565b604051639bd713cf60e01b815290602082600481845afa90811561032057600492600092611ad7575b506020906040519384809263693cf00560e11b82525afa9182156103205761123393611ab3936119d792600091611ab8575b5061135c565b61133e565b611ad1915060203d602011611a1357611a058183611123565b38611aad565b6020919250611af290823d8411611a1357611a058183611123565b9190611a7b565b60018060a01b03811680600052600860205260966005611b1d604060002054610f72565b50015410611b8a5760005260086020526004611b646101f0611b4860026102d1604060002054610f72565b6001600160a01b03909416600090815260086020526040902090565b5001548160011b918083046002149015171561105d57611233916311e1a3009004611050565b5050600090565b611b9a90611739565b7f00000000000000000000000000000000000000000000000000000000000000001015611bc657600090565b600190565b604051600360f01b602082015260028152611233602282611123565b600361ffff611bf583611cf8565b1603611cf0576040519060208201611fbd60831b815260108352611c1a603084611123565b600361ffff611c2884611cf8565b1603611ccf57825161ffff8111611cb65761ffff60019116019161ffff831161105d57602060049261123394611ca56040519785611c6f8a9751809288808b0191016106e3565b600160f81b90870186810182905260f09490941b6001600160f01b031916602185015260238401525192839060248401906106e3565b01010301601f198101835282611123565b6306dfcc6560e41b600052601060045260245260446000fd5b61ffff611cdb83611cf8565b633a51740d60e01b6000521660045260246000fd5b611cdb61ffff915b6002815110611d08576002015190565b60405162461bcd60e51b8152602060048201526014602482015273746f55696e7431365f6f75744f66426f756e647360601b6044820152606490fdfea2646970667358221220eb4f7ee508832a9e8be8f82778fa1d200ba4e7c1880de5354012bfda103d743764736f6c634300081a0033","linkReferences":{}},"methodIdentifiers":{"BASE_RISK_RATE()":"839159fb","CRP()":"ea6cfd4a","MODERATOR_ROLE()":"797669c9","RISK_PREMIUM_RATE()":"310e84b5","burnRupioAndRelieveCollateral(uint256)":"188afb74","checkUpkeep(bytes)":"6e04ff0d","createOrUpdateVault()":"bb828132","getAmountINRToETH(uint256)":"6653b817","getBASE_RISK_RATE()":"fb5989a6","getCRP()":"eaa45b42","getCurrentVaultId()":"ae0b163f","getMaxMintableRupio(address)":"b2088164","getMaxWithdrawableCollateral(address)":"9210ae64","getRISK_PREMIUM_RATE()":"7649aef1","getTotalCollateralPrice()":"9dc1b45b","getTotalVaultDetails()":"c48589cb","getUserBalanceInINR(address)":"314860f8","getUserCollateralBalance(address)":"ab845413","getVaultDetailsForTheUser()":"3f3d2a88","getVaultHealth(address)":"4a83cf49","liquidateVault(address)":"194d7494","mintRupio(uint256,uint32)":"d91569ad","performUpkeep(bytes)":"4585e33b","scanVaults()":"d7bf2aef","userIndexes(address)":"b603540f","withdrawFromVault(uint256)":"076d0815"},"id":82}