{"abi":[{"type":"constructor","inputs":[{"name":"_CRP","type":"uint256","internalType":"uint256"},{"name":"_BASE_RISK_RATE","type":"uint256","internalType":"uint256"},{"name":"_RISK_PREMIUM_RATE","type":"uint256","internalType":"uint256"},{"name":"_accessManager","type":"address","internalType":"address"},{"name":"_rupio","type":"address","internalType":"address"},{"name":"_priceContract","type":"address","internalType":"address"}],"stateMutability":"nonpayable"},{"type":"function","name":"BASE_RISK_RATE","inputs":[],"outputs":[{"name":"","type":"uint256","internalType":"uint256"}],"stateMutability":"view"},{"type":"function","name":"CRP","inputs":[],"outputs":[{"name":"","type":"uint256","internalType":"uint256"}],"stateMutability":"view"},{"type":"function","name":"MODERATOR_ROLE","inputs":[],"outputs":[{"name":"","type":"bytes32","internalType":"bytes32"}],"stateMutability":"view"},{"type":"function","name":"RISK_PREMIUM_RATE","inputs":[],"outputs":[{"name":"","type":"uint256","internalType":"uint256"}],"stateMutability":"view"},{"type":"function","name":"burnRupioAndRelieveCollateral","inputs":[{"name":"amount","type":"uint256","internalType":"uint256"}],"outputs":[],"stateMutability":"nonpayable"},{"type":"function","name":"checkUpkeep","inputs":[{"name":"","type":"bytes","internalType":"bytes"}],"outputs":[{"name":"upkeepNeeded","type":"bool","internalType":"bool"},{"name":"","type":"bytes","internalType":"bytes"}],"stateMutability":"view"},{"type":"function","name":"createOrUpdateVault","inputs":[],"outputs":[{"name":"vaultId","type":"uint256","internalType":"uint256"}],"stateMutability":"payable"},{"type":"function","name":"getAmountINRToETH","inputs":[{"name":"amountINR","type":"uint256","internalType":"uint256"}],"outputs":[{"name":"","type":"uint256","internalType":"uint256"}],"stateMutability":"view"},{"type":"function","name":"getBASE_RISK_RATE","inputs":[],"outputs":[{"name":"","type":"uint256","internalType":"uint256"}],"stateMutability":"view"},{"type":"function","name":"getCRP","inputs":[],"outputs":[{"name":"","type":"uint256","internalType":"uint256"}],"stateMutability":"view"},{"type":"function","name":"getCurrentVaultId","inputs":[],"outputs":[{"name":"","type":"uint256","internalType":"uint256"}],"stateMutability":"view"},{"type":"function","name":"getMaxMintableRupio","inputs":[{"name":"user","type":"address","internalType":"address"}],"outputs":[{"name":"","type":"uint256","internalType":"uint256"}],"stateMutability":"view"},{"type":"function","name":"getMaxWithdrawableCollateral","inputs":[{"name":"user","type":"address","internalType":"address"}],"outputs":[{"name":"","type":"uint256","internalType":"uint256"}],"stateMutability":"view"},{"type":"function","name":"getRISK_PREMIUM_RATE","inputs":[],"outputs":[{"name":"","type":"uint256","internalType":"uint256"}],"stateMutability":"view"},{"type":"function","name":"getTotalCollateralPrice","inputs":[],"outputs":[{"name":"","type":"int256","internalType":"int256"}],"stateMutability":"view"},{"type":"function","name":"getTotalVaultDetails","inputs":[],"outputs":[{"name":"","type":"tuple[]","internalType":"struct CollateralSafekeep.vault[]","components":[{"name":"vaultId","type":"uint256","internalType":"uint256"},{"name":"userAddress","type":"address","internalType":"address"},{"name":"balance","type":"uint256","internalType":"uint256"},{"name":"balanceInINR","type":"uint256","internalType":"uint256"},{"name":"rupioIssued","type":"uint256","internalType":"uint256"},{"name":"vaultHealth","type":"uint256","internalType":"uint256"}]}],"stateMutability":"view"},{"type":"function","name":"getUserBalanceInINR","inputs":[{"name":"_address","type":"address","internalType":"address"}],"outputs":[{"name":"","type":"uint256","internalType":"uint256"}],"stateMutability":"view"},{"type":"function","name":"getUserCollateralBalance","inputs":[{"name":"_address","type":"address","internalType":"address"}],"outputs":[{"name":"","type":"uint256","internalType":"uint256"}],"stateMutability":"view"},{"type":"function","name":"getVaultDetailsForTheUser","inputs":[],"outputs":[{"name":"","type":"tuple","internalType":"struct CollateralSafekeep.vault","components":[{"name":"vaultId","type":"uint256","internalType":"uint256"},{"name":"userAddress","type":"address","internalType":"address"},{"name":"balance","type":"uint256","internalType":"uint256"},{"name":"balanceInINR","type":"uint256","internalType":"uint256"},{"name":"rupioIssued","type":"uint256","internalType":"uint256"},{"name":"vaultHealth","type":"uint256","internalType":"uint256"}]}],"stateMutability":"view"},{"type":"function","name":"getVaultHealth","inputs":[{"name":"_user","type":"address","internalType":"address"}],"outputs":[{"name":"","type":"uint256","internalType":"uint256"}],"stateMutability":"view"},{"type":"function","name":"liquidateVault","inputs":[{"name":"_vaultAddress","type":"address","internalType":"address"}],"outputs":[],"stateMutability":"nonpayable"},{"type":"function","name":"mintRupioOnDifferentChain","inputs":[{"name":"amount","type":"uint256","internalType":"uint256"},{"name":"chainEid","type":"uint32","internalType":"uint32"}],"outputs":[],"stateMutability":"payable"},{"type":"function","name":"mintRupioOnHomeChain","inputs":[{"name":"amount","type":"uint256","internalType":"uint256"}],"outputs":[{"name":"","type":"uint256","internalType":"uint256"}],"stateMutability":"nonpayable"},{"type":"function","name":"performUpkeep","inputs":[{"name":"","type":"bytes","internalType":"bytes"}],"outputs":[],"stateMutability":"nonpayable"},{"type":"function","name":"scanVaults","inputs":[],"outputs":[],"stateMutability":"nonpayable"},{"type":"function","name":"userIndexes","inputs":[{"name":"","type":"address","internalType":"address"}],"outputs":[{"name":"","type":"uint256","internalType":"uint256"}],"stateMutability":"view"},{"type":"function","name":"withdrawFromVault","inputs":[{"name":"amount","type":"uint256","internalType":"uint256"}],"outputs":[],"stateMutability":"payable"},{"type":"event","name":"thisIsARiskyVault","inputs":[{"name":"vaultId","type":"uint256","indexed":false,"internalType":"uint256"},{"name":"userAddress","type":"address","indexed":false,"internalType":"address"},{"name":"balance","type":"uint256","indexed":false,"internalType":"uint256"},{"name":"balanceInINR","type":"uint256","indexed":false,"internalType":"uint256"},{"name":"rupioIssued","type":"uint256","indexed":false,"internalType":"uint256"},{"name":"vaultHealth","type":"uint256","indexed":false,"internalType":"uint256"}],"anonymous":false},{"type":"error","name":"CollateralSafeKeep__ETHAmountMustBeGreaterThanZero","inputs":[]},{"type":"error","name":"CollateralSafekeep__UpkeepNotNeeded","inputs":[]},{"type":"error","name":"CollateralSafekeep__UserInDebt","inputs":[]},{"type":"error","name":"InvalidOptionType","inputs":[{"name":"optionType","type":"uint16","internalType":"uint16"}]},{"type":"error","name":"ReentrancyGuardReentrantCall","inputs":[]},{"type":"error","name":"SafeCastOverflowedUintDowncast","inputs":[{"name":"bits","type":"uint8","internalType":"uint8"},{"name":"value","type":"uint256","internalType":"uint256"}]}],"bytecode":{"object":"0x60e0604052346101f257604051601f61203238819003918201601f19168301916001600160401b038311848410176101dc5780849260c0946040528339810103126101f257805160208201519060408301519261005e606082016101f7565b9061007760a0610070608084016101f7565b92016101f7565b600160008190556003819055600480546001600160a01b03199081166001600160a01b039687161790915560058054821694861694909417909355600680549093169390911692909217905542905560805260a05260c09081526040519081016001600160401b038111828210176101dc576040526000815260208101600081526040820160008152606083016000815260808401906000825260a08501926000845260075494680100000000000000008610156101dc5760018601806007558610156101c65760059560076000526006602060002091020196518755600187019060018060a01b0390511660018060a01b031982541617905551600286015551600385015551600484015551910155604051611e26908161020c82396080518181816105df01528181610f8e015281816119cd0152611d9e015260a05181610be8015260c0518161082b0152f35b634e487b7160e01b600052603260045260246000fd5b634e487b7160e01b600052604160045260246000fd5b600080fd5b51906001600160a01b03821682036101f25756fe6080604052600436101561001257600080fd5b60003560e01c8063076d0815146101b8578063188afb74146101b3578063194d7494146101ae5780632a8ffe80146101a9578063310e84b514610181578063314860f8146101a45780633f3d2a881461019f5780634585e33b1461019a5780634a83cf4914610195578063515d22ce146101905780636653b8171461018b5780636e04ff0d146101865780637649aef114610181578063797669c91461017c578063839159fb146101455780639210ae64146101775780639dc1b45b14610172578063ab8454131461016d578063ae0b163f14610168578063b208816414610163578063b603540f1461015e578063bb82813214610159578063c48589cb14610154578063d7bf2aef1461014f578063ea6cfd4a1461014a578063eaa45b421461014a5763fb5989a61461014557600080fd5b610bd0565b610f76565b610f5d565b610ebd565b610ce2565b610cb3565b610c9b565b610c7d565b610c41565b610c23565b610c0b565b610b95565b610813565b610b4c565b610ae6565b61098c565b610974565b61095c565b61086e565b61084e565b610551565b6104ab565b610343565b602036600319011261033e576004353360005260086020526101e06040600020541515610fb1565b6101e933611814565b336000908152600860205260409020600590610206905b54611028565b5001558080156102168115611068565b33600090815260086020526040902061024190839060029061023790610200565b5001541015611080565b33600090815260086020526040902061026c9060969060059061026390610200565b500154116110cc565b61028061027833611902565b8311156110cc565b600090610335575b600080809381933390f115610330573360009081526008602052604090206102c0906002906102b690610200565b5001918254611106565b90553360009081526008602052604090206102e9906002906102e190610200565b500154611a34565b33600090815260086020526040902060039061030490610200565b50015561031033611814565b33600090815260086020526040902060059061032b90610200565b500155005b6110e4565b506108fc610288565b600080fd5b3461033e57602036600319011261033e576004353360005260086020526103706040600020541515610fb1565b61037933611814565b33600090815260086020526040902060059061039490610200565b5001553360009081526008602052604090206103c0906004906103b690610200565b5001541515611118565b3360009081526008602052604090206103eb9082906004906103e190610200565b500154101561115b565b600554610408906001600160a01b03165b6001600160a01b031690565b803b1561033e5760405163079cc67960e41b815233600482015260248101839052906000908290604490829084905af180156103305761046e575b50336000908152600860205260409020610463906004906102b690610200565b905561031033611814565b8061047d6000610483936111d9565b80610808565b38610443565b602090600319011261033e576004356001600160a01b038116810361033e5790565b3461033e576104b936610489565b506044602060018060a01b036004541660405192838092632474521560e21b82527f71f3d55856e4058ed06ee057d79ada615f65cdf5f9ee88181b914225088f834f60048301523360248301525afa80156103305761052091600091610522575b50611213565b005b610544915060203d60201161054a575b61053c81836111d9565b8101906111fb565b3861051a565b503d610532565b604036600319011261033e5760043560243563ffffffff8116810361033e573360005260086020526105896040600020541515610fb1565b610594821515611068565b61059d33611814565b3360009081526008602052604090206005906105b890610200565b500155336000908152600860205260409020610604906005906105da90610200565b5001547f0000000000000000000000000000000000000000000000000000000000000000106110cc565b61061761061033611b11565b83106112c6565b610627610622611ba6565b611bc2565b610630336103fc565b61064361063c85611311565b600a900490565b9061065b61064f6113a4565b63ffffffff9095168552565b6020840152836040840152606083015260808201526106786113b3565b60a08201526106856113b3565b60c082015260055461069f906001600160a01b03166103fc565b60408051633b6f743b60e01b815291929082806106bf8460048301611485565b0381865afa918215610330576000926107d7575b506106e182513410156114a2565b823b1561033e576040516340c10f1960e01b815233600482015260248101859052926000908490604490829084905af19182156103305761075b9360c0936107c2575b5060055461073a906001600160a01b03166103fc565b90805160405180968195829463c7c7f5b360e01b8452339160048501611554565b03925af1801561033057610794575b503360009081526008602052604090206104639060049061078a90610200565b5001918254611597565b6107b59060c03d60c0116107bb575b6107ad81836111d9565b8101906114e3565b5061076a565b503d6107a3565b8061047d60006107d1936111d9565b38610724565b6107fa91925060403d604011610801575b6107f281836111d9565b810190611401565b90386106d3565b503d6107e8565b600091031261033e57565b3461033e57600036600319011261033e5760206040517f00000000000000000000000000000000000000000000000000000000000000008152f35b3461033e57602061086661086136610489565b6115a4565b604051908152f35b3461033e57600036600319011261033e576108876115c7565b503360005260086020526108a16040600020541515610fb1565b33600052600860205260c06108c36108bd604060002054611028565b506115f8565b610909604051809260a0809180518452600180831b0360208201511660208501526040810151604085015260608101516060850152608081015160808501520151910152565bf35b90602060031983011261033e5760043567ffffffffffffffff811161033e578260238201121561033e5780600401359267ffffffffffffffff841161033e576024848301011161033e576024019190565b3461033e5761096a3661090b565b50506105206116dd565b3461033e57602061086661098736610489565b611814565b3461033e57602036600319011261033e576004353360005260086020526109b96040600020541515610fb1565b6109c4811515611068565b6109cd33611814565b3360009081526008602052604090206005906109e890610200565b500155336000908152600860205260409020610a0a906005906105da90610200565b610a1333611b11565b610a1e8183106112c6565b600554610a33906001600160a01b03166103fc565b91823b1561033e576040516340c10f1960e01b815233600482015260248101829052926000908490604490829084905af192831561033057610acd93610ad1575b50336000908152600860205260409020610a949060049061078a90610200565b9055610a9f33611814565b336000908152600860205260409020600590610aba90610200565b5001556040519081529081906020820190565b0390f35b8061047d6000610ae0936111d9565b38610a74565b3461033e57602036600319011261033e576020610866600435611cd7565b60005b838110610b175750506000910152565b8181015183820152602001610b07565b90602091610b4081518092818552858086019101610b04565b601f01601f1916010190565b3461033e57610b5a3661090b565b5050604051600181526040602082015260208160406060518082840152610b8681606085016080610b04565b601f01601f1916820101030190f35b3461033e57600036600319011261033e5760206040517f71f3d55856e4058ed06ee057d79ada615f65cdf5f9ee88181b914225088f834f8152f35b3461033e57600036600319011261033e5760206040517f00000000000000000000000000000000000000000000000000000000000000008152f35b3461033e576020610866610c1e36610489565b611902565b3461033e57600036600319011261033e576020600254604051908152f35b3461033e576001600160a01b03610c5736610489565b16600052600860205260206002610c72604060002054611028565b500154604051908152f35b3461033e57600036600319011261033e576020600354604051908152f35b3461033e576020610866610cae36610489565b611b11565b3461033e576001600160a01b03610cc936610489565b1660005260086020526020604060002054604051908152f35b600036600319011261033e57610cf9341515611068565b33600090815260086020526040902054610dad57610d59610d186115c7565b346040820152336020820152600354815260006080820152610d41610d3c34611a34565b611327565b60a0820152610d4f34611a34565b6060820152611647565b60035433600090815260086020526040902055610d7f610d7a600354611589565b600355565b336000908152600860205260409020610acd90610d9b90610200565b50546040519081529081906020820190565b336000908152600860205260409020600290610dc890610200565b5001610dd5348254611597565b9055336000908152600860205260409020610df6906002906102e190610200565b336000908152600860205260409020600390610e1190610200565b500155610e1d33611814565b336000908152600860205260409020600590610e3890610200565b500155610d7f565b602060408183019282815284518094520192019060005b818110610e645750505090565b909192602060c082610eb2600194885160a0809180518452600180831b0360208201511660208501526040810151604085015260608101516060850152608081015160808501520151910152565b019401929101610e57565b3461033e57600036600319011261033e5760075467ffffffffffffffff8111610f585760405190610ef460208260051b01836111d9565b8082526020820160076000527fa66cc928b5edb82af9bd49922954155ab7b0942694bea4ce44661d9a8736c6886000915b838310610f3a5760405180610acd8782610e40565b60066020600192610f4a856115f8565b815201920192019190610f25565b6111a7565b3461033e57600036600319011261033e576105206116dd565b3461033e57600036600319011261033e5760206040517f00000000000000000000000000000000000000000000000000000000000000008152f35b15610fb857565b60405162461bcd60e51b815260206004820152602c60248201527f596f7520646f6e7420686176652061205661756c742c2063726561746520612060448201526b7661756c742066697273742160a01b6064820152608490fd5b634e487b7160e01b600052603260045260246000fd5b6007548110156110475760076000526006602060002091020190600090565b611012565b8054821015611047576000526006602060002091020190600090565b1561106f57565b6316670b4760e21b60005260046000fd5b1561108757565b60405162461bcd60e51b815260206004820152601d60248201527f696e73756666696369656e742062616c616e636520696e207661756c740000006044820152606490fd5b156110d357565b637f8953f760e01b60005260046000fd5b6040513d6000823e3d90fd5b634e487b7160e01b600052601160045260246000fd5b9190820391821161111357565b6110f0565b1561111f57565b60405162461bcd60e51b8152602060048201526014602482015273273790393ab834b79034b9b9bab2b2103cb2ba1760611b6044820152606490fd5b1561116257565b60405162461bcd60e51b815260206004820152601b60248201527f4c65737320616d6f756e74206f6620727570696f2069737375656400000000006044820152606490fd5b634e487b7160e01b600052604160045260246000fd5b60c0810190811067ffffffffffffffff821117610f5857604052565b90601f8019910116810190811067ffffffffffffffff821117610f5857604052565b9081602091031261033e5751801515810361033e5790565b1561121a57565b60405162461bcd60e51b815260206004820152601860248201527f4d7573742068617665204d4f44455241544f525f524f4c4500000000000000006044820152606490fd5b6044602060018060a01b036004541660405192838092632474521560e21b82527f71f3d55856e4058ed06ee057d79ada615f65cdf5f9ee88181b914225088f834f60048301523360248301525afa8015610330576112c4916000916105225750611213565b565b156112cd57565b606460405162461bcd60e51b815260206004820152602060248201527f656e74657220616d6f756e74206c657373207468616e204352502063726f73736044820152fd5b9060098202918083046009149015171561111357565b9060648202918083046064149015171561111357565b9060038202918083046003149015171561111357565b906402540be4008202918083046402540be400149015171561111357565b8181029291811591840414171561111357565b811561138e570490565b634e487b7160e01b600052601260045260246000fd5b604051906112c460e0836111d9565b604051906113c26020836111d9565b60008252565b919082604091031261033e576040516040810181811067ffffffffffffffff821117610f58576040526020808294805184520151910152565b9060408282031261033e57611415916113c8565b90565b6114159163ffffffff825116815260208201516020820152604082015160408201526060820151606082015260c0611474611462608085015160e0608086015260e0850190610b27565b60a085015184820360a0860152610b27565b9201519060c0818403910152610b27565b9190602061149d600092604086526040860190611418565b930152565b156114a957565b60405162461bcd60e51b8152602060048201526012602482015271696e73756666696369656e742066756e647360701b6044820152606490fd5b919082810360c0811261033e5760801361033e57604051906060820182811067ffffffffffffffff821117610f585760405283518252602084015167ffffffffffffffff8116810361033e5782608091602061141595015261154883604088016113c8565b604082015294016113c8565b919392602061156d606093608086526080860190611418565b86518583015295015160408401526001600160a01b0316910152565b906001820180921161111357565b9190820180921161111357565b60018060a01b0316600052600860205261141560026102e1604060002054611028565b604051906115d4826111bd565b600060a0838281528260208201528260408201528260608201528260808201520152565b90604051611605816111bd565b8254815260018301546001600160a01b0316602082015260028301546040820152600383015460608201526004830154608082015260059092015460a0830152565b60075468010000000000000000811015610f585780600161166d9201600755600761104c565b9190916116c75760a08160059251845560018401600180841b036020830151166bffffffffffffffffffffffff841b8254161790556040810151600285015560608101516003850155608081015160048501550151910155565b634e487b7160e01b600052600060045260246000fd5b60075460005b8181106116ee575050565b8061171061086160016117018195611028565b5001546001600160a01b031690565b600361171b83611028565b50015561172e6109878361170184611028565b600561173983611028565b50015561175161174c8361170184611028565b611d93565b5061175b81611028565b505061176561125f565b7f5c0ddc9ba6a3ee218f8b0b2e6583514fb1a2403fc52dd2adb715d5cb41ab1a206117938361170184611028565b600261179e84611028565b5001549061180b60036117b086611028565b50015460046117be87611028565b50015460056117cc88611028565b500154604080518981526001600160a01b0390961660208701528501959095526060840191909152608083015260a082019290925290819060c0820190565b0390a1016116e3565b6001600160a01b031660008181526008602052604090205460039061183890611028565b5001549060005260086020526004611854604060002054611028565b50015480611866575061141590611327565b61186f91611384565b6064810290808204606414901517156111135790565b1561188c57565b60405162461bcd60e51b815260206004820152601060248201526f796f752061726520696e20646562742160801b6044820152606490fd5b156118cb57565b60405162461bcd60e51b815260206004820152600f60248201526e1e5bdd48185c99481a5b881919589d608a1b6044820152606490fd5b6001600160a01b038116600090815260086020526040902060039061192690610200565b500154906119f260056119c861020060046119566102008760018060a01b03166000526008602052604060002090565b500154946119ae600461197e6102008460018060a01b03166000526008602052604060002090565b5001546001600160a01b03831660009081526008602052604090206003906119a590610200565b50015411611885565b6001600160a01b0316600090815260086020526040902090565b5001547f0000000000000000000000000000000000000000000000000000000000000000106118c4565b80611a01575061141590611cd7565b61141591611a1a611a14611a209361133d565b60011c90565b90611106565b611cd7565b9081602091031261033e575190565b600654611a49906001600160a01b03166103fc565b604051639bd713cf60e01b81529091602082600481865afa91821561033057600092611aee575b506020600492936040519384809263693cf00560e11b82525afa80156103305761141593611ab093600092611abb575b50611aab9192611371565b611384565b6402540be400900490565b611aab9250611ae19060203d602011611ae7575b611ad981836111d9565b810190611a25565b91611aa0565b503d611acf565b60049250611b0a602091823d8411611ae757611ad981836111d9565b9250611a70565b60018060a01b03811680600052600860205260966005611b35604060002054611028565b50015410611b9f5760005260086020526004611b7c610200611b6060026102e1604060002054611028565b6001600160a01b03909416600090815260086020526040902090565b5001548160011b9180830460021490151715611113576114159160039004611106565b5050600090565b604051600360f01b6020820152600281526114156022826111d9565b600361ffff611bd083611dcd565b1603611ccb576040519060208201611fbd60831b815260108352611bf56030846111d9565b600361ffff611c0384611dcd565b1603611caa57825161ffff8111611c915761ffff60019116019161ffff831161111357602060049261141594611c806040519785611c4a8a9751809288808b019101610b04565b600160f81b90870186810182905260f09490941b6001600160f01b03191660218501526023840152519283906024840190610b04565b01010301601f1981018352826111d9565b6306dfcc6560e41b600052601060045260245260446000fd5b61ffff611cb683611dcd565b633a51740d60e01b6000521660045260246000fd5b611cb661ffff91611dcd565b600654611cec906001600160a01b03166103fc565b604051639bd713cf60e01b815290602082600481845afa90811561033057600492600092611d71575b506020906040519384809263693cf00560e11b82525afa9182156103305761141593611d4d93611aab92600091611d52575b50611371565b611353565b611d6b915060203d602011611ae757611ad981836111d9565b38611d47565b6020919250611d8c90823d8411611ae757611ad981836111d9565b9190611d15565b611d9c90611814565b7f00000000000000000000000000000000000000000000000000000000000000001015611dc857600090565b600190565b6002815110611ddd576002015190565b60405162461bcd60e51b8152602060048201526014602482015273746f55696e7431365f6f75744f66426f756e647360601b6044820152606490fdfea164736f6c634300081a000a","linkReferences":{}},"methodIdentifiers":{"BASE_RISK_RATE()":"839159fb","CRP()":"ea6cfd4a","MODERATOR_ROLE()":"797669c9","RISK_PREMIUM_RATE()":"310e84b5","burnRupioAndRelieveCollateral(uint256)":"188afb74","checkUpkeep(bytes)":"6e04ff0d","createOrUpdateVault()":"bb828132","getAmountINRToETH(uint256)":"6653b817","getBASE_RISK_RATE()":"fb5989a6","getCRP()":"eaa45b42","getCurrentVaultId()":"ae0b163f","getMaxMintableRupio(address)":"b2088164","getMaxWithdrawableCollateral(address)":"9210ae64","getRISK_PREMIUM_RATE()":"7649aef1","getTotalCollateralPrice()":"9dc1b45b","getTotalVaultDetails()":"c48589cb","getUserBalanceInINR(address)":"314860f8","getUserCollateralBalance(address)":"ab845413","getVaultDetailsForTheUser()":"3f3d2a88","getVaultHealth(address)":"4a83cf49","liquidateVault(address)":"194d7494","mintRupioOnDifferentChain(uint256,uint32)":"2a8ffe80","mintRupioOnHomeChain(uint256)":"515d22ce","performUpkeep(bytes)":"4585e33b","scanVaults()":"d7bf2aef","userIndexes(address)":"b603540f","withdrawFromVault(uint256)":"076d0815"},"storageLayout":{"storage":[{"astId":45486,"contract":"src/CollateralSafekeep.sol:CollateralSafekeep","label":"_status","offset":0,"slot":"0","type":"t_uint256"},{"astId":48280,"contract":"src/CollateralSafekeep.sol:CollateralSafekeep","label":"lastTimeStamp","offset":0,"slot":"1","type":"t_uint256"},{"astId":48282,"contract":"src/CollateralSafekeep.sol:CollateralSafekeep","label":"currentCollateralBalance","offset":0,"slot":"2","type":"t_int256"},{"astId":48284,"contract":"src/CollateralSafekeep.sol:CollateralSafekeep","label":"VAULT_ID","offset":0,"slot":"3","type":"t_uint256"},{"astId":48287,"contract":"src/CollateralSafekeep.sol:CollateralSafekeep","label":"accessManager","offset":0,"slot":"4","type":"t_contract(AccessManager)48238"},{"astId":48290,"contract":"src/CollateralSafekeep.sol:CollateralSafekeep","label":"token","offset":0,"slot":"5","type":"t_contract(Rupio)50258"},{"astId":48293,"contract":"src/CollateralSafekeep.sol:CollateralSafekeep","label":"priceContract","offset":0,"slot":"6","type":"t_contract(PriceFeed)50145"},{"astId":48312,"contract":"src/CollateralSafekeep.sol:CollateralSafekeep","label":"userVaults","offset":0,"slot":"7","type":"t_array(t_struct(vault)48307_storage)dyn_storage"},{"astId":48331,"contract":"src/CollateralSafekeep.sol:CollateralSafekeep","label":"userIndexes","offset":0,"slot":"8","type":"t_mapping(t_address,t_uint256)"}],"types":{"t_address":{"encoding":"inplace","label":"address","numberOfBytes":"20"},"t_array(t_struct(vault)48307_storage)dyn_storage":{"encoding":"dynamic_array","label":"struct CollateralSafekeep.vault[]","numberOfBytes":"32","base":"t_struct(vault)48307_storage"},"t_contract(AccessManager)48238":{"encoding":"inplace","label":"contract AccessManager","numberOfBytes":"20"},"t_contract(PriceFeed)50145":{"encoding":"inplace","label":"contract PriceFeed","numberOfBytes":"20"},"t_contract(Rupio)50258":{"encoding":"inplace","label":"contract Rupio","numberOfBytes":"20"},"t_int256":{"encoding":"inplace","label":"int256","numberOfBytes":"32"},"t_mapping(t_address,t_uint256)":{"encoding":"mapping","key":"t_address","label":"mapping(address => uint256)","numberOfBytes":"32","value":"t_uint256"},"t_struct(vault)48307_storage":{"encoding":"inplace","label":"struct CollateralSafekeep.vault","numberOfBytes":"192","members":[{"astId":48296,"contract":"src/CollateralSafekeep.sol:CollateralSafekeep","label":"vaultId","offset":0,"slot":"0","type":"t_uint256"},{"astId":48298,"contract":"src/CollateralSafekeep.sol:CollateralSafekeep","label":"userAddress","offset":0,"slot":"1","type":"t_address"},{"astId":48300,"contract":"src/CollateralSafekeep.sol:CollateralSafekeep","label":"balance","offset":0,"slot":"2","type":"t_uint256"},{"astId":48302,"contract":"src/CollateralSafekeep.sol:CollateralSafekeep","label":"balanceInINR","offset":0,"slot":"3","type":"t_uint256"},{"astId":48304,"contract":"src/CollateralSafekeep.sol:CollateralSafekeep","label":"rupioIssued","offset":0,"slot":"4","type":"t_uint256"},{"astId":48306,"contract":"src/CollateralSafekeep.sol:CollateralSafekeep","label":"vaultHealth","offset":0,"slot":"5","type":"t_uint256"}]},"t_uint256":{"encoding":"inplace","label":"uint256","numberOfBytes":"32"}}},"id":81}