{"abi":[{"type":"constructor","inputs":[{"name":"_CIP","type":"uint256","internalType":"uint256"},{"name":"_BASE_RISK_RATE","type":"uint256","internalType":"uint256"},{"name":"_RISK_PREMIUM_RATE","type":"uint256","internalType":"uint256"},{"name":"_accessManager","type":"address","internalType":"address"},{"name":"_indai","type":"address","internalType":"address"},{"name":"_priceContract","type":"address","internalType":"address"}],"stateMutability":"nonpayable"},{"type":"function","name":"BASE_RISK_RATE","inputs":[],"outputs":[{"name":"","type":"uint256","internalType":"uint256"}],"stateMutability":"view"},{"type":"function","name":"CIP","inputs":[],"outputs":[{"name":"","type":"uint256","internalType":"uint256"}],"stateMutability":"view"},{"type":"function","name":"MODERATOR_ROLE","inputs":[],"outputs":[{"name":"","type":"bytes32","internalType":"bytes32"}],"stateMutability":"view"},{"type":"function","name":"RISK_PREMIUM_RATE","inputs":[],"outputs":[{"name":"","type":"uint256","internalType":"uint256"}],"stateMutability":"view"},{"type":"function","name":"burnIndaiAndRelieveCollateral","inputs":[{"name":"amount","type":"uint256","internalType":"uint256"}],"outputs":[],"stateMutability":"nonpayable"},{"type":"function","name":"checkUpkeep","inputs":[{"name":"","type":"bytes","internalType":"bytes"}],"outputs":[{"name":"upkeepNeeded","type":"bool","internalType":"bool"},{"name":"","type":"bytes","internalType":"bytes"}],"stateMutability":"view"},{"type":"function","name":"createOrUpdateVault","inputs":[],"outputs":[{"name":"vaultId","type":"uint256","internalType":"uint256"}],"stateMutability":"payable"},{"type":"function","name":"getAmountINRToETH","inputs":[{"name":"amountINR","type":"uint256","internalType":"uint256"}],"outputs":[{"name":"","type":"uint256","internalType":"uint256"}],"stateMutability":"view"},{"type":"function","name":"getBASE_RISK_RATE","inputs":[],"outputs":[{"name":"","type":"uint256","internalType":"uint256"}],"stateMutability":"view"},{"type":"function","name":"getCIP","inputs":[],"outputs":[{"name":"","type":"uint256","internalType":"uint256"}],"stateMutability":"view"},{"type":"function","name":"getCurrentVaultId","inputs":[],"outputs":[{"name":"","type":"uint256","internalType":"uint256"}],"stateMutability":"view"},{"type":"function","name":"getMaxMintableIndai","inputs":[{"name":"user","type":"address","internalType":"address"}],"outputs":[{"name":"","type":"uint256","internalType":"uint256"}],"stateMutability":"view"},{"type":"function","name":"getMaxWithdrawableCollateral","inputs":[{"name":"user","type":"address","internalType":"address"}],"outputs":[{"name":"","type":"uint256","internalType":"uint256"}],"stateMutability":"view"},{"type":"function","name":"getRISK_PREMIUM_RATE","inputs":[],"outputs":[{"name":"","type":"uint256","internalType":"uint256"}],"stateMutability":"view"},{"type":"function","name":"getTotalCollateralPrice","inputs":[],"outputs":[{"name":"","type":"int256","internalType":"int256"}],"stateMutability":"view"},{"type":"function","name":"getTotalVaultDetails","inputs":[],"outputs":[{"name":"","type":"tuple[]","internalType":"struct CollateralSafekeep.vault[]","components":[{"name":"vaultId","type":"uint256","internalType":"uint256"},{"name":"userAddress","type":"address","internalType":"address"},{"name":"balance","type":"uint256","internalType":"uint256"},{"name":"balanceInINR","type":"uint256","internalType":"uint256"},{"name":"indaiIssued","type":"uint256","internalType":"uint256"},{"name":"vaultHealth","type":"uint256","internalType":"uint256"}]}],"stateMutability":"view"},{"type":"function","name":"getUserBalanceInINR","inputs":[{"name":"_address","type":"address","internalType":"address"}],"outputs":[{"name":"","type":"uint256","internalType":"uint256"}],"stateMutability":"view"},{"type":"function","name":"getUserCollateralBalance","inputs":[{"name":"_address","type":"address","internalType":"address"}],"outputs":[{"name":"","type":"uint256","internalType":"uint256"}],"stateMutability":"view"},{"type":"function","name":"getVaultDetailsForTheUser","inputs":[],"outputs":[{"name":"","type":"tuple","internalType":"struct CollateralSafekeep.vault","components":[{"name":"vaultId","type":"uint256","internalType":"uint256"},{"name":"userAddress","type":"address","internalType":"address"},{"name":"balance","type":"uint256","internalType":"uint256"},{"name":"balanceInINR","type":"uint256","internalType":"uint256"},{"name":"indaiIssued","type":"uint256","internalType":"uint256"},{"name":"vaultHealth","type":"uint256","internalType":"uint256"}]}],"stateMutability":"view"},{"type":"function","name":"getVaultHealth","inputs":[{"name":"_user","type":"address","internalType":"address"}],"outputs":[{"name":"","type":"uint256","internalType":"uint256"}],"stateMutability":"view"},{"type":"function","name":"liquidateVault","inputs":[{"name":"_vaultAddress","type":"address","internalType":"address"}],"outputs":[],"stateMutability":"nonpayable"},{"type":"function","name":"mintIndai","inputs":[{"name":"amount","type":"uint256","internalType":"uint256"}],"outputs":[{"name":"","type":"uint256","internalType":"uint256"}],"stateMutability":"nonpayable"},{"type":"function","name":"performUpkeep","inputs":[{"name":"","type":"bytes","internalType":"bytes"}],"outputs":[],"stateMutability":"nonpayable"},{"type":"function","name":"scanVaults","inputs":[],"outputs":[],"stateMutability":"nonpayable"},{"type":"function","name":"userIndexes","inputs":[{"name":"","type":"address","internalType":"address"}],"outputs":[{"name":"","type":"uint256","internalType":"uint256"}],"stateMutability":"view"},{"type":"function","name":"withdrawFromVault","inputs":[{"name":"amount","type":"uint256","internalType":"uint256"}],"outputs":[],"stateMutability":"payable"},{"type":"event","name":"thisIsARiskyVault","inputs":[{"name":"vaultId","type":"uint256","indexed":false,"internalType":"uint256"},{"name":"userAddress","type":"address","indexed":false,"internalType":"address"},{"name":"balance","type":"uint256","indexed":false,"internalType":"uint256"},{"name":"balanceInINR","type":"uint256","indexed":false,"internalType":"uint256"},{"name":"indaiIssued","type":"uint256","indexed":false,"internalType":"uint256"},{"name":"vaultHealth","type":"uint256","indexed":false,"internalType":"uint256"}],"anonymous":false},{"type":"error","name":"CollateralSafeKeep__ETHAmountMustBeGreaterThanZero","inputs":[]},{"type":"error","name":"CollateralSafekeep__UpkeepNotNeeded","inputs":[]},{"type":"error","name":"CollateralSafekeep__UserInDebt","inputs":[]},{"type":"error","name":"ReentrancyGuardReentrantCall","inputs":[]}],"bytecode":{"object":"0x60e0604052346101f257604051601f61194e38819003918201601f19168301916001600160401b038311848410176101dc5780849260c0946040528339810103126101f257805160208201519060408301519261005e606082016101f7565b9061007760a0610070608084016101f7565b92016101f7565b600160008190556003819055600480546001600160a01b03199081166001600160a01b039687161790915560058054821694861694909417909355600680549093169390911692909217905542905560805260a05260c09081526040519081016001600160401b038111828210176101dc576040526000815260208101600081526040820160008152606083016000815260808401906000825260a08501926000845260075494680100000000000000008610156101dc5760018601806007558610156101c65760059560076000526006602060002091020196518755600187019060018060a01b0390511660018060a01b031982541617905551600286015551600385015551600484015551910155604051611742908161020c8239608051818181610ad401528181610e1a0152818161139101526116dd015260a05181610e55015260c05181610d890152f35b634e487b7160e01b600052603260045260246000fd5b634e487b7160e01b600052604160045260246000fd5b600080fd5b51906001600160a01b03821682036101f25756fe6080604052600436101561001257600080fd5b6000803560e01c908163076d081514610c2657816316b7265714610a64578163194d74941461095c578163310e84b5146107c2578163314860f81461092c5781633f3d2a88146108955781634585e33b1461087d5781634a83cf491461084d578163501c3a3c146107c75781636653b8171461082f5781636e04ff0d146107cc57816374cf45f8146107c75781637649aef1146107c2578163797669c914610788578163839159fb1461013d5781639210ae64146107585781639dc1b45b1461073b578163ab845413146106f2578163ae0b163f146106d5578163b603540f14610699578163b9ebc0b4146104d1578163bb828132146102be578163bbac624c14610286578163c48589cb14610160578163d7bf2aef14610142575063fb5989a61461013d57600080fd5b610e3d565b3461015d578060031936011261015d5761015a61104b565b80f35b80fd5b3461015d578060031936011261015d5760075467ffffffffffffffff81116102725760405161019560208360051b0182610f63565b818152600783526020810191837fa66cc928b5edb82af9bd49922954155ab7b0942694bea4ce44661d9a8736c688845b83831061025457868587604051928392602084019060208552518091526040840192915b8181106101f7575050500390f35b91935091602060c082610246600194885160a0809180518452600180831b0360208201511660208501526040810151604085015260608101516060850152608081015160808501520151910152565b0194019101918493926101e9565b6006602060019261026485610fe9565b8152019201920191906101c5565b634e487b7160e01b82526041600452602482fd5b3461015d57602036600319011261015d57600435906001600160a01b038216820361015d5760206102b683611558565b604051908152f35b8060031936011261015d5734156104c25733815260086020526040812054610438576102e8610fb8565b9060408201348152602083019033825260035484526080840183815261030d34611471565b916064830292808404606414901517156104245760a0860192835261033134611471565b9060608701918252600754680100000000000000008110156104105780600161035d9201600755610ed9565b9590956103fc576005959697518755600187019060018060a01b039051166bffffffffffffffffffffffff60a01b825416179055516002860155516003850155516004840155519101556003543382526008602052806040832055600181018091116103e85760406020926103de926003555b338152600884522054610ed9565b5054604051908152f35b634e487b7160e01b82526011600452602482fd5b634e487b7160e01b87526004879052602487fd5b634e487b7160e01b87526041600452602487fd5b634e487b7160e01b85526011600452602485fd5b6103de604060209233815260088452600261045583832054610ed9565b5001610462348254610f85565b905533815260088452610484600261047c84842054610ed9565b500154611471565b33825260088552600361049984842054610ed9565b5001556104a533611246565b3382526008855260056104ba84842054610ed9565b5001556103d0565b6316670b4760e21b8152600490fd5b3461015d57602036600319011261015d5760043533825260086020526104fc60408320541515610e78565b61050533611246565b3383526008602052600561051c6040852054610ed9565b500155338252600860205260046105366040842054610ed9565b5001541561065d5733825260086020528060046105566040852054610ed9565b500154106106185760055482906001600160a01b0316803b156106095760405163079cc67960e41b8152336004820152602481018490529082908290604490829084905af1801561060d576105f4575b505033825260086020526105cc60046105c26040852054610ed9565b5001918254610f0e565b90556105d733611246565b338252600860205260056105ee6040842054610ed9565b50015580f35b816105fe91610f63565b6106095781836105a6565b5080fd5b6040513d84823e3d90fd5b60405162461bcd60e51b815260206004820152601b60248201527f4c65737320616d6f756e74206f6620696e6461692069737375656400000000006044820152606490fd5b60405162461bcd60e51b815260206004820152601460248201527327379034b73230b49034b9b9bab2b2103cb2ba1760611b6044820152606490fd5b3461015d57602036600319011261015d576004356001600160a01b03811690819003610609578160409160209352600883522054604051908152f35b3461015d578060031936011261015d576020600354604051908152f35b3461015d57602036600319011261015d576004356001600160a01b038116908190036106095761073060408360029360209552600885522054610ed9565b500154604051908152f35b3461015d578060031936011261015d576020600254604051908152f35b3461015d57602036600319011261015d57600435906001600160a01b038216820361015d5760206102b6836112d8565b3461015d578060031936011261015d5760206040517f71f3d55856e4058ed06ee057d79ada615f65cdf5f9ee88181b914225088f834f8152f35b610d71565b610e02565b3461015d576107da36610db1565b50506040519060018252604060208301528160605191826040830152805b838110610818575091606092838284010152601f80199101168101030190f35b6080810151858201606001528492506020016107f8565b3461015d57602036600319011261015d5760206102b66004356115e3565b3461015d57602036600319011261015d57600435906001600160a01b038216820361015d5760206102b683611246565b3461015d5761088b36610db1565b505061015a61104b565b3461015d578060031936011261015d576108e46108de604060c0936108b8610fb8565b5033815260086020526108cf828220541515610e78565b33815260086020522054610ed9565b50610fe9565b61092a604051809260a0809180518452600180831b0360208201511660208501526040810151604085015260608101516060850152608081015160808501520151910152565bf35b3461015d57602036600319011261015d57600435906001600160a01b038216820361015d5760206102b683610f92565b3461015d57602036600319011261015d576004356001600160a01b0381160361015d576044602060018060a01b036004541660405192838092632474521560e21b82527f71f3d55856e4058ed06ee057d79ada615f65cdf5f9ee88181b914225088f834f60048301523360248301525afa90811561060d578291610a29575b50156109e45780f35b60405162461bcd60e51b815260206004820152601860248201527f4d7573742068617665204d4f44455241544f525f524f4c4500000000000000006044820152606490fd5b90506020813d602011610a5c575b81610a4460209383610f63565b810103126106095751801515810361060957826109db565b3d9150610a37565b3461015d57602036600319011261015d576004353382526008602052610a8f60408320541515610e78565b8015610c1757610a9e33611246565b33835260086020526005610ab56040852054610ed9565b50015533825260086020526005610acf6040842054610ed9565b5001547f00000000000000000000000000000000000000000000000000000000000000001015610c0857610b0233611558565b9081811015610bc4576005546001600160a01b031692833b1561015d576040516340c10f1960e01b8152336004820152602481018390529381908590604490829084905af1938415610bb757602094610ba7575b509033825260088452610b7b6004610b716040852054610ed9565b5001918254610f85565b90556005610b9c6040610b8d33611246565b93338152600887522054610ed9565b500155604051908152f35b81610bb191610f63565b84610b56565b50604051903d90823e3d90fd5b606460405162461bcd60e51b815260206004820152602060248201527f656e74657220616d6f756e74206c657373207468616e204349502063726f73736044820152fd5b637f8953f760e01b8252600482fd5b6316670b4760e21b8252600482fd5b602036600319011261015d576004353382526008602052610c4c60408320541515610e78565b610c5533611246565b33835260086020526005610c6c6040852054610ed9565b5001558015610c17573382526008602052806002610c8d6040852054610ed9565b50015410610d2c57338252600860205260966005610cae6040852054610ed9565b5001541115610c0857610cc0336112d8565b8111610c085781808080843382f115610bb7573382526008602052610ced60026105c26040852054610ed9565b90553381526008602052610d09600261047c6040842054610ed9565b33825260086020526003610d206040842054610ed9565b5001556105d733611246565b60405162461bcd60e51b815260206004820152601d60248201527f696e73756666696369656e742062616c616e636520696e207661756c740000006044820152606490fd5b34610dac576000366003190112610dac5760206040517f00000000000000000000000000000000000000000000000000000000000000008152f35b600080fd5b906020600319830112610dac5760043567ffffffffffffffff8111610dac5782602382011215610dac5780600401359267ffffffffffffffff8411610dac5760248483010111610dac576024019190565b34610dac576000366003190112610dac5760206040517f00000000000000000000000000000000000000000000000000000000000000008152f35b34610dac576000366003190112610dac5760206040517f00000000000000000000000000000000000000000000000000000000000000008152f35b15610e7f57565b60405162461bcd60e51b815260206004820152602c60248201527f596f7520646f6e7420686176652061205661756c742c2063726561746520612060448201526b7661756c742066697273742160a01b6064820152608490fd5b600754811015610ef85760076000526006602060002091020190600090565b634e487b7160e01b600052603260045260246000fd5b91908203918211610f1b57565b634e487b7160e01b600052601160045260246000fd5b60c0810190811067ffffffffffffffff821117610f4d57604052565b634e487b7160e01b600052604160045260246000fd5b90601f8019910116810190811067ffffffffffffffff821117610f4d57604052565b91908201809211610f1b57565b60018060a01b03166000526008602052610fb5600261047c604060002054610ed9565b90565b60405190610fc582610f31565b600060a0838281528260208201528260408201528260608201528260808201520152565b90604051610ff681610f31565b8254815260018301546001600160a01b0316602082015260028301546040820152600383015460608201526004830154608082015260059092015460a0830152565b81810292918115918404141715610f1b57565b60075460005b81811061105c575050565b61107b61106882610ed9565b50600101546001600160a01b0316610f92565b600361108683610ed9565b5001556110a861109582610ed9565b50600101546001600160a01b0316611246565b60056110b383610ed9565b5001556110d56110c282610ed9565b50600101546001600160a01b03166116d2565b506110df81610ed9565b50506044602060018060a01b036004541660405192838092632474521560e21b82527f71f3d55856e4058ed06ee057d79ada615f65cdf5f9ee88181b914225088f834f60048301523360248301525afa90811561121a576000916111e0575b50156109e457807f5c0ddc9ba6a3ee218f8b0b2e6583514fb1a2403fc52dd2adb715d5cb41ab1a2060c0611173600194610ed9565b5084808060a01b0391015416600261118a85610ed9565b500154600361119886610ed9565b50015460046111a687610ed9565b5001549060056111b588610ed9565b5001549260405194888652602086015260408501526060840152608083015260a0820152a101611051565b6020813d8211611212575b816111f860209383610f63565b81010312610609575190811515820361015d57503861113e565b3d91506111eb565b6040513d6000823e3d90fd5b8115611230570490565b634e487b7160e01b600052601260045260246000fd5b6001600160a01b031660008181526008602052604090205460039061126a90610ed9565b5001549060005260086020526004611286604060002054610ed9565b500154806112a55750606481029080820460641490151715610f1b5790565b6305f5e10081029081046305f5e10003610f1b576112c291611226565b606481029080820460641490151715610f1b5790565b6001600160a01b03166000818152600860205260409020546003906112fc90610ed9565b500154908060005260086020526004611319604060002054610ed9565b500154908060005260086020526004611336604060002054610ed9565b5001546305f5e1008102908082046305f5e1001490151715610f1b57816000526008602052600361136b604060002054610ed9565b5001541115611439576000526008602052600561138c604060002054610ed9565b5001547f0000000000000000000000000000000000000000000000000000000000000000101561140257806113c55750610fb5906115e3565b60038102908104600303610f1b5760011c906305f5e1008202918083046305f5e1001490151715610f1b57610fb5916113fd91610f0e565b6115e3565b60405162461bcd60e51b815260206004820152600f60248201526e1e5bdd48185c99481a5b881919589d608a1b6044820152606490fd5b60405162461bcd60e51b815260206004820152601060248201526f796f752061726520696e20646562742160801b6044820152606490fd5b600654604051639bd713cf60e01b81526001600160a01b0390911691602082600481865afa91821561121a57600092611521575b5060206004936040519485809263693cf00560e11b82525afa92831561121a576000936114eb575b50916114e26114e7926402540be40094611038565b611226565b0490565b92506020833d602011611519575b8161150660209383610f63565b81010312610dac579151916114e26114cd565b3d91506114f9565b9291506020833d602011611550575b8161153d60209383610f63565b81010312610dac579151909160206114a5565b3d9150611530565b60018060a01b03168060005260086020526096600561157b604060002054610ed9565b500154106115dd5780600052600860205261159f600261047c604060002054610ed9565b90600052600860205260046115b8604060002054610ed9565b5001548160011b9180830460021490151715610f1b576311e1a300610fb59204610f0e565b50600090565b600654604051639bd713cf60e01b8152906001600160a01b0316602082600481845afa91821561121a5760009261169d575b5060206004916040519283809263693cf00560e11b82525afa90811561121a57600091611669575b5061164b926114e291611038565b6402540be4008102908082046402540be4001490151715610f1b5790565b90506020813d602011611695575b8161168460209383610f63565b81010312610dac575161164b61163d565b3d9150611677565b9091506020813d6020116116ca575b816116b960209383610f63565b81010312610dac5751906020611615565b3d91506116ac565b6116db90611246565b7f0000000000000000000000000000000000000000000000000000000000000000101561170757600090565b60019056fea264697066735822122035bd53f27e0339c16059d29659972a8dac2be6c386bdfc2775c15ed366656e2c64736f6c634300081a0033","linkReferences":{}},"methodIdentifiers":{"BASE_RISK_RATE()":"839159fb","CIP()":"74cf45f8","MODERATOR_ROLE()":"797669c9","RISK_PREMIUM_RATE()":"310e84b5","burnIndaiAndRelieveCollateral(uint256)":"b9ebc0b4","checkUpkeep(bytes)":"6e04ff0d","createOrUpdateVault()":"bb828132","getAmountINRToETH(uint256)":"6653b817","getBASE_RISK_RATE()":"fb5989a6","getCIP()":"501c3a3c","getCurrentVaultId()":"ae0b163f","getMaxMintableIndai(address)":"bbac624c","getMaxWithdrawableCollateral(address)":"9210ae64","getRISK_PREMIUM_RATE()":"7649aef1","getTotalCollateralPrice()":"9dc1b45b","getTotalVaultDetails()":"c48589cb","getUserBalanceInINR(address)":"314860f8","getUserCollateralBalance(address)":"ab845413","getVaultDetailsForTheUser()":"3f3d2a88","getVaultHealth(address)":"4a83cf49","liquidateVault(address)":"194d7494","mintIndai(uint256)":"16b72657","performUpkeep(bytes)":"4585e33b","scanVaults()":"d7bf2aef","userIndexes(address)":"b603540f","withdrawFromVault(uint256)":"076d0815"},"id":46}