{"abi":[{"type":"constructor","inputs":[],"stateMutability":"nonpayable"},{"type":"function","name":"allowance","inputs":[{"name":"owner","type":"address","internalType":"address"},{"name":"spender","type":"address","internalType":"address"}],"outputs":[{"name":"","type":"uint256","internalType":"uint256"}],"stateMutability":"view"},{"type":"function","name":"approve","inputs":[{"name":"spender","type":"address","internalType":"address"},{"name":"value","type":"uint256","internalType":"uint256"}],"outputs":[{"name":"","type":"bool","internalType":"bool"}],"stateMutability":"nonpayable"},{"type":"function","name":"balanceOf","inputs":[{"name":"account","type":"address","internalType":"address"}],"outputs":[{"name":"","type":"uint256","internalType":"uint256"}],"stateMutability":"view"},{"type":"function","name":"burnFrom","inputs":[{"name":"_add","type":"address","internalType":"address"},{"name":"_amount","type":"uint256","internalType":"uint256"}],"outputs":[],"stateMutability":"nonpayable"},{"type":"function","name":"decimals","inputs":[],"outputs":[{"name":"","type":"uint8","internalType":"uint8"}],"stateMutability":"view"},{"type":"function","name":"mint","inputs":[{"name":"_add","type":"address","internalType":"address"},{"name":"_amount","type":"uint256","internalType":"uint256"}],"outputs":[],"stateMutability":"nonpayable"},{"type":"function","name":"name","inputs":[],"outputs":[{"name":"","type":"string","internalType":"string"}],"stateMutability":"view"},{"type":"function","name":"symbol","inputs":[],"outputs":[{"name":"","type":"string","internalType":"string"}],"stateMutability":"view"},{"type":"function","name":"totalSupply","inputs":[],"outputs":[{"name":"","type":"uint256","internalType":"uint256"}],"stateMutability":"view"},{"type":"function","name":"transfer","inputs":[{"name":"to","type":"address","internalType":"address"},{"name":"value","type":"uint256","internalType":"uint256"}],"outputs":[{"name":"","type":"bool","internalType":"bool"}],"stateMutability":"nonpayable"},{"type":"function","name":"transferFrom","inputs":[{"name":"from","type":"address","internalType":"address"},{"name":"to","type":"address","internalType":"address"},{"name":"value","type":"uint256","internalType":"uint256"}],"outputs":[{"name":"","type":"bool","internalType":"bool"}],"stateMutability":"nonpayable"},{"type":"event","name":"Approval","inputs":[{"name":"owner","type":"address","indexed":true,"internalType":"address"},{"name":"spender","type":"address","indexed":true,"internalType":"address"},{"name":"value","type":"uint256","indexed":false,"internalType":"uint256"}],"anonymous":false},{"type":"event","name":"Transfer","inputs":[{"name":"from","type":"address","indexed":true,"internalType":"address"},{"name":"to","type":"address","indexed":true,"internalType":"address"},{"name":"value","type":"uint256","indexed":false,"internalType":"uint256"}],"anonymous":false},{"type":"error","name":"ERC20InsufficientAllowance","inputs":[{"name":"spender","type":"address","internalType":"address"},{"name":"allowance","type":"uint256","internalType":"uint256"},{"name":"needed","type":"uint256","internalType":"uint256"}]},{"type":"error","name":"ERC20InsufficientBalance","inputs":[{"name":"sender","type":"address","internalType":"address"},{"name":"balance","type":"uint256","internalType":"uint256"},{"name":"needed","type":"uint256","internalType":"uint256"}]},{"type":"error","name":"ERC20InvalidApprover","inputs":[{"name":"approver","type":"address","internalType":"address"}]},{"type":"error","name":"ERC20InvalidReceiver","inputs":[{"name":"receiver","type":"address","internalType":"address"}]},{"type":"error","name":"ERC20InvalidSender","inputs":[{"name":"sender","type":"address","internalType":"address"}]},{"type":"error","name":"ERC20InvalidSpender","inputs":[{"name":"spender","type":"address","internalType":"address"}]}],"bytecode":{"object":"0x608060405234801561001057600080fd5b506040518060400160405280600581526020017f494e4441490000000000000000000000000000000000000000000000000000008152506040518060400160405280600381526020017f494e440000000000000000000000000000000000000000000000000000000000815250816003908161008c91906102f4565b50806004908161009c91906102f4565b5050506103c6565b600081519050919050565b7f4e487b7100000000000000000000000000000000000000000000000000000000600052604160045260246000fd5b7f4e487b7100000000000000000000000000000000000000000000000000000000600052602260045260246000fd5b6000600282049050600182168061012557607f821691505b602082108103610138576101376100de565b5b50919050565b60008190508160005260206000209050919050565b60006020601f8301049050919050565b600082821b905092915050565b6000600883026101a07fffffffffffffffffffffffffffffffffffffffffffffffffffffffffffffffff82610163565b6101aa8683610163565b95508019841693508086168417925050509392505050565b6000819050919050565b6000819050919050565b60006101f16101ec6101e7846101c2565b6101cc565b6101c2565b9050919050565b6000819050919050565b61020b836101d6565b61021f610217826101f8565b848454610170565b825550505050565b600090565b610234610227565b61023f818484610202565b505050565b5b818110156102635761025860008261022c565b600181019050610245565b5050565b601f8211156102a8576102798161013e565b61028284610153565b81016020851015610291578190505b6102a561029d85610153565b830182610244565b50505b505050565b600082821c905092915050565b60006102cb600019846008026102ad565b1980831691505092915050565b60006102e483836102ba565b9150826002028217905092915050565b6102fd826100a4565b67ffffffffffffffff811115610316576103156100af565b5b610320825461010d565b61032b828285610267565b600060209050601f83116001811461035e576000841561034c578287015190505b61035685826102d8565b8655506103be565b601f19841661036c8661013e565b60005b828110156103945784890151825560018201915060208501945060208101905061036f565b868310156103b157848901516103ad601f8916826102ba565b8355505b6001600288020188555050505b505050505050565b610fc3806103d56000396000f3fe608060405234801561001057600080fd5b50600436106100a95760003560e01c806340c10f191161007157806340c10f191461016857806370a082311461018457806379cc6790146101b457806395d89b41146101d0578063a9059cbb146101ee578063dd62ed3e1461021e576100a9565b806306fdde03146100ae578063095ea7b3146100cc57806318160ddd146100fc57806323b872dd1461011a578063313ce5671461014a575b600080fd5b6100b661024e565b6040516100c39190610c17565b60405180910390f35b6100e660048036038101906100e19190610cd2565b6102e0565b6040516100f39190610d2d565b60405180910390f35b610104610303565b6040516101119190610d57565b60405180910390f35b610134600480360381019061012f9190610d72565b61030d565b6040516101419190610d2d565b60405180910390f35b61015261033c565b60405161015f9190610de1565b60405180910390f35b610182600480360381019061017d9190610cd2565b610345565b005b61019e60048036038101906101999190610dfc565b610353565b6040516101ab9190610d57565b60405180910390f35b6101ce60048036038101906101c99190610cd2565b61039b565b005b6101d86103a9565b6040516101e59190610c17565b60405180910390f35b61020860048036038101906102039190610cd2565b61043b565b6040516102159190610d2d565b60405180910390f35b61023860048036038101906102339190610e29565b61045e565b6040516102459190610d57565b60405180910390f35b60606003805461025d90610e98565b80601f016020809104026020016040519081016040528092919081815260200182805461028990610e98565b80156102d65780601f106102ab576101008083540402835291602001916102d6565b820191906000526020600020905b8154815290600101906020018083116102b957829003601f168201915b5050505050905090565b6000806102eb6104e5565b90506102f88185856104ed565b600191505092915050565b6000600254905090565b6000806103186104e5565b90506103258582856104ff565b610330858585610593565b60019150509392505050565b60006012905090565b61034f8282610687565b5050565b60008060008373ffffffffffffffffffffffffffffffffffffffff1673ffffffffffffffffffffffffffffffffffffffff168152602001908152602001600020549050919050565b6103a58282610709565b5050565b6060600480546103b890610e98565b80601f01602080910402602001604051908101604052809291908181526020018280546103e490610e98565b80156104315780601f1061040657610100808354040283529160200191610431565b820191906000526020600020905b81548152906001019060200180831161041457829003601f168201915b5050505050905090565b6000806104466104e5565b9050610453818585610593565b600191505092915050565b6000600160008473ffffffffffffffffffffffffffffffffffffffff1673ffffffffffffffffffffffffffffffffffffffff16815260200190815260200160002060008373ffffffffffffffffffffffffffffffffffffffff1673ffffffffffffffffffffffffffffffffffffffff16815260200190815260200160002054905092915050565b600033905090565b6104fa838383600161078b565b505050565b600061050b848461045e565b90507fffffffffffffffffffffffffffffffffffffffffffffffffffffffffffffffff811461058d578181101561057d578281836040517ffb8f41b200000000000000000000000000000000000000000000000000000000815260040161057493929190610ed8565b60405180910390fd5b61058c8484848403600061078b565b5b50505050565b600073ffffffffffffffffffffffffffffffffffffffff168373ffffffffffffffffffffffffffffffffffffffff16036106055760006040517f96c6fd1e0000000000000000000000000000000000000000000000000000000081526004016105fc9190610f0f565b60405180910390fd5b600073ffffffffffffffffffffffffffffffffffffffff168273ffffffffffffffffffffffffffffffffffffffff16036106775760006040517fec442f0500000000000000000000000000000000000000000000000000000000815260040161066e9190610f0f565b60405180910390fd5b610682838383610962565b505050565b600073ffffffffffffffffffffffffffffffffffffffff168273ffffffffffffffffffffffffffffffffffffffff16036106f95760006040517fec442f050000000000000000000000000000000000000000000000000000000081526004016106f09190610f0f565b60405180910390fd5b61070560008383610962565b5050565b600073ffffffffffffffffffffffffffffffffffffffff168273ffffffffffffffffffffffffffffffffffffffff160361077b5760006040517f96c6fd1e0000000000000000000000000000000000000000000000000000000081526004016107729190610f0f565b60405180910390fd5b61078782600083610962565b5050565b600073ffffffffffffffffffffffffffffffffffffffff168473ffffffffffffffffffffffffffffffffffffffff16036107fd5760006040517fe602df050000000000000000000000000000000000000000000000000000000081526004016107f49190610f0f565b60405180910390fd5b600073ffffffffffffffffffffffffffffffffffffffff168373ffffffffffffffffffffffffffffffffffffffff160361086f5760006040517f94280d620000000000000000000000000000000000000000000000000000000081526004016108669190610f0f565b60405180910390fd5b81600160008673ffffffffffffffffffffffffffffffffffffffff1673ffffffffffffffffffffffffffffffffffffffff16815260200190815260200160002060008573ffffffffffffffffffffffffffffffffffffffff1673ffffffffffffffffffffffffffffffffffffffff16815260200190815260200160002081905550801561095c578273ffffffffffffffffffffffffffffffffffffffff168473ffffffffffffffffffffffffffffffffffffffff167f8c5be1e5ebec7d5bd14f71427d1e84f3dd0314c0f7b2291e5b200ac8c7c3b925846040516109539190610d57565b60405180910390a35b50505050565b600073ffffffffffffffffffffffffffffffffffffffff168373ffffffffffffffffffffffffffffffffffffffff16036109b45780600260008282546109a89190610f59565b92505081905550610a87565b60008060008573ffffffffffffffffffffffffffffffffffffffff1673ffffffffffffffffffffffffffffffffffffffff16815260200190815260200160002054905081811015610a40578381836040517fe450d38c000000000000000000000000000000000000000000000000000000008152600401610a3793929190610ed8565b60405180910390fd5b8181036000808673ffffffffffffffffffffffffffffffffffffffff1673ffffffffffffffffffffffffffffffffffffffff16815260200190815260200160002081905550505b600073ffffffffffffffffffffffffffffffffffffffff168273ffffffffffffffffffffffffffffffffffffffff1603610ad05780600260008282540392505081905550610b1d565b806000808473ffffffffffffffffffffffffffffffffffffffff1673ffffffffffffffffffffffffffffffffffffffff168152602001908152602001600020600082825401925050819055505b8173ffffffffffffffffffffffffffffffffffffffff168373ffffffffffffffffffffffffffffffffffffffff167fddf252ad1be2c89b69c2b068fc378daa952ba7f163c4a11628f55a4df523b3ef83604051610b7a9190610d57565b60405180910390a3505050565b600081519050919050565b600082825260208201905092915050565b60005b83811015610bc1578082015181840152602081019050610ba6565b60008484015250505050565b6000601f19601f8301169050919050565b6000610be982610b87565b610bf38185610b92565b9350610c03818560208601610ba3565b610c0c81610bcd565b840191505092915050565b60006020820190508181036000830152610c318184610bde565b905092915050565b600080fd5b600073ffffffffffffffffffffffffffffffffffffffff82169050919050565b6000610c6982610c3e565b9050919050565b610c7981610c5e565b8114610c8457600080fd5b50565b600081359050610c9681610c70565b92915050565b6000819050919050565b610caf81610c9c565b8114610cba57600080fd5b50565b600081359050610ccc81610ca6565b92915050565b60008060408385031215610ce957610ce8610c39565b5b6000610cf785828601610c87565b9250506020610d0885828601610cbd565b9150509250929050565b60008115159050919050565b610d2781610d12565b82525050565b6000602082019050610d426000830184610d1e565b92915050565b610d5181610c9c565b82525050565b6000602082019050610d6c6000830184610d48565b92915050565b600080600060608486031215610d8b57610d8a610c39565b5b6000610d9986828701610c87565b9350506020610daa86828701610c87565b9250506040610dbb86828701610cbd565b9150509250925092565b600060ff82169050919050565b610ddb81610dc5565b82525050565b6000602082019050610df66000830184610dd2565b92915050565b600060208284031215610e1257610e11610c39565b5b6000610e2084828501610c87565b91505092915050565b60008060408385031215610e4057610e3f610c39565b5b6000610e4e85828601610c87565b9250506020610e5f85828601610c87565b9150509250929050565b7f4e487b7100000000000000000000000000000000000000000000000000000000600052602260045260246000fd5b60006002820490506001821680610eb057607f821691505b602082108103610ec357610ec2610e69565b5b50919050565b610ed281610c5e565b82525050565b6000606082019050610eed6000830186610ec9565b610efa6020830185610d48565b610f076040830184610d48565b949350505050565b6000602082019050610f246000830184610ec9565b92915050565b7f4e487b7100000000000000000000000000000000000000000000000000000000600052601160045260246000fd5b6000610f6482610c9c565b9150610f6f83610c9c565b9250828201905080821115610f8757610f86610f2a565b5b9291505056fea2646970667358221220da0f516f5fec2335b521b71b20d119c2cd3c8caf6b311ed90bbd8ee361ba275364736f6c634300081a0033","linkReferences":{}},"methodIdentifiers":{"allowance(address,address)":"dd62ed3e","approve(address,uint256)":"095ea7b3","balanceOf(address)":"70a08231","burnFrom(address,uint256)":"79cc6790","decimals()":"313ce567","mint(address,uint256)":"40c10f19","name()":"06fdde03","symbol()":"95d89b41","totalSupply()":"18160ddd","transfer(address,uint256)":"a9059cbb","transferFrom(address,address,uint256)":"23b872dd"},"id":42}