{"abi":[{"type":"constructor","inputs":[{"name":"_lzEndpoint","type":"address","internalType":"address"},{"name":"_accessManager","type":"address","internalType":"address"},{"name":"_chainEid","type":"uint32","internalType":"uint32"}],"stateMutability":"nonpayable"},{"type":"function","name":"MINTER_ROLE","inputs":[],"outputs":[{"name":"","type":"bytes32","internalType":"bytes32"}],"stateMutability":"view"},{"type":"function","name":"SEND","inputs":[],"outputs":[{"name":"","type":"uint16","internalType":"uint16"}],"stateMutability":"view"},{"type":"function","name":"SEND_AND_CALL","inputs":[],"outputs":[{"name":"","type":"uint16","internalType":"uint16"}],"stateMutability":"view"},{"type":"function","name":"allowInitializePath","inputs":[{"name":"origin","type":"tuple","internalType":"struct Origin","components":[{"name":"srcEid","type":"uint32","internalType":"uint32"},{"name":"sender","type":"bytes32","internalType":"bytes32"},{"name":"nonce","type":"uint64","internalType":"uint64"}]}],"outputs":[{"name":"","type":"bool","internalType":"bool"}],"stateMutability":"view"},{"type":"function","name":"allowance","inputs":[{"name":"owner","type":"address","internalType":"address"},{"name":"spender","type":"address","internalType":"address"}],"outputs":[{"name":"","type":"uint256","internalType":"uint256"}],"stateMutability":"view"},{"type":"function","name":"approvalRequired","inputs":[],"outputs":[{"name":"","type":"bool","internalType":"bool"}],"stateMutability":"pure"},{"type":"function","name":"approve","inputs":[{"name":"spender","type":"address","internalType":"address"},{"name":"value","type":"uint256","internalType":"uint256"}],"outputs":[{"name":"","type":"bool","internalType":"bool"}],"stateMutability":"nonpayable"},{"type":"function","name":"balanceOf","inputs":[{"name":"account","type":"address","internalType":"address"}],"outputs":[{"name":"","type":"uint256","internalType":"uint256"}],"stateMutability":"view"},{"type":"function","name":"burnFrom","inputs":[{"name":"_add","type":"address","internalType":"address"},{"name":"_amount","type":"uint256","internalType":"uint256"}],"outputs":[],"stateMutability":"nonpayable"},{"type":"function","name":"chainEid","inputs":[],"outputs":[{"name":"","type":"uint32","internalType":"uint32"}],"stateMutability":"view"},{"type":"function","name":"combineOptions","inputs":[{"name":"_eid","type":"uint32","internalType":"uint32"},{"name":"_msgType","type":"uint16","internalType":"uint16"},{"name":"_extraOptions","type":"bytes","internalType":"bytes"}],"outputs":[{"name":"","type":"bytes","internalType":"bytes"}],"stateMutability":"view"},{"type":"function","name":"decimalConversionRate","inputs":[],"outputs":[{"name":"","type":"uint256","internalType":"uint256"}],"stateMutability":"view"},{"type":"function","name":"decimals","inputs":[],"outputs":[{"name":"","type":"uint8","internalType":"uint8"}],"stateMutability":"pure"},{"type":"function","name":"endpoint","inputs":[],"outputs":[{"name":"","type":"address","internalType":"contract ILayerZeroEndpointV2"}],"stateMutability":"view"},{"type":"function","name":"enforcedOptions","inputs":[{"name":"eid","type":"uint32","internalType":"uint32"},{"name":"msgType","type":"uint16","internalType":"uint16"}],"outputs":[{"name":"enforcedOption","type":"bytes","internalType":"bytes"}],"stateMutability":"view"},{"type":"function","name":"isComposeMsgSender","inputs":[{"name":"","type":"tuple","internalType":"struct Origin","components":[{"name":"srcEid","type":"uint32","internalType":"uint32"},{"name":"sender","type":"bytes32","internalType":"bytes32"},{"name":"nonce","type":"uint64","internalType":"uint64"}]},{"name":"","type":"bytes","internalType":"bytes"},{"name":"_sender","type":"address","internalType":"address"}],"outputs":[{"name":"","type":"bool","internalType":"bool"}],"stateMutability":"view"},{"type":"function","name":"isPeer","inputs":[{"name":"_eid","type":"uint32","internalType":"uint32"},{"name":"_peer","type":"bytes32","internalType":"bytes32"}],"outputs":[{"name":"","type":"bool","internalType":"bool"}],"stateMutability":"view"},{"type":"function","name":"lzReceive","inputs":[{"name":"_origin","type":"tuple","internalType":"struct Origin","components":[{"name":"srcEid","type":"uint32","internalType":"uint32"},{"name":"sender","type":"bytes32","internalType":"bytes32"},{"name":"nonce","type":"uint64","internalType":"uint64"}]},{"name":"_guid","type":"bytes32","internalType":"bytes32"},{"name":"_message","type":"bytes","internalType":"bytes"},{"name":"_executor","type":"address","internalType":"address"},{"name":"_extraData","type":"bytes","internalType":"bytes"}],"outputs":[],"stateMutability":"payable"},{"type":"function","name":"lzReceiveAndRevert","inputs":[{"name":"_packets","type":"tuple[]","internalType":"struct InboundPacket[]","components":[{"name":"origin","type":"tuple","internalType":"struct Origin","components":[{"name":"srcEid","type":"uint32","internalType":"uint32"},{"name":"sender","type":"bytes32","internalType":"bytes32"},{"name":"nonce","type":"uint64","internalType":"uint64"}]},{"name":"dstEid","type":"uint32","internalType":"uint32"},{"name":"receiver","type":"address","internalType":"address"},{"name":"guid","type":"bytes32","internalType":"bytes32"},{"name":"value","type":"uint256","internalType":"uint256"},{"name":"executor","type":"address","internalType":"address"},{"name":"message","type":"bytes","internalType":"bytes"},{"name":"extraData","type":"bytes","internalType":"bytes"}]}],"outputs":[],"stateMutability":"payable"},{"type":"function","name":"lzReceiveSimulate","inputs":[{"name":"_origin","type":"tuple","internalType":"struct Origin","components":[{"name":"srcEid","type":"uint32","internalType":"uint32"},{"name":"sender","type":"bytes32","internalType":"bytes32"},{"name":"nonce","type":"uint64","internalType":"uint64"}]},{"name":"_guid","type":"bytes32","internalType":"bytes32"},{"name":"_message","type":"bytes","internalType":"bytes"},{"name":"_executor","type":"address","internalType":"address"},{"name":"_extraData","type":"bytes","internalType":"bytes"}],"outputs":[],"stateMutability":"payable"},{"type":"function","name":"mint","inputs":[{"name":"_add","type":"address","internalType":"address"},{"name":"_amount","type":"uint256","internalType":"uint256"}],"outputs":[],"stateMutability":"nonpayable"},{"type":"function","name":"msgInspector","inputs":[],"outputs":[{"name":"","type":"address","internalType":"address"}],"stateMutability":"view"},{"type":"function","name":"name","inputs":[],"outputs":[{"name":"","type":"string","internalType":"string"}],"stateMutability":"view"},{"type":"function","name":"nextNonce","inputs":[{"name":"","type":"uint32","internalType":"uint32"},{"name":"","type":"bytes32","internalType":"bytes32"}],"outputs":[{"name":"nonce","type":"uint64","internalType":"uint64"}],"stateMutability":"view"},{"type":"function","name":"oApp","inputs":[],"outputs":[{"name":"","type":"address","internalType":"address"}],"stateMutability":"view"},{"type":"function","name":"oAppVersion","inputs":[],"outputs":[{"name":"senderVersion","type":"uint64","internalType":"uint64"},{"name":"receiverVersion","type":"uint64","internalType":"uint64"}],"stateMutability":"pure"},{"type":"function","name":"oftVersion","inputs":[],"outputs":[{"name":"interfaceId","type":"bytes4","internalType":"bytes4"},{"name":"version","type":"uint64","internalType":"uint64"}],"stateMutability":"pure"},{"type":"function","name":"owner","inputs":[],"outputs":[{"name":"","type":"address","internalType":"address"}],"stateMutability":"view"},{"type":"function","name":"peers","inputs":[{"name":"eid","type":"uint32","internalType":"uint32"}],"outputs":[{"name":"peer","type":"bytes32","internalType":"bytes32"}],"stateMutability":"view"},{"type":"function","name":"preCrime","inputs":[],"outputs":[{"name":"","type":"address","internalType":"address"}],"stateMutability":"view"},{"type":"function","name":"quoteOFT","inputs":[{"name":"_sendParam","type":"tuple","internalType":"struct SendParam","components":[{"name":"dstEid","type":"uint32","internalType":"uint32"},{"name":"to","type":"bytes32","internalType":"bytes32"},{"name":"amountLD","type":"uint256","internalType":"uint256"},{"name":"minAmountLD","type":"uint256","internalType":"uint256"},{"name":"extraOptions","type":"bytes","internalType":"bytes"},{"name":"composeMsg","type":"bytes","internalType":"bytes"},{"name":"oftCmd","type":"bytes","internalType":"bytes"}]}],"outputs":[{"name":"oftLimit","type":"tuple","internalType":"struct OFTLimit","components":[{"name":"minAmountLD","type":"uint256","internalType":"uint256"},{"name":"maxAmountLD","type":"uint256","internalType":"uint256"}]},{"name":"oftFeeDetails","type":"tuple[]","internalType":"struct OFTFeeDetail[]","components":[{"name":"feeAmountLD","type":"int256","internalType":"int256"},{"name":"description","type":"string","internalType":"string"}]},{"name":"oftReceipt","type":"tuple","internalType":"struct OFTReceipt","components":[{"name":"amountSentLD","type":"uint256","internalType":"uint256"},{"name":"amountReceivedLD","type":"uint256","internalType":"uint256"}]}],"stateMutability":"view"},{"type":"function","name":"quoteSend","inputs":[{"name":"_sendParam","type":"tuple","internalType":"struct SendParam","components":[{"name":"dstEid","type":"uint32","internalType":"uint32"},{"name":"to","type":"bytes32","internalType":"bytes32"},{"name":"amountLD","type":"uint256","internalType":"uint256"},{"name":"minAmountLD","type":"uint256","internalType":"uint256"},{"name":"extraOptions","type":"bytes","internalType":"bytes"},{"name":"composeMsg","type":"bytes","internalType":"bytes"},{"name":"oftCmd","type":"bytes","internalType":"bytes"}]},{"name":"_payInLzToken","type":"bool","internalType":"bool"}],"outputs":[{"name":"msgFee","type":"tuple","internalType":"struct MessagingFee","components":[{"name":"nativeFee","type":"uint256","internalType":"uint256"},{"name":"lzTokenFee","type":"uint256","internalType":"uint256"}]}],"stateMutability":"view"},{"type":"function","name":"renounceOwnership","inputs":[],"outputs":[],"stateMutability":"nonpayable"},{"type":"function","name":"send","inputs":[{"name":"_sendParam","type":"tuple","internalType":"struct SendParam","components":[{"name":"dstEid","type":"uint32","internalType":"uint32"},{"name":"to","type":"bytes32","internalType":"bytes32"},{"name":"amountLD","type":"uint256","internalType":"uint256"},{"name":"minAmountLD","type":"uint256","internalType":"uint256"},{"name":"extraOptions","type":"bytes","internalType":"bytes"},{"name":"composeMsg","type":"bytes","internalType":"bytes"},{"name":"oftCmd","type":"bytes","internalType":"bytes"}]},{"name":"_fee","type":"tuple","internalType":"struct MessagingFee","components":[{"name":"nativeFee","type":"uint256","internalType":"uint256"},{"name":"lzTokenFee","type":"uint256","internalType":"uint256"}]},{"name":"_refundAddress","type":"address","internalType":"address"}],"outputs":[{"name":"msgReceipt","type":"tuple","internalType":"struct MessagingReceipt","components":[{"name":"guid","type":"bytes32","internalType":"bytes32"},{"name":"nonce","type":"uint64","internalType":"uint64"},{"name":"fee","type":"tuple","internalType":"struct MessagingFee","components":[{"name":"nativeFee","type":"uint256","internalType":"uint256"},{"name":"lzTokenFee","type":"uint256","internalType":"uint256"}]}]},{"name":"oftReceipt","type":"tuple","internalType":"struct OFTReceipt","components":[{"name":"amountSentLD","type":"uint256","internalType":"uint256"},{"name":"amountReceivedLD","type":"uint256","internalType":"uint256"}]}],"stateMutability":"payable"},{"type":"function","name":"setDelegate","inputs":[{"name":"_delegate","type":"address","internalType":"address"}],"outputs":[],"stateMutability":"nonpayable"},{"type":"function","name":"setEnforcedOptions","inputs":[{"name":"_enforcedOptions","type":"tuple[]","internalType":"struct EnforcedOptionParam[]","components":[{"name":"eid","type":"uint32","internalType":"uint32"},{"name":"msgType","type":"uint16","internalType":"uint16"},{"name":"options","type":"bytes","internalType":"bytes"}]}],"outputs":[],"stateMutability":"nonpayable"},{"type":"function","name":"setMsgInspector","inputs":[{"name":"_msgInspector","type":"address","internalType":"address"}],"outputs":[],"stateMutability":"nonpayable"},{"type":"function","name":"setPeer","inputs":[{"name":"_eid","type":"uint32","internalType":"uint32"},{"name":"_peer","type":"bytes32","internalType":"bytes32"}],"outputs":[],"stateMutability":"nonpayable"},{"type":"function","name":"setPreCrime","inputs":[{"name":"_preCrime","type":"address","internalType":"address"}],"outputs":[],"stateMutability":"nonpayable"},{"type":"function","name":"sharedDecimals","inputs":[],"outputs":[{"name":"","type":"uint8","internalType":"uint8"}],"stateMutability":"view"},{"type":"function","name":"symbol","inputs":[],"outputs":[{"name":"","type":"string","internalType":"string"}],"stateMutability":"view"},{"type":"function","name":"token","inputs":[],"outputs":[{"name":"","type":"address","internalType":"address"}],"stateMutability":"view"},{"type":"function","name":"totalSupply","inputs":[],"outputs":[{"name":"","type":"uint256","internalType":"uint256"}],"stateMutability":"view"},{"type":"function","name":"transfer","inputs":[{"name":"to","type":"address","internalType":"address"},{"name":"value","type":"uint256","internalType":"uint256"}],"outputs":[{"name":"","type":"bool","internalType":"bool"}],"stateMutability":"nonpayable"},{"type":"function","name":"transferFrom","inputs":[{"name":"from","type":"address","internalType":"address"},{"name":"to","type":"address","internalType":"address"},{"name":"value","type":"uint256","internalType":"uint256"}],"outputs":[{"name":"","type":"bool","internalType":"bool"}],"stateMutability":"nonpayable"},{"type":"function","name":"transferOwnership","inputs":[{"name":"newOwner","type":"address","internalType":"address"}],"outputs":[],"stateMutability":"nonpayable"},{"type":"event","name":"Approval","inputs":[{"name":"owner","type":"address","indexed":true,"internalType":"address"},{"name":"spender","type":"address","indexed":true,"internalType":"address"},{"name":"value","type":"uint256","indexed":false,"internalType":"uint256"}],"anonymous":false},{"type":"event","name":"EnforcedOptionSet","inputs":[{"name":"_enforcedOptions","type":"tuple[]","indexed":false,"internalType":"struct EnforcedOptionParam[]","components":[{"name":"eid","type":"uint32","internalType":"uint32"},{"name":"msgType","type":"uint16","internalType":"uint16"},{"name":"options","type":"bytes","internalType":"bytes"}]}],"anonymous":false},{"type":"event","name":"MsgInspectorSet","inputs":[{"name":"inspector","type":"address","indexed":false,"internalType":"address"}],"anonymous":false},{"type":"event","name":"OFTReceived","inputs":[{"name":"guid","type":"bytes32","indexed":true,"internalType":"bytes32"},{"name":"srcEid","type":"uint32","indexed":false,"internalType":"uint32"},{"name":"toAddress","type":"address","indexed":true,"internalType":"address"},{"name":"amountReceivedLD","type":"uint256","indexed":false,"internalType":"uint256"}],"anonymous":false},{"type":"event","name":"OFTSent","inputs":[{"name":"guid","type":"bytes32","indexed":true,"internalType":"bytes32"},{"name":"dstEid","type":"uint32","indexed":false,"internalType":"uint32"},{"name":"fromAddress","type":"address","indexed":true,"internalType":"address"},{"name":"amountSentLD","type":"uint256","indexed":false,"internalType":"uint256"},{"name":"amountReceivedLD","type":"uint256","indexed":false,"internalType":"uint256"}],"anonymous":false},{"type":"event","name":"OwnershipTransferred","inputs":[{"name":"previousOwner","type":"address","indexed":true,"internalType":"address"},{"name":"newOwner","type":"address","indexed":true,"internalType":"address"}],"anonymous":false},{"type":"event","name":"PeerSet","inputs":[{"name":"eid","type":"uint32","indexed":false,"internalType":"uint32"},{"name":"peer","type":"bytes32","indexed":false,"internalType":"bytes32"}],"anonymous":false},{"type":"event","name":"PreCrimeSet","inputs":[{"name":"preCrimeAddress","type":"address","indexed":false,"internalType":"address"}],"anonymous":false},{"type":"event","name":"Transfer","inputs":[{"name":"from","type":"address","indexed":true,"internalType":"address"},{"name":"to","type":"address","indexed":true,"internalType":"address"},{"name":"value","type":"uint256","indexed":false,"internalType":"uint256"}],"anonymous":false},{"type":"error","name":"AddressEmptyCode","inputs":[{"name":"target","type":"address","internalType":"address"}]},{"type":"error","name":"AddressInsufficientBalance","inputs":[{"name":"account","type":"address","internalType":"address"}]},{"type":"error","name":"ERC20InsufficientAllowance","inputs":[{"name":"spender","type":"address","internalType":"address"},{"name":"allowance","type":"uint256","internalType":"uint256"},{"name":"needed","type":"uint256","internalType":"uint256"}]},{"type":"error","name":"ERC20InsufficientBalance","inputs":[{"name":"sender","type":"address","internalType":"address"},{"name":"balance","type":"uint256","internalType":"uint256"},{"name":"needed","type":"uint256","internalType":"uint256"}]},{"type":"error","name":"ERC20InvalidApprover","inputs":[{"name":"approver","type":"address","internalType":"address"}]},{"type":"error","name":"ERC20InvalidReceiver","inputs":[{"name":"receiver","type":"address","internalType":"address"}]},{"type":"error","name":"ERC20InvalidSender","inputs":[{"name":"sender","type":"address","internalType":"address"}]},{"type":"error","name":"ERC20InvalidSpender","inputs":[{"name":"spender","type":"address","internalType":"address"}]},{"type":"error","name":"FailedInnerCall","inputs":[]},{"type":"error","name":"InvalidDelegate","inputs":[]},{"type":"error","name":"InvalidEndpointCall","inputs":[]},{"type":"error","name":"InvalidLocalDecimals","inputs":[]},{"type":"error","name":"InvalidOptions","inputs":[{"name":"options","type":"bytes","internalType":"bytes"}]},{"type":"error","name":"LzTokenUnavailable","inputs":[]},{"type":"error","name":"NoPeer","inputs":[{"name":"eid","type":"uint32","internalType":"uint32"}]},{"type":"error","name":"NotEnoughNative","inputs":[{"name":"msgValue","type":"uint256","internalType":"uint256"}]},{"type":"error","name":"OnlyEndpoint","inputs":[{"name":"addr","type":"address","internalType":"address"}]},{"type":"error","name":"OnlyPeer","inputs":[{"name":"eid","type":"uint32","internalType":"uint32"},{"name":"sender","type":"bytes32","internalType":"bytes32"}]},{"type":"error","name":"OnlySelf","inputs":[]},{"type":"error","name":"OwnableInvalidOwner","inputs":[{"name":"owner","type":"address","internalType":"address"}]},{"type":"error","name":"OwnableUnauthorizedAccount","inputs":[{"name":"account","type":"address","internalType":"address"}]},{"type":"error","name":"SafeERC20FailedOperation","inputs":[{"name":"token","type":"address","internalType":"address"}]},{"type":"error","name":"SimulationResult","inputs":[{"name":"result","type":"bytes","internalType":"bytes"}]},{"type":"error","name":"SlippageExceeded","inputs":[{"name":"amountLD","type":"uint256","internalType":"uint256"},{"name":"minAmountLD","type":"uint256","internalType":"uint256"}]}],"bytecode":{"object":"0x60c080604052346104d05760009060608161315b803803809161002282856104d5565b8339810103126104cc576100358161050e565b9160406100446020840161050e565b9201519063ffffffff821682036104c957604051906100646040836104d5565b6005825264527570696f60d81b6020830152604051946100856040876104d5565b600386526205255560ec1b602087015233156104b5578154336001600160a01b031982168117845560405192916001600160a01b03167f8be0079c531659141344cd1fd0a4f28419497f9722a3daafe3b4186f6b6457e08580a36001600160a01b03166080819052803b156104b1578160248185809463ca5eb5e160e01b83523360048401525af180156104a657610496575b50606460a052815190916001600160401b03821161048257600854600181811c91168015610478575b6020821014610464579081601f8493116103f6575b50602090601f8311600114610391578492610386575b50508160011b916000199060031b1c1916176008555b8351906001600160401b03821161037257600954600181811c91168015610368575b602082101461035457601f81116102f1575b50602090601f831160011461028e57948293949592610283575b50508160011b916000199060031b1c1916176009555b600a80546001600160c01b0319166001600160a01b039093169290921760a09190911b63ffffffff60a01b16179055604051612c3890816105238239608051818181610796015281816108b601528181610cbf01528181611039015281816118af015281816129990152612a3b015260a051818181610c0f0152818161134001528181611ed1015281816120f7015281816122da01526127360152f35b0151905038806101d0565b90601f19831660098352818320925b8181106102d9575095836001959697106102c0575b505050811b016009556101e6565b015160001960f88460031b161c191690553880806102b2565b9192602060018192868b01518155019401920161029d565b600982527f6e1540171b6c0c960b71a7020d9f60077f6af931a8bbf590da0223dacf75c7af601f840160051c8101916020851061034a575b601f0160051c01905b81811061033f57506101b6565b828155600101610332565b9091508190610329565b634e487b7160e01b82526022600452602482fd5b90607f16906101a4565b634e487b7160e01b81526041600452602490fd5b01519050388061016c565b600885528185209250601f198416855b8181106103de57509084600195949392106103c5575b505050811b01600855610182565b015160001960f88460031b161c191690553880806103b7565b929360206001819287860151815501950193016103a1565b600885529091507ff3f7a9fe364faab93b216da50a3214154f22a0a2b415b23a84c8169e8b636ee3601f840160051c8101916020851061045a575b90601f859493920160051c01905b81811061044c5750610156565b85815584935060010161043f565b9091508190610431565b634e487b7160e01b84526022600452602484fd5b90607f1690610141565b634e487b7160e01b83526041600452602483fd5b816104a0916104d5565b38610118565b6040513d84823e3d90fd5b8280fd5b631e4fbdf760e01b82526004829052602482fd5b80fd5b5080fd5b600080fd5b601f909101601f19168101906001600160401b038211908210176104f857604052565b634e487b7160e01b600052604160045260246000fd5b51906001600160a01b03821682036104d05756fe6080604052600436101561001257600080fd5b60003560e01c806306fdde03146102f2578063095ea7b3146102ed5780630d35b415146102e8578063111ecdad146102e357806313137d65146102de578063134d4f25146102d9578063156a0d0f146102d457806317442b70146102cf57806318160ddd146102ca5780631f5e1334146102c557806323b872dd146102c0578063313ce567146102bb5780633400288b146102b65780633b6f743b146102b157806340c10f19146102ac5780635167a5a8146102a757806352ae28791461021b5780635535d461146102a25780635a0dfe4d1461029d5780635e280f11146102985780636fc1b31e1461029357806370a082311461028e578063715018a61461028957806379cc6790146102845780637d25a05e1461027f57806382413eac1461027a578063857749b0146102755780638da5cb5b1461027057806395d89b411461026b578063963efcaa146102665780639f68b96414610261578063a9059cbb1461025c578063b731ea0a14610257578063b98bd07014610252578063bb0b6a531461024d578063bc70b35414610248578063bd815db014610243578063c7c7f5b31461023e578063ca5eb5e114610239578063d045a0dc14610234578063d42438851461022f578063d53913931461022a578063dd62ed3e14610225578063f2fde38b14610220578063fc0c546a1461021b5763ff7bd03d1461021657600080fd5b611af8565b610df2565b611a6b565b611a08565b6119cd565b61195d565b61192a565b611885565b611756565b6115a9565b611555565b61151a565b611437565b6113b4565b61137f565b611363565b611328565b611280565b611257565b61123b565b6111dd565b6111b6565b61116e565b611115565b6110d8565b611068565b611023565b610fdb565b610f5c565b610dcb565b610d61565b610bab565b610b1a565b610af0565b610a45565b610a29565b610a0b565b6109e9565b6109c2565b6109a6565b610783565b6106ac565b6105c7565b610451565b610363565b600091031261030257565b600080fd5b60005b83811061031a5750506000910152565b818101518382015260200161030a565b9060209161034381518092818552858086019101610307565b601f01601f1916010190565b90602061036092818152019061032a565b90565b3461030257600036600319011261030257604051600060085461038581610e2d565b808452906001811690811561041c57506001146103bd575b6103b9836103ad81850382610f3b565b6040519182918261034f565b0390f35b600860009081527ff3f7a9fe364faab93b216da50a3214154f22a0a2b415b23a84c8169e8b636ee3939250905b808210610402575090915081016020016103ad61039d565b9192600181602092548385880101520191019092916103ea565b60ff191660208086019190915291151560051b840190910191506103ad905061039d565b6001600160a01b0381160361030257565b346103025760403660031901126103025760043561046e81610440565b6024353315610502576001600160a01b0382169182156104ec576104b2829133600052600660205260406000209060018060a01b0316600052602052604060002090565b5560405190815233907f8c5be1e5ebec7d5bd14f71427d1e84f3dd0314c0f7b2291e5b200ac8c7c3b92590602090a3602060405160018152f35b634a1406b160e11b600052600060045260246000fd5b63e602df0560e01b600052600060045260246000fd5b908160e09103126103025790565b939291906105428560a081019260208091805184520151910152565b60a06040860152815180915260c0850190602060c08260051b8801019301916000905b82821061058b57505050509060606105899294019060208091805184520151910152565b565b909192936020806105b960019360bf198c82030186526040838a51805184520151918185820152019061032a565b960192019201909291610565565b34610302576020366003190112610302576004356001600160401b038111610302576105f7903690600401610518565b6105ff611b5d565b50610608611b5d565b5060405161061581610f00565b600081526001600160401b0360208201526020604051926106368285610f3b565b60008452601f19820160005b8181106106885750509061066c6103b9926040810135610666606083013592611b8d565b50611ec8565b9091610676611b3f565b92835282015260405193849384610526565b839060405161069681610f00565b6000815260608382015282828901015201610642565b34610302576000366003190112610302576004546040516001600160a01b039091168152602090f35b606090600319011261030257600490565b9181601f84011215610302578235916001600160401b038311610302576020838186019501011161030257565b600319810160e0811261030257606060009112610780575060049182606435926084356001600160401b03811161030257816107509184016106e6565b9390939260a43561076081610440565b9260c4356001600160401b0381116103025761077c92016106e6565b9091565b80fd5b61078c36610713565b50919492915050337f00000000000000000000000000000000000000000000000000000000000000006001600160a01b0316036109915781356107ce81610b0c565b6107d781611f1c565b90602084013580920361096a5750506107ff6107f38583612706565b6001600160a01b031690565b936108256108156108108385612712565b612728565b61081e85611b8d565b508661229a565b916108308260281090565b610888575b50506108617fefed6d3500546b29533b128a29e3a94d70788727f0507505ac12eaf2e578fd9c92611b8d565b6040805163ffffffff92909216825260208201929092526001600160a01b039490941693a3005b90826108b3926108ad61089d60408801611f50565b936108a788611b8d565b9261275c565b9261277f565b917f00000000000000000000000000000000000000000000000000000000000000006001600160a01b0316803b1561030257604051633e5ac80960e11b815293600091859182908490829061090d908b8d60048501611f5a565b03925af1908115610965577fefed6d3500546b29533b128a29e3a94d70788727f0507505ac12eaf2e578fd9c936108619261094a575b5092610835565b80610959600061095f93610f3b565b806102f7565b38610943565b611e36565b8061097963ffffffff92610b0c565b63309afaf360e21b6000521660045260245260446000fd5b6391ac5e4f60e01b6000523360045260246000fd5b3461030257600036600319011261030257602060405160028152f35b34610302576000366003190112610302576040805162b9270b60e21b815260016020820152f35b3461030257600036600319011261030257604080516001815260026020820152f35b34610302576000366003190112610302576020600754604051908152f35b3461030257600036600319011261030257602060405160018152f35b3461030257606036600319011261030257600435610a6281610440565b602435610a6e81610440565b6001600160a01b038216600090815260066020908152604080832033845290915290205491604435919060018401610ab7575b610aab9350611f85565b60405160018152602090f35b828410610ad357610ace83610aab95033383612689565b610aa1565b8284637dc7a0d960e11b6000523360045260245260445260646000fd5b3461030257600036600319011261030257602060405160088152f35b63ffffffff81160361030257565b34610302576040366003190112610302577f238399d427b947898edb290f5ff0f9109849b1c3ba196a42e35f00c50a54b98b600435610b5881610b0c565b60243590610b6461207d565b63ffffffff8116600052600160205281604060002055610b9c604051928392836020909392919363ffffffff60408201951681520152565b0390a1005b8015150361030257565b34610302576040366003190112610302576004356001600160401b03811161030257610bdb903690600401610518565b602435610be781610ba1565b610bef611b5d565b50813591606081013590610c3a6040820135610c0a86610b0c565b610c357f000000000000000000000000000000000000000000000000000000000000000080926126d3565b6126f3565b91808310610d4957610cbb604086610ca087610c5688886120e0565b90610c6085610b0c565b610c68611b5d565b50610c7285611f1c565b610c89610c7d611b4e565b63ffffffff9097168752565b602086015285850152606084015215156080830152565b815180938192631bb8518b60e31b835230906004840161222c565b03817f00000000000000000000000000000000000000000000000000000000000000006001600160a01b03165afa8015610965576103b991600091610d1a575b5060405191829182815181526020918201519181019190915260400190565b610d3c915060403d604011610d42575b610d348183610f3b565b810190612218565b82610cfb565b503d610d2a565b826371c4efed60e01b60005260045260245260446000fd5b3461030257604036600319011261030257600435610d7e81610440565b6024356001600160a01b03821615610dc1575b6001600160a01b03821615610dab57610da9916127dd565b005b63ec442f0560e01b600052600060045260246000fd5b61dead9150610d91565b3461030257600036600319011261030257602063ffffffff600a5460a01c16604051908152f35b34610302576000366003190112610302576020604051308152f35b6024359061ffff8216820361030257565b359061ffff8216820361030257565b90600182811c92168015610e5d575b6020831014610e4757565b634e487b7160e01b600052602260045260246000fd5b91607f1691610e3c565b60009291815491610e7783610e2d565b8083529260018116908115610ecd5750600114610e9357505050565b60009081526020812093945091925b838310610eb3575060209250010190565b600181602092949394548385870101520191019190610ea2565b915050602093945060ff929192191683830152151560051b010190565b634e487b7160e01b600052604160045260246000fd5b604081019081106001600160401b03821117610f1b57604052565b610eea565b606081019081106001600160401b03821117610f1b57604052565b90601f801991011681019081106001600160401b03821117610f1b57604052565b34610302576040366003190112610302576103b9610fc0610fc7610fb4600435610f8581610b0c565b63ffffffff610f92610e0d565b9116600052600360205260406000209061ffff16600052602052604060002090565b60405192838092610e67565b0382610f3b565b60405191829160208352602083019061032a565b34610302576040366003190112610302576020611019600435610ffd81610b0c565b6024359063ffffffff1660005260016020526040600020541490565b6040519015158152f35b34610302576000366003190112610302576040517f00000000000000000000000000000000000000000000000000000000000000006001600160a01b03168152602090f35b34610302576020366003190112610302577ff0be4f1e87349231d80c36b33f9e8639658eeaf474014dee15a3e6a4d441419760206004356110a881610440565b6110b061207d565b600480546001600160a01b0319166001600160a01b03929092169182179055604051908152a1005b34610302576020366003190112610302576004356110f581610440565b60018060a01b031660005260056020526020604060002054604051908152f35b346103025760003660031901126103025761112e61207d565b600080546001600160a01b0319811682556001600160a01b03167f8be0079c531659141344cd1fd0a4f28419497f9722a3daafe3b4186f6b6457e08280a3005b346103025760403660031901126103025760043561118b81610440565b6024359060631982018281116111b157610da99263ffffffff600a5460a01c16926122cc565b611b97565b34610302576040366003190112610302576111d2600435610b0c565b602060405160008152f35b346103025760a0366003190112610302576111f7366106d5565b506064356001600160401b038111610302576112179036906004016106e6565b5050602060843561122781610440565b6040516001600160a01b0390911630148152f35b3461030257600036600319011261030257602060405160068152f35b34610302576000366003190112610302576000546040516001600160a01b039091168152602090f35b346103025760003660031901126103025760405160006009546112a281610e2d565b808452906001811690811561041c57506001146112c9576103b9836103ad81850382610f3b565b600960009081527f6e1540171b6c0c960b71a7020d9f60077f6af931a8bbf590da0223dacf75c7af939250905b80821061130e575090915081016020016103ad61039d565b9192600181602092548385880101520191019092916112f6565b346103025760003660031901126103025760206040517f00000000000000000000000000000000000000000000000000000000000000008152f35b3461030257600036600319011261030257602060405160008152f35b34610302576040366003190112610302576113a960043561139f81610440565b6024359033611f85565b602060405160018152f35b34610302576000366003190112610302576002546040516001600160a01b039091168152602090f35b906020600319830112610302576004356001600160401b0381116103025760040160009280601f83011215611433578135936001600160401b03851161078057506020808301928560051b010111610302579190565b8380fd5b3461030257611445366113dd565b9061144e61207d565b61145782611b76565b906114656040519283610f3b565b828252602082019260051b8101903682116103025780935b82851061148d57610da98461258a565b84356001600160401b0381116103025782019060608236031261030257604051916114b783610f20565b80356114c281610b0c565b83526114d060208201610e1e565b60208401526040810135906001600160401b03821161030257019036601f830112156103025760209261150a849336908581359101611bc8565b604082015281520194019361147d565b346103025760203660031901126103025763ffffffff60043561153c81610b0c565b1660005260016020526020604060002054604051908152f35b346103025760603660031901126103025760043561157281610b0c565b61157a610e0d565b604435906001600160401b038211610302576103b9926115a1610fc79336906004016106e6565b929091611c8b565b6115b2366113dd565b60005b81811061162557604051638e9e709960e01b8152600081600481335afa8015610965576115fe91600091611602575b50604051638351eea760e01b81529182916004830161034f565b0390fd5b61161f91503d806000833e6116178183610f3b565b810190611e42565b826115e4565b611630818385611d47565b9061166261165e61164084611b8d565b60208501359063ffffffff1660005260016020526040600020541490565b1590565b6116fc5760c08201359160a081013561167f610100830183611d6f565b94909161168e60e08501611da1565b9361169d610120820182611d6f565b959095303b15610302576000966116cb926040519a8b9889978897633411683760e21b895260048901611dbc565b0391305af1918215610965576001926116e7575b505b016115b5565b8061095960006116f693610f3b565b386116df565b600191506116e1565b916080610589929493611745604060c0830197805184526001600160401b0360208201511660208501520151604083019060208091805184520151910152565b019060208091805184520151910152565b6080366003190112610302576004356001600160401b03811161030257611781903690600401610518565b6040366023190112610302576064359061179a82610440565b6117a2611ea0565b506117ab611b5d565b506117b4611ea0565b506117bd611b5d565b5080356118166117e082606085013560408601356117da83610b0c565b336122cc565b9490926117ed86866120e0565b906117f783610b0c565b6040519261180484610f00565b6024358452604435602085015261291c565b917f85496b760a4b7f8d66384b9df21b381f5d1b1e79f229a47aaf4c232edc2fe59a611840611b3f565b94838652806020870152611855855193611b8d565b6040805163ffffffff9290921682526020820195909552938401523392606090a36103b960405192839283611705565b34610302576000602036600319011261078057806004356118a581610440565b6118ad61207d565b7f00000000000000000000000000000000000000000000000000000000000000006001600160a01b0316803b156119265760405163ca5eb5e160e01b81526001600160a01b0390921660048301529091908290602490829084905af180156109655782906119185780f35b61192191610f3b565b388180f35b5050fd5b61193336610713565b505050929030330361194c576107ff6107f38583612706565b63029a949d60e31b60005260046000fd5b34610302576020366003190112610302577fd48d879cef83a1c0bdda516f27b13ddb1b3f8bbac1c9e1511bb2a659c2427760602060043561199d81610440565b6119a561207d565b600280546001600160a01b0319166001600160a01b03929092169182179055604051908152a1005b346103025760003660031901126103025760206040517f9f2df0fed2c77648de5860a4cc508cd0818c85b8b8a1ab4ceeef8d981c8956a68152f35b34610302576040366003190112610302576020611a62600435611a2a81610440565b60243590611a3782610440565b60018060a01b03166000526006835260406000209060018060a01b0316600052602052604060002090565b54604051908152f35b3461030257602036600319011261030257600435611a8881610440565b611a9061207d565b6001600160a01b03168015611ae257600080546001600160a01b03198116831782556001600160a01b0316907f8be0079c531659141344cd1fd0a4f28419497f9722a3daafe3b4186f6b6457e09080a3005b631e4fbdf760e01b600052600060045260246000fd5b34610302576060366003190112610302576020611b14366106d5565b63ffffffff8135611b2481610b0c565b16600052600182528160406000205491013560405191148152f35b60405190610589604083610f3b565b6040519061058960a083610f3b565b60405190611b6a82610f00565b60006020838281520152565b6001600160401b038111610f1b5760051b60200190565b3561036081610b0c565b634e487b7160e01b600052601160045260246000fd5b6001600160401b038111610f1b57601f01601f191660200190565b929192611bd482611bad565b91611be26040519384610f3b565b829481845281830111610302578281602093846000960137010152565b909291928360021161030257831161030257600201916001190190565b602083610589939594956040519684611c3e899651809287808a019101610307565b8501918483013701016000815203601f198101845283610f3b565b908060209392818452848401376000828201840152601f01601f1916010190565b916020610360938181520191611c59565b610fb4610fc09263ffffffff611cc0939795969716600052600360205260406000209061ffff16600052602052604060002090565b805115611d23578315611d1d576002841015611cf45750506115fe604051928392639a6d49cd60e01b845260048401611c7a565b909280611d179161036094611d12611d0d368484611bc8565b612651565b611bff565b91611c1c565b92509050565b509190610360913691611bc8565b634e487b7160e01b600052603260045260246000fd5b9190811015611d6a5760051b8101359061013e1981360301821215610302570190565b611d31565b903590601e198136030182121561030257018035906001600160401b0382116103025760200191813603831361030257565b3561036081610440565b6001600160401b0381160361030257565b929093611e18926001600160401b0360406103609a98999763ffffffff8135611de481610b0c565b168852602081013560208901520135611dfc81611dab565b166040860152606085015260e0608085015260e0840191611c59565b6001600160a01b0390941660a082015280840360c090910152611c59565b6040513d6000823e3d90fd5b602081830312610302578051906001600160401b038211610302570181601f82011215610302578051611e7481611bad565b92611e826040519485610f3b565b81845260208284010111610302576103609160208085019101610307565b60405190611ead82610f20565b8160008152600060208201526040611ec3611b5d565b910152565b611ef790610c357f000000000000000000000000000000000000000000000000000000000000000080926126d3565b918291808410611f045750565b836371c4efed60e01b60005260045260245260446000fd5b63ffffffff16806000526001602052604060002054908115611f3c575090565b63f6ff4fb760e01b60005260045260246000fd5b3561036081611dab565b610360939260809260018060a01b03168252602082015260006040820152816060820152019061032a565b90916001600160a01b038216918215612067576001600160a01b038416938415610dab576001600160a01b038216600090815260056020526040812090929054848110612041579161202e91612013867fddf252ad1be2c89b69c2b068fc378daa952ba7f163c4a11628f55a4df523b3ef979695039160018060a01b03166000526005602052604060002090565b556001600160a01b0316600090815260056020526040902090565b80548301905550604051908152602090a3565b63391434e360e21b84526001600160a01b03909116600452602452506044829052606490fd5b634b637e8f60e11b600052600060045260246000fd5b6000546001600160a01b0316330361209157565b63118cdaa760e01b6000523360045260246000fd5b90816020910312610302575161036081610ba1565b90916120d26103609360408452604084019061032a565b91602081840391015261032a565b909161214561216c9361212861211c6020860135927f0000000000000000000000000000000000000000000000000000000000000000906126d3565b6001600160401b031690565b61213f61213860a0870187611d6f565b3691611bc8565b9161285d565b93909283946000146121e8576002905b6115a161216182611b8d565b916080810190611d6f565b60045490926001600160a01b0390911690838261218857505050565b60405163043a78eb60e01b8152926020928492839182916121ac91600484016120bb565b03915afa8015610965576121bd5750565b6121de9060203d6020116121e1575b6121d68183610f3b565b8101906120a6565b50565b503d6121cc565b600190612155565b91908260409103126103025760405161220881610f00565b6020808294805184520151910152565b9060408282031261030257610360916121f0565b906020909392936040835263ffffffff8151166040840152818101516060840152608061228061226a604084015160a08488015260e087019061032a565b6060840151868203603f190160a088015261032a565b910151151560c08401526001600160a01b03909416910152565b6001600160a01b038116156122c3575b6001600160a01b03811615610dab5781610360916127dd565b5061dead6122aa565b925061230090939193610c357f000000000000000000000000000000000000000000000000000000000000000080926126d3565b92808410611f04575082916001600160a01b0381169083908215612067576001600160a01b0381166000908152600560205260409020548281106123a957827fddf252ad1be2c89b69c2b068fc378daa952ba7f163c4a11628f55a4df523b3ef92612386600096956123a494039160018060a01b03166000526005602052604060002090565b556123948160075403600755565b6040519081529081906020820190565b0390a3565b63391434e360e21b6000526001600160a01b0390911660045260245260445260646000fd5b8051821015611d6a5760209160051b010190565b601f82116123ef57505050565b6000526020600020906020601f840160051c8301931061242a575b601f0160051c01905b81811061241e575050565b60008155600101612413565b909150819061240a565b91909182516001600160401b038111610f1b5761245b816124558454610e2d565b846123e2565b6020601f821160011461249c57819061248d939495600092612491575b50508160011b916000199060031b1c19161790565b9055565b015190503880612478565b601f198216906124b184600052602060002090565b9160005b8181106124ed575095836001959697106124d4575b505050811b019055565b015160001960f88460031b161c191690553880806124ca565b9192602060018192868b0151815501940192016124b5565b602081016020825282518091526040820191602060408360051b8301019401926000915b83831061253857505050505090565b909192939460208061257b600193603f19868203018752606060408b5163ffffffff815116845261ffff868201511686850152015191816040820152019061032a565b97019301930191939290612529565b60005b815181101561261a57806125b060406125a8600194866123ce565b510151612651565b61261460406125bf83866123ce565b51015163ffffffff6125d184876123ce565b515116600052600360205261260f60406000206125fd60206125f3878a6123ce565b51015161ffff1690565b61ffff16600052602052604060002090565b612434565b0161258d565b5061264c7fbe4864a8e820971c0247f5992e2da559595f7bf076a21cb5928d443d2a13b6749160405191829182612505565b0390a1565b600361ffff600283015116036126645750565b604051639a6d49cd60e01b8152602060048201529081906115fe90602483019061032a565b6001600160a01b0316908115610502576001600160a01b038116156104ec576126d091600052600660205260406000209060018060a01b0316600052602052604060002090565b55565b81156126dd570490565b634e487b7160e01b600052601260045260246000fd5b818102929181159184041417156111b157565b90602011610302573590565b9060009060281161078057506020013560c01c90565b610360906001600160401b037f000000000000000000000000000000000000000000000000000000000000000091166126f3565b919060009281602811611433579192506103609136916027190190602801611bc8565b604c9193610360936040519586936001600160401b0360c01b9060c01b16602085015263ffffffff60e01b9060e01b166028840152602c8301526127cc8151809260208686019101610307565b81010301601f198101835282610f3b565b90600754908082018092116111b15760207fddf252ad1be2c89b69c2b068fc378daa952ba7f163c4a11628f55a4df523b3ef9160009360075560018060a01b038516948515851461283b575080600754036007555b604051908152a3565b6001600160a01b03166000908152600560205260409020818154019055612832565b825115801593906128ab576128a89160689160405194859260208401526001600160401b0360c01b9060c01b1660408301523360488301526127cc8151809260208686019101610307565b91565b50906040519160208301526001600160401b0360c01b9060c01b166040820152602881526128a8604882610f3b565b90608082820312610302576129149060408051936128f785610f20565b80518552602081015161290981611dab565b6020860152016121f0565b604082015290565b612979608094926129959694612930611ea0565b50602061293d8651612a0d565b9501918251806129fe575b5061295285611f1c565b9251151592612962610c7d611b4e565b602086015260408501526060840152151585830152565b6040518095819482936302637a4560e41b84526004840161222c565b03917f00000000000000000000000000000000000000000000000000000000000000006001600160a01b03165af1908115610965576000916129d5575090565b610360915060803d6080116129f7575b6129ef8183610f3b565b8101906128da565b503d6129e5565b612a0790612a2c565b38612948565b803403612a175790565b6304fb820960e51b6000523460045260246000fd5b60405163393f876560e21b81527f00000000000000000000000000000000000000000000000000000000000000006001600160a01b03169190602081600481865afa90811561096557600091612aaa575b506001600160a01b0316918215612a9957610589923390612ae5565b6329b99a9560e11b60005260046000fd5b90506020813d602011612add575b81612ac560209383610f3b565b810103126103025751612ad781610440565b38612a7d565b3d9150612ab8565b6040516323b872dd60e01b602082019081526001600160a01b03938416602483015293909216604483015260648083019490945292815291612b7191600091829190612b32608487610f3b565b60018060a01b031694519082865af13d15612bc2573d90612b5282611bad565b91612b606040519384610f3b565b82523d6000602084013e5b83612bca565b8051908115159182612ba4575b5050612b875750565b635274afe760e01b6000526001600160a01b031660045260246000fd5b612bbb92509060208061165e9383010191016120a6565b3880612b7e565b606090612b6b565b90612bf05750805115612bdf57805190602001fd5b630a12f52160e11b60005260046000fd5b81511580612c22575b612c01575090565b639996b31560e01b60009081526001600160a01b0391909116600452602490fd5b50803b15612bf956fea164736f6c634300081a000a","linkReferences":{}},"methodIdentifiers":{"MINTER_ROLE()":"d5391393","SEND()":"1f5e1334","SEND_AND_CALL()":"134d4f25","allowInitializePath((uint32,bytes32,uint64))":"ff7bd03d","allowance(address,address)":"dd62ed3e","approvalRequired()":"9f68b964","approve(address,uint256)":"095ea7b3","balanceOf(address)":"70a08231","burnFrom(address,uint256)":"79cc6790","chainEid()":"5167a5a8","combineOptions(uint32,uint16,bytes)":"bc70b354","decimalConversionRate()":"963efcaa","decimals()":"313ce567","endpoint()":"5e280f11","enforcedOptions(uint32,uint16)":"5535d461","isComposeMsgSender((uint32,bytes32,uint64),bytes,address)":"82413eac","isPeer(uint32,bytes32)":"5a0dfe4d","lzReceive((uint32,bytes32,uint64),bytes32,bytes,address,bytes)":"13137d65","lzReceiveAndRevert(((uint32,bytes32,uint64),uint32,address,bytes32,uint256,address,bytes,bytes)[])":"bd815db0","lzReceiveSimulate((uint32,bytes32,uint64),bytes32,bytes,address,bytes)":"d045a0dc","mint(address,uint256)":"40c10f19","msgInspector()":"111ecdad","name()":"06fdde03","nextNonce(uint32,bytes32)":"7d25a05e","oApp()":"52ae2879","oAppVersion()":"17442b70","oftVersion()":"156a0d0f","owner()":"8da5cb5b","peers(uint32)":"bb0b6a53","preCrime()":"b731ea0a","quoteOFT((uint32,bytes32,uint256,uint256,bytes,bytes,bytes))":"0d35b415","quoteSend((uint32,bytes32,uint256,uint256,bytes,bytes,bytes),bool)":"3b6f743b","renounceOwnership()":"715018a6","send((uint32,bytes32,uint256,uint256,bytes,bytes,bytes),(uint256,uint256),address)":"c7c7f5b3","setDelegate(address)":"ca5eb5e1","setEnforcedOptions((uint32,uint16,bytes)[])":"b98bd070","setMsgInspector(address)":"6fc1b31e","setPeer(uint32,bytes32)":"3400288b","setPreCrime(address)":"d4243885","sharedDecimals()":"857749b0","symbol()":"95d89b41","token()":"fc0c546a","totalSupply()":"18160ddd","transfer(address,uint256)":"a9059cbb","transferFrom(address,address,uint256)":"23b872dd","transferOwnership(address)":"f2fde38b"},"storageLayout":{"storage":[{"astId":43971,"contract":"src/Rupio.sol:Rupio","label":"_owner","offset":0,"slot":"0","type":"t_address"},{"astId":489,"contract":"src/Rupio.sol:Rupio","label":"peers","offset":0,"slot":"1","type":"t_mapping(t_uint32,t_bytes32)"},{"astId":1265,"contract":"src/Rupio.sol:Rupio","label":"preCrime","offset":0,"slot":"2","type":"t_address"},{"astId":1105,"contract":"src/Rupio.sol:Rupio","label":"enforcedOptions","offset":0,"slot":"3","type":"t_mapping(t_uint32,t_mapping(t_uint16,t_bytes_storage))"},{"astId":1883,"contract":"src/Rupio.sol:Rupio","label":"msgInspector","offset":0,"slot":"4","type":"t_address"},{"astId":44270,"contract":"src/Rupio.sol:Rupio","label":"_balances","offset":0,"slot":"5","type":"t_mapping(t_address,t_uint256)"},{"astId":44276,"contract":"src/Rupio.sol:Rupio","label":"_allowances","offset":0,"slot":"6","type":"t_mapping(t_address,t_mapping(t_address,t_uint256))"},{"astId":44278,"contract":"src/Rupio.sol:Rupio","label":"_totalSupply","offset":0,"slot":"7","type":"t_uint256"},{"astId":44280,"contract":"src/Rupio.sol:Rupio","label":"_name","offset":0,"slot":"8","type":"t_string_storage"},{"astId":44282,"contract":"src/Rupio.sol:Rupio","label":"_symbol","offset":0,"slot":"9","type":"t_string_storage"},{"astId":50162,"contract":"src/Rupio.sol:Rupio","label":"accessManager","offset":0,"slot":"10","type":"t_contract(AccessManager)48238"},{"astId":50169,"contract":"src/Rupio.sol:Rupio","label":"chainEid","offset":20,"slot":"10","type":"t_uint32"}],"types":{"t_address":{"encoding":"inplace","label":"address","numberOfBytes":"20"},"t_bytes32":{"encoding":"inplace","label":"bytes32","numberOfBytes":"32"},"t_bytes_storage":{"encoding":"bytes","label":"bytes","numberOfBytes":"32"},"t_contract(AccessManager)48238":{"encoding":"inplace","label":"contract AccessManager","numberOfBytes":"20"},"t_mapping(t_address,t_mapping(t_address,t_uint256))":{"encoding":"mapping","key":"t_address","label":"mapping(address => mapping(address => uint256))","numberOfBytes":"32","value":"t_mapping(t_address,t_uint256)"},"t_mapping(t_address,t_uint256)":{"encoding":"mapping","key":"t_address","label":"mapping(address => uint256)","numberOfBytes":"32","value":"t_uint256"},"t_mapping(t_uint16,t_bytes_storage)":{"encoding":"mapping","key":"t_uint16","label":"mapping(uint16 => bytes)","numberOfBytes":"32","value":"t_bytes_storage"},"t_mapping(t_uint32,t_bytes32)":{"encoding":"mapping","key":"t_uint32","label":"mapping(uint32 => bytes32)","numberOfBytes":"32","value":"t_bytes32"},"t_mapping(t_uint32,t_mapping(t_uint16,t_bytes_storage))":{"encoding":"mapping","key":"t_uint32","label":"mapping(uint32 => mapping(uint16 => bytes))","numberOfBytes":"32","value":"t_mapping(t_uint16,t_bytes_storage)"},"t_string_storage":{"encoding":"bytes","label":"string","numberOfBytes":"32"},"t_uint16":{"encoding":"inplace","label":"uint16","numberOfBytes":"2"},"t_uint256":{"encoding":"inplace","label":"uint256","numberOfBytes":"32"},"t_uint32":{"encoding":"inplace","label":"uint32","numberOfBytes":"4"}}},"id":85}