{"src/CollateralSafekeep.sol":{"CollateralSafekeep":{"abi":[{"type":"constructor","inputs":[{"name":"_CRP","type":"uint256","internalType":"uint256"},{"name":"_BASE_RISK_RATE","type":"uint256","internalType":"uint256"},{"name":"_RISK_PREMIUM_RATE","type":"uint256","internalType":"uint256"},{"name":"_accessManager","type":"address","internalType":"address"},{"name":"_rupio","type":"address","internalType":"address"},{"name":"_priceContract","type":"address","internalType":"address"}],"stateMutability":"nonpayable"},{"type":"function","name":"BASE_RISK_RATE","inputs":[],"outputs":[{"name":"","type":"uint256","internalType":"uint256"}],"stateMutability":"view"},{"type":"function","name":"CRP","inputs":[],"outputs":[{"name":"","type":"uint256","internalType":"uint256"}],"stateMutability":"view"},{"type":"function","name":"MODERATOR_ROLE","inputs":[],"outputs":[{"name":"","type":"bytes32","internalType":"bytes32"}],"stateMutability":"view"},{"type":"function","name":"RISK_PREMIUM_RATE","inputs":[],"outputs":[{"name":"","type":"uint256","internalType":"uint256"}],"stateMutability":"view"},{"type":"function","name":"burnRupioAndRelieveCollateral","inputs":[{"name":"amount","type":"uint256","internalType":"uint256"}],"outputs":[],"stateMutability":"nonpayable"},{"type":"function","name":"checkUpkeep","inputs":[{"name":"","type":"bytes","internalType":"bytes"}],"outputs":[{"name":"upkeepNeeded","type":"bool","internalType":"bool"},{"name":"","type":"bytes","internalType":"bytes"}],"stateMutability":"view"},{"type":"function","name":"createOrUpdateVault","inputs":[],"outputs":[{"name":"vaultId","type":"uint256","internalType":"uint256"}],"stateMutability":"payable"},{"type":"function","name":"getAmountINRToETH","inputs":[{"name":"amountINR","type":"uint256","internalType":"uint256"}],"outputs":[{"name":"","type":"uint256","internalType":"uint256"}],"stateMutability":"view"},{"type":"function","name":"getBASE_RISK_RATE","inputs":[],"outputs":[{"name":"","type":"uint256","internalType":"uint256"}],"stateMutability":"view"},{"type":"function","name":"getCRP","inputs":[],"outputs":[{"name":"","type":"uint256","internalType":"uint256"}],"stateMutability":"view"},{"type":"function","name":"getCurrentVaultId","inputs":[],"outputs":[{"name":"","type":"uint256","internalType":"uint256"}],"stateMutability":"view"},{"type":"function","name":"getMaxMintableRupio","inputs":[{"name":"user","type":"address","internalType":"address"}],"outputs":[{"name":"","type":"uint256","internalType":"uint256"}],"stateMutability":"view"},{"type":"function","name":"getMaxWithdrawableCollateral","inputs":[{"name":"user","type":"address","internalType":"address"}],"outputs":[{"name":"","type":"uint256","internalType":"uint256"}],"stateMutability":"view"},{"type":"function","name":"getRISK_PREMIUM_RATE","inputs":[],"outputs":[{"name":"","type":"uint256","internalType":"uint256"}],"stateMutability":"view"},{"type":"function","name":"getTotalCollateralPrice","inputs":[],"outputs":[{"name":"","type":"int256","internalType":"int256"}],"stateMutability":"view"},{"type":"function","name":"getTotalVaultDetails","inputs":[],"outputs":[{"name":"","type":"tuple[]","internalType":"struct CollateralSafekeep.vault[]","components":[{"name":"vaultId","type":"uint256","internalType":"uint256"},{"name":"userAddress","type":"address","internalType":"address"},{"name":"balance","type":"uint256","internalType":"uint256"},{"name":"balanceInINR","type":"uint256","internalType":"uint256"},{"name":"rupioIssued","type":"uint256","internalType":"uint256"},{"name":"vaultHealth","type":"uint256","internalType":"uint256"}]}],"stateMutability":"view"},{"type":"function","name":"getUserBalanceInINR","inputs":[{"name":"_address","type":"address","internalType":"address"}],"outputs":[{"name":"","type":"uint256","internalType":"uint256"}],"stateMutability":"view"},{"type":"function","name":"getUserCollateralBalance","inputs":[{"name":"_address","type":"address","internalType":"address"}],"outputs":[{"name":"","type":"uint256","internalType":"uint256"}],"stateMutability":"view"},{"type":"function","name":"getVaultDetailsForTheUser","inputs":[],"outputs":[{"name":"","type":"tuple","internalType":"struct CollateralSafekeep.vault","components":[{"name":"vaultId","type":"uint256","internalType":"uint256"},{"name":"userAddress","type":"address","internalType":"address"},{"name":"balance","type":"uint256","internalType":"uint256"},{"name":"balanceInINR","type":"uint256","internalType":"uint256"},{"name":"rupioIssued","type":"uint256","internalType":"uint256"},{"name":"vaultHealth","type":"uint256","internalType":"uint256"}]}],"stateMutability":"view"},{"type":"function","name":"getVaultHealth","inputs":[{"name":"_user","type":"address","internalType":"address"}],"outputs":[{"name":"","type":"uint256","internalType":"uint256"}],"stateMutability":"view"},{"type":"function","name":"liquidateVault","inputs":[{"name":"_vaultAddress","type":"address","internalType":"address"}],"outputs":[],"stateMutability":"nonpayable"},{"type":"function","name":"mintRupioOnDifferentChain","inputs":[{"name":"amount","type":"uint256","internalType":"uint256"},{"name":"chainEid","type":"uint32","internalType":"uint32"}],"outputs":[],"stateMutability":"payable"},{"type":"function","name":"mintRupioOnHomeChain","inputs":[{"name":"amount","type":"uint256","internalType":"uint256"}],"outputs":[{"name":"","type":"uint256","internalType":"uint256"}],"stateMutability":"nonpayable"},{"type":"function","name":"performUpkeep","inputs":[{"name":"","type":"bytes","internalType":"bytes"}],"outputs":[],"stateMutability":"nonpayable"},{"type":"function","name":"scanVaults","inputs":[],"outputs":[],"stateMutability":"nonpayable"},{"type":"function","name":"userIndexes","inputs":[{"name":"","type":"address","internalType":"address"}],"outputs":[{"name":"","type":"uint256","internalType":"uint256"}],"stateMutability":"view"},{"type":"function","name":"withdrawFromVault","inputs":[{"name":"amount","type":"uint256","internalType":"uint256"}],"outputs":[],"stateMutability":"payable"},{"type":"event","name":"thisIsARiskyVault","inputs":[{"name":"vaultId","type":"uint256","indexed":false,"internalType":"uint256"},{"name":"userAddress","type":"address","indexed":false,"internalType":"address"},{"name":"balance","type":"uint256","indexed":false,"internalType":"uint256"},{"name":"balanceInINR","type":"uint256","indexed":false,"internalType":"uint256"},{"name":"rupioIssued","type":"uint256","indexed":false,"internalType":"uint256"},{"name":"vaultHealth","type":"uint256","indexed":false,"internalType":"uint256"}],"anonymous":false},{"type":"error","name":"CollateralSafeKeep__ETHAmountMustBeGreaterThanZero","inputs":[]},{"type":"error","name":"CollateralSafekeep__UpkeepNotNeeded","inputs":[]},{"type":"error","name":"CollateralSafekeep__UserInDebt","inputs":[]},{"type":"error","name":"InvalidOptionType","inputs":[{"name":"optionType","type":"uint16","internalType":"uint16"}]},{"type":"error","name":"ReentrancyGuardReentrantCall","inputs":[]},{"type":"error","name":"SafeCastOverflowedUintDowncast","inputs":[{"name":"bits","type":"uint8","internalType":"uint8"},{"name":"value","type":"uint256","internalType":"uint256"}]}],"userdoc":{},"devdoc":{},"storageLayout":{"storage":[{"astId":45486,"contract":"src/CollateralSafekeep.sol:CollateralSafekeep","label":"_status","offset":0,"slot":"0","type":"t_uint256"},{"astId":48280,"contract":"src/CollateralSafekeep.sol:CollateralSafekeep","label":"lastTimeStamp","offset":0,"slot":"1","type":"t_uint256"},{"astId":48282,"contract":"src/CollateralSafekeep.sol:CollateralSafekeep","label":"currentCollateralBalance","offset":0,"slot":"2","type":"t_int256"},{"astId":48284,"contract":"src/CollateralSafekeep.sol:CollateralSafekeep","label":"VAULT_ID","offset":0,"slot":"3","type":"t_uint256"},{"astId":48287,"contract":"src/CollateralSafekeep.sol:CollateralSafekeep","label":"accessManager","offset":0,"slot":"4","type":"t_contract(AccessManager)48238"},{"astId":48290,"contract":"src/CollateralSafekeep.sol:CollateralSafekeep","label":"token","offset":0,"slot":"5","type":"t_contract(Rupio)50173"},{"astId":48293,"contract":"src/CollateralSafekeep.sol:CollateralSafekeep","label":"priceContract","offset":0,"slot":"6","type":"t_contract(PriceFeed)50060"},{"astId":48312,"contract":"src/CollateralSafekeep.sol:CollateralSafekeep","label":"userVaults","offset":0,"slot":"7","type":"t_array(t_struct(vault)48307_storage)dyn_storage"},{"astId":48331,"contract":"src/CollateralSafekeep.sol:CollateralSafekeep","label":"userIndexes","offset":0,"slot":"8","type":"t_mapping(t_address,t_uint256)"}],"types":{"t_address":{"encoding":"inplace","label":"address","numberOfBytes":"20"},"t_array(t_struct(vault)48307_storage)dyn_storage":{"encoding":"dynamic_array","label":"struct CollateralSafekeep.vault[]","numberOfBytes":"32","base":"t_struct(vault)48307_storage"},"t_contract(AccessManager)48238":{"encoding":"inplace","label":"contract AccessManager","numberOfBytes":"20"},"t_contract(PriceFeed)50060":{"encoding":"inplace","label":"contract PriceFeed","numberOfBytes":"20"},"t_contract(Rupio)50173":{"encoding":"inplace","label":"contract Rupio","numberOfBytes":"20"},"t_int256":{"encoding":"inplace","label":"int256","numberOfBytes":"32"},"t_mapping(t_address,t_uint256)":{"encoding":"mapping","key":"t_address","label":"mapping(address => uint256)","numberOfBytes":"32","value":"t_uint256"},"t_struct(vault)48307_storage":{"encoding":"inplace","label":"struct CollateralSafekeep.vault","numberOfBytes":"192","members":[{"astId":48296,"contract":"src/CollateralSafekeep.sol:CollateralSafekeep","label":"vaultId","offset":0,"slot":"0","type":"t_uint256"},{"astId":48298,"contract":"src/CollateralSafekeep.sol:CollateralSafekeep","label":"userAddress","offset":0,"slot":"1","type":"t_address"},{"astId":48300,"contract":"src/CollateralSafekeep.sol:CollateralSafekeep","label":"balance","offset":0,"slot":"2","type":"t_uint256"},{"astId":48302,"contract":"src/CollateralSafekeep.sol:CollateralSafekeep","label":"balanceInINR","offset":0,"slot":"3","type":"t_uint256"},{"astId":48304,"contract":"src/CollateralSafekeep.sol:CollateralSafekeep","label":"rupioIssued","offset":0,"slot":"4","type":"t_uint256"},{"astId":48306,"contract":"src/CollateralSafekeep.sol:CollateralSafekeep","label":"vaultHealth","offset":0,"slot":"5","type":"t_uint256"}]},"t_uint256":{"encoding":"inplace","label":"uint256","numberOfBytes":"32"}}},"evm":{"bytecode":{"object":"60e0604052346101f257604051601f61203238819003918201601f19168301916001600160401b038311848410176101dc5780849260c0946040528339810103126101f257805160208201519060408301519261005e606082016101f7565b9061007760a0610070608084016101f7565b92016101f7565b600160008190556003819055600480546001600160a01b03199081166001600160a01b039687161790915560058054821694861694909417909355600680549093169390911692909217905542905560805260a05260c09081526040519081016001600160401b038111828210176101dc576040526000815260208101600081526040820160008152606083016000815260808401906000825260a08501926000845260075494680100000000000000008610156101dc5760018601806007558610156101c65760059560076000526006602060002091020196518755600187019060018060a01b0390511660018060a01b031982541617905551600286015551600385015551600484015551910155604051611e26908161020c82396080518181816105df01528181610f8e015281816119cd0152611d9e015260a05181610be8015260c0518161082b0152f35b634e487b7160e01b600052603260045260246000fd5b634e487b7160e01b600052604160045260246000fd5b600080fd5b51906001600160a01b03821682036101f25756fe6080604052600436101561001257600080fd5b60003560e01c8063076d0815146101b8578063188afb74146101b3578063194d7494146101ae5780632a8ffe80146101a9578063310e84b514610181578063314860f8146101a45780633f3d2a881461019f5780634585e33b1461019a5780634a83cf4914610195578063515d22ce146101905780636653b8171461018b5780636e04ff0d146101865780637649aef114610181578063797669c91461017c578063839159fb146101455780639210ae64146101775780639dc1b45b14610172578063ab8454131461016d578063ae0b163f14610168578063b208816414610163578063b603540f1461015e578063bb82813214610159578063c48589cb14610154578063d7bf2aef1461014f578063ea6cfd4a1461014a578063eaa45b421461014a5763fb5989a61461014557600080fd5b610bd0565b610f76565b610f5d565b610ebd565b610ce2565b610cb3565b610c9b565b610c7d565b610c41565b610c23565b610c0b565b610b95565b610813565b610b4c565b610ae6565b61098c565b610974565b61095c565b61086e565b61084e565b610551565b6104ab565b610343565b602036600319011261033e576004353360005260086020526101e06040600020541515610fb1565b6101e933611814565b336000908152600860205260409020600590610206905b54611028565b5001558080156102168115611068565b33600090815260086020526040902061024190839060029061023790610200565b5001541015611080565b33600090815260086020526040902061026c9060969060059061026390610200565b500154116110cc565b61028061027833611902565b8311156110cc565b600090610335575b600080809381933390f115610330573360009081526008602052604090206102c0906002906102b690610200565b5001918254611106565b90553360009081526008602052604090206102e9906002906102e190610200565b500154611a34565b33600090815260086020526040902060039061030490610200565b50015561031033611814565b33600090815260086020526040902060059061032b90610200565b500155005b6110e4565b506108fc610288565b600080fd5b3461033e57602036600319011261033e576004353360005260086020526103706040600020541515610fb1565b61037933611814565b33600090815260086020526040902060059061039490610200565b5001553360009081526008602052604090206103c0906004906103b690610200565b5001541515611118565b3360009081526008602052604090206103eb9082906004906103e190610200565b500154101561115b565b600554610408906001600160a01b03165b6001600160a01b031690565b803b1561033e5760405163079cc67960e41b815233600482015260248101839052906000908290604490829084905af180156103305761046e575b50336000908152600860205260409020610463906004906102b690610200565b905561031033611814565b8061047d6000610483936111d9565b80610808565b38610443565b602090600319011261033e576004356001600160a01b038116810361033e5790565b3461033e576104b936610489565b506044602060018060a01b036004541660405192838092632474521560e21b82527f71f3d55856e4058ed06ee057d79ada615f65cdf5f9ee88181b914225088f834f60048301523360248301525afa80156103305761052091600091610522575b50611213565b005b610544915060203d60201161054a575b61053c81836111d9565b8101906111fb565b3861051a565b503d610532565b604036600319011261033e5760043560243563ffffffff8116810361033e573360005260086020526105896040600020541515610fb1565b610594821515611068565b61059d33611814565b3360009081526008602052604090206005906105b890610200565b500155336000908152600860205260409020610604906005906105da90610200565b5001547f0000000000000000000000000000000000000000000000000000000000000000106110cc565b61061761061033611b11565b83106112c6565b610627610622611ba6565b611bc2565b610630336103fc565b61064361063c85611311565b600a900490565b9061065b61064f6113a4565b63ffffffff9095168552565b6020840152836040840152606083015260808201526106786113b3565b60a08201526106856113b3565b60c082015260055461069f906001600160a01b03166103fc565b60408051633b6f743b60e01b815291929082806106bf8460048301611485565b0381865afa918215610330576000926107d7575b506106e182513410156114a2565b823b1561033e576040516340c10f1960e01b815230600482015260248101859052926000908490604490829084905af19182156103305761075b9360c0936107c2575b5060055461073a906001600160a01b03166103fc565b90805160405180968195829463c7c7f5b360e01b8452339160048501611554565b03925af1801561033057610794575b503360009081526008602052604090206104639060049061078a90610200565b5001918254611597565b6107b59060c03d60c0116107bb575b6107ad81836111d9565b8101906114e3565b5061076a565b503d6107a3565b8061047d60006107d1936111d9565b38610724565b6107fa91925060403d604011610801575b6107f281836111d9565b810190611401565b90386106d3565b503d6107e8565b600091031261033e57565b3461033e57600036600319011261033e5760206040517f00000000000000000000000000000000000000000000000000000000000000008152f35b3461033e57602061086661086136610489565b6115a4565b604051908152f35b3461033e57600036600319011261033e576108876115c7565b503360005260086020526108a16040600020541515610fb1565b33600052600860205260c06108c36108bd604060002054611028565b506115f8565b610909604051809260a0809180518452600180831b0360208201511660208501526040810151604085015260608101516060850152608081015160808501520151910152565bf35b90602060031983011261033e5760043567ffffffffffffffff811161033e578260238201121561033e5780600401359267ffffffffffffffff841161033e576024848301011161033e576024019190565b3461033e5761096a3661090b565b50506105206116dd565b3461033e57602061086661098736610489565b611814565b3461033e57602036600319011261033e576004353360005260086020526109b96040600020541515610fb1565b6109c4811515611068565b6109cd33611814565b3360009081526008602052604090206005906109e890610200565b500155336000908152600860205260409020610a0a906005906105da90610200565b610a1333611b11565b610a1e8183106112c6565b600554610a33906001600160a01b03166103fc565b91823b1561033e576040516340c10f1960e01b815233600482015260248101829052926000908490604490829084905af192831561033057610acd93610ad1575b50336000908152600860205260409020610a949060049061078a90610200565b9055610a9f33611814565b336000908152600860205260409020600590610aba90610200565b5001556040519081529081906020820190565b0390f35b8061047d6000610ae0936111d9565b38610a74565b3461033e57602036600319011261033e576020610866600435611cd7565b60005b838110610b175750506000910152565b8181015183820152602001610b07565b90602091610b4081518092818552858086019101610b04565b601f01601f1916010190565b3461033e57610b5a3661090b565b5050604051600181526040602082015260208160406060518082840152610b8681606085016080610b04565b601f01601f1916820101030190f35b3461033e57600036600319011261033e5760206040517f71f3d55856e4058ed06ee057d79ada615f65cdf5f9ee88181b914225088f834f8152f35b3461033e57600036600319011261033e5760206040517f00000000000000000000000000000000000000000000000000000000000000008152f35b3461033e576020610866610c1e36610489565b611902565b3461033e57600036600319011261033e576020600254604051908152f35b3461033e576001600160a01b03610c5736610489565b16600052600860205260206002610c72604060002054611028565b500154604051908152f35b3461033e57600036600319011261033e576020600354604051908152f35b3461033e576020610866610cae36610489565b611b11565b3461033e576001600160a01b03610cc936610489565b1660005260086020526020604060002054604051908152f35b600036600319011261033e57610cf9341515611068565b33600090815260086020526040902054610dad57610d59610d186115c7565b346040820152336020820152600354815260006080820152610d41610d3c34611a34565b611327565b60a0820152610d4f34611a34565b6060820152611647565b60035433600090815260086020526040902055610d7f610d7a600354611589565b600355565b336000908152600860205260409020610acd90610d9b90610200565b50546040519081529081906020820190565b336000908152600860205260409020600290610dc890610200565b5001610dd5348254611597565b9055336000908152600860205260409020610df6906002906102e190610200565b336000908152600860205260409020600390610e1190610200565b500155610e1d33611814565b336000908152600860205260409020600590610e3890610200565b500155610d7f565b602060408183019282815284518094520192019060005b818110610e645750505090565b909192602060c082610eb2600194885160a0809180518452600180831b0360208201511660208501526040810151604085015260608101516060850152608081015160808501520151910152565b019401929101610e57565b3461033e57600036600319011261033e5760075467ffffffffffffffff8111610f585760405190610ef460208260051b01836111d9565b8082526020820160076000527fa66cc928b5edb82af9bd49922954155ab7b0942694bea4ce44661d9a8736c6886000915b838310610f3a5760405180610acd8782610e40565b60066020600192610f4a856115f8565b815201920192019190610f25565b6111a7565b3461033e57600036600319011261033e576105206116dd565b3461033e57600036600319011261033e5760206040517f00000000000000000000000000000000000000000000000000000000000000008152f35b15610fb857565b60405162461bcd60e51b815260206004820152602c60248201527f596f7520646f6e7420686176652061205661756c742c2063726561746520612060448201526b7661756c742066697273742160a01b6064820152608490fd5b634e487b7160e01b600052603260045260246000fd5b6007548110156110475760076000526006602060002091020190600090565b611012565b8054821015611047576000526006602060002091020190600090565b1561106f57565b6316670b4760e21b60005260046000fd5b1561108757565b60405162461bcd60e51b815260206004820152601d60248201527f696e73756666696369656e742062616c616e636520696e207661756c740000006044820152606490fd5b156110d357565b637f8953f760e01b60005260046000fd5b6040513d6000823e3d90fd5b634e487b7160e01b600052601160045260246000fd5b9190820391821161111357565b6110f0565b1561111f57565b60405162461bcd60e51b8152602060048201526014602482015273273790393ab834b79034b9b9bab2b2103cb2ba1760611b6044820152606490fd5b1561116257565b60405162461bcd60e51b815260206004820152601b60248201527f4c65737320616d6f756e74206f6620727570696f2069737375656400000000006044820152606490fd5b634e487b7160e01b600052604160045260246000fd5b60c0810190811067ffffffffffffffff821117610f5857604052565b90601f8019910116810190811067ffffffffffffffff821117610f5857604052565b9081602091031261033e5751801515810361033e5790565b1561121a57565b60405162461bcd60e51b815260206004820152601860248201527f4d7573742068617665204d4f44455241544f525f524f4c4500000000000000006044820152606490fd5b6044602060018060a01b036004541660405192838092632474521560e21b82527f71f3d55856e4058ed06ee057d79ada615f65cdf5f9ee88181b914225088f834f60048301523360248301525afa8015610330576112c4916000916105225750611213565b565b156112cd57565b606460405162461bcd60e51b815260206004820152602060248201527f656e74657220616d6f756e74206c657373207468616e204352502063726f73736044820152fd5b9060098202918083046009149015171561111357565b9060648202918083046064149015171561111357565b9060038202918083046003149015171561111357565b906402540be4008202918083046402540be400149015171561111357565b8181029291811591840414171561111357565b811561138e570490565b634e487b7160e01b600052601260045260246000fd5b604051906112c460e0836111d9565b604051906113c26020836111d9565b60008252565b919082604091031261033e576040516040810181811067ffffffffffffffff821117610f58576040526020808294805184520151910152565b9060408282031261033e57611415916113c8565b90565b6114159163ffffffff825116815260208201516020820152604082015160408201526060820151606082015260c0611474611462608085015160e0608086015260e0850190610b27565b60a085015184820360a0860152610b27565b9201519060c0818403910152610b27565b9190602061149d600092604086526040860190611418565b930152565b156114a957565b60405162461bcd60e51b8152602060048201526012602482015271696e73756666696369656e742066756e647360701b6044820152606490fd5b919082810360c0811261033e5760801361033e57604051906060820182811067ffffffffffffffff821117610f585760405283518252602084015167ffffffffffffffff8116810361033e5782608091602061141595015261154883604088016113c8565b604082015294016113c8565b919392602061156d606093608086526080860190611418565b86518583015295015160408401526001600160a01b0316910152565b906001820180921161111357565b9190820180921161111357565b60018060a01b0316600052600860205261141560026102e1604060002054611028565b604051906115d4826111bd565b600060a0838281528260208201528260408201528260608201528260808201520152565b90604051611605816111bd565b8254815260018301546001600160a01b0316602082015260028301546040820152600383015460608201526004830154608082015260059092015460a0830152565b60075468010000000000000000811015610f585780600161166d9201600755600761104c565b9190916116c75760a08160059251845560018401600180841b036020830151166bffffffffffffffffffffffff841b8254161790556040810151600285015560608101516003850155608081015160048501550151910155565b634e487b7160e01b600052600060045260246000fd5b60075460005b8181106116ee575050565b8061171061086160016117018195611028565b5001546001600160a01b031690565b600361171b83611028565b50015561172e6109878361170184611028565b600561173983611028565b50015561175161174c8361170184611028565b611d93565b5061175b81611028565b505061176561125f565b7f5c0ddc9ba6a3ee218f8b0b2e6583514fb1a2403fc52dd2adb715d5cb41ab1a206117938361170184611028565b600261179e84611028565b5001549061180b60036117b086611028565b50015460046117be87611028565b50015460056117cc88611028565b500154604080518981526001600160a01b0390961660208701528501959095526060840191909152608083015260a082019290925290819060c0820190565b0390a1016116e3565b6001600160a01b031660008181526008602052604090205460039061183890611028565b5001549060005260086020526004611854604060002054611028565b50015480611866575061141590611327565b61186f91611384565b6064810290808204606414901517156111135790565b1561188c57565b60405162461bcd60e51b815260206004820152601060248201526f796f752061726520696e20646562742160801b6044820152606490fd5b156118cb57565b60405162461bcd60e51b815260206004820152600f60248201526e1e5bdd48185c99481a5b881919589d608a1b6044820152606490fd5b6001600160a01b038116600090815260086020526040902060039061192690610200565b500154906119f260056119c861020060046119566102008760018060a01b03166000526008602052604060002090565b500154946119ae600461197e6102008460018060a01b03166000526008602052604060002090565b5001546001600160a01b03831660009081526008602052604090206003906119a590610200565b50015411611885565b6001600160a01b0316600090815260086020526040902090565b5001547f0000000000000000000000000000000000000000000000000000000000000000106118c4565b80611a01575061141590611cd7565b61141591611a1a611a14611a209361133d565b60011c90565b90611106565b611cd7565b9081602091031261033e575190565b600654611a49906001600160a01b03166103fc565b604051639bd713cf60e01b81529091602082600481865afa91821561033057600092611aee575b506020600492936040519384809263693cf00560e11b82525afa80156103305761141593611ab093600092611abb575b50611aab9192611371565b611384565b6402540be400900490565b611aab9250611ae19060203d602011611ae7575b611ad981836111d9565b810190611a25565b91611aa0565b503d611acf565b60049250611b0a602091823d8411611ae757611ad981836111d9565b9250611a70565b60018060a01b03811680600052600860205260966005611b35604060002054611028565b50015410611b9f5760005260086020526004611b7c610200611b6060026102e1604060002054611028565b6001600160a01b03909416600090815260086020526040902090565b5001548160011b9180830460021490151715611113576114159160039004611106565b5050600090565b604051600360f01b6020820152600281526114156022826111d9565b600361ffff611bd083611dcd565b1603611ccb576040519060208201611fbd60831b815260108352611bf56030846111d9565b600361ffff611c0384611dcd565b1603611caa57825161ffff8111611c915761ffff60019116019161ffff831161111357602060049261141594611c806040519785611c4a8a9751809288808b019101610b04565b600160f81b90870186810182905260f09490941b6001600160f01b03191660218501526023840152519283906024840190610b04565b01010301601f1981018352826111d9565b6306dfcc6560e41b600052601060045260245260446000fd5b61ffff611cb683611dcd565b633a51740d60e01b6000521660045260246000fd5b611cb661ffff91611dcd565b600654611cec906001600160a01b03166103fc565b604051639bd713cf60e01b815290602082600481845afa90811561033057600492600092611d71575b506020906040519384809263693cf00560e11b82525afa9182156103305761141593611d4d93611aab92600091611d52575b50611371565b611353565b611d6b915060203d602011611ae757611ad981836111d9565b38611d47565b6020919250611d8c90823d8411611ae757611ad981836111d9565b9190611d15565b611d9c90611814565b7f00000000000000000000000000000000000000000000000000000000000000001015611dc857600090565b600190565b6002815110611ddd576002015190565b60405162461bcd60e51b8152602060048201526014602482015273746f55696e7431365f6f75744f66426f756e647360601b6044820152606490fdfea164736f6c634300081a000a","opcodes":"PUSH1 0xE0 PUSH1 0x40 MSTORE CALLVALUE PUSH2 0x1F2 JUMPI PUSH1 0x40 MLOAD PUSH1 0x1F PUSH2 0x2032 CODESIZE DUP2 SWAP1 SUB SWAP2 DUP3 ADD PUSH1 0x1F NOT AND DUP4 ADD SWAP2 PUSH1 0x1 PUSH1 0x1 PUSH1 0x40 SHL SUB DUP4 GT DUP5 DUP5 LT OR PUSH2 0x1DC JUMPI DUP1 DUP5 SWAP3 PUSH1 0xC0 SWAP5 PUSH1 0x40 MSTORE DUP4 CODECOPY DUP2 ADD SUB SLT PUSH2 0x1F2 JUMPI DUP1 MLOAD PUSH1 0x20 DUP3 ADD MLOAD SWAP1 PUSH1 0x40 DUP4 ADD MLOAD SWAP3 PUSH2 0x5E PUSH1 0x60 DUP3 ADD PUSH2 0x1F7 JUMP JUMPDEST SWAP1 PUSH2 0x77 PUSH1 0xA0 PUSH2 0x70 PUSH1 0x80 DUP5 ADD PUSH2 0x1F7 JUMP JUMPDEST SWAP3 ADD PUSH2 0x1F7 JUMP JUMPDEST PUSH1 0x1 PUSH1 0x0 DUP2 SWAP1 SSTORE PUSH1 0x3 DUP2 SWAP1 SSTORE PUSH1 0x4 DUP1 SLOAD PUSH1 0x1 PUSH1 0x1 PUSH1 0xA0 SHL SUB NOT SWAP1 DUP2 AND PUSH1 0x1 PUSH1 0x1 PUSH1 0xA0 SHL SUB SWAP7 DUP8 AND OR SWAP1 SWAP2 SSTORE PUSH1 0x5 DUP1 SLOAD DUP3 AND SWAP5 DUP7 AND SWAP5 SWAP1 SWAP5 OR SWAP1 SWAP4 SSTORE PUSH1 0x6 DUP1 SLOAD SWAP1 SWAP4 AND SWAP4 SWAP1 SWAP2 AND SWAP3 SWAP1 SWAP3 OR SWAP1 SSTORE TIMESTAMP SWAP1 SSTORE PUSH1 0x80 MSTORE PUSH1 0xA0 MSTORE PUSH1 0xC0 SWAP1 DUP2 MSTORE PUSH1 0x40 MLOAD SWAP1 DUP2 ADD PUSH1 0x1 PUSH1 0x1 PUSH1 0x40 SHL SUB DUP2 GT DUP3 DUP3 LT OR PUSH2 0x1DC JUMPI PUSH1 0x40 MSTORE PUSH1 0x0 DUP2 MSTORE PUSH1 0x20 DUP2 ADD PUSH1 0x0 DUP2 MSTORE PUSH1 0x40 DUP3 ADD PUSH1 0x0 DUP2 MSTORE PUSH1 0x60 DUP4 ADD PUSH1 0x0 DUP2 MSTORE PUSH1 0x80 DUP5 ADD SWAP1 PUSH1 0x0 DUP3 MSTORE PUSH1 0xA0 DUP6 ADD SWAP3 PUSH1 0x0 DUP5 MSTORE PUSH1 0x7 SLOAD SWAP5 PUSH9 0x10000000000000000 DUP7 LT ISZERO PUSH2 0x1DC JUMPI PUSH1 0x1 DUP7 ADD DUP1 PUSH1 0x7 SSTORE DUP7 LT ISZERO PUSH2 0x1C6 JUMPI PUSH1 0x5 SWAP6 PUSH1 0x7 PUSH1 0x0 MSTORE PUSH1 0x6 PUSH1 0x20 PUSH1 0x0 KECCAK256 SWAP2 MUL ADD SWAP7 MLOAD DUP8 SSTORE PUSH1 0x1 DUP8 ADD SWAP1 PUSH1 0x1 DUP1 PUSH1 0xA0 SHL SUB SWAP1 MLOAD AND PUSH1 0x1 DUP1 PUSH1 0xA0 SHL SUB NOT DUP3 SLOAD AND OR SWAP1 SSTORE MLOAD PUSH1 0x2 DUP7 ADD SSTORE MLOAD PUSH1 0x3 DUP6 ADD SSTORE MLOAD PUSH1 0x4 DUP5 ADD SSTORE MLOAD SWAP2 ADD SSTORE PUSH1 0x40 MLOAD PUSH2 0x1E26 SWAP1 DUP2 PUSH2 0x20C DUP3 CODECOPY PUSH1 0x80 MLOAD DUP2 DUP2 DUP2 PUSH2 0x5DF ADD MSTORE DUP2 DUP2 PUSH2 0xF8E ADD MSTORE DUP2 DUP2 PUSH2 0x19CD ADD MSTORE PUSH2 0x1D9E ADD MSTORE PUSH1 0xA0 MLOAD DUP2 PUSH2 0xBE8 ADD MSTORE PUSH1 0xC0 MLOAD DUP2 PUSH2 0x82B ADD MSTORE RETURN JUMPDEST PUSH4 0x4E487B71 PUSH1 0xE0 SHL PUSH1 0x0 MSTORE PUSH1 0x32 PUSH1 0x4 MSTORE PUSH1 0x24 PUSH1 0x0 REVERT JUMPDEST PUSH4 0x4E487B71 PUSH1 0xE0 SHL PUSH1 0x0 MSTORE PUSH1 0x41 PUSH1 0x4 MSTORE PUSH1 0x24 PUSH1 0x0 REVERT JUMPDEST PUSH1 0x0 DUP1 REVERT JUMPDEST MLOAD SWAP1 PUSH1 0x1 PUSH1 0x1 PUSH1 0xA0 SHL SUB DUP3 AND DUP3 SUB PUSH2 0x1F2 JUMPI JUMP INVALID PUSH1 0x80 PUSH1 0x40 MSTORE PUSH1 0x4 CALLDATASIZE LT ISZERO PUSH2 0x12 JUMPI PUSH1 0x0 DUP1 REVERT JUMPDEST PUSH1 0x0 CALLDATALOAD PUSH1 0xE0 SHR DUP1 PUSH4 0x76D0815 EQ PUSH2 0x1B8 JUMPI DUP1 PUSH4 0x188AFB74 EQ PUSH2 0x1B3 JUMPI DUP1 PUSH4 0x194D7494 EQ PUSH2 0x1AE JUMPI DUP1 PUSH4 0x2A8FFE80 EQ PUSH2 0x1A9 JUMPI DUP1 PUSH4 0x310E84B5 EQ PUSH2 0x181 JUMPI DUP1 PUSH4 0x314860F8 EQ PUSH2 0x1A4 JUMPI DUP1 PUSH4 0x3F3D2A88 EQ PUSH2 0x19F JUMPI DUP1 PUSH4 0x4585E33B EQ PUSH2 0x19A JUMPI DUP1 PUSH4 0x4A83CF49 EQ PUSH2 0x195 JUMPI DUP1 PUSH4 0x515D22CE EQ PUSH2 0x190 JUMPI DUP1 PUSH4 0x6653B817 EQ PUSH2 0x18B JUMPI DUP1 PUSH4 0x6E04FF0D EQ PUSH2 0x186 JUMPI DUP1 PUSH4 0x7649AEF1 EQ PUSH2 0x181 JUMPI DUP1 PUSH4 0x797669C9 EQ PUSH2 0x17C JUMPI DUP1 PUSH4 0x839159FB EQ PUSH2 0x145 JUMPI DUP1 PUSH4 0x9210AE64 EQ PUSH2 0x177 JUMPI DUP1 PUSH4 0x9DC1B45B EQ PUSH2 0x172 JUMPI DUP1 PUSH4 0xAB845413 EQ PUSH2 0x16D JUMPI DUP1 PUSH4 0xAE0B163F EQ PUSH2 0x168 JUMPI DUP1 PUSH4 0xB2088164 EQ PUSH2 0x163 JUMPI DUP1 PUSH4 0xB603540F EQ PUSH2 0x15E JUMPI DUP1 PUSH4 0xBB828132 EQ PUSH2 0x159 JUMPI DUP1 PUSH4 0xC48589CB EQ PUSH2 0x154 JUMPI DUP1 PUSH4 0xD7BF2AEF EQ PUSH2 0x14F JUMPI DUP1 PUSH4 0xEA6CFD4A EQ PUSH2 0x14A JUMPI DUP1 PUSH4 0xEAA45B42 EQ PUSH2 0x14A JUMPI PUSH4 0xFB5989A6 EQ PUSH2 0x145 JUMPI PUSH1 0x0 DUP1 REVERT JUMPDEST PUSH2 0xBD0 JUMP JUMPDEST PUSH2 0xF76 JUMP JUMPDEST PUSH2 0xF5D JUMP JUMPDEST PUSH2 0xEBD JUMP JUMPDEST PUSH2 0xCE2 JUMP JUMPDEST PUSH2 0xCB3 JUMP JUMPDEST PUSH2 0xC9B JUMP JUMPDEST PUSH2 0xC7D JUMP JUMPDEST PUSH2 0xC41 JUMP JUMPDEST PUSH2 0xC23 JUMP JUMPDEST PUSH2 0xC0B JUMP JUMPDEST PUSH2 0xB95 JUMP JUMPDEST PUSH2 0x813 JUMP JUMPDEST PUSH2 0xB4C JUMP JUMPDEST PUSH2 0xAE6 JUMP JUMPDEST PUSH2 0x98C JUMP JUMPDEST PUSH2 0x974 JUMP JUMPDEST PUSH2 0x95C JUMP JUMPDEST PUSH2 0x86E JUMP JUMPDEST PUSH2 0x84E JUMP JUMPDEST PUSH2 0x551 JUMP JUMPDEST PUSH2 0x4AB JUMP JUMPDEST PUSH2 0x343 JUMP JUMPDEST PUSH1 0x20 CALLDATASIZE PUSH1 0x3 NOT ADD SLT PUSH2 0x33E JUMPI PUSH1 0x4 CALLDATALOAD CALLER PUSH1 0x0 MSTORE PUSH1 0x8 PUSH1 0x20 MSTORE PUSH2 0x1E0 PUSH1 0x40 PUSH1 0x0 KECCAK256 SLOAD ISZERO ISZERO PUSH2 0xFB1 JUMP JUMPDEST PUSH2 0x1E9 CALLER PUSH2 0x1814 JUMP JUMPDEST CALLER PUSH1 0x0 SWAP1 DUP2 MSTORE PUSH1 0x8 PUSH1 0x20 MSTORE PUSH1 0x40 SWAP1 KECCAK256 PUSH1 0x5 SWAP1 PUSH2 0x206 SWAP1 JUMPDEST SLOAD PUSH2 0x1028 JUMP JUMPDEST POP ADD SSTORE DUP1 DUP1 ISZERO PUSH2 0x216 DUP2 ISZERO PUSH2 0x1068 JUMP JUMPDEST CALLER PUSH1 0x0 SWAP1 DUP2 MSTORE PUSH1 0x8 PUSH1 0x20 MSTORE PUSH1 0x40 SWAP1 KECCAK256 PUSH2 0x241 SWAP1 DUP4 SWAP1 PUSH1 0x2 SWAP1 PUSH2 0x237 SWAP1 PUSH2 0x200 JUMP JUMPDEST POP ADD SLOAD LT ISZERO PUSH2 0x1080 JUMP JUMPDEST CALLER PUSH1 0x0 SWAP1 DUP2 MSTORE PUSH1 0x8 PUSH1 0x20 MSTORE PUSH1 0x40 SWAP1 KECCAK256 PUSH2 0x26C SWAP1 PUSH1 0x96 SWAP1 PUSH1 0x5 SWAP1 PUSH2 0x263 SWAP1 PUSH2 0x200 JUMP JUMPDEST POP ADD SLOAD GT PUSH2 0x10CC JUMP JUMPDEST PUSH2 0x280 PUSH2 0x278 CALLER PUSH2 0x1902 JUMP JUMPDEST DUP4 GT ISZERO PUSH2 0x10CC JUMP JUMPDEST PUSH1 0x0 SWAP1 PUSH2 0x335 JUMPI JUMPDEST PUSH1 0x0 DUP1 DUP1 SWAP4 DUP2 SWAP4 CALLER SWAP1 CALL ISZERO PUSH2 0x330 JUMPI CALLER PUSH1 0x0 SWAP1 DUP2 MSTORE PUSH1 0x8 PUSH1 0x20 MSTORE PUSH1 0x40 SWAP1 KECCAK256 PUSH2 0x2C0 SWAP1 PUSH1 0x2 SWAP1 PUSH2 0x2B6 SWAP1 PUSH2 0x200 JUMP JUMPDEST POP ADD SWAP2 DUP3 SLOAD PUSH2 0x1106 JUMP JUMPDEST SWAP1 SSTORE CALLER PUSH1 0x0 SWAP1 DUP2 MSTORE PUSH1 0x8 PUSH1 0x20 MSTORE PUSH1 0x40 SWAP1 KECCAK256 PUSH2 0x2E9 SWAP1 PUSH1 0x2 SWAP1 PUSH2 0x2E1 SWAP1 PUSH2 0x200 JUMP JUMPDEST POP ADD SLOAD PUSH2 0x1A34 JUMP JUMPDEST CALLER PUSH1 0x0 SWAP1 DUP2 MSTORE PUSH1 0x8 PUSH1 0x20 MSTORE PUSH1 0x40 SWAP1 KECCAK256 PUSH1 0x3 SWAP1 PUSH2 0x304 SWAP1 PUSH2 0x200 JUMP JUMPDEST POP ADD SSTORE PUSH2 0x310 CALLER PUSH2 0x1814 JUMP JUMPDEST CALLER PUSH1 0x0 SWAP1 DUP2 MSTORE PUSH1 0x8 PUSH1 0x20 MSTORE PUSH1 0x40 SWAP1 KECCAK256 PUSH1 0x5 SWAP1 PUSH2 0x32B SWAP1 PUSH2 0x200 JUMP JUMPDEST POP ADD SSTORE STOP JUMPDEST PUSH2 0x10E4 JUMP JUMPDEST POP PUSH2 0x8FC PUSH2 0x288 JUMP JUMPDEST PUSH1 0x0 DUP1 REVERT JUMPDEST CALLVALUE PUSH2 0x33E JUMPI PUSH1 0x20 CALLDATASIZE PUSH1 0x3 NOT ADD SLT PUSH2 0x33E JUMPI PUSH1 0x4 CALLDATALOAD CALLER PUSH1 0x0 MSTORE PUSH1 0x8 PUSH1 0x20 MSTORE PUSH2 0x370 PUSH1 0x40 PUSH1 0x0 KECCAK256 SLOAD ISZERO ISZERO PUSH2 0xFB1 JUMP JUMPDEST PUSH2 0x379 CALLER PUSH2 0x1814 JUMP JUMPDEST CALLER PUSH1 0x0 SWAP1 DUP2 MSTORE PUSH1 0x8 PUSH1 0x20 MSTORE PUSH1 0x40 SWAP1 KECCAK256 PUSH1 0x5 SWAP1 PUSH2 0x394 SWAP1 PUSH2 0x200 JUMP JUMPDEST POP ADD SSTORE CALLER PUSH1 0x0 SWAP1 DUP2 MSTORE PUSH1 0x8 PUSH1 0x20 MSTORE PUSH1 0x40 SWAP1 KECCAK256 PUSH2 0x3C0 SWAP1 PUSH1 0x4 SWAP1 PUSH2 0x3B6 SWAP1 PUSH2 0x200 JUMP JUMPDEST POP ADD SLOAD ISZERO ISZERO PUSH2 0x1118 JUMP JUMPDEST CALLER PUSH1 0x0 SWAP1 DUP2 MSTORE PUSH1 0x8 PUSH1 0x20 MSTORE PUSH1 0x40 SWAP1 KECCAK256 PUSH2 0x3EB SWAP1 DUP3 SWAP1 PUSH1 0x4 SWAP1 PUSH2 0x3E1 SWAP1 PUSH2 0x200 JUMP JUMPDEST POP ADD SLOAD LT ISZERO PUSH2 0x115B JUMP JUMPDEST PUSH1 0x5 SLOAD PUSH2 0x408 SWAP1 PUSH1 0x1 PUSH1 0x1 PUSH1 0xA0 SHL SUB AND JUMPDEST PUSH1 0x1 PUSH1 0x1 PUSH1 0xA0 SHL SUB AND SWAP1 JUMP JUMPDEST DUP1 EXTCODESIZE ISZERO PUSH2 0x33E JUMPI PUSH1 0x40 MLOAD PUSH4 0x79CC679 PUSH1 0xE4 SHL DUP2 MSTORE CALLER PUSH1 0x4 DUP3 ADD MSTORE PUSH1 0x24 DUP2 ADD DUP4 SWAP1 MSTORE SWAP1 PUSH1 0x0 SWAP1 DUP3 SWAP1 PUSH1 0x44 SWAP1 DUP3 SWAP1 DUP5 SWAP1 GAS CALL DUP1 ISZERO PUSH2 0x330 JUMPI PUSH2 0x46E JUMPI JUMPDEST POP CALLER PUSH1 0x0 SWAP1 DUP2 MSTORE PUSH1 0x8 PUSH1 0x20 MSTORE PUSH1 0x40 SWAP1 KECCAK256 PUSH2 0x463 SWAP1 PUSH1 0x4 SWAP1 PUSH2 0x2B6 SWAP1 PUSH2 0x200 JUMP JUMPDEST SWAP1 SSTORE PUSH2 0x310 CALLER PUSH2 0x1814 JUMP JUMPDEST DUP1 PUSH2 0x47D PUSH1 0x0 PUSH2 0x483 SWAP4 PUSH2 0x11D9 JUMP JUMPDEST DUP1 PUSH2 0x808 JUMP JUMPDEST CODESIZE PUSH2 0x443 JUMP JUMPDEST PUSH1 0x20 SWAP1 PUSH1 0x3 NOT ADD SLT PUSH2 0x33E JUMPI PUSH1 0x4 CALLDATALOAD PUSH1 0x1 PUSH1 0x1 PUSH1 0xA0 SHL SUB DUP2 AND DUP2 SUB PUSH2 0x33E JUMPI SWAP1 JUMP JUMPDEST CALLVALUE PUSH2 0x33E JUMPI PUSH2 0x4B9 CALLDATASIZE PUSH2 0x489 JUMP JUMPDEST POP PUSH1 0x44 PUSH1 0x20 PUSH1 0x1 DUP1 PUSH1 0xA0 SHL SUB PUSH1 0x4 SLOAD AND PUSH1 0x40 MLOAD SWAP3 DUP4 DUP1 SWAP3 PUSH4 0x24745215 PUSH1 0xE2 SHL DUP3 MSTORE PUSH32 0x71F3D55856E4058ED06EE057D79ADA615F65CDF5F9EE88181B914225088F834F PUSH1 0x4 DUP4 ADD MSTORE CALLER PUSH1 0x24 DUP4 ADD MSTORE GAS STATICCALL DUP1 ISZERO PUSH2 0x330 JUMPI PUSH2 0x520 SWAP2 PUSH1 0x0 SWAP2 PUSH2 0x522 JUMPI JUMPDEST POP PUSH2 0x1213 JUMP JUMPDEST STOP JUMPDEST PUSH2 0x544 SWAP2 POP PUSH1 0x20 RETURNDATASIZE PUSH1 0x20 GT PUSH2 0x54A JUMPI JUMPDEST PUSH2 0x53C DUP2 DUP4 PUSH2 0x11D9 JUMP JUMPDEST DUP2 ADD SWAP1 PUSH2 0x11FB JUMP JUMPDEST CODESIZE PUSH2 0x51A JUMP JUMPDEST POP RETURNDATASIZE PUSH2 0x532 JUMP JUMPDEST PUSH1 0x40 CALLDATASIZE PUSH1 0x3 NOT ADD SLT PUSH2 0x33E JUMPI PUSH1 0x4 CALLDATALOAD PUSH1 0x24 CALLDATALOAD PUSH4 0xFFFFFFFF DUP2 AND DUP2 SUB PUSH2 0x33E JUMPI CALLER PUSH1 0x0 MSTORE PUSH1 0x8 PUSH1 0x20 MSTORE PUSH2 0x589 PUSH1 0x40 PUSH1 0x0 KECCAK256 SLOAD ISZERO ISZERO PUSH2 0xFB1 JUMP JUMPDEST PUSH2 0x594 DUP3 ISZERO ISZERO PUSH2 0x1068 JUMP JUMPDEST PUSH2 0x59D CALLER PUSH2 0x1814 JUMP JUMPDEST CALLER PUSH1 0x0 SWAP1 DUP2 MSTORE PUSH1 0x8 PUSH1 0x20 MSTORE PUSH1 0x40 SWAP1 KECCAK256 PUSH1 0x5 SWAP1 PUSH2 0x5B8 SWAP1 PUSH2 0x200 JUMP JUMPDEST POP ADD SSTORE CALLER PUSH1 0x0 SWAP1 DUP2 MSTORE PUSH1 0x8 PUSH1 0x20 MSTORE PUSH1 0x40 SWAP1 KECCAK256 PUSH2 0x604 SWAP1 PUSH1 0x5 SWAP1 PUSH2 0x5DA SWAP1 PUSH2 0x200 JUMP JUMPDEST POP ADD SLOAD PUSH32 0x0 LT PUSH2 0x10CC JUMP JUMPDEST PUSH2 0x617 PUSH2 0x610 CALLER PUSH2 0x1B11 JUMP JUMPDEST DUP4 LT PUSH2 0x12C6 JUMP JUMPDEST PUSH2 0x627 PUSH2 0x622 PUSH2 0x1BA6 JUMP JUMPDEST PUSH2 0x1BC2 JUMP JUMPDEST PUSH2 0x630 CALLER PUSH2 0x3FC JUMP JUMPDEST PUSH2 0x643 PUSH2 0x63C DUP6 PUSH2 0x1311 JUMP JUMPDEST PUSH1 0xA SWAP1 DIV SWAP1 JUMP JUMPDEST SWAP1 PUSH2 0x65B PUSH2 0x64F PUSH2 0x13A4 JUMP JUMPDEST PUSH4 0xFFFFFFFF SWAP1 SWAP6 AND DUP6 MSTORE JUMP JUMPDEST PUSH1 0x20 DUP5 ADD MSTORE DUP4 PUSH1 0x40 DUP5 ADD MSTORE PUSH1 0x60 DUP4 ADD MSTORE PUSH1 0x80 DUP3 ADD MSTORE PUSH2 0x678 PUSH2 0x13B3 JUMP JUMPDEST PUSH1 0xA0 DUP3 ADD MSTORE PUSH2 0x685 PUSH2 0x13B3 JUMP JUMPDEST PUSH1 0xC0 DUP3 ADD MSTORE PUSH1 0x5 SLOAD PUSH2 0x69F SWAP1 PUSH1 0x1 PUSH1 0x1 PUSH1 0xA0 SHL SUB AND PUSH2 0x3FC JUMP JUMPDEST PUSH1 0x40 DUP1 MLOAD PUSH4 0x3B6F743B PUSH1 0xE0 SHL DUP2 MSTORE SWAP2 SWAP3 SWAP1 DUP3 DUP1 PUSH2 0x6BF DUP5 PUSH1 0x4 DUP4 ADD PUSH2 0x1485 JUMP JUMPDEST SUB DUP2 DUP7 GAS STATICCALL SWAP2 DUP3 ISZERO PUSH2 0x330 JUMPI PUSH1 0x0 SWAP3 PUSH2 0x7D7 JUMPI JUMPDEST POP PUSH2 0x6E1 DUP3 MLOAD CALLVALUE LT ISZERO PUSH2 0x14A2 JUMP JUMPDEST DUP3 EXTCODESIZE ISZERO PUSH2 0x33E JUMPI PUSH1 0x40 MLOAD PUSH4 0x40C10F19 PUSH1 0xE0 SHL DUP2 MSTORE ADDRESS PUSH1 0x4 DUP3 ADD MSTORE PUSH1 0x24 DUP2 ADD DUP6 SWAP1 MSTORE SWAP3 PUSH1 0x0 SWAP1 DUP5 SWAP1 PUSH1 0x44 SWAP1 DUP3 SWAP1 DUP5 SWAP1 GAS CALL SWAP2 DUP3 ISZERO PUSH2 0x330 JUMPI PUSH2 0x75B SWAP4 PUSH1 0xC0 SWAP4 PUSH2 0x7C2 JUMPI JUMPDEST POP PUSH1 0x5 SLOAD PUSH2 0x73A SWAP1 PUSH1 0x1 PUSH1 0x1 PUSH1 0xA0 SHL SUB AND PUSH2 0x3FC JUMP JUMPDEST SWAP1 DUP1 MLOAD PUSH1 0x40 MLOAD DUP1 SWAP7 DUP2 SWAP6 DUP3 SWAP5 PUSH4 0xC7C7F5B3 PUSH1 0xE0 SHL DUP5 MSTORE CALLER SWAP2 PUSH1 0x4 DUP6 ADD PUSH2 0x1554 JUMP JUMPDEST SUB SWAP3 GAS CALL DUP1 ISZERO PUSH2 0x330 JUMPI PUSH2 0x794 JUMPI JUMPDEST POP CALLER PUSH1 0x0 SWAP1 DUP2 MSTORE PUSH1 0x8 PUSH1 0x20 MSTORE PUSH1 0x40 SWAP1 KECCAK256 PUSH2 0x463 SWAP1 PUSH1 0x4 SWAP1 PUSH2 0x78A SWAP1 PUSH2 0x200 JUMP JUMPDEST POP ADD SWAP2 DUP3 SLOAD PUSH2 0x1597 JUMP JUMPDEST PUSH2 0x7B5 SWAP1 PUSH1 0xC0 RETURNDATASIZE PUSH1 0xC0 GT PUSH2 0x7BB JUMPI JUMPDEST PUSH2 0x7AD DUP2 DUP4 PUSH2 0x11D9 JUMP JUMPDEST DUP2 ADD SWAP1 PUSH2 0x14E3 JUMP JUMPDEST POP PUSH2 0x76A JUMP JUMPDEST POP RETURNDATASIZE PUSH2 0x7A3 JUMP JUMPDEST DUP1 PUSH2 0x47D PUSH1 0x0 PUSH2 0x7D1 SWAP4 PUSH2 0x11D9 JUMP JUMPDEST CODESIZE PUSH2 0x724 JUMP JUMPDEST PUSH2 0x7FA SWAP2 SWAP3 POP PUSH1 0x40 RETURNDATASIZE PUSH1 0x40 GT PUSH2 0x801 JUMPI JUMPDEST PUSH2 0x7F2 DUP2 DUP4 PUSH2 0x11D9 JUMP JUMPDEST DUP2 ADD SWAP1 PUSH2 0x1401 JUMP JUMPDEST SWAP1 CODESIZE PUSH2 0x6D3 JUMP JUMPDEST POP RETURNDATASIZE PUSH2 0x7E8 JUMP JUMPDEST PUSH1 0x0 SWAP2 SUB SLT PUSH2 0x33E JUMPI JUMP JUMPDEST CALLVALUE PUSH2 0x33E JUMPI PUSH1 0x0 CALLDATASIZE PUSH1 0x3 NOT ADD SLT PUSH2 0x33E JUMPI PUSH1 0x20 PUSH1 0x40 MLOAD PUSH32 0x0 DUP2 MSTORE RETURN JUMPDEST CALLVALUE PUSH2 0x33E JUMPI PUSH1 0x20 PUSH2 0x866 PUSH2 0x861 CALLDATASIZE PUSH2 0x489 JUMP JUMPDEST PUSH2 0x15A4 JUMP JUMPDEST PUSH1 0x40 MLOAD SWAP1 DUP2 MSTORE RETURN JUMPDEST CALLVALUE PUSH2 0x33E JUMPI PUSH1 0x0 CALLDATASIZE PUSH1 0x3 NOT ADD SLT PUSH2 0x33E JUMPI PUSH2 0x887 PUSH2 0x15C7 JUMP JUMPDEST POP CALLER PUSH1 0x0 MSTORE PUSH1 0x8 PUSH1 0x20 MSTORE PUSH2 0x8A1 PUSH1 0x40 PUSH1 0x0 KECCAK256 SLOAD ISZERO ISZERO PUSH2 0xFB1 JUMP JUMPDEST CALLER PUSH1 0x0 MSTORE PUSH1 0x8 PUSH1 0x20 MSTORE PUSH1 0xC0 PUSH2 0x8C3 PUSH2 0x8BD PUSH1 0x40 PUSH1 0x0 KECCAK256 SLOAD PUSH2 0x1028 JUMP JUMPDEST POP PUSH2 0x15F8 JUMP JUMPDEST PUSH2 0x909 PUSH1 0x40 MLOAD DUP1 SWAP3 PUSH1 0xA0 DUP1 SWAP2 DUP1 MLOAD DUP5 MSTORE PUSH1 0x1 DUP1 DUP4 SHL SUB PUSH1 0x20 DUP3 ADD MLOAD AND PUSH1 0x20 DUP6 ADD MSTORE PUSH1 0x40 DUP2 ADD MLOAD PUSH1 0x40 DUP6 ADD MSTORE PUSH1 0x60 DUP2 ADD MLOAD PUSH1 0x60 DUP6 ADD MSTORE PUSH1 0x80 DUP2 ADD MLOAD PUSH1 0x80 DUP6 ADD MSTORE ADD MLOAD SWAP2 ADD MSTORE JUMP JUMPDEST RETURN JUMPDEST SWAP1 PUSH1 0x20 PUSH1 0x3 NOT DUP4 ADD SLT PUSH2 0x33E JUMPI PUSH1 0x4 CALLDATALOAD PUSH8 0xFFFFFFFFFFFFFFFF DUP2 GT PUSH2 0x33E JUMPI DUP3 PUSH1 0x23 DUP3 ADD SLT ISZERO PUSH2 0x33E JUMPI DUP1 PUSH1 0x4 ADD CALLDATALOAD SWAP3 PUSH8 0xFFFFFFFFFFFFFFFF DUP5 GT PUSH2 0x33E JUMPI PUSH1 0x24 DUP5 DUP4 ADD ADD GT PUSH2 0x33E JUMPI PUSH1 0x24 ADD SWAP2 SWAP1 JUMP JUMPDEST CALLVALUE PUSH2 0x33E JUMPI PUSH2 0x96A CALLDATASIZE PUSH2 0x90B JUMP JUMPDEST POP POP PUSH2 0x520 PUSH2 0x16DD JUMP JUMPDEST CALLVALUE PUSH2 0x33E JUMPI PUSH1 0x20 PUSH2 0x866 PUSH2 0x987 CALLDATASIZE PUSH2 0x489 JUMP JUMPDEST PUSH2 0x1814 JUMP JUMPDEST CALLVALUE PUSH2 0x33E JUMPI PUSH1 0x20 CALLDATASIZE PUSH1 0x3 NOT ADD SLT PUSH2 0x33E JUMPI PUSH1 0x4 CALLDATALOAD CALLER PUSH1 0x0 MSTORE PUSH1 0x8 PUSH1 0x20 MSTORE PUSH2 0x9B9 PUSH1 0x40 PUSH1 0x0 KECCAK256 SLOAD ISZERO ISZERO PUSH2 0xFB1 JUMP JUMPDEST PUSH2 0x9C4 DUP2 ISZERO ISZERO PUSH2 0x1068 JUMP JUMPDEST PUSH2 0x9CD CALLER PUSH2 0x1814 JUMP JUMPDEST CALLER PUSH1 0x0 SWAP1 DUP2 MSTORE PUSH1 0x8 PUSH1 0x20 MSTORE PUSH1 0x40 SWAP1 KECCAK256 PUSH1 0x5 SWAP1 PUSH2 0x9E8 SWAP1 PUSH2 0x200 JUMP JUMPDEST POP ADD SSTORE CALLER PUSH1 0x0 SWAP1 DUP2 MSTORE PUSH1 0x8 PUSH1 0x20 MSTORE PUSH1 0x40 SWAP1 KECCAK256 PUSH2 0xA0A SWAP1 PUSH1 0x5 SWAP1 PUSH2 0x5DA SWAP1 PUSH2 0x200 JUMP JUMPDEST PUSH2 0xA13 CALLER PUSH2 0x1B11 JUMP JUMPDEST PUSH2 0xA1E DUP2 DUP4 LT PUSH2 0x12C6 JUMP JUMPDEST PUSH1 0x5 SLOAD PUSH2 0xA33 SWAP1 PUSH1 0x1 PUSH1 0x1 PUSH1 0xA0 SHL SUB AND PUSH2 0x3FC JUMP JUMPDEST SWAP2 DUP3 EXTCODESIZE ISZERO PUSH2 0x33E JUMPI PUSH1 0x40 MLOAD PUSH4 0x40C10F19 PUSH1 0xE0 SHL DUP2 MSTORE CALLER PUSH1 0x4 DUP3 ADD MSTORE PUSH1 0x24 DUP2 ADD DUP3 SWAP1 MSTORE SWAP3 PUSH1 0x0 SWAP1 DUP5 SWAP1 PUSH1 0x44 SWAP1 DUP3 SWAP1 DUP5 SWAP1 GAS CALL SWAP3 DUP4 ISZERO PUSH2 0x330 JUMPI PUSH2 0xACD SWAP4 PUSH2 0xAD1 JUMPI JUMPDEST POP CALLER PUSH1 0x0 SWAP1 DUP2 MSTORE PUSH1 0x8 PUSH1 0x20 MSTORE PUSH1 0x40 SWAP1 KECCAK256 PUSH2 0xA94 SWAP1 PUSH1 0x4 SWAP1 PUSH2 0x78A SWAP1 PUSH2 0x200 JUMP JUMPDEST SWAP1 SSTORE PUSH2 0xA9F CALLER PUSH2 0x1814 JUMP JUMPDEST CALLER PUSH1 0x0 SWAP1 DUP2 MSTORE PUSH1 0x8 PUSH1 0x20 MSTORE PUSH1 0x40 SWAP1 KECCAK256 PUSH1 0x5 SWAP1 PUSH2 0xABA SWAP1 PUSH2 0x200 JUMP JUMPDEST POP ADD SSTORE PUSH1 0x40 MLOAD SWAP1 DUP2 MSTORE SWAP1 DUP2 SWAP1 PUSH1 0x20 DUP3 ADD SWAP1 JUMP JUMPDEST SUB SWAP1 RETURN JUMPDEST DUP1 PUSH2 0x47D PUSH1 0x0 PUSH2 0xAE0 SWAP4 PUSH2 0x11D9 JUMP JUMPDEST CODESIZE PUSH2 0xA74 JUMP JUMPDEST CALLVALUE PUSH2 0x33E JUMPI PUSH1 0x20 CALLDATASIZE PUSH1 0x3 NOT ADD SLT PUSH2 0x33E JUMPI PUSH1 0x20 PUSH2 0x866 PUSH1 0x4 CALLDATALOAD PUSH2 0x1CD7 JUMP JUMPDEST PUSH1 0x0 JUMPDEST DUP4 DUP2 LT PUSH2 0xB17 JUMPI POP POP PUSH1 0x0 SWAP2 ADD MSTORE JUMP JUMPDEST DUP2 DUP2 ADD MLOAD DUP4 DUP3 ADD MSTORE PUSH1 0x20 ADD PUSH2 0xB07 JUMP JUMPDEST SWAP1 PUSH1 0x20 SWAP2 PUSH2 0xB40 DUP2 MLOAD DUP1 SWAP3 DUP2 DUP6 MSTORE DUP6 DUP1 DUP7 ADD SWAP2 ADD PUSH2 0xB04 JUMP JUMPDEST PUSH1 0x1F ADD PUSH1 0x1F NOT AND ADD ADD SWAP1 JUMP JUMPDEST CALLVALUE PUSH2 0x33E JUMPI PUSH2 0xB5A CALLDATASIZE PUSH2 0x90B JUMP JUMPDEST POP POP PUSH1 0x40 MLOAD PUSH1 0x1 DUP2 MSTORE PUSH1 0x40 PUSH1 0x20 DUP3 ADD MSTORE PUSH1 0x20 DUP2 PUSH1 0x40 PUSH1 0x60 MLOAD DUP1 DUP3 DUP5 ADD MSTORE PUSH2 0xB86 DUP2 PUSH1 0x60 DUP6 ADD PUSH1 0x80 PUSH2 0xB04 JUMP JUMPDEST PUSH1 0x1F ADD PUSH1 0x1F NOT AND DUP3 ADD ADD SUB ADD SWAP1 RETURN JUMPDEST CALLVALUE PUSH2 0x33E JUMPI PUSH1 0x0 CALLDATASIZE PUSH1 0x3 NOT ADD SLT PUSH2 0x33E JUMPI PUSH1 0x20 PUSH1 0x40 MLOAD PUSH32 0x71F3D55856E4058ED06EE057D79ADA615F65CDF5F9EE88181B914225088F834F DUP2 MSTORE RETURN JUMPDEST CALLVALUE PUSH2 0x33E JUMPI PUSH1 0x0 CALLDATASIZE PUSH1 0x3 NOT ADD SLT PUSH2 0x33E JUMPI PUSH1 0x20 PUSH1 0x40 MLOAD PUSH32 0x0 DUP2 MSTORE RETURN JUMPDEST CALLVALUE PUSH2 0x33E JUMPI PUSH1 0x20 PUSH2 0x866 PUSH2 0xC1E CALLDATASIZE PUSH2 0x489 JUMP JUMPDEST PUSH2 0x1902 JUMP JUMPDEST CALLVALUE PUSH2 0x33E JUMPI PUSH1 0x0 CALLDATASIZE PUSH1 0x3 NOT ADD SLT PUSH2 0x33E JUMPI PUSH1 0x20 PUSH1 0x2 SLOAD PUSH1 0x40 MLOAD SWAP1 DUP2 MSTORE RETURN JUMPDEST CALLVALUE PUSH2 0x33E JUMPI PUSH1 0x1 PUSH1 0x1 PUSH1 0xA0 SHL SUB PUSH2 0xC57 CALLDATASIZE PUSH2 0x489 JUMP JUMPDEST AND PUSH1 0x0 MSTORE PUSH1 0x8 PUSH1 0x20 MSTORE PUSH1 0x20 PUSH1 0x2 PUSH2 0xC72 PUSH1 0x40 PUSH1 0x0 KECCAK256 SLOAD PUSH2 0x1028 JUMP JUMPDEST POP ADD SLOAD PUSH1 0x40 MLOAD SWAP1 DUP2 MSTORE RETURN JUMPDEST CALLVALUE PUSH2 0x33E JUMPI PUSH1 0x0 CALLDATASIZE PUSH1 0x3 NOT ADD SLT PUSH2 0x33E JUMPI PUSH1 0x20 PUSH1 0x3 SLOAD PUSH1 0x40 MLOAD SWAP1 DUP2 MSTORE RETURN JUMPDEST CALLVALUE PUSH2 0x33E JUMPI PUSH1 0x20 PUSH2 0x866 PUSH2 0xCAE CALLDATASIZE PUSH2 0x489 JUMP JUMPDEST PUSH2 0x1B11 JUMP JUMPDEST CALLVALUE PUSH2 0x33E JUMPI PUSH1 0x1 PUSH1 0x1 PUSH1 0xA0 SHL SUB PUSH2 0xCC9 CALLDATASIZE PUSH2 0x489 JUMP JUMPDEST AND PUSH1 0x0 MSTORE PUSH1 0x8 PUSH1 0x20 MSTORE PUSH1 0x20 PUSH1 0x40 PUSH1 0x0 KECCAK256 SLOAD PUSH1 0x40 MLOAD SWAP1 DUP2 MSTORE RETURN JUMPDEST PUSH1 0x0 CALLDATASIZE PUSH1 0x3 NOT ADD SLT PUSH2 0x33E JUMPI PUSH2 0xCF9 CALLVALUE ISZERO ISZERO PUSH2 0x1068 JUMP JUMPDEST CALLER PUSH1 0x0 SWAP1 DUP2 MSTORE PUSH1 0x8 PUSH1 0x20 MSTORE PUSH1 0x40 SWAP1 KECCAK256 SLOAD PUSH2 0xDAD JUMPI PUSH2 0xD59 PUSH2 0xD18 PUSH2 0x15C7 JUMP JUMPDEST CALLVALUE PUSH1 0x40 DUP3 ADD MSTORE CALLER PUSH1 0x20 DUP3 ADD MSTORE PUSH1 0x3 SLOAD DUP2 MSTORE PUSH1 0x0 PUSH1 0x80 DUP3 ADD MSTORE PUSH2 0xD41 PUSH2 0xD3C CALLVALUE PUSH2 0x1A34 JUMP JUMPDEST PUSH2 0x1327 JUMP JUMPDEST PUSH1 0xA0 DUP3 ADD MSTORE PUSH2 0xD4F CALLVALUE PUSH2 0x1A34 JUMP JUMPDEST PUSH1 0x60 DUP3 ADD MSTORE PUSH2 0x1647 JUMP JUMPDEST PUSH1 0x3 SLOAD CALLER PUSH1 0x0 SWAP1 DUP2 MSTORE PUSH1 0x8 PUSH1 0x20 MSTORE PUSH1 0x40 SWAP1 KECCAK256 SSTORE PUSH2 0xD7F PUSH2 0xD7A PUSH1 0x3 SLOAD PUSH2 0x1589 JUMP JUMPDEST PUSH1 0x3 SSTORE JUMP JUMPDEST CALLER PUSH1 0x0 SWAP1 DUP2 MSTORE PUSH1 0x8 PUSH1 0x20 MSTORE PUSH1 0x40 SWAP1 KECCAK256 PUSH2 0xACD SWAP1 PUSH2 0xD9B SWAP1 PUSH2 0x200 JUMP JUMPDEST POP SLOAD PUSH1 0x40 MLOAD SWAP1 DUP2 MSTORE SWAP1 DUP2 SWAP1 PUSH1 0x20 DUP3 ADD SWAP1 JUMP JUMPDEST CALLER PUSH1 0x0 SWAP1 DUP2 MSTORE PUSH1 0x8 PUSH1 0x20 MSTORE PUSH1 0x40 SWAP1 KECCAK256 PUSH1 0x2 SWAP1 PUSH2 0xDC8 SWAP1 PUSH2 0x200 JUMP JUMPDEST POP ADD PUSH2 0xDD5 CALLVALUE DUP3 SLOAD PUSH2 0x1597 JUMP JUMPDEST SWAP1 SSTORE CALLER PUSH1 0x0 SWAP1 DUP2 MSTORE PUSH1 0x8 PUSH1 0x20 MSTORE PUSH1 0x40 SWAP1 KECCAK256 PUSH2 0xDF6 SWAP1 PUSH1 0x2 SWAP1 PUSH2 0x2E1 SWAP1 PUSH2 0x200 JUMP JUMPDEST CALLER PUSH1 0x0 SWAP1 DUP2 MSTORE PUSH1 0x8 PUSH1 0x20 MSTORE PUSH1 0x40 SWAP1 KECCAK256 PUSH1 0x3 SWAP1 PUSH2 0xE11 SWAP1 PUSH2 0x200 JUMP JUMPDEST POP ADD SSTORE PUSH2 0xE1D CALLER PUSH2 0x1814 JUMP JUMPDEST CALLER PUSH1 0x0 SWAP1 DUP2 MSTORE PUSH1 0x8 PUSH1 0x20 MSTORE PUSH1 0x40 SWAP1 KECCAK256 PUSH1 0x5 SWAP1 PUSH2 0xE38 SWAP1 PUSH2 0x200 JUMP JUMPDEST POP ADD SSTORE PUSH2 0xD7F JUMP JUMPDEST PUSH1 0x20 PUSH1 0x40 DUP2 DUP4 ADD SWAP3 DUP3 DUP2 MSTORE DUP5 MLOAD DUP1 SWAP5 MSTORE ADD SWAP3 ADD SWAP1 PUSH1 0x0 JUMPDEST DUP2 DUP2 LT PUSH2 0xE64 JUMPI POP POP POP SWAP1 JUMP JUMPDEST SWAP1 SWAP2 SWAP3 PUSH1 0x20 PUSH1 0xC0 DUP3 PUSH2 0xEB2 PUSH1 0x1 SWAP5 DUP9 MLOAD PUSH1 0xA0 DUP1 SWAP2 DUP1 MLOAD DUP5 MSTORE PUSH1 0x1 DUP1 DUP4 SHL SUB PUSH1 0x20 DUP3 ADD MLOAD AND PUSH1 0x20 DUP6 ADD MSTORE PUSH1 0x40 DUP2 ADD MLOAD PUSH1 0x40 DUP6 ADD MSTORE PUSH1 0x60 DUP2 ADD MLOAD PUSH1 0x60 DUP6 ADD MSTORE PUSH1 0x80 DUP2 ADD MLOAD PUSH1 0x80 DUP6 ADD MSTORE ADD MLOAD SWAP2 ADD MSTORE JUMP JUMPDEST ADD SWAP5 ADD SWAP3 SWAP2 ADD PUSH2 0xE57 JUMP JUMPDEST CALLVALUE PUSH2 0x33E JUMPI PUSH1 0x0 CALLDATASIZE PUSH1 0x3 NOT ADD SLT PUSH2 0x33E JUMPI PUSH1 0x7 SLOAD PUSH8 0xFFFFFFFFFFFFFFFF DUP2 GT PUSH2 0xF58 JUMPI PUSH1 0x40 MLOAD SWAP1 PUSH2 0xEF4 PUSH1 0x20 DUP3 PUSH1 0x5 SHL ADD DUP4 PUSH2 0x11D9 JUMP JUMPDEST DUP1 DUP3 MSTORE PUSH1 0x20 DUP3 ADD PUSH1 0x7 PUSH1 0x0 MSTORE PUSH32 0xA66CC928B5EDB82AF9BD49922954155AB7B0942694BEA4CE44661D9A8736C688 PUSH1 0x0 SWAP2 JUMPDEST DUP4 DUP4 LT PUSH2 0xF3A JUMPI PUSH1 0x40 MLOAD DUP1 PUSH2 0xACD DUP8 DUP3 PUSH2 0xE40 JUMP JUMPDEST PUSH1 0x6 PUSH1 0x20 PUSH1 0x1 SWAP3 PUSH2 0xF4A DUP6 PUSH2 0x15F8 JUMP JUMPDEST DUP2 MSTORE ADD SWAP3 ADD SWAP3 ADD SWAP2 SWAP1 PUSH2 0xF25 JUMP JUMPDEST PUSH2 0x11A7 JUMP JUMPDEST CALLVALUE PUSH2 0x33E JUMPI PUSH1 0x0 CALLDATASIZE PUSH1 0x3 NOT ADD SLT PUSH2 0x33E JUMPI PUSH2 0x520 PUSH2 0x16DD JUMP JUMPDEST CALLVALUE PUSH2 0x33E JUMPI PUSH1 0x0 CALLDATASIZE PUSH1 0x3 NOT ADD SLT PUSH2 0x33E JUMPI PUSH1 0x20 PUSH1 0x40 MLOAD PUSH32 0x0 DUP2 MSTORE RETURN JUMPDEST ISZERO PUSH2 0xFB8 JUMPI JUMP JUMPDEST PUSH1 0x40 MLOAD PUSH3 0x461BCD PUSH1 0xE5 SHL DUP2 MSTORE PUSH1 0x20 PUSH1 0x4 DUP3 ADD MSTORE PUSH1 0x2C PUSH1 0x24 DUP3 ADD MSTORE PUSH32 0x596F7520646F6E7420686176652061205661756C742C20637265617465206120 PUSH1 0x44 DUP3 ADD MSTORE PUSH12 0x7661756C7420666972737421 PUSH1 0xA0 SHL PUSH1 0x64 DUP3 ADD MSTORE PUSH1 0x84 SWAP1 REVERT JUMPDEST PUSH4 0x4E487B71 PUSH1 0xE0 SHL PUSH1 0x0 MSTORE PUSH1 0x32 PUSH1 0x4 MSTORE PUSH1 0x24 PUSH1 0x0 REVERT JUMPDEST PUSH1 0x7 SLOAD DUP2 LT ISZERO PUSH2 0x1047 JUMPI PUSH1 0x7 PUSH1 0x0 MSTORE PUSH1 0x6 PUSH1 0x20 PUSH1 0x0 KECCAK256 SWAP2 MUL ADD SWAP1 PUSH1 0x0 SWAP1 JUMP JUMPDEST PUSH2 0x1012 JUMP JUMPDEST DUP1 SLOAD DUP3 LT ISZERO PUSH2 0x1047 JUMPI PUSH1 0x0 MSTORE PUSH1 0x6 PUSH1 0x20 PUSH1 0x0 KECCAK256 SWAP2 MUL ADD SWAP1 PUSH1 0x0 SWAP1 JUMP JUMPDEST ISZERO PUSH2 0x106F JUMPI JUMP JUMPDEST PUSH4 0x16670B47 PUSH1 0xE2 SHL PUSH1 0x0 MSTORE PUSH1 0x4 PUSH1 0x0 REVERT JUMPDEST ISZERO PUSH2 0x1087 JUMPI JUMP JUMPDEST PUSH1 0x40 MLOAD PUSH3 0x461BCD PUSH1 0xE5 SHL DUP2 MSTORE PUSH1 0x20 PUSH1 0x4 DUP3 ADD MSTORE PUSH1 0x1D PUSH1 0x24 DUP3 ADD MSTORE PUSH32 0x696E73756666696369656E742062616C616E636520696E207661756C74000000 PUSH1 0x44 DUP3 ADD MSTORE PUSH1 0x64 SWAP1 REVERT JUMPDEST ISZERO PUSH2 0x10D3 JUMPI JUMP JUMPDEST PUSH4 0x7F8953F7 PUSH1 0xE0 SHL PUSH1 0x0 MSTORE PUSH1 0x4 PUSH1 0x0 REVERT JUMPDEST PUSH1 0x40 MLOAD RETURNDATASIZE PUSH1 0x0 DUP3 RETURNDATACOPY RETURNDATASIZE SWAP1 REVERT JUMPDEST PUSH4 0x4E487B71 PUSH1 0xE0 SHL PUSH1 0x0 MSTORE PUSH1 0x11 PUSH1 0x4 MSTORE PUSH1 0x24 PUSH1 0x0 REVERT JUMPDEST SWAP2 SWAP1 DUP3 SUB SWAP2 DUP3 GT PUSH2 0x1113 JUMPI JUMP JUMPDEST PUSH2 0x10F0 JUMP JUMPDEST ISZERO PUSH2 0x111F JUMPI JUMP JUMPDEST PUSH1 0x40 MLOAD PUSH3 0x461BCD PUSH1 0xE5 SHL DUP2 MSTORE PUSH1 0x20 PUSH1 0x4 DUP3 ADD MSTORE PUSH1 0x14 PUSH1 0x24 DUP3 ADD MSTORE PUSH20 0x273790393AB834B79034B9B9BAB2B2103CB2BA17 PUSH1 0x61 SHL PUSH1 0x44 DUP3 ADD MSTORE PUSH1 0x64 SWAP1 REVERT JUMPDEST ISZERO PUSH2 0x1162 JUMPI JUMP JUMPDEST PUSH1 0x40 MLOAD PUSH3 0x461BCD PUSH1 0xE5 SHL DUP2 MSTORE PUSH1 0x20 PUSH1 0x4 DUP3 ADD MSTORE PUSH1 0x1B PUSH1 0x24 DUP3 ADD MSTORE PUSH32 0x4C65737320616D6F756E74206F6620727570696F206973737565640000000000 PUSH1 0x44 DUP3 ADD MSTORE PUSH1 0x64 SWAP1 REVERT JUMPDEST PUSH4 0x4E487B71 PUSH1 0xE0 SHL PUSH1 0x0 MSTORE PUSH1 0x41 PUSH1 0x4 MSTORE PUSH1 0x24 PUSH1 0x0 REVERT JUMPDEST PUSH1 0xC0 DUP2 ADD SWAP1 DUP2 LT PUSH8 0xFFFFFFFFFFFFFFFF DUP3 GT OR PUSH2 0xF58 JUMPI PUSH1 0x40 MSTORE JUMP JUMPDEST SWAP1 PUSH1 0x1F DUP1 NOT SWAP2 ADD AND DUP2 ADD SWAP1 DUP2 LT PUSH8 0xFFFFFFFFFFFFFFFF DUP3 GT OR PUSH2 0xF58 JUMPI PUSH1 0x40 MSTORE JUMP JUMPDEST SWAP1 DUP2 PUSH1 0x20 SWAP2 SUB SLT PUSH2 0x33E JUMPI MLOAD DUP1 ISZERO ISZERO DUP2 SUB PUSH2 0x33E JUMPI SWAP1 JUMP JUMPDEST ISZERO PUSH2 0x121A JUMPI JUMP JUMPDEST PUSH1 0x40 MLOAD PUSH3 0x461BCD PUSH1 0xE5 SHL DUP2 MSTORE PUSH1 0x20 PUSH1 0x4 DUP3 ADD MSTORE PUSH1 0x18 PUSH1 0x24 DUP3 ADD MSTORE PUSH32 0x4D7573742068617665204D4F44455241544F525F524F4C450000000000000000 PUSH1 0x44 DUP3 ADD MSTORE PUSH1 0x64 SWAP1 REVERT JUMPDEST PUSH1 0x44 PUSH1 0x20 PUSH1 0x1 DUP1 PUSH1 0xA0 SHL SUB PUSH1 0x4 SLOAD AND PUSH1 0x40 MLOAD SWAP3 DUP4 DUP1 SWAP3 PUSH4 0x24745215 PUSH1 0xE2 SHL DUP3 MSTORE PUSH32 0x71F3D55856E4058ED06EE057D79ADA615F65CDF5F9EE88181B914225088F834F PUSH1 0x4 DUP4 ADD MSTORE CALLER PUSH1 0x24 DUP4 ADD MSTORE GAS STATICCALL DUP1 ISZERO PUSH2 0x330 JUMPI PUSH2 0x12C4 SWAP2 PUSH1 0x0 SWAP2 PUSH2 0x522 JUMPI POP PUSH2 0x1213 JUMP JUMPDEST JUMP JUMPDEST ISZERO PUSH2 0x12CD JUMPI JUMP JUMPDEST PUSH1 0x64 PUSH1 0x40 MLOAD PUSH3 0x461BCD PUSH1 0xE5 SHL DUP2 MSTORE PUSH1 0x20 PUSH1 0x4 DUP3 ADD MSTORE PUSH1 0x20 PUSH1 0x24 DUP3 ADD MSTORE PUSH32 0x656E74657220616D6F756E74206C657373207468616E204352502063726F7373 PUSH1 0x44 DUP3 ADD MSTORE REVERT JUMPDEST SWAP1 PUSH1 0x9 DUP3 MUL SWAP2 DUP1 DUP4 DIV PUSH1 0x9 EQ SWAP1 ISZERO OR ISZERO PUSH2 0x1113 JUMPI JUMP JUMPDEST SWAP1 PUSH1 0x64 DUP3 MUL SWAP2 DUP1 DUP4 DIV PUSH1 0x64 EQ SWAP1 ISZERO OR ISZERO PUSH2 0x1113 JUMPI JUMP JUMPDEST SWAP1 PUSH1 0x3 DUP3 MUL SWAP2 DUP1 DUP4 DIV PUSH1 0x3 EQ SWAP1 ISZERO OR ISZERO PUSH2 0x1113 JUMPI JUMP JUMPDEST SWAP1 PUSH5 0x2540BE400 DUP3 MUL SWAP2 DUP1 DUP4 DIV PUSH5 0x2540BE400 EQ SWAP1 ISZERO OR ISZERO PUSH2 0x1113 JUMPI JUMP JUMPDEST DUP2 DUP2 MUL SWAP3 SWAP2 DUP2 ISZERO SWAP2 DUP5 DIV EQ OR ISZERO PUSH2 0x1113 JUMPI JUMP JUMPDEST DUP2 ISZERO PUSH2 0x138E JUMPI DIV SWAP1 JUMP JUMPDEST PUSH4 0x4E487B71 PUSH1 0xE0 SHL PUSH1 0x0 MSTORE PUSH1 0x12 PUSH1 0x4 MSTORE PUSH1 0x24 PUSH1 0x0 REVERT JUMPDEST PUSH1 0x40 MLOAD SWAP1 PUSH2 0x12C4 PUSH1 0xE0 DUP4 PUSH2 0x11D9 JUMP JUMPDEST PUSH1 0x40 MLOAD SWAP1 PUSH2 0x13C2 PUSH1 0x20 DUP4 PUSH2 0x11D9 JUMP JUMPDEST PUSH1 0x0 DUP3 MSTORE JUMP JUMPDEST SWAP2 SWAP1 DUP3 PUSH1 0x40 SWAP2 SUB SLT PUSH2 0x33E JUMPI PUSH1 0x40 MLOAD PUSH1 0x40 DUP2 ADD DUP2 DUP2 LT PUSH8 0xFFFFFFFFFFFFFFFF DUP3 GT OR PUSH2 0xF58 JUMPI PUSH1 0x40 MSTORE PUSH1 0x20 DUP1 DUP3 SWAP5 DUP1 MLOAD DUP5 MSTORE ADD MLOAD SWAP2 ADD MSTORE JUMP JUMPDEST SWAP1 PUSH1 0x40 DUP3 DUP3 SUB SLT PUSH2 0x33E JUMPI PUSH2 0x1415 SWAP2 PUSH2 0x13C8 JUMP JUMPDEST SWAP1 JUMP JUMPDEST PUSH2 0x1415 SWAP2 PUSH4 0xFFFFFFFF DUP3 MLOAD AND DUP2 MSTORE PUSH1 0x20 DUP3 ADD MLOAD PUSH1 0x20 DUP3 ADD MSTORE PUSH1 0x40 DUP3 ADD MLOAD PUSH1 0x40 DUP3 ADD MSTORE PUSH1 0x60 DUP3 ADD MLOAD PUSH1 0x60 DUP3 ADD MSTORE PUSH1 0xC0 PUSH2 0x1474 PUSH2 0x1462 PUSH1 0x80 DUP6 ADD MLOAD PUSH1 0xE0 PUSH1 0x80 DUP7 ADD MSTORE PUSH1 0xE0 DUP6 ADD SWAP1 PUSH2 0xB27 JUMP JUMPDEST PUSH1 0xA0 DUP6 ADD MLOAD DUP5 DUP3 SUB PUSH1 0xA0 DUP7 ADD MSTORE PUSH2 0xB27 JUMP JUMPDEST SWAP3 ADD MLOAD SWAP1 PUSH1 0xC0 DUP2 DUP5 SUB SWAP2 ADD MSTORE PUSH2 0xB27 JUMP JUMPDEST SWAP2 SWAP1 PUSH1 0x20 PUSH2 0x149D PUSH1 0x0 SWAP3 PUSH1 0x40 DUP7 MSTORE PUSH1 0x40 DUP7 ADD SWAP1 PUSH2 0x1418 JUMP JUMPDEST SWAP4 ADD MSTORE JUMP JUMPDEST ISZERO PUSH2 0x14A9 JUMPI JUMP JUMPDEST PUSH1 0x40 MLOAD PUSH3 0x461BCD PUSH1 0xE5 SHL DUP2 MSTORE PUSH1 0x20 PUSH1 0x4 DUP3 ADD MSTORE PUSH1 0x12 PUSH1 0x24 DUP3 ADD MSTORE PUSH18 0x696E73756666696369656E742066756E6473 PUSH1 0x70 SHL PUSH1 0x44 DUP3 ADD MSTORE PUSH1 0x64 SWAP1 REVERT JUMPDEST SWAP2 SWAP1 DUP3 DUP2 SUB PUSH1 0xC0 DUP2 SLT PUSH2 0x33E JUMPI PUSH1 0x80 SGT PUSH2 0x33E JUMPI PUSH1 0x40 MLOAD SWAP1 PUSH1 0x60 DUP3 ADD DUP3 DUP2 LT PUSH8 0xFFFFFFFFFFFFFFFF DUP3 GT OR PUSH2 0xF58 JUMPI PUSH1 0x40 MSTORE DUP4 MLOAD DUP3 MSTORE PUSH1 0x20 DUP5 ADD MLOAD PUSH8 0xFFFFFFFFFFFFFFFF DUP2 AND DUP2 SUB PUSH2 0x33E JUMPI DUP3 PUSH1 0x80 SWAP2 PUSH1 0x20 PUSH2 0x1415 SWAP6 ADD MSTORE PUSH2 0x1548 DUP4 PUSH1 0x40 DUP9 ADD PUSH2 0x13C8 JUMP JUMPDEST PUSH1 0x40 DUP3 ADD MSTORE SWAP5 ADD PUSH2 0x13C8 JUMP JUMPDEST SWAP2 SWAP4 SWAP3 PUSH1 0x20 PUSH2 0x156D PUSH1 0x60 SWAP4 PUSH1 0x80 DUP7 MSTORE PUSH1 0x80 DUP7 ADD SWAP1 PUSH2 0x1418 JUMP JUMPDEST DUP7 MLOAD DUP6 DUP4 ADD MSTORE SWAP6 ADD MLOAD PUSH1 0x40 DUP5 ADD MSTORE PUSH1 0x1 PUSH1 0x1 PUSH1 0xA0 SHL SUB AND SWAP2 ADD MSTORE JUMP JUMPDEST SWAP1 PUSH1 0x1 DUP3 ADD DUP1 SWAP3 GT PUSH2 0x1113 JUMPI JUMP JUMPDEST SWAP2 SWAP1 DUP3 ADD DUP1 SWAP3 GT PUSH2 0x1113 JUMPI JUMP JUMPDEST PUSH1 0x1 DUP1 PUSH1 0xA0 SHL SUB AND PUSH1 0x0 MSTORE PUSH1 0x8 PUSH1 0x20 MSTORE PUSH2 0x1415 PUSH1 0x2 PUSH2 0x2E1 PUSH1 0x40 PUSH1 0x0 KECCAK256 SLOAD PUSH2 0x1028 JUMP JUMPDEST PUSH1 0x40 MLOAD SWAP1 PUSH2 0x15D4 DUP3 PUSH2 0x11BD JUMP JUMPDEST PUSH1 0x0 PUSH1 0xA0 DUP4 DUP3 DUP2 MSTORE DUP3 PUSH1 0x20 DUP3 ADD MSTORE DUP3 PUSH1 0x40 DUP3 ADD MSTORE DUP3 PUSH1 0x60 DUP3 ADD MSTORE DUP3 PUSH1 0x80 DUP3 ADD MSTORE ADD MSTORE JUMP JUMPDEST SWAP1 PUSH1 0x40 MLOAD PUSH2 0x1605 DUP2 PUSH2 0x11BD JUMP JUMPDEST DUP3 SLOAD DUP2 MSTORE PUSH1 0x1 DUP4 ADD SLOAD PUSH1 0x1 PUSH1 0x1 PUSH1 0xA0 SHL SUB AND PUSH1 0x20 DUP3 ADD MSTORE PUSH1 0x2 DUP4 ADD SLOAD PUSH1 0x40 DUP3 ADD MSTORE PUSH1 0x3 DUP4 ADD SLOAD PUSH1 0x60 DUP3 ADD MSTORE PUSH1 0x4 DUP4 ADD SLOAD PUSH1 0x80 DUP3 ADD MSTORE PUSH1 0x5 SWAP1 SWAP3 ADD SLOAD PUSH1 0xA0 DUP4 ADD MSTORE JUMP JUMPDEST PUSH1 0x7 SLOAD PUSH9 0x10000000000000000 DUP2 LT ISZERO PUSH2 0xF58 JUMPI DUP1 PUSH1 0x1 PUSH2 0x166D SWAP3 ADD PUSH1 0x7 SSTORE PUSH1 0x7 PUSH2 0x104C JUMP JUMPDEST SWAP2 SWAP1 SWAP2 PUSH2 0x16C7 JUMPI PUSH1 0xA0 DUP2 PUSH1 0x5 SWAP3 MLOAD DUP5 SSTORE PUSH1 0x1 DUP5 ADD PUSH1 0x1 DUP1 DUP5 SHL SUB PUSH1 0x20 DUP4 ADD MLOAD AND PUSH12 0xFFFFFFFFFFFFFFFFFFFFFFFF DUP5 SHL DUP3 SLOAD AND OR SWAP1 SSTORE PUSH1 0x40 DUP2 ADD MLOAD PUSH1 0x2 DUP6 ADD SSTORE PUSH1 0x60 DUP2 ADD MLOAD PUSH1 0x3 DUP6 ADD SSTORE PUSH1 0x80 DUP2 ADD MLOAD PUSH1 0x4 DUP6 ADD SSTORE ADD MLOAD SWAP2 ADD SSTORE JUMP JUMPDEST PUSH4 0x4E487B71 PUSH1 0xE0 SHL PUSH1 0x0 MSTORE PUSH1 0x0 PUSH1 0x4 MSTORE PUSH1 0x24 PUSH1 0x0 REVERT JUMPDEST PUSH1 0x7 SLOAD PUSH1 0x0 JUMPDEST DUP2 DUP2 LT PUSH2 0x16EE JUMPI POP POP JUMP JUMPDEST DUP1 PUSH2 0x1710 PUSH2 0x861 PUSH1 0x1 PUSH2 0x1701 DUP2 SWAP6 PUSH2 0x1028 JUMP JUMPDEST POP ADD SLOAD PUSH1 0x1 PUSH1 0x1 PUSH1 0xA0 SHL SUB AND SWAP1 JUMP JUMPDEST PUSH1 0x3 PUSH2 0x171B DUP4 PUSH2 0x1028 JUMP JUMPDEST POP ADD SSTORE PUSH2 0x172E PUSH2 0x987 DUP4 PUSH2 0x1701 DUP5 PUSH2 0x1028 JUMP JUMPDEST PUSH1 0x5 PUSH2 0x1739 DUP4 PUSH2 0x1028 JUMP JUMPDEST POP ADD SSTORE PUSH2 0x1751 PUSH2 0x174C DUP4 PUSH2 0x1701 DUP5 PUSH2 0x1028 JUMP JUMPDEST PUSH2 0x1D93 JUMP JUMPDEST POP PUSH2 0x175B DUP2 PUSH2 0x1028 JUMP JUMPDEST POP POP PUSH2 0x1765 PUSH2 0x125F JUMP JUMPDEST PUSH32 0x5C0DDC9BA6A3EE218F8B0B2E6583514FB1A2403FC52DD2ADB715D5CB41AB1A20 PUSH2 0x1793 DUP4 PUSH2 0x1701 DUP5 PUSH2 0x1028 JUMP JUMPDEST PUSH1 0x2 PUSH2 0x179E DUP5 PUSH2 0x1028 JUMP JUMPDEST POP ADD SLOAD SWAP1 PUSH2 0x180B PUSH1 0x3 PUSH2 0x17B0 DUP7 PUSH2 0x1028 JUMP JUMPDEST POP ADD SLOAD PUSH1 0x4 PUSH2 0x17BE DUP8 PUSH2 0x1028 JUMP JUMPDEST POP ADD SLOAD PUSH1 0x5 PUSH2 0x17CC DUP9 PUSH2 0x1028 JUMP JUMPDEST POP ADD SLOAD PUSH1 0x40 DUP1 MLOAD DUP10 DUP2 MSTORE PUSH1 0x1 PUSH1 0x1 PUSH1 0xA0 SHL SUB SWAP1 SWAP7 AND PUSH1 0x20 DUP8 ADD MSTORE DUP6 ADD SWAP6 SWAP1 SWAP6 MSTORE PUSH1 0x60 DUP5 ADD SWAP2 SWAP1 SWAP2 MSTORE PUSH1 0x80 DUP4 ADD MSTORE PUSH1 0xA0 DUP3 ADD SWAP3 SWAP1 SWAP3 MSTORE SWAP1 DUP2 SWAP1 PUSH1 0xC0 DUP3 ADD SWAP1 JUMP JUMPDEST SUB SWAP1 LOG1 ADD PUSH2 0x16E3 JUMP JUMPDEST PUSH1 0x1 PUSH1 0x1 PUSH1 0xA0 SHL SUB AND PUSH1 0x0 DUP2 DUP2 MSTORE PUSH1 0x8 PUSH1 0x20 MSTORE PUSH1 0x40 SWAP1 KECCAK256 SLOAD PUSH1 0x3 SWAP1 PUSH2 0x1838 SWAP1 PUSH2 0x1028 JUMP JUMPDEST POP ADD SLOAD SWAP1 PUSH1 0x0 MSTORE PUSH1 0x8 PUSH1 0x20 MSTORE PUSH1 0x4 PUSH2 0x1854 PUSH1 0x40 PUSH1 0x0 KECCAK256 SLOAD PUSH2 0x1028 JUMP JUMPDEST POP ADD SLOAD DUP1 PUSH2 0x1866 JUMPI POP PUSH2 0x1415 SWAP1 PUSH2 0x1327 JUMP JUMPDEST PUSH2 0x186F SWAP2 PUSH2 0x1384 JUMP JUMPDEST PUSH1 0x64 DUP2 MUL SWAP1 DUP1 DUP3 DIV PUSH1 0x64 EQ SWAP1 ISZERO OR ISZERO PUSH2 0x1113 JUMPI SWAP1 JUMP JUMPDEST ISZERO PUSH2 0x188C JUMPI JUMP JUMPDEST PUSH1 0x40 MLOAD PUSH3 0x461BCD PUSH1 0xE5 SHL DUP2 MSTORE PUSH1 0x20 PUSH1 0x4 DUP3 ADD MSTORE PUSH1 0x10 PUSH1 0x24 DUP3 ADD MSTORE PUSH16 0x796F752061726520696E206465627421 PUSH1 0x80 SHL PUSH1 0x44 DUP3 ADD MSTORE PUSH1 0x64 SWAP1 REVERT JUMPDEST ISZERO PUSH2 0x18CB JUMPI JUMP JUMPDEST PUSH1 0x40 MLOAD PUSH3 0x461BCD PUSH1 0xE5 SHL DUP2 MSTORE PUSH1 0x20 PUSH1 0x4 DUP3 ADD MSTORE PUSH1 0xF PUSH1 0x24 DUP3 ADD MSTORE PUSH15 0x1E5BDD48185C99481A5B881919589D PUSH1 0x8A SHL PUSH1 0x44 DUP3 ADD MSTORE PUSH1 0x64 SWAP1 REVERT JUMPDEST PUSH1 0x1 PUSH1 0x1 PUSH1 0xA0 SHL SUB DUP2 AND PUSH1 0x0 SWAP1 DUP2 MSTORE PUSH1 0x8 PUSH1 0x20 MSTORE PUSH1 0x40 SWAP1 KECCAK256 PUSH1 0x3 SWAP1 PUSH2 0x1926 SWAP1 PUSH2 0x200 JUMP JUMPDEST POP ADD SLOAD SWAP1 PUSH2 0x19F2 PUSH1 0x5 PUSH2 0x19C8 PUSH2 0x200 PUSH1 0x4 PUSH2 0x1956 PUSH2 0x200 DUP8 PUSH1 0x1 DUP1 PUSH1 0xA0 SHL SUB AND PUSH1 0x0 MSTORE PUSH1 0x8 PUSH1 0x20 MSTORE PUSH1 0x40 PUSH1 0x0 KECCAK256 SWAP1 JUMP JUMPDEST POP ADD SLOAD SWAP5 PUSH2 0x19AE PUSH1 0x4 PUSH2 0x197E PUSH2 0x200 DUP5 PUSH1 0x1 DUP1 PUSH1 0xA0 SHL SUB AND PUSH1 0x0 MSTORE PUSH1 0x8 PUSH1 0x20 MSTORE PUSH1 0x40 PUSH1 0x0 KECCAK256 SWAP1 JUMP JUMPDEST POP ADD SLOAD PUSH1 0x1 PUSH1 0x1 PUSH1 0xA0 SHL SUB DUP4 AND PUSH1 0x0 SWAP1 DUP2 MSTORE PUSH1 0x8 PUSH1 0x20 MSTORE PUSH1 0x40 SWAP1 KECCAK256 PUSH1 0x3 SWAP1 PUSH2 0x19A5 SWAP1 PUSH2 0x200 JUMP JUMPDEST POP ADD SLOAD GT PUSH2 0x1885 JUMP JUMPDEST PUSH1 0x1 PUSH1 0x1 PUSH1 0xA0 SHL SUB AND PUSH1 0x0 SWAP1 DUP2 MSTORE PUSH1 0x8 PUSH1 0x20 MSTORE PUSH1 0x40 SWAP1 KECCAK256 SWAP1 JUMP JUMPDEST POP ADD SLOAD PUSH32 0x0 LT PUSH2 0x18C4 JUMP JUMPDEST DUP1 PUSH2 0x1A01 JUMPI POP PUSH2 0x1415 SWAP1 PUSH2 0x1CD7 JUMP JUMPDEST PUSH2 0x1415 SWAP2 PUSH2 0x1A1A PUSH2 0x1A14 PUSH2 0x1A20 SWAP4 PUSH2 0x133D JUMP JUMPDEST PUSH1 0x1 SHR SWAP1 JUMP JUMPDEST SWAP1 PUSH2 0x1106 JUMP JUMPDEST PUSH2 0x1CD7 JUMP JUMPDEST SWAP1 DUP2 PUSH1 0x20 SWAP2 SUB SLT PUSH2 0x33E JUMPI MLOAD SWAP1 JUMP JUMPDEST PUSH1 0x6 SLOAD PUSH2 0x1A49 SWAP1 PUSH1 0x1 PUSH1 0x1 PUSH1 0xA0 SHL SUB AND PUSH2 0x3FC JUMP JUMPDEST PUSH1 0x40 MLOAD PUSH4 0x9BD713CF PUSH1 0xE0 SHL DUP2 MSTORE SWAP1 SWAP2 PUSH1 0x20 DUP3 PUSH1 0x4 DUP2 DUP7 GAS STATICCALL SWAP2 DUP3 ISZERO PUSH2 0x330 JUMPI PUSH1 0x0 SWAP3 PUSH2 0x1AEE JUMPI JUMPDEST POP PUSH1 0x20 PUSH1 0x4 SWAP3 SWAP4 PUSH1 0x40 MLOAD SWAP4 DUP5 DUP1 SWAP3 PUSH4 0x693CF005 PUSH1 0xE1 SHL DUP3 MSTORE GAS STATICCALL DUP1 ISZERO PUSH2 0x330 JUMPI PUSH2 0x1415 SWAP4 PUSH2 0x1AB0 SWAP4 PUSH1 0x0 SWAP3 PUSH2 0x1ABB JUMPI JUMPDEST POP PUSH2 0x1AAB SWAP2 SWAP3 PUSH2 0x1371 JUMP JUMPDEST PUSH2 0x1384 JUMP JUMPDEST PUSH5 0x2540BE400 SWAP1 DIV SWAP1 JUMP JUMPDEST PUSH2 0x1AAB SWAP3 POP PUSH2 0x1AE1 SWAP1 PUSH1 0x20 RETURNDATASIZE PUSH1 0x20 GT PUSH2 0x1AE7 JUMPI JUMPDEST PUSH2 0x1AD9 DUP2 DUP4 PUSH2 0x11D9 JUMP JUMPDEST DUP2 ADD SWAP1 PUSH2 0x1A25 JUMP JUMPDEST SWAP2 PUSH2 0x1AA0 JUMP JUMPDEST POP RETURNDATASIZE PUSH2 0x1ACF JUMP JUMPDEST PUSH1 0x4 SWAP3 POP PUSH2 0x1B0A PUSH1 0x20 SWAP2 DUP3 RETURNDATASIZE DUP5 GT PUSH2 0x1AE7 JUMPI PUSH2 0x1AD9 DUP2 DUP4 PUSH2 0x11D9 JUMP JUMPDEST SWAP3 POP PUSH2 0x1A70 JUMP JUMPDEST PUSH1 0x1 DUP1 PUSH1 0xA0 SHL SUB DUP2 AND DUP1 PUSH1 0x0 MSTORE PUSH1 0x8 PUSH1 0x20 MSTORE PUSH1 0x96 PUSH1 0x5 PUSH2 0x1B35 PUSH1 0x40 PUSH1 0x0 KECCAK256 SLOAD PUSH2 0x1028 JUMP JUMPDEST POP ADD SLOAD LT PUSH2 0x1B9F JUMPI PUSH1 0x0 MSTORE PUSH1 0x8 PUSH1 0x20 MSTORE PUSH1 0x4 PUSH2 0x1B7C PUSH2 0x200 PUSH2 0x1B60 PUSH1 0x2 PUSH2 0x2E1 PUSH1 0x40 PUSH1 0x0 KECCAK256 SLOAD PUSH2 0x1028 JUMP JUMPDEST PUSH1 0x1 PUSH1 0x1 PUSH1 0xA0 SHL SUB SWAP1 SWAP5 AND PUSH1 0x0 SWAP1 DUP2 MSTORE PUSH1 0x8 PUSH1 0x20 MSTORE PUSH1 0x40 SWAP1 KECCAK256 SWAP1 JUMP JUMPDEST POP ADD SLOAD DUP2 PUSH1 0x1 SHL SWAP2 DUP1 DUP4 DIV PUSH1 0x2 EQ SWAP1 ISZERO OR ISZERO PUSH2 0x1113 JUMPI PUSH2 0x1415 SWAP2 PUSH1 0x3 SWAP1 DIV PUSH2 0x1106 JUMP JUMPDEST POP POP PUSH1 0x0 SWAP1 JUMP JUMPDEST PUSH1 0x40 MLOAD PUSH1 0x3 PUSH1 0xF0 SHL PUSH1 0x20 DUP3 ADD MSTORE PUSH1 0x2 DUP2 MSTORE PUSH2 0x1415 PUSH1 0x22 DUP3 PUSH2 0x11D9 JUMP JUMPDEST PUSH1 0x3 PUSH2 0xFFFF PUSH2 0x1BD0 DUP4 PUSH2 0x1DCD JUMP JUMPDEST AND SUB PUSH2 0x1CCB JUMPI PUSH1 0x40 MLOAD SWAP1 PUSH1 0x20 DUP3 ADD PUSH2 0x1FBD PUSH1 0x83 SHL DUP2 MSTORE PUSH1 0x10 DUP4 MSTORE PUSH2 0x1BF5 PUSH1 0x30 DUP5 PUSH2 0x11D9 JUMP JUMPDEST PUSH1 0x3 PUSH2 0xFFFF PUSH2 0x1C03 DUP5 PUSH2 0x1DCD JUMP JUMPDEST AND SUB PUSH2 0x1CAA JUMPI DUP3 MLOAD PUSH2 0xFFFF DUP2 GT PUSH2 0x1C91 JUMPI PUSH2 0xFFFF PUSH1 0x1 SWAP2 AND ADD SWAP2 PUSH2 0xFFFF DUP4 GT PUSH2 0x1113 JUMPI PUSH1 0x20 PUSH1 0x4 SWAP3 PUSH2 0x1415 SWAP5 PUSH2 0x1C80 PUSH1 0x40 MLOAD SWAP8 DUP6 PUSH2 0x1C4A DUP11 SWAP8 MLOAD DUP1 SWAP3 DUP9 DUP1 DUP12 ADD SWAP2 ADD PUSH2 0xB04 JUMP JUMPDEST PUSH1 0x1 PUSH1 0xF8 SHL SWAP1 DUP8 ADD DUP7 DUP2 ADD DUP3 SWAP1 MSTORE PUSH1 0xF0 SWAP5 SWAP1 SWAP5 SHL PUSH1 0x1 PUSH1 0x1 PUSH1 0xF0 SHL SUB NOT AND PUSH1 0x21 DUP6 ADD MSTORE PUSH1 0x23 DUP5 ADD MSTORE MLOAD SWAP3 DUP4 SWAP1 PUSH1 0x24 DUP5 ADD SWAP1 PUSH2 0xB04 JUMP JUMPDEST ADD ADD SUB ADD PUSH1 0x1F NOT DUP2 ADD DUP4 MSTORE DUP3 PUSH2 0x11D9 JUMP JUMPDEST PUSH4 0x6DFCC65 PUSH1 0xE4 SHL PUSH1 0x0 MSTORE PUSH1 0x10 PUSH1 0x4 MSTORE PUSH1 0x24 MSTORE PUSH1 0x44 PUSH1 0x0 REVERT JUMPDEST PUSH2 0xFFFF PUSH2 0x1CB6 DUP4 PUSH2 0x1DCD JUMP JUMPDEST PUSH4 0x3A51740D PUSH1 0xE0 SHL PUSH1 0x0 MSTORE AND PUSH1 0x4 MSTORE PUSH1 0x24 PUSH1 0x0 REVERT JUMPDEST PUSH2 0x1CB6 PUSH2 0xFFFF SWAP2 PUSH2 0x1DCD JUMP JUMPDEST PUSH1 0x6 SLOAD PUSH2 0x1CEC SWAP1 PUSH1 0x1 PUSH1 0x1 PUSH1 0xA0 SHL SUB AND PUSH2 0x3FC JUMP JUMPDEST PUSH1 0x40 MLOAD PUSH4 0x9BD713CF PUSH1 0xE0 SHL DUP2 MSTORE SWAP1 PUSH1 0x20 DUP3 PUSH1 0x4 DUP2 DUP5 GAS STATICCALL SWAP1 DUP2 ISZERO PUSH2 0x330 JUMPI PUSH1 0x4 SWAP3 PUSH1 0x0 SWAP3 PUSH2 0x1D71 JUMPI JUMPDEST POP PUSH1 0x20 SWAP1 PUSH1 0x40 MLOAD SWAP4 DUP5 DUP1 SWAP3 PUSH4 0x693CF005 PUSH1 0xE1 SHL DUP3 MSTORE GAS STATICCALL SWAP2 DUP3 ISZERO PUSH2 0x330 JUMPI PUSH2 0x1415 SWAP4 PUSH2 0x1D4D SWAP4 PUSH2 0x1AAB SWAP3 PUSH1 0x0 SWAP2 PUSH2 0x1D52 JUMPI JUMPDEST POP PUSH2 0x1371 JUMP JUMPDEST PUSH2 0x1353 JUMP JUMPDEST PUSH2 0x1D6B SWAP2 POP PUSH1 0x20 RETURNDATASIZE PUSH1 0x20 GT PUSH2 0x1AE7 JUMPI PUSH2 0x1AD9 DUP2 DUP4 PUSH2 0x11D9 JUMP JUMPDEST CODESIZE PUSH2 0x1D47 JUMP JUMPDEST PUSH1 0x20 SWAP2 SWAP3 POP PUSH2 0x1D8C SWAP1 DUP3 RETURNDATASIZE DUP5 GT PUSH2 0x1AE7 JUMPI PUSH2 0x1AD9 DUP2 DUP4 PUSH2 0x11D9 JUMP JUMPDEST SWAP2 SWAP1 PUSH2 0x1D15 JUMP JUMPDEST PUSH2 0x1D9C SWAP1 PUSH2 0x1814 JUMP JUMPDEST PUSH32 0x0 LT ISZERO PUSH2 0x1DC8 JUMPI PUSH1 0x0 SWAP1 JUMP JUMPDEST PUSH1 0x1 SWAP1 JUMP JUMPDEST PUSH1 0x2 DUP2 MLOAD LT PUSH2 0x1DDD JUMPI PUSH1 0x2 ADD MLOAD SWAP1 JUMP JUMPDEST PUSH1 0x40 MLOAD PUSH3 0x461BCD PUSH1 0xE5 SHL DUP2 MSTORE PUSH1 0x20 PUSH1 0x4 DUP3 ADD MSTORE PUSH1 0x14 PUSH1 0x24 DUP3 ADD MSTORE PUSH20 0x746F55696E7431365F6F75744F66426F756E6473 PUSH1 0x60 SHL PUSH1 0x44 DUP3 ADD MSTORE PUSH1 0x64 SWAP1 REVERT INVALID LOG1 PUSH5 0x736F6C6343 STOP ADDMOD BYTE STOP EXP ","linkReferences":{}},"methodIdentifiers":{"BASE_RISK_RATE()":"839159fb","CRP()":"ea6cfd4a","MODERATOR_ROLE()":"797669c9","RISK_PREMIUM_RATE()":"310e84b5","burnRupioAndRelieveCollateral(uint256)":"188afb74","checkUpkeep(bytes)":"6e04ff0d","createOrUpdateVault()":"bb828132","getAmountINRToETH(uint256)":"6653b817","getBASE_RISK_RATE()":"fb5989a6","getCRP()":"eaa45b42","getCurrentVaultId()":"ae0b163f","getMaxMintableRupio(address)":"b2088164","getMaxWithdrawableCollateral(address)":"9210ae64","getRISK_PREMIUM_RATE()":"7649aef1","getTotalCollateralPrice()":"9dc1b45b","getTotalVaultDetails()":"c48589cb","getUserBalanceInINR(address)":"314860f8","getUserCollateralBalance(address)":"ab845413","getVaultDetailsForTheUser()":"3f3d2a88","getVaultHealth(address)":"4a83cf49","liquidateVault(address)":"194d7494","mintRupioOnDifferentChain(uint256,uint32)":"2a8ffe80","mintRupioOnHomeChain(uint256)":"515d22ce","performUpkeep(bytes)":"4585e33b","scanVaults()":"d7bf2aef","userIndexes(address)":"b603540f","withdrawFromVault(uint256)":"076d0815"}}}}}