{"abi":[{"type":"constructor","inputs":[],"stateMutability":"nonpayable"},{"type":"function","name":"DEFAULT_ADMIN_ROLE","inputs":[],"outputs":[{"name":"","type":"bytes32","internalType":"bytes32"}],"stateMutability":"view"},{"type":"function","name":"MINTER_ROLE","inputs":[],"outputs":[{"name":"","type":"bytes32","internalType":"bytes32"}],"stateMutability":"view"},{"type":"function","name":"MODERATOR_ROLE","inputs":[],"outputs":[{"name":"","type":"bytes32","internalType":"bytes32"}],"stateMutability":"view"},{"type":"function","name":"OWNER","inputs":[],"outputs":[{"name":"","type":"bytes32","internalType":"bytes32"}],"stateMutability":"view"},{"type":"function","name":"getRoleAdmin","inputs":[{"name":"role","type":"bytes32","internalType":"bytes32"}],"outputs":[{"name":"","type":"bytes32","internalType":"bytes32"}],"stateMutability":"view"},{"type":"function","name":"grantRole","inputs":[{"name":"role","type":"bytes32","internalType":"bytes32"},{"name":"account","type":"address","internalType":"address"}],"outputs":[],"stateMutability":"nonpayable"},{"type":"function","name":"hasRole","inputs":[{"name":"role","type":"bytes32","internalType":"bytes32"},{"name":"account","type":"address","internalType":"address"}],"outputs":[{"name":"","type":"bool","internalType":"bool"}],"stateMutability":"view"},{"type":"function","name":"renounceRole","inputs":[{"name":"role","type":"bytes32","internalType":"bytes32"},{"name":"callerConfirmation","type":"address","internalType":"address"}],"outputs":[],"stateMutability":"nonpayable"},{"type":"function","name":"revokeRole","inputs":[{"name":"role","type":"bytes32","internalType":"bytes32"},{"name":"account","type":"address","internalType":"address"}],"outputs":[],"stateMutability":"nonpayable"},{"type":"function","name":"supportsInterface","inputs":[{"name":"interfaceId","type":"bytes4","internalType":"bytes4"}],"outputs":[{"name":"","type":"bool","internalType":"bool"}],"stateMutability":"view"},{"type":"event","name":"RoleAdminChanged","inputs":[{"name":"role","type":"bytes32","indexed":true,"internalType":"bytes32"},{"name":"previousAdminRole","type":"bytes32","indexed":true,"internalType":"bytes32"},{"name":"newAdminRole","type":"bytes32","indexed":true,"internalType":"bytes32"}],"anonymous":false},{"type":"event","name":"RoleGranted","inputs":[{"name":"role","type":"bytes32","indexed":true,"internalType":"bytes32"},{"name":"account","type":"address","indexed":true,"internalType":"address"},{"name":"sender","type":"address","indexed":true,"internalType":"address"}],"anonymous":false},{"type":"event","name":"RoleRevoked","inputs":[{"name":"role","type":"bytes32","indexed":true,"internalType":"bytes32"},{"name":"account","type":"address","indexed":true,"internalType":"address"},{"name":"sender","type":"address","indexed":true,"internalType":"address"}],"anonymous":false},{"type":"error","name":"AccessControlBadConfirmation","inputs":[]},{"type":"error","name":"AccessControlUnauthorizedAccount","inputs":[{"name":"account","type":"address","internalType":"address"},{"name":"neededRole","type":"bytes32","internalType":"bytes32"}]}],"bytecode":{"object":"0x608060405234801561001057600080fd5b506100617f71f3d55856e4058ed06ee057d79ada615f65cdf5f9ee88181b914225088f834f7f6270edb7c868f86fda4adedba75108201087268ea345934db8bad688e1feb91b61014960201b60201c565b6100b17f9f2df0fed2c77648de5860a4cc508cd0818c85b8b8a1ab4ceeef8d981c8956a67f71f3d55856e4058ed06ee057d79ada615f65cdf5f9ee88181b914225088f834f61014960201b60201c565b6100e17f6270edb7c868f86fda4adedba75108201087268ea345934db8bad688e1feb91b336101aa60201b60201c565b506101127f71f3d55856e4058ed06ee057d79ada615f65cdf5f9ee88181b914225088f834f336101aa60201b60201c565b506101437f9f2df0fed2c77648de5860a4cc508cd0818c85b8b8a1ab4ceeef8d981c8956a6336101aa60201b60201c565b50610338565b600061015a836102a760201b60201c565b905081600080858152602001908152602001600020600101819055508181847fbd79b86ffe0ab8e8776151514217cd7cacd52c909f66475c3af44e129f0b00ff60405160405180910390a4505050565b60006101bc83836102c660201b60201c565b61029c57600160008085815260200190815260200160002060000160008473ffffffffffffffffffffffffffffffffffffffff1673ffffffffffffffffffffffffffffffffffffffff16815260200190815260200160002060006101000a81548160ff02191690831515021790555061023961033060201b60201c565b73ffffffffffffffffffffffffffffffffffffffff168273ffffffffffffffffffffffffffffffffffffffff16847f2f8788117e7eff1d82e926ec794901d17c78024a50270940304540a733656f0d60405160405180910390a4600190506102a1565b600090505b92915050565b6000806000838152602001908152602001600020600101549050919050565b600080600084815260200190815260200160002060000160008373ffffffffffffffffffffffffffffffffffffffff1673ffffffffffffffffffffffffffffffffffffffff16815260200190815260200160002060009054906101000a900460ff16905092915050565b600033905090565b610947806103476000396000f3fe608060405234801561001057600080fd5b506004361061009e5760003560e01c8063797669c911610066578063797669c91461015957806391d1485414610177578063a217fddf146101a7578063d5391393146101c5578063d547741f146101e35761009e565b806301ffc9a7146100a3578063117803e3146100d3578063248a9ca3146100f15780632f2ff15d1461012157806336568abe1461013d575b600080fd5b6100bd60048036038101906100b8919061074b565b6101ff565b6040516100ca9190610793565b60405180910390f35b6100db610279565b6040516100e891906107c7565b60405180910390f35b61010b6004803603810190610106919061080e565b61029d565b60405161011891906107c7565b60405180910390f35b61013b60048036038101906101369190610899565b6102bc565b005b61015760048036038101906101529190610899565b6102de565b005b610161610359565b60405161016e91906107c7565b60405180910390f35b610191600480360381019061018c9190610899565b61037d565b60405161019e9190610793565b60405180910390f35b6101af6103e7565b6040516101bc91906107c7565b60405180910390f35b6101cd6103ee565b6040516101da91906107c7565b60405180910390f35b6101fd60048036038101906101f89190610899565b610412565b005b60007f7965db0b000000000000000000000000000000000000000000000000000000007bffffffffffffffffffffffffffffffffffffffffffffffffffffffff1916827bffffffffffffffffffffffffffffffffffffffffffffffffffffffff19161480610272575061027182610434565b5b9050919050565b7f6270edb7c868f86fda4adedba75108201087268ea345934db8bad688e1feb91b81565b6000806000838152602001908152602001600020600101549050919050565b6102c58261029d565b6102ce8161049e565b6102d883836104b2565b50505050565b6102e66105a3565b73ffffffffffffffffffffffffffffffffffffffff168173ffffffffffffffffffffffffffffffffffffffff161461034a576040517f6697b23200000000000000000000000000000000000000000000000000000000815260040160405180910390fd5b61035482826105ab565b505050565b7f71f3d55856e4058ed06ee057d79ada615f65cdf5f9ee88181b914225088f834f81565b600080600084815260200190815260200160002060000160008373ffffffffffffffffffffffffffffffffffffffff1673ffffffffffffffffffffffffffffffffffffffff16815260200190815260200160002060009054906101000a900460ff16905092915050565b6000801b81565b7f9f2df0fed2c77648de5860a4cc508cd0818c85b8b8a1ab4ceeef8d981c8956a681565b61041b8261029d565b6104248161049e565b61042e83836105ab565b50505050565b60007f01ffc9a7000000000000000000000000000000000000000000000000000000007bffffffffffffffffffffffffffffffffffffffffffffffffffffffff1916827bffffffffffffffffffffffffffffffffffffffffffffffffffffffff1916149050919050565b6104af816104aa6105a3565b61069d565b50565b60006104be838361037d565b61059857600160008085815260200190815260200160002060000160008473ffffffffffffffffffffffffffffffffffffffff1673ffffffffffffffffffffffffffffffffffffffff16815260200190815260200160002060006101000a81548160ff0219169083151502179055506105356105a3565b73ffffffffffffffffffffffffffffffffffffffff168273ffffffffffffffffffffffffffffffffffffffff16847f2f8788117e7eff1d82e926ec794901d17c78024a50270940304540a733656f0d60405160405180910390a46001905061059d565b600090505b92915050565b600033905090565b60006105b7838361037d565b1561069257600080600085815260200190815260200160002060000160008473ffffffffffffffffffffffffffffffffffffffff1673ffffffffffffffffffffffffffffffffffffffff16815260200190815260200160002060006101000a81548160ff02191690831515021790555061062f6105a3565b73ffffffffffffffffffffffffffffffffffffffff168273ffffffffffffffffffffffffffffffffffffffff16847ff6391f5c32d9c69d2a47ea670b442974b53935d1edc7fd64eb21e047a839171b60405160405180910390a460019050610697565b600090505b92915050565b6106a7828261037d565b6106ea5780826040517fe2517d3f0000000000000000000000000000000000000000000000000000000081526004016106e19291906108e8565b60405180910390fd5b5050565b600080fd5b60007fffffffff0000000000000000000000000000000000000000000000000000000082169050919050565b610728816106f3565b811461073357600080fd5b50565b6000813590506107458161071f565b92915050565b600060208284031215610761576107606106ee565b5b600061076f84828501610736565b91505092915050565b60008115159050919050565b61078d81610778565b82525050565b60006020820190506107a86000830184610784565b92915050565b6000819050919050565b6107c1816107ae565b82525050565b60006020820190506107dc60008301846107b8565b92915050565b6107eb816107ae565b81146107f657600080fd5b50565b600081359050610808816107e2565b92915050565b600060208284031215610824576108236106ee565b5b6000610832848285016107f9565b91505092915050565b600073ffffffffffffffffffffffffffffffffffffffff82169050919050565b60006108668261083b565b9050919050565b6108768161085b565b811461088157600080fd5b50565b6000813590506108938161086d565b92915050565b600080604083850312156108b0576108af6106ee565b5b60006108be858286016107f9565b92505060206108cf85828601610884565b9150509250929050565b6108e28161085b565b82525050565b60006040820190506108fd60008301856108d9565b61090a60208301846107b8565b939250505056fea2646970667358221220b92638a4f408639d5c75c5175d2cc720a5da3d0e176c475a88b399537acf330a64736f6c634300081a0033","linkReferences":{}},"methodIdentifiers":{"DEFAULT_ADMIN_ROLE()":"a217fddf","MINTER_ROLE()":"d5391393","MODERATOR_ROLE()":"797669c9","OWNER()":"117803e3","getRoleAdmin(bytes32)":"248a9ca3","grantRole(bytes32,address)":"2f2ff15d","hasRole(bytes32,address)":"91d14854","renounceRole(bytes32,address)":"36568abe","revokeRole(bytes32,address)":"d547741f","supportsInterface(bytes4)":"01ffc9a7"},"id":41}