{"abi":[{"type":"constructor","inputs":[{"name":"_savingsRate","type":"uint256","internalType":"uint256"},{"name":"_indaiToken","type":"address","internalType":"address"},{"name":"_accessManager","type":"address","internalType":"address"}],"stateMutability":"nonpayable"},{"type":"function","name":"accessManager","inputs":[],"outputs":[{"name":"","type":"address","internalType":"contract AccessManager"}],"stateMutability":"view"},{"type":"function","name":"admin","inputs":[],"outputs":[{"name":"","type":"address","internalType":"address"}],"stateMutability":"view"},{"type":"function","name":"claimReward","inputs":[],"outputs":[],"stateMutability":"nonpayable"},{"type":"function","name":"indaiToken","inputs":[],"outputs":[{"name":"","type":"address","internalType":"contract Indai"}],"stateMutability":"view"},{"type":"function","name":"lockIndai","inputs":[{"name":"_amount","type":"uint256","internalType":"uint256"}],"outputs":[],"stateMutability":"nonpayable"},{"type":"function","name":"totalDeposited","inputs":[],"outputs":[{"name":"","type":"uint256","internalType":"uint256"}],"stateMutability":"view"},{"type":"function","name":"totalInvestersCount","inputs":[],"outputs":[{"name":"","type":"uint256","internalType":"uint256"}],"stateMutability":"view"},{"type":"function","name":"updateLockPeriod","inputs":[{"name":"value","type":"uint256","internalType":"uint256"}],"outputs":[],"stateMutability":"nonpayable"},{"type":"function","name":"updateSavingsRate","inputs":[{"name":"value","type":"uint256","internalType":"uint256"}],"outputs":[],"stateMutability":"nonpayable"},{"type":"function","name":"withdrawIndai","inputs":[{"name":"_amount","type":"uint256","internalType":"uint256"}],"outputs":[],"stateMutability":"nonpayable"}],"bytecode":{"object":"0x608034609d57601f610ac838819003918201601f19168301916001600160401b0383118484101760a257808492606094604052833981010312609d57805160516040604b6020850160b8565b930160b8565b60048054336001600160a01b031991821617909155600080546001600160a01b03958616908316179055600392909255600180549190931691161790556040516109fc90816100cc8239f35b600080fd5b634e487b7160e01b600052604160045260246000fd5b51906001600160a01b0382168203609d5756fe608080604052600436101561001357600080fd5b600090813560e01c9081630a618a42146108995750806366ad356a1461068157806391db7b0d1461065157806396a9a68f1461062a578063994dc2a1146103375780639b78f69f14610307578063b88a802f14610101578063f851a440146100d8578063fdcb6068146100af5763ff50abdc1461008f57600080fd5b346100ac57806003193601126100ac576020600554604051908152f35b80fd5b50346100ac57806003193601126100ac576001546040516001600160a01b039091168152602090f35b50346100ac57806003193601126100ac576004546040516001600160a01b039091168152602090f35b50346100ac57806003193601126100ac573381526007602052806040812060405161012b816108b9565b8154815260086001830154926020830193845260028101546040840190815260ff60038301541660608501901515815260048301546080860190815260058401549160a0870192835260068501549360c088019485528660078701549660e08a019788520154986101008901998a52338b52600760205260408b2061016d60646102386040516101ba816108b9565b845481526102336201518061022760018801548060208601526002890154604086015260ff60038a01541615156060860152600860048a015499608087019a8b52600581015460a0880152600681015460c0880152600781015460e0880152015461010086015242610931565b049151600354906109b3565b6109b3565b040490526102498451875190610931565b8088528652428a52338b52600760205260408b2098518955516001890155516002880155600387019051151560ff8019835416911617905551600486015551600585015551600684015551928360078401555191015560018060a01b03825416803b15610303576040516340c10f1960e01b8152336004820152602481019290925290919081908390604490829084905af180156102f6576102e85780f35b6102f1916108ec565b388180f35b50604051903d90823e3d90fd5b5050fd5b50346100ac5760203660031901126100ac5761032e60018060a01b0360045416331461095b565b60043560035580f35b50346100ac5760203660031901126100ac5780546040516370a0823160e01b81523360048281019190915235916001600160a01b031690602081602481855afa801561061f57839185916105e6575b50106105a157602060449160405192838092636eb1769f60e11b82523360048301523060248301525afa8015610596578291849161055d575b5010610518576040516103d1816108b9565b8181526020810142815260408201848152606083018581526080840186815260a085019087825260c086019288845260e08701948986526101008801968a885261041d8a60055461090e565b600555600654600019811461050457928b9a98959260209a98959260016008999601600655338d5260078c5260408d2099518a555160018a0155516002890155600388019051151560ff8019835416911617905551600487015551600586015551600685015551600784015551910155606460018060a01b038454169160405194859384926323b872dd60e01b845233600485015230602485015260448401525af180156104f9576104cd575080f35b6104ee9060203d6020116104f2575b6104e681836108ec565b81019061093e565b5080f35b503d6104dc565b6040513d84823e3d90fd5b634e487b7160e01b8c52601160045260248cfd5b60405162461bcd60e51b815260206004820152601860248201527f4e6f742073756666696369656e7420616c6c6f77616e636500000000000000006044820152606490fd5b9150506020813d60201161058e575b81610579602093836108ec565b8101031261058a57819051386103bf565b8280fd5b3d915061056c565b6040513d85823e3d90fd5b60405162461bcd60e51b815260206004820152601760248201527f596f7520646f6e74204861766520612062616c616e63650000000000000000006044820152606490fd5b9150506020813d602011610617575b81610602602093836108ec565b810103126106135782905138610386565b8380fd5b3d91506105f5565b6040513d86823e3d90fd5b50346100ac57806003193601126100ac57546040516001600160a01b039091168152602090f35b50346100ac5760203660031901126100ac5761067860018060a01b0360045416331461095b565b60043560025580f35b50346100ac5760203660031901126100ac57600435338252600760205260408220906040516106af816108b9565b82548152600183015491602082019283526002840154916040810192835260ff600386015416936060820194151580865260048701549660808401978852600581015460a0850190815260068201549060c08601918252600860078401549360e08801948552015493610100870194855261085d5761073285516002549061090e565b4210610801578a996020996107e69960089760408e6107528d8d51610931565b808d524285528d8852156107f8575b33815260078f522099518a555160018a0155516002890155600388019051151560ff801983541691161790555160048701555160058601555160068501555160078401555191015560018060a01b038454169060405194858094819363a9059cbb60e01b8352336004840160209093929193604081019460018060a01b031681520152565b03925af180156104f9576104cd575080f35b60018552610761565b60405162461bcd60e51b815260206004820152602e60248201527f776974686472617720796f757220746f6b656e20616674657220746865206c6f60448201526d636b20706572696f6420656e647360901b6064820152608490fd5b60405162461bcd60e51b8152602060048201526014602482015273596f75722062616c616e6365206973207a65726f60601b6044820152606490fd5b9050346108b557816003193601126108b5576020906006548152f35b5080fd5b610120810190811067ffffffffffffffff8211176108d657604052565b634e487b7160e01b600052604160045260246000fd5b90601f8019910116810190811067ffffffffffffffff8211176108d657604052565b9190820180921161091b57565b634e487b7160e01b600052601160045260246000fd5b9190820391821161091b57565b90816020910312610956575180151581036109565790565b600080fd5b1561096257565b60405162461bcd60e51b8152602060048201526024808201527f4f776e6572206f6620746869732063616e2063616c6c20746869732066756e636044820152633a34b7b760e11b6064820152608490fd5b8181029291811591840414171561091b5756fea26469706673582212208273e2e33b5662fb5b12bf34e3043266268015fabd69dbbca60686abee11979864736f6c634300081a0033","linkReferences":{}},"methodIdentifiers":{"accessManager()":"fdcb6068","admin()":"f851a440","claimReward()":"b88a802f","indaiToken()":"96a9a68f","lockIndai(uint256)":"994dc2a1","totalDeposited()":"ff50abdc","totalInvestersCount()":"0a618a42","updateLockPeriod(uint256)":"91db7b0d","updateSavingsRate(uint256)":"9b78f69f","withdrawIndai(uint256)":"66ad356a"},"id":45}