{
  "address": "0xc1D5353786CC395a7EFB3745Ca242236A791B183",
  "abi": [
    {
      "inputs": [
        {
          "internalType": "uint256",
          "name": "_CIP",
          "type": "uint256"
        },
        {
          "internalType": "uint256",
          "name": "_baseRiskRate",
          "type": "uint256"
        },
        {
          "internalType": "uint256",
          "name": "_riskPremiumRate",
          "type": "uint256"
        },
        {
          "internalType": "address",
          "name": "_indai",
          "type": "address"
        },
        {
          "internalType": "address",
          "name": "_priceContract",
          "type": "address"
        }
      ],
      "stateMutability": "nonpayable",
      "type": "constructor"
    },
    {
      "inputs": [],
      "name": "collateralSafekeep__userInDebt",
      "type": "error"
    },
    {
      "inputs": [],
      "name": "upkeepNotNeeded",
      "type": "error"
    },
    {
      "anonymous": false,
      "inputs": [
        {
          "indexed": true,
          "internalType": "bytes32",
          "name": "role",
          "type": "bytes32"
        },
        {
          "indexed": true,
          "internalType": "bytes32",
          "name": "previousAdminRole",
          "type": "bytes32"
        },
        {
          "indexed": true,
          "internalType": "bytes32",
          "name": "newAdminRole",
          "type": "bytes32"
        }
      ],
      "name": "RoleAdminChanged",
      "type": "event"
    },
    {
      "anonymous": false,
      "inputs": [
        {
          "indexed": true,
          "internalType": "bytes32",
          "name": "role",
          "type": "bytes32"
        },
        {
          "indexed": true,
          "internalType": "address",
          "name": "account",
          "type": "address"
        },
        {
          "indexed": true,
          "internalType": "address",
          "name": "sender",
          "type": "address"
        }
      ],
      "name": "RoleGranted",
      "type": "event"
    },
    {
      "anonymous": false,
      "inputs": [
        {
          "indexed": true,
          "internalType": "bytes32",
          "name": "role",
          "type": "bytes32"
        },
        {
          "indexed": true,
          "internalType": "address",
          "name": "account",
          "type": "address"
        },
        {
          "indexed": true,
          "internalType": "address",
          "name": "sender",
          "type": "address"
        }
      ],
      "name": "RoleRevoked",
      "type": "event"
    },
    {
      "anonymous": false,
      "inputs": [
        {
          "indexed": false,
          "internalType": "uint256",
          "name": "vaultId",
          "type": "uint256"
        },
        {
          "indexed": false,
          "internalType": "address",
          "name": "userAddress",
          "type": "address"
        },
        {
          "indexed": false,
          "internalType": "uint256",
          "name": "balance",
          "type": "uint256"
        },
        {
          "indexed": false,
          "internalType": "uint256",
          "name": "balanceInINR",
          "type": "uint256"
        },
        {
          "indexed": false,
          "internalType": "uint256",
          "name": "indaiIssued",
          "type": "uint256"
        },
        {
          "indexed": false,
          "internalType": "uint256",
          "name": "vaultHealth",
          "type": "uint256"
        }
      ],
      "name": "thisIsARiskyVault",
      "type": "event"
    },
    {
      "inputs": [],
      "name": "ADMIN_ROLE",
      "outputs": [
        {
          "internalType": "bytes32",
          "name": "",
          "type": "bytes32"
        }
      ],
      "stateMutability": "view",
      "type": "function"
    },
    {
      "inputs": [],
      "name": "CIP",
      "outputs": [
        {
          "internalType": "uint256",
          "name": "",
          "type": "uint256"
        }
      ],
      "stateMutability": "view",
      "type": "function"
    },
    {
      "inputs": [],
      "name": "DEFAULT_ADMIN_ROLE",
      "outputs": [
        {
          "internalType": "bytes32",
          "name": "",
          "type": "bytes32"
        }
      ],
      "stateMutability": "view",
      "type": "function"
    },
    {
      "inputs": [],
      "name": "MODERATOR_ROLE",
      "outputs": [
        {
          "internalType": "bytes32",
          "name": "",
          "type": "bytes32"
        }
      ],
      "stateMutability": "view",
      "type": "function"
    },
    {
      "inputs": [],
      "name": "baseRiskRate",
      "outputs": [
        {
          "internalType": "uint256",
          "name": "",
          "type": "uint256"
        }
      ],
      "stateMutability": "view",
      "type": "function"
    },
    {
      "inputs": [],
      "name": "burnIndai",
      "outputs": [],
      "stateMutability": "nonpayable",
      "type": "function"
    },
    {
      "inputs": [
        {
          "internalType": "address",
          "name": "_user",
          "type": "address"
        }
      ],
      "name": "checkVaultHealthForUser",
      "outputs": [
        {
          "internalType": "bool",
          "name": "",
          "type": "bool"
        }
      ],
      "stateMutability": "view",
      "type": "function"
    },
    {
      "inputs": [],
      "name": "createVault",
      "outputs": [],
      "stateMutability": "payable",
      "type": "function"
    },
    {
      "inputs": [],
      "name": "getBaseRiskRate",
      "outputs": [
        {
          "internalType": "uint256",
          "name": "",
          "type": "uint256"
        }
      ],
      "stateMutability": "view",
      "type": "function"
    },
    {
      "inputs": [],
      "name": "getCIP",
      "outputs": [
        {
          "internalType": "uint256",
          "name": "",
          "type": "uint256"
        }
      ],
      "stateMutability": "view",
      "type": "function"
    },
    {
      "inputs": [],
      "name": "getCurrentVaultId",
      "outputs": [
        {
          "internalType": "uint256",
          "name": "",
          "type": "uint256"
        }
      ],
      "stateMutability": "view",
      "type": "function"
    },
    {
      "inputs": [],
      "name": "getRiskPremiumRate",
      "outputs": [
        {
          "internalType": "uint256",
          "name": "",
          "type": "uint256"
        }
      ],
      "stateMutability": "view",
      "type": "function"
    },
    {
      "inputs": [
        {
          "internalType": "bytes32",
          "name": "role",
          "type": "bytes32"
        }
      ],
      "name": "getRoleAdmin",
      "outputs": [
        {
          "internalType": "bytes32",
          "name": "",
          "type": "bytes32"
        }
      ],
      "stateMutability": "view",
      "type": "function"
    },
    {
      "inputs": [],
      "name": "getTotalCollateralPrice",
      "outputs": [
        {
          "internalType": "int256",
          "name": "",
          "type": "int256"
        }
      ],
      "stateMutability": "view",
      "type": "function"
    },
    {
      "inputs": [],
      "name": "getTotalVaultDetails",
      "outputs": [
        {
          "components": [
            {
              "internalType": "uint256",
              "name": "vaultId",
              "type": "uint256"
            },
            {
              "internalType": "address",
              "name": "userAddress",
              "type": "address"
            },
            {
              "internalType": "uint256",
              "name": "balance",
              "type": "uint256"
            },
            {
              "internalType": "uint256",
              "name": "balanceInINR",
              "type": "uint256"
            },
            {
              "internalType": "uint256",
              "name": "indaiIssued",
              "type": "uint256"
            },
            {
              "internalType": "uint256",
              "name": "vaultHealth",
              "type": "uint256"
            }
          ],
          "internalType": "struct CollateralSafekeep.vault[]",
          "name": "",
          "type": "tuple[]"
        }
      ],
      "stateMutability": "view",
      "type": "function"
    },
    {
      "inputs": [
        {
          "internalType": "address",
          "name": "_address",
          "type": "address"
        }
      ],
      "name": "getUserCollateralBalance",
      "outputs": [
        {
          "internalType": "uint256",
          "name": "",
          "type": "uint256"
        }
      ],
      "stateMutability": "view",
      "type": "function"
    },
    {
      "inputs": [
        {
          "internalType": "address",
          "name": "account",
          "type": "address"
        }
      ],
      "name": "grantModeratorRole",
      "outputs": [],
      "stateMutability": "nonpayable",
      "type": "function"
    },
    {
      "inputs": [
        {
          "internalType": "bytes32",
          "name": "role",
          "type": "bytes32"
        },
        {
          "internalType": "address",
          "name": "account",
          "type": "address"
        }
      ],
      "name": "grantRole",
      "outputs": [],
      "stateMutability": "nonpayable",
      "type": "function"
    },
    {
      "inputs": [
        {
          "internalType": "bytes32",
          "name": "role",
          "type": "bytes32"
        },
        {
          "internalType": "address",
          "name": "account",
          "type": "address"
        }
      ],
      "name": "hasRole",
      "outputs": [
        {
          "internalType": "bool",
          "name": "",
          "type": "bool"
        }
      ],
      "stateMutability": "view",
      "type": "function"
    },
    {
      "inputs": [
        {
          "internalType": "address",
          "name": "_vaultAddress",
          "type": "address"
        }
      ],
      "name": "liquidateVault",
      "outputs": [],
      "stateMutability": "nonpayable",
      "type": "function"
    },
    {
      "inputs": [
        {
          "internalType": "uint256",
          "name": "amount",
          "type": "uint256"
        }
      ],
      "name": "mintIndai",
      "outputs": [],
      "stateMutability": "nonpayable",
      "type": "function"
    },
    {
      "inputs": [
        {
          "internalType": "bytes32",
          "name": "role",
          "type": "bytes32"
        },
        {
          "internalType": "address",
          "name": "account",
          "type": "address"
        }
      ],
      "name": "renounceRole",
      "outputs": [],
      "stateMutability": "nonpayable",
      "type": "function"
    },
    {
      "inputs": [
        {
          "internalType": "bytes32",
          "name": "role",
          "type": "bytes32"
        },
        {
          "internalType": "address",
          "name": "account",
          "type": "address"
        }
      ],
      "name": "revokeRole",
      "outputs": [],
      "stateMutability": "nonpayable",
      "type": "function"
    },
    {
      "inputs": [],
      "name": "riskPremiumRate",
      "outputs": [
        {
          "internalType": "uint256",
          "name": "",
          "type": "uint256"
        }
      ],
      "stateMutability": "view",
      "type": "function"
    },
    {
      "inputs": [
        {
          "internalType": "bytes4",
          "name": "interfaceId",
          "type": "bytes4"
        }
      ],
      "name": "supportsInterface",
      "outputs": [
        {
          "internalType": "bool",
          "name": "",
          "type": "bool"
        }
      ],
      "stateMutability": "view",
      "type": "function"
    },
    {
      "inputs": [],
      "name": "updateVault",
      "outputs": [],
      "stateMutability": "payable",
      "type": "function"
    },
    {
      "inputs": [
        {
          "internalType": "address",
          "name": "",
          "type": "address"
        }
      ],
      "name": "userIndexes",
      "outputs": [
        {
          "internalType": "uint256",
          "name": "",
          "type": "uint256"
        }
      ],
      "stateMutability": "view",
      "type": "function"
    },
    {
      "inputs": [],
      "name": "vaultDetailsForTheUser",
      "outputs": [
        {
          "components": [
            {
              "internalType": "uint256",
              "name": "vaultId",
              "type": "uint256"
            },
            {
              "internalType": "address",
              "name": "userAddress",
              "type": "address"
            },
            {
              "internalType": "uint256",
              "name": "balance",
              "type": "uint256"
            },
            {
              "internalType": "uint256",
              "name": "balanceInINR",
              "type": "uint256"
            },
            {
              "internalType": "uint256",
              "name": "indaiIssued",
              "type": "uint256"
            },
            {
              "internalType": "uint256",
              "name": "vaultHealth",
              "type": "uint256"
            }
          ],
          "internalType": "struct CollateralSafekeep.vault",
          "name": "",
          "type": "tuple"
        }
      ],
      "stateMutability": "view",
      "type": "function"
    },
    {
      "inputs": [
        {
          "internalType": "uint256",
          "name": "amount",
          "type": "uint256"
        }
      ],
      "name": "withdrawFromVault",
      "outputs": [],
      "stateMutability": "payable",
      "type": "function"
    }
  ],
  "transactionHash": "0x19bf400344b7f888418ec6630e806dea35f52af0eaa9c36b3483a6832f44d9c4",
  "args": [
    "150",
    "200",
    "7",
    "0xb570BE7B776179f9471c7e5D607fC1DED9f045A0",
    "0x37f2e274665Cc3fB00197ca8EDcE028A1515B287"
  ],
  "numDeployments": 4,
  "solcInputHash": "f334d519cdd2ddd9b86464f0fc9e5b44",
  "bytecode": "0x60e06040523480156200001157600080fd5b5060405162003c9938038062003c99833981810160405281019062000037919062000462565b620000697fa49807205ce4d355092ef5a8a18f56e8913cf4a201fbe287825b095693c21775336200024460201b60201c565b6200009b7f71f3d55856e4058ed06ee057d79ada615f65cdf5f9ee88181b914225088f834f336200024460201b60201c565b81600160006101000a81548173ffffffffffffffffffffffffffffffffffffffff021916908373ffffffffffffffffffffffffffffffffffffffff16021790555080600260006101000a81548173ffffffffffffffffffffffffffffffffffffffff021916908373ffffffffffffffffffffffffffffffffffffffff1602179055504260038190555084608081815250508360a081815250508260c08181525050600160048190555060006040518060c0016040528060008152602001600073ffffffffffffffffffffffffffffffffffffffff1681526020016000815260200160008152602001600081526020016000815250905060068190806001815401808255809150506001900390600052602060002090600602016000909190919091506000820151816000015560208201518160010160006101000a81548173ffffffffffffffffffffffffffffffffffffffff021916908373ffffffffffffffffffffffffffffffffffffffff16021790555060408201518160020155606082015181600301556080820151816004015560a082015181600501555050505050505050620004ea565b6200025682826200025a60201b60201c565b5050565b6200026c82826200034b60201b60201c565b6200034757600160008084815260200190815260200160002060000160008373ffffffffffffffffffffffffffffffffffffffff1673ffffffffffffffffffffffffffffffffffffffff16815260200190815260200160002060006101000a81548160ff021916908315150217905550620002ec620003b560201b60201c565b73ffffffffffffffffffffffffffffffffffffffff168173ffffffffffffffffffffffffffffffffffffffff16837f2f8788117e7eff1d82e926ec794901d17c78024a50270940304540a733656f0d60405160405180910390a45b5050565b600080600084815260200190815260200160002060000160008373ffffffffffffffffffffffffffffffffffffffff1673ffffffffffffffffffffffffffffffffffffffff16815260200190815260200160002060009054906101000a900460ff16905092915050565b600033905090565b600080fd5b6000819050919050565b620003d781620003c2565b8114620003e357600080fd5b50565b600081519050620003f781620003cc565b92915050565b600073ffffffffffffffffffffffffffffffffffffffff82169050919050565b60006200042a82620003fd565b9050919050565b6200043c816200041d565b81146200044857600080fd5b50565b6000815190506200045c8162000431565b92915050565b600080600080600060a08688031215620004815762000480620003bd565b5b60006200049188828901620003e6565b9550506020620004a488828901620003e6565b9450506040620004b788828901620003e6565b9350506060620004ca888289016200044b565b9250506080620004dd888289016200044b565b9150509295509295909350565b60805160a05160c0516137406200055960003960008181611209015261171201526000818161071f015261174e015260008181610ada01528181610ea001528181610f31015281816113e201528181611d5f01528181611e2901528181611f000152611f3601526137406000f3fe6080604052600436106101c25760003560e01c806374cf45f8116100f7578063ab84541311610095578063c14a7cc811610064578063c14a7cc8146105f7578063c48589cb14610622578063d46009221461064d578063d547741f14610678576101c2565b8063ab84541314610527578063ae0b163f14610564578063b16a56151461058f578063b603540f146105ba576101c2565b806391d14854116100d157806391d148541461046b5780639dc1b45b146104a8578063a217fddf146104d3578063aa232dc2146104fe576101c2565b806374cf45f8146103ea57806375b238fc14610415578063797669c914610440576101c2565b806336568abe116101645780635395a2991161013e5780635395a2991461036e5780635d12928b146103ab5780636a24180d146103b55780637196e841146103e0576101c2565b806336568abe146103035780633e69a4001461032c578063501c3a3c14610343576101c2565b806316b72657116101a057806316b726571461024b578063194d749414610274578063248a9ca31461029d5780632f2ff15d146102da576101c2565b806301ffc9a7146101c757806303f49b3514610204578063076d08151461022f575b600080fd5b3480156101d357600080fd5b506101ee60048036038101906101e991906126dd565b6106a1565b6040516101fb9190612725565b60405180910390f35b34801561021057600080fd5b5061021961071b565b6040516102269190612759565b60405180910390f35b610249600480360381019061024491906127a0565b610743565b005b34801561025757600080fd5b50610272600480360381019061026d91906127a0565b610a13565b005b34801561028057600080fd5b5061029b6004803603810190610296919061282b565b610ce9565b005b3480156102a957600080fd5b506102c460048036038101906102bf919061288e565b610d55565b6040516102d191906128ca565b60405180910390f35b3480156102e657600080fd5b5061030160048036038101906102fc91906128e5565b610d74565b005b34801561030f57600080fd5b5061032a600480360381019061032591906128e5565b610d95565b005b34801561033857600080fd5b50610341610e18565b005b34801561034f57600080fd5b50610358610e9c565b6040516103659190612759565b60405180910390f35b34801561037a57600080fd5b506103956004803603810190610390919061282b565b610ec4565b6040516103a29190612725565b60405180910390f35b6103b3610fbd565b005b3480156103c157600080fd5b506103ca611205565b6040516103d79190612759565b60405180910390f35b6103e861122d565b005b3480156103f657600080fd5b506103ff6113e0565b60405161040c9190612759565b60405180910390f35b34801561042157600080fd5b5061042a611404565b60405161043791906128ca565b60405180910390f35b34801561044c57600080fd5b50610455611428565b60405161046291906128ca565b60405180910390f35b34801561047757600080fd5b50610492600480360381019061048d91906128e5565b61144c565b60405161049f9190612725565b60405180910390f35b3480156104b457600080fd5b506104bd6114b6565b6040516104ca919061293e565b60405180910390f35b3480156104df57600080fd5b506104e8611529565b6040516104f591906128ca565b60405180910390f35b34801561050a57600080fd5b506105256004803603810190610520919061282b565b611530565b005b34801561053357600080fd5b5061054e6004803603810190610549919061282b565b6115c6565b60405161055b9190612759565b60405180910390f35b34801561057057600080fd5b5061057961169d565b6040516105869190612759565b60405180910390f35b34801561059b57600080fd5b506105a4611710565b6040516105b19190612759565b60405180910390f35b3480156105c657600080fd5b506105e160048036038101906105dc919061282b565b611734565b6040516105ee9190612759565b60405180910390f35b34801561060357600080fd5b5061060c61174c565b6040516106199190612759565b60405180910390f35b34801561062e57600080fd5b50610637611770565b6040516106449190612aa1565b60405180910390f35b34801561065957600080fd5b506106626118c0565b60405161066f9190612b3e565b60405180910390f35b34801561068457600080fd5b5061069f600480360381019061069a91906128e5565b611adb565b005b60007f7965db0b000000000000000000000000000000000000000000000000000000007bffffffffffffffffffffffffffffffffffffffffffffffffffffffff1916827bffffffffffffffffffffffffffffffffffffffffffffffffffffffff19161480610714575061071382611afc565b5b9050919050565b60007f0000000000000000000000000000000000000000000000000000000000000000905090565b6001600760003373ffffffffffffffffffffffffffffffffffffffff1673ffffffffffffffffffffffffffffffffffffffff16815260200190815260200160002054146107c5576040517f08c379a00000000000000000000000000000000000000000000000000000000081526004016107bc90612bdc565b60405180910390fd5b60008111610808576040517f08c379a00000000000000000000000000000000000000000000000000000000081526004016107ff90612c6e565b60405180910390fd5b806006600760003373ffffffffffffffffffffffffffffffffffffffff1673ffffffffffffffffffffffffffffffffffffffff168152602001908152602001600020548154811061085c5761085b612c8e565b5b90600052602060002090600602016002015410156108af576040517f08c379a00000000000000000000000000000000000000000000000000000000081526004016108a690612d09565b60405180910390fd5b600115156108bc33610ec4565b1515146108fe576040517f08c379a00000000000000000000000000000000000000000000000000000000081526004016108f590612d75565b60405180910390fd5b600061090933611b66565b905080821061094d576040517f08c379a000000000000000000000000000000000000000000000000000000000815260040161094490612de1565b60405180910390fd5b3373ffffffffffffffffffffffffffffffffffffffff166108fc839081150290604051600060405180830381858888f19350505050158015610993573d6000803e3d6000fd5b50816006600760003373ffffffffffffffffffffffffffffffffffffffff1673ffffffffffffffffffffffffffffffffffffffff16815260200190815260200160002054815481106109e8576109e7612c8e565b5b90600052602060002090600602016002016000828254610a089190612e30565b925050819055505050565b6001600760003373ffffffffffffffffffffffffffffffffffffffff1673ffffffffffffffffffffffffffffffffffffffff1681526020019081526020016000205414610a95576040517f08c379a0000000000000000000000000000000000000000000000000000000008152600401610a8c90612bdc565b60405180910390fd5b60008111610ad8576040517f08c379a0000000000000000000000000000000000000000000000000000000008152600401610acf90612eb0565b60405180910390fd5b7f00000000000000000000000000000000000000000000000000000000000000006006600760003373ffffffffffffffffffffffffffffffffffffffff1673ffffffffffffffffffffffffffffffffffffffff1681526020019081526020016000205481548110610b4c57610b4b612c8e565b5b90600052602060002090600602016005015411610b9e576040517f08c379a0000000000000000000000000000000000000000000000000000000008152600401610b9590612f1c565b60405180910390fd5b6000610ba933611e75565b9050808210610bed576040517f08c379a0000000000000000000000000000000000000000000000000000000008152600401610be490612f88565b60405180910390fd5b600160009054906101000a900473ffffffffffffffffffffffffffffffffffffffff1673ffffffffffffffffffffffffffffffffffffffff166340c10f1933846040518363ffffffff1660e01b8152600401610c4a929190612fb7565b600060405180830381600087803b158015610c6457600080fd5b505af1158015610c78573d6000803e3d6000fd5b50505050816006600760003373ffffffffffffffffffffffffffffffffffffffff1673ffffffffffffffffffffffffffffffffffffffff1681526020019081526020016000205481548110610cd057610ccf612c8e565b5b9060005260206000209060060201600401819055505050565b610d137f71f3d55856e4058ed06ee057d79ada615f65cdf5f9ee88181b914225088f834f3361144c565b610d52576040517f08c379a0000000000000000000000000000000000000000000000000000000008152600401610d499061302c565b60405180910390fd5b50565b6000806000838152602001908152602001600020600101549050919050565b610d7d82610d55565b610d8681611fae565b610d908383611fc2565b505050565b610d9d6120a2565b73ffffffffffffffffffffffffffffffffffffffff168173ffffffffffffffffffffffffffffffffffffffff1614610e0a576040517f08c379a0000000000000000000000000000000000000000000000000000000008152600401610e01906130be565b60405180910390fd5b610e1482826120aa565b5050565b6001600760003373ffffffffffffffffffffffffffffffffffffffff1673ffffffffffffffffffffffffffffffffffffffff1681526020019081526020016000205414610e9a576040517f08c379a0000000000000000000000000000000000000000000000000000000008152600401610e9190612bdc565b60405180910390fd5b565b60007f0000000000000000000000000000000000000000000000000000000000000000905090565b6000610ef07f71f3d55856e4058ed06ee057d79ada615f65cdf5f9ee88181b914225088f834f3361144c565b610f2f576040517f08c379a0000000000000000000000000000000000000000000000000000000008152600401610f269061302c565b60405180910390fd5b7f00000000000000000000000000000000000000000000000000000000000000006006600760008573ffffffffffffffffffffffffffffffffffffffff1673ffffffffffffffffffffffffffffffffffffffff1681526020019081526020016000205481548110610fa357610fa2612c8e565b5b906000526020600020906006020160050154119050919050565b6000600760003373ffffffffffffffffffffffffffffffffffffffff1673ffffffffffffffffffffffffffffffffffffffff168152602001908152602001600020541461103f576040517f08c379a00000000000000000000000000000000000000000000000000000000081526004016110369061312a565b60405180910390fd5b60003411611082576040517f08c379a0000000000000000000000000000000000000000000000000000000008152600401611079906131bc565b60405180910390fd5b61108a612634565b3481604001818152505033816020019073ffffffffffffffffffffffffffffffffffffffff16908173ffffffffffffffffffffffffffffffffffffffff1681525050600454816000018181525050600081608001818152505060648160a00181815250506110f73361218b565b81606001818152505060068190806001815401808255809150506001900390600052602060002090600602016000909190919091506000820151816000015560208201518160010160006101000a81548173ffffffffffffffffffffffffffffffffffffffff021916908373ffffffffffffffffffffffffffffffffffffffff16021790555060408201518160020155606082015181600301556080820151816004015560a082015181600501555050600454600760003373ffffffffffffffffffffffffffffffffffffffff1673ffffffffffffffffffffffffffffffffffffffff1681526020019081526020016000208190555060016004546111fc91906131dc565b60048190555050565b60007f0000000000000000000000000000000000000000000000000000000000000000905090565b6001600760003373ffffffffffffffffffffffffffffffffffffffff1673ffffffffffffffffffffffffffffffffffffffff16815260200190815260200160002054146112af576040517f08c379a00000000000000000000000000000000000000000000000000000000081526004016112a690612bdc565b60405180910390fd5b600034116112f2576040517f08c379a00000000000000000000000000000000000000000000000000000000081526004016112e990613282565b60405180910390fd5b346006600760003373ffffffffffffffffffffffffffffffffffffffff1673ffffffffffffffffffffffffffffffffffffffff168152602001908152602001600020548154811061134657611345612c8e565b5b9060005260206000209060060201600201600082825461136691906131dc565b925050819055506113763361218b565b6006600760003373ffffffffffffffffffffffffffffffffffffffff1673ffffffffffffffffffffffffffffffffffffffff16815260200190815260200160002054815481106113c9576113c8612c8e565b5b906000526020600020906006020160030181905550565b7f000000000000000000000000000000000000000000000000000000000000000081565b7fa49807205ce4d355092ef5a8a18f56e8913cf4a201fbe287825b095693c2177581565b7f71f3d55856e4058ed06ee057d79ada615f65cdf5f9ee88181b914225088f834f81565b600080600084815260200190815260200160002060000160008373ffffffffffffffffffffffffffffffffffffffff1673ffffffffffffffffffffffffffffffffffffffff16815260200190815260200160002060009054906101000a900460ff16905092915050565b60006114e27f71f3d55856e4058ed06ee057d79ada615f65cdf5f9ee88181b914225088f834f3361144c565b611521576040517f08c379a00000000000000000000000000000000000000000000000000000000081526004016115189061302c565b60405180910390fd5b600554905090565b6000801b81565b61155a7fa49807205ce4d355092ef5a8a18f56e8913cf4a201fbe287825b095693c217753361144c565b611599576040517f08c379a000000000000000000000000000000000000000000000000000000000815260040161159090613314565b60405180910390fd5b6115c37f71f3d55856e4058ed06ee057d79ada615f65cdf5f9ee88181b914225088f834f82610d74565b50565b60006115f27f71f3d55856e4058ed06ee057d79ada615f65cdf5f9ee88181b914225088f834f3361144c565b611631576040517f08c379a00000000000000000000000000000000000000000000000000000000081526004016116289061302c565b60405180910390fd5b6006600760008473ffffffffffffffffffffffffffffffffffffffff1673ffffffffffffffffffffffffffffffffffffffff168152602001908152602001600020548154811061168457611683612c8e565b5b9060005260206000209060060201600201549050919050565b60006116c97f71f3d55856e4058ed06ee057d79ada615f65cdf5f9ee88181b914225088f834f3361144c565b611708576040517f08c379a00000000000000000000000000000000000000000000000000000000081526004016116ff9061302c565b60405180910390fd5b600454905090565b7f000000000000000000000000000000000000000000000000000000000000000081565b60076020528060005260406000206000915090505481565b7f000000000000000000000000000000000000000000000000000000000000000081565b606061179c7f71f3d55856e4058ed06ee057d79ada615f65cdf5f9ee88181b914225088f834f3361144c565b6117db576040517f08c379a00000000000000000000000000000000000000000000000000000000081526004016117d29061302c565b60405180910390fd5b6006805480602002602001604051908101604052809291908181526020016000905b828210156118b757838290600052602060002090600602016040518060c0016040529081600082015481526020016001820160009054906101000a900473ffffffffffffffffffffffffffffffffffffffff1673ffffffffffffffffffffffffffffffffffffffff1673ffffffffffffffffffffffffffffffffffffffff168152602001600282015481526020016003820154815260200160048201548152602001600582015481525050815260200190600101906117fd565b50505050905090565b6118c8612634565b6001600760003373ffffffffffffffffffffffffffffffffffffffff1673ffffffffffffffffffffffffffffffffffffffff168152602001908152602001600020541461194a576040517f08c379a000000000000000000000000000000000000000000000000000000000815260040161194190612bdc565b60405180910390fd5b611952612634565b6006600760003373ffffffffffffffffffffffffffffffffffffffff1673ffffffffffffffffffffffffffffffffffffffff16815260200190815260200160002054815481106119a5576119a4612c8e565b5b90600052602060002090600602016000015481600001818152505033816020019073ffffffffffffffffffffffffffffffffffffffff16908173ffffffffffffffffffffffffffffffffffffffff16815250506006600760003373ffffffffffffffffffffffffffffffffffffffff1673ffffffffffffffffffffffffffffffffffffffff1681526020019081526020016000205481548110611a4b57611a4a612c8e565b5b9060005260206000209060060201600201548160400181815250506006600760003373ffffffffffffffffffffffffffffffffffffffff1673ffffffffffffffffffffffffffffffffffffffff1681526020019081526020016000205481548110611ab957611ab8612c8e565b5b9060005260206000209060060201600401548160800181815250508091505090565b611ae482610d55565b611aed81611fae565b611af783836120aa565b505050565b60007f01ffc9a7000000000000000000000000000000000000000000000000000000007bffffffffffffffffffffffffffffffffffffffffffffffffffffffff1916827bffffffffffffffffffffffffffffffffffffffffffffffffffffffff1916149050919050565b60006001600760003373ffffffffffffffffffffffffffffffffffffffff1673ffffffffffffffffffffffffffffffffffffffff1681526020019081526020016000205414611bea576040517f08c379a0000000000000000000000000000000000000000000000000000000008152600401611be190612bdc565b60405180910390fd5b60006006600760008573ffffffffffffffffffffffffffffffffffffffff1673ffffffffffffffffffffffffffffffffffffffff1681526020019081526020016000205481548110611c3f57611c3e612c8e565b5b90600052602060002090600602016003015490506006600760008573ffffffffffffffffffffffffffffffffffffffff1673ffffffffffffffffffffffffffffffffffffffff1681526020019081526020016000205481548110611ca657611ca5612c8e565b5b9060005260206000209060060201600301546006600760008673ffffffffffffffffffffffffffffffffffffffff1673ffffffffffffffffffffffffffffffffffffffff1681526020019081526020016000205481548110611d0b57611d0a612c8e565b5b90600052602060002090600602016004015410611d5d576040517f08c379a0000000000000000000000000000000000000000000000000000000008152600401611d5490612f1c565b60405180910390fd5b7f00000000000000000000000000000000000000000000000000000000000000006006600760008673ffffffffffffffffffffffffffffffffffffffff1673ffffffffffffffffffffffffffffffffffffffff1681526020019081526020016000205481548110611dd157611dd0612c8e565b5b90600052602060002090600602016005015411611e23576040517f08c379a0000000000000000000000000000000000000000000000000000000008152600401611e1a90613380565b60405180910390fd5b600060647f00000000000000000000000000000000000000000000000000000000000000006064611e549190612e30565b83611e5f91906133a0565b611e699190613411565b90508092505050919050565b600080611e818361218b565b905060006006600760008673ffffffffffffffffffffffffffffffffffffffff1673ffffffffffffffffffffffffffffffffffffffff1681526020019081526020016000205481548110611ed857611ed7612c8e565b5b906000526020600020906006020160040154905060008183611efa9190613411565b905060007f0000000000000000000000000000000000000000000000000000000000000000606483611f2c91906133a0565b1015611f705783827f0000000000000000000000000000000000000000000000000000000000000000611f5f9190612e30565b611f6991906133a0565b9050611fa2565b6040517fe9ddc40e00000000000000000000000000000000000000000000000000000000815260040160405180910390fd5b80945050505050919050565b611fbf81611fba6120a2565b612346565b50565b611fcc828261144c565b61209e57600160008084815260200190815260200160002060000160008373ffffffffffffffffffffffffffffffffffffffff1673ffffffffffffffffffffffffffffffffffffffff16815260200190815260200160002060006101000a81548160ff0219169083151502179055506120436120a2565b73ffffffffffffffffffffffffffffffffffffffff168173ffffffffffffffffffffffffffffffffffffffff16837f2f8788117e7eff1d82e926ec794901d17c78024a50270940304540a733656f0d60405160405180910390a45b5050565b600033905090565b6120b4828261144c565b1561218757600080600084815260200190815260200160002060000160008373ffffffffffffffffffffffffffffffffffffffff1673ffffffffffffffffffffffffffffffffffffffff16815260200190815260200160002060006101000a81548160ff02191690831515021790555061212c6120a2565b73ffffffffffffffffffffffffffffffffffffffff168173ffffffffffffffffffffffffffffffffffffffff16837ff6391f5c32d9c69d2a47ea670b442974b53935d1edc7fd64eb21e047a839171b60405160405180910390a45b5050565b6000806006600760008573ffffffffffffffffffffffffffffffffffffffff1673ffffffffffffffffffffffffffffffffffffffff16815260200190815260200160002054815481106121e1576121e0612c8e565b5b90600052602060002090600602016002015490506000600260009054906101000a900473ffffffffffffffffffffffffffffffffffffffff1673ffffffffffffffffffffffffffffffffffffffff166379409b196040518163ffffffff1660e01b81526004016040805180830381865afa158015612263573d6000803e3d6000fd5b505050506040513d601f19601f820116820180604052508101906122879190613457565b9150506000600260009054906101000a900473ffffffffffffffffffffffffffffffffffffffff1673ffffffffffffffffffffffffffffffffffffffff16633cc9732a6040518163ffffffff1660e01b81526004016040805180830381865afa1580156122f8573d6000803e3d6000fd5b505050506040513d601f19601f8201168201806040525081019061231c9190613457565b915050600081838561232e91906133a0565b6123389190613411565b905080945050505050919050565b612350828261144c565b6123c75761235d816123cb565b61236b8360001c60206123f8565b60405160200161237c9291906135a0565b6040516020818303038152906040526040517f08c379a00000000000000000000000000000000000000000000000000000000081526004016123be9190613624565b60405180910390fd5b5050565b60606123f18273ffffffffffffffffffffffffffffffffffffffff16601460ff166123f8565b9050919050565b60606000600283600261240b91906133a0565b61241591906131dc565b67ffffffffffffffff81111561242e5761242d613646565b5b6040519080825280601f01601f1916602001820160405280156124605781602001600182028036833780820191505090505b5090507f30000000000000000000000000000000000000000000000000000000000000008160008151811061249857612497612c8e565b5b60200101907effffffffffffffffffffffffffffffffffffffffffffffffffffffffffffff1916908160001a9053507f7800000000000000000000000000000000000000000000000000000000000000816001815181106124fc576124fb612c8e565b5b60200101907effffffffffffffffffffffffffffffffffffffffffffffffffffffffffffff1916908160001a9053506000600184600261253c91906133a0565b61254691906131dc565b90505b60018111156125e6577f3031323334353637383961626364656600000000000000000000000000000000600f86166010811061258857612587612c8e565b5b1a60f81b82828151811061259f5761259e612c8e565b5b60200101907effffffffffffffffffffffffffffffffffffffffffffffffffffffffffffff1916908160001a905350600485901c9450806125df90613675565b9050612549565b506000841461262a576040517f08c379a0000000000000000000000000000000000000000000000000000000008152600401612621906136ea565b60405180910390fd5b8091505092915050565b6040518060c0016040528060008152602001600073ffffffffffffffffffffffffffffffffffffffff168152602001600081526020016000815260200160008152602001600081525090565b600080fd5b60007fffffffff0000000000000000000000000000000000000000000000000000000082169050919050565b6126ba81612685565b81146126c557600080fd5b50565b6000813590506126d7816126b1565b92915050565b6000602082840312156126f3576126f2612680565b5b6000612701848285016126c8565b91505092915050565b60008115159050919050565b61271f8161270a565b82525050565b600060208201905061273a6000830184612716565b92915050565b6000819050919050565b61275381612740565b82525050565b600060208201905061276e600083018461274a565b92915050565b61277d81612740565b811461278857600080fd5b50565b60008135905061279a81612774565b92915050565b6000602082840312156127b6576127b5612680565b5b60006127c48482850161278b565b91505092915050565b600073ffffffffffffffffffffffffffffffffffffffff82169050919050565b60006127f8826127cd565b9050919050565b612808816127ed565b811461281357600080fd5b50565b600081359050612825816127ff565b92915050565b60006020828403121561284157612840612680565b5b600061284f84828501612816565b91505092915050565b6000819050919050565b61286b81612858565b811461287657600080fd5b50565b60008135905061288881612862565b92915050565b6000602082840312156128a4576128a3612680565b5b60006128b284828501612879565b91505092915050565b6128c481612858565b82525050565b60006020820190506128df60008301846128bb565b92915050565b600080604083850312156128fc576128fb612680565b5b600061290a85828601612879565b925050602061291b85828601612816565b9150509250929050565b6000819050919050565b61293881612925565b82525050565b6000602082019050612953600083018461292f565b92915050565b600081519050919050565b600082825260208201905092915050565b6000819050602082019050919050565b61298e81612740565b82525050565b61299d816127ed565b82525050565b60c0820160008201516129b96000850182612985565b5060208201516129cc6020850182612994565b5060408201516129df6040850182612985565b5060608201516129f26060850182612985565b506080820151612a056080850182612985565b5060a0820151612a1860a0850182612985565b50505050565b6000612a2a83836129a3565b60c08301905092915050565b6000602082019050919050565b6000612a4e82612959565b612a588185612964565b9350612a6383612975565b8060005b83811015612a94578151612a7b8882612a1e565b9750612a8683612a36565b925050600181019050612a67565b5085935050505092915050565b60006020820190508181036000830152612abb8184612a43565b905092915050565b60c082016000820151612ad96000850182612985565b506020820151612aec6020850182612994565b506040820151612aff6040850182612985565b506060820151612b126060850182612985565b506080820151612b256080850182612985565b5060a0820151612b3860a0850182612985565b50505050565b600060c082019050612b536000830184612ac3565b92915050565b600082825260208201905092915050565b7f596f7520646f6e7420686176652061205661756c742c2063726561746520612060008201527f7661756c74206669727374210000000000000000000000000000000000000000602082015250565b6000612bc6602c83612b59565b9150612bd182612b6a565b604082019050919050565b60006020820190508181036000830152612bf581612bb9565b9050919050565b7f576974686472617720616d6f756e742073686f756c642062652067726561746560008201527f72207468616e2030000000000000000000000000000000000000000000000000602082015250565b6000612c58602883612b59565b9150612c6382612bfc565b604082019050919050565b60006020820190508181036000830152612c8781612c4b565b9050919050565b7f4e487b7100000000000000000000000000000000000000000000000000000000600052603260045260246000fd5b7f696e73756666696369656e742062616c616e636520696e207661756c74000000600082015250565b6000612cf3601d83612b59565b9150612cfe82612cbd565b602082019050919050565b60006020820190508181036000830152612d2281612ce6565b9050919050565b7f436c65617220796f7572206465627420696e20746865207661756c7421000000600082015250565b6000612d5f601d83612b59565b9150612d6a82612d29565b602082019050919050565b60006020820190508181036000830152612d8e81612d52565b9050919050565b7f796f752077696c6c20676f20696e746f20646562742100000000000000000000600082015250565b6000612dcb601683612b59565b9150612dd682612d95565b602082019050919050565b60006020820190508181036000830152612dfa81612dbe565b9050919050565b7f4e487b7100000000000000000000000000000000000000000000000000000000600052601160045260246000fd5b6000612e3b82612740565b9150612e4683612740565b9250828203905081811115612e5e57612e5d612e01565b5b92915050565b7f656e7465722076616c696420616d6f756e740000000000000000000000000000600082015250565b6000612e9a601283612b59565b9150612ea582612e64565b602082019050919050565b60006020820190508181036000830152612ec981612e8d565b9050919050565b7f796f752061726520696e20646562742100000000000000000000000000000000600082015250565b6000612f06601083612b59565b9150612f1182612ed0565b602082019050919050565b60006020820190508181036000830152612f3581612ef9565b9050919050565b7f656e74657220616d6f756e74206c657373207468616e204349502063726f7373600082015250565b6000612f72602083612b59565b9150612f7d82612f3c565b602082019050919050565b60006020820190508181036000830152612fa181612f65565b9050919050565b612fb1816127ed565b82525050565b6000604082019050612fcc6000830185612fa8565b612fd9602083018461274a565b9392505050565b7f4d7573742068617665204d4f44455241544f525f524f4c450000000000000000600082015250565b6000613016601883612b59565b915061302182612fe0565b602082019050919050565b6000602082019050818103600083015261304581613009565b9050919050565b7f416363657373436f6e74726f6c3a2063616e206f6e6c792072656e6f756e636560008201527f20726f6c657320666f722073656c660000000000000000000000000000000000602082015250565b60006130a8602f83612b59565b91506130b38261304c565b604082019050919050565b600060208201905081810360008301526130d78161309b565b9050919050565b7f596f7520616c726561647920686176652061207661756c740000000000000000600082015250565b6000613114601883612b59565b915061311f826130de565b602082019050919050565b6000602082019050818103600083015261314381613107565b9050919050565b7f45544820616d6f756e74206d7573742062652067726561746572207468616e2060008201527f3000000000000000000000000000000000000000000000000000000000000000602082015250565b60006131a6602183612b59565b91506131b18261314a565b604082019050919050565b600060208201905081810360008301526131d581613199565b9050919050565b60006131e782612740565b91506131f283612740565b925082820190508082111561320a57613209612e01565b5b92915050565b7f65746820616d6f756e74206d7573742062652067726561746572207468616e2060008201527f3000000000000000000000000000000000000000000000000000000000000000602082015250565b600061326c602183612b59565b915061327782613210565b604082019050919050565b6000602082019050818103600083015261329b8161325f565b9050919050565b7f4d75737420686176652041444d494e5f524f4c4520746f206772616e74204d4f60008201527f44455241544f525f524f4c450000000000000000000000000000000000000000602082015250565b60006132fe602c83612b59565b9150613309826132a2565b604082019050919050565b6000602082019050818103600083015261332d816132f1565b9050919050565b7f796f752061726520696e20646562740000000000000000000000000000000000600082015250565b600061336a600f83612b59565b915061337582613334565b602082019050919050565b600060208201905081810360008301526133998161335d565b9050919050565b60006133ab82612740565b91506133b683612740565b92508282026133c481612740565b915082820484148315176133db576133da612e01565b5b5092915050565b7f4e487b7100000000000000000000000000000000000000000000000000000000600052601260045260246000fd5b600061341c82612740565b915061342783612740565b925082613437576134366133e2565b5b828204905092915050565b60008151905061345181612774565b92915050565b6000806040838503121561346e5761346d612680565b5b600061347c85828601613442565b925050602061348d85828601613442565b9150509250929050565b600081905092915050565b7f416363657373436f6e74726f6c3a206163636f756e7420000000000000000000600082015250565b60006134d8601783613497565b91506134e3826134a2565b601782019050919050565b600081519050919050565b60005b838110156135175780820151818401526020810190506134fc565b60008484015250505050565b600061352e826134ee565b6135388185613497565b93506135488185602086016134f9565b80840191505092915050565b7f206973206d697373696e6720726f6c6520000000000000000000000000000000600082015250565b600061358a601183613497565b915061359582613554565b601182019050919050565b60006135ab826134cb565b91506135b78285613523565b91506135c28261357d565b91506135ce8284613523565b91508190509392505050565b6000601f19601f8301169050919050565b60006135f6826134ee565b6136008185612b59565b93506136108185602086016134f9565b613619816135da565b840191505092915050565b6000602082019050818103600083015261363e81846135eb565b905092915050565b7f4e487b7100000000000000000000000000000000000000000000000000000000600052604160045260246000fd5b600061368082612740565b91506000820361369357613692612e01565b5b600182039050919050565b7f537472696e67733a20686578206c656e67746820696e73756666696369656e74600082015250565b60006136d4602083612b59565b91506136df8261369e565b602082019050919050565b60006020820190508181036000830152613703816136c7565b905091905056fea2646970667358221220195f895fcc8bea124fb663abef6fdf7de4d8974d43b15b6570907af0b7e0047364736f6c63430008130033",
  "devdoc": {
    "events": {
      "RoleAdminChanged(bytes32,bytes32,bytes32)": {
        "details": "Emitted when `newAdminRole` is set as ``role``'s admin role, replacing `previousAdminRole` `DEFAULT_ADMIN_ROLE` is the starting admin for all roles, despite {RoleAdminChanged} not being emitted signaling this. _Available since v3.1._"
      },
      "RoleGranted(bytes32,address,address)": {
        "details": "Emitted when `account` is granted `role`. `sender` is the account that originated the contract call, an admin role bearer except when using {AccessControl-_setupRole}."
      },
      "RoleRevoked(bytes32,address,address)": {
        "details": "Emitted when `account` is revoked `role`. `sender` is the account that originated the contract call:   - if using `revokeRole`, it is the admin role bearer   - if using `renounceRole`, it is the role bearer (i.e. `account`)"
      }
    },
    "kind": "dev",
    "methods": {
      "burnIndai()": {
        "details": "only allow user to withdraw if no debt in vault    "
      },
      "getBaseRiskRate()": {
        "details": "public getter function.",
        "returns": {
          "_0": "uint256"
        }
      },
      "getCIP()": {
        "details": "this function is public in case we need to manually liquidate a vault",
        "returns": {
          "_0": ""
        }
      },
      "getCurrentVaultId()": {
        "returns": {
          "_0": "Returns the user's balance in eth"
        }
      },
      "getRiskPremiumRate()": {
        "details": "public getter function.",
        "returns": {
          "_0": "uint256"
        }
      },
      "getRoleAdmin(bytes32)": {
        "details": "Returns the admin role that controls `role`. See {grantRole} and {revokeRole}. To change a role's admin, use {_setRoleAdmin}."
      },
      "getTotalVaultDetails()": {
        "returns": {
          "_0": "total collateral balance of the whole contract in eth"
        }
      },
      "getUserCollateralBalance(address)": {
        "returns": {
          "_0": "uint256 type max mintable dai"
        }
      },
      "grantRole(bytes32,address)": {
        "details": "Grants `role` to `account`. If `account` had not been already granted `role`, emits a {RoleGranted} event. Requirements: - the caller must have ``role``'s admin role. May emit a {RoleGranted} event."
      },
      "hasRole(bytes32,address)": {
        "details": "Returns `true` if `account` has been granted `role`."
      },
      "liquidateVault(address)": {
        "details": "emits event of the risky vaults this function is periodically called by chainlink keepersthis function updates the user's collateral balance in inr in the vault periodically"
      },
      "renounceRole(bytes32,address)": {
        "details": "Revokes `role` from the calling account. Roles are often managed via {grantRole} and {revokeRole}: this function's purpose is to provide a mechanism for accounts to lose their privileges if they are compromised (such as when a trusted device is misplaced). If the calling account had been revoked `role`, emits a {RoleRevoked} event. Requirements: - the caller must be `account`. May emit a {RoleRevoked} event."
      },
      "revokeRole(bytes32,address)": {
        "details": "Revokes `role` from `account`. If `account` had been granted `role`, emits a {RoleRevoked} event. Requirements: - the caller must have ``role``'s admin role. May emit a {RoleRevoked} event."
      },
      "supportsInterface(bytes4)": {
        "details": "See {IERC165-supportsInterface}."
      },
      "updateVault()": {
        "custom:misc": "User can use this function to mint dai after depositing the collateral in vault",
        "details": "This function is the algorithmic minting of indai, one indai is minted for every rupee of collateralUpdates the token amount in the user's vault"
      },
      "vaultDetailsForTheUser()": {
        "details": "public getter function.",
        "returns": {
          "_0": "uint256"
        }
      }
    },
    "version": 1
  },
  "userdoc": {
    "kind": "user",
    "methods": {
      "burnIndai()": {
        "notice": "User can withdraw if any excess collateral than 150 percent of indai issued"
      },
      "getBaseRiskRate()": {
        "notice": "collateral to indai percentage defined by the DAO."
      },
      "getCIP()": {
        "notice": "liquidates vaults that get too risky."
      },
      "getRiskPremiumRate()": {
        "notice": "base risk rate on all collateral types defined by the DAO."
      },
      "getUserCollateralBalance(address)": {
        "notice": "calculated max amount of dai that can be minted by user at given vault state"
      },
      "liquidateVault(address)": {
        "notice": "This function liquidates vaults that get too risky"
      },
      "mintIndai(uint256)": {
        "notice": "creates a new vault for a user"
      },
      "updateVault()": {
        "notice": "This allows user to mint indai based on their collateral in the vaultUser cannot mint if vault health is lower than 150 percentOne indai is issued for every ruppee of collateral(in eth, converted to inr)"
      },
      "vaultDetailsForTheUser()": {
        "notice": "risk premium rate on specific collateral type defined by the DAO."
      },
      "withdrawFromVault(uint256)": {
        "notice": "This adds nore collateral in eth to the user's existing vault"
      }
    },
    "version": 1
  },
  "storageLayout": {
    "storage": [
      {
        "astId": 3542,
        "contract": "contracts/CollateralSafekeep.sol:CollateralSafekeep",
        "label": "_roles",
        "offset": 0,
        "slot": "0",
        "type": "t_mapping(t_bytes32,t_struct(RoleData)3537_storage)"
      },
      {
        "astId": 5274,
        "contract": "contracts/CollateralSafekeep.sol:CollateralSafekeep",
        "label": "token",
        "offset": 0,
        "slot": "1",
        "type": "t_contract(i_Indai)5253"
      },
      {
        "astId": 5277,
        "contract": "contracts/CollateralSafekeep.sol:CollateralSafekeep",
        "label": "priceContract",
        "offset": 0,
        "slot": "2",
        "type": "t_contract(IPriceFeed)5268"
      },
      {
        "astId": 5289,
        "contract": "contracts/CollateralSafekeep.sol:CollateralSafekeep",
        "label": "lastTimeStamp",
        "offset": 0,
        "slot": "3",
        "type": "t_uint256"
      },
      {
        "astId": 5297,
        "contract": "contracts/CollateralSafekeep.sol:CollateralSafekeep",
        "label": "vault_ID",
        "offset": 0,
        "slot": "4",
        "type": "t_uint256"
      },
      {
        "astId": 5299,
        "contract": "contracts/CollateralSafekeep.sol:CollateralSafekeep",
        "label": "currentCollateralBalance",
        "offset": 0,
        "slot": "5",
        "type": "t_int256"
      },
      {
        "astId": 5316,
        "contract": "contracts/CollateralSafekeep.sol:CollateralSafekeep",
        "label": "userVaults",
        "offset": 0,
        "slot": "6",
        "type": "t_array(t_struct(vault)5312_storage)dyn_storage"
      },
      {
        "astId": 5334,
        "contract": "contracts/CollateralSafekeep.sol:CollateralSafekeep",
        "label": "userIndexes",
        "offset": 0,
        "slot": "7",
        "type": "t_mapping(t_address,t_uint256)"
      }
    ],
    "types": {
      "t_address": {
        "encoding": "inplace",
        "label": "address",
        "numberOfBytes": "20"
      },
      "t_array(t_struct(vault)5312_storage)dyn_storage": {
        "base": "t_struct(vault)5312_storage",
        "encoding": "dynamic_array",
        "label": "struct CollateralSafekeep.vault[]",
        "numberOfBytes": "32"
      },
      "t_bool": {
        "encoding": "inplace",
        "label": "bool",
        "numberOfBytes": "1"
      },
      "t_bytes32": {
        "encoding": "inplace",
        "label": "bytes32",
        "numberOfBytes": "32"
      },
      "t_contract(IPriceFeed)5268": {
        "encoding": "inplace",
        "label": "contract IPriceFeed",
        "numberOfBytes": "20"
      },
      "t_contract(i_Indai)5253": {
        "encoding": "inplace",
        "label": "contract i_Indai",
        "numberOfBytes": "20"
      },
      "t_int256": {
        "encoding": "inplace",
        "label": "int256",
        "numberOfBytes": "32"
      },
      "t_mapping(t_address,t_bool)": {
        "encoding": "mapping",
        "key": "t_address",
        "label": "mapping(address => bool)",
        "numberOfBytes": "32",
        "value": "t_bool"
      },
      "t_mapping(t_address,t_uint256)": {
        "encoding": "mapping",
        "key": "t_address",
        "label": "mapping(address => uint256)",
        "numberOfBytes": "32",
        "value": "t_uint256"
      },
      "t_mapping(t_bytes32,t_struct(RoleData)3537_storage)": {
        "encoding": "mapping",
        "key": "t_bytes32",
        "label": "mapping(bytes32 => struct AccessControl.RoleData)",
        "numberOfBytes": "32",
        "value": "t_struct(RoleData)3537_storage"
      },
      "t_struct(RoleData)3537_storage": {
        "encoding": "inplace",
        "label": "struct AccessControl.RoleData",
        "members": [
          {
            "astId": 3534,
            "contract": "contracts/CollateralSafekeep.sol:CollateralSafekeep",
            "label": "members",
            "offset": 0,
            "slot": "0",
            "type": "t_mapping(t_address,t_bool)"
          },
          {
            "astId": 3536,
            "contract": "contracts/CollateralSafekeep.sol:CollateralSafekeep",
            "label": "adminRole",
            "offset": 0,
            "slot": "1",
            "type": "t_bytes32"
          }
        ],
        "numberOfBytes": "64"
      },
      "t_struct(vault)5312_storage": {
        "encoding": "inplace",
        "label": "struct CollateralSafekeep.vault",
        "members": [
          {
            "astId": 5301,
            "contract": "contracts/CollateralSafekeep.sol:CollateralSafekeep",
            "label": "vaultId",
            "offset": 0,
            "slot": "0",
            "type": "t_uint256"
          },
          {
            "astId": 5303,
            "contract": "contracts/CollateralSafekeep.sol:CollateralSafekeep",
            "label": "userAddress",
            "offset": 0,
            "slot": "1",
            "type": "t_address"
          },
          {
            "astId": 5305,
            "contract": "contracts/CollateralSafekeep.sol:CollateralSafekeep",
            "label": "balance",
            "offset": 0,
            "slot": "2",
            "type": "t_uint256"
          },
          {
            "astId": 5307,
            "contract": "contracts/CollateralSafekeep.sol:CollateralSafekeep",
            "label": "balanceInINR",
            "offset": 0,
            "slot": "3",
            "type": "t_uint256"
          },
          {
            "astId": 5309,
            "contract": "contracts/CollateralSafekeep.sol:CollateralSafekeep",
            "label": "indaiIssued",
            "offset": 0,
            "slot": "4",
            "type": "t_uint256"
          },
          {
            "astId": 5311,
            "contract": "contracts/CollateralSafekeep.sol:CollateralSafekeep",
            "label": "vaultHealth",
            "offset": 0,
            "slot": "5",
            "type": "t_uint256"
          }
        ],
        "numberOfBytes": "192"
      },
      "t_uint256": {
        "encoding": "inplace",
        "label": "uint256",
        "numberOfBytes": "32"
      }
    }
  }
}