{
  "address": "0x37f2e274665Cc3fB00197ca8EDcE028A1515B287",
  "abi": [
    {
      "inputs": [],
      "stateMutability": "nonpayable",
      "type": "constructor"
    },
    {
      "inputs": [],
      "name": "EthToUsd",
      "outputs": [
        {
          "internalType": "uint256",
          "name": "",
          "type": "uint256"
        },
        {
          "internalType": "uint256",
          "name": "",
          "type": "uint256"
        }
      ],
      "stateMutability": "view",
      "type": "function"
    },
    {
      "inputs": [],
      "name": "InrToUsd",
      "outputs": [
        {
          "internalType": "uint256",
          "name": "",
          "type": "uint256"
        },
        {
          "internalType": "uint256",
          "name": "",
          "type": "uint256"
        }
      ],
      "stateMutability": "view",
      "type": "function"
    },
    {
      "inputs": [],
      "name": "_EthToUsd",
      "outputs": [
        {
          "internalType": "address",
          "name": "",
          "type": "address"
        }
      ],
      "stateMutability": "view",
      "type": "function"
    },
    {
      "inputs": [],
      "name": "_InrToUsd",
      "outputs": [
        {
          "internalType": "address",
          "name": "",
          "type": "address"
        }
      ],
      "stateMutability": "view",
      "type": "function"
    }
  ],
  "transactionHash": "0xb2cbc43af5b3f971e77459c2b36904f48f55ce7b04fbc08161de8d37bc4b7e81",
  "args": [],
  "numDeployments": 3,
  "solcInputHash": "c9b9e0d939c8988cd85b673a1ba52ba0",
  "bytecode": "0x60806040527326690f9f17fdc26d419371315bc17950a0fc90ed6000806101000a81548173ffffffffffffffffffffffffffffffffffffffff021916908373ffffffffffffffffffffffffffffffffffffffff160217905550733c2f376c7a559617842e3298c35e0ce42efcdec1600160006101000a81548173ffffffffffffffffffffffffffffffffffffffff021916908373ffffffffffffffffffffffffffffffffffffffff1602179055503480156100b957600080fd5b50610441806100c96000396000f3fe608060405234801561001057600080fd5b506004361061004c5760003560e01c80633cc9732a1461005157806379409b19146100705780638098fc2a1461008f578063e61214af146100ad575b600080fd5b6100596100cb565b6040516100679291906102cc565b60405180910390f35b61007861019b565b6040516100869291906102cc565b60405180910390f35b610097610269565b6040516100a49190610336565b60405180910390f35b6100b561028f565b6040516100c29190610336565b60405180910390f35b600080600080600160009054906101000a900473ffffffffffffffffffffffffffffffffffffffff1673ffffffffffffffffffffffffffffffffffffffff166357de26a46040518163ffffffff1660e01b81526004016040805180830381865afa15801561013d573d6000803e3d6000fd5b505050506040513d601f19601f8201168201806040525081019061016191906103cb565b63ffffffff16915091506000827bffffffffffffffffffffffffffffffffffffffffffffffffffffffff1690508082945094505050509091565b60008060008060008054906101000a900473ffffffffffffffffffffffffffffffffffffffff1673ffffffffffffffffffffffffffffffffffffffff166357de26a46040518163ffffffff1660e01b81526004016040805180830381865afa15801561020b573d6000803e3d6000fd5b505050506040513d601f19601f8201168201806040525081019061022f91906103cb565b63ffffffff16915091506000827bffffffffffffffffffffffffffffffffffffffffffffffffffffffff1690508082945094505050509091565b600160009054906101000a900473ffffffffffffffffffffffffffffffffffffffff1681565b60008054906101000a900473ffffffffffffffffffffffffffffffffffffffff1681565b6000819050919050565b6102c6816102b3565b82525050565b60006040820190506102e160008301856102bd565b6102ee60208301846102bd565b9392505050565b600073ffffffffffffffffffffffffffffffffffffffff82169050919050565b6000610320826102f5565b9050919050565b61033081610315565b82525050565b600060208201905061034b6000830184610327565b92915050565b600080fd5b600081601b0b9050919050565b61036c81610356565b811461037757600080fd5b50565b60008151905061038981610363565b92915050565b600063ffffffff82169050919050565b6103a88161038f565b81146103b357600080fd5b50565b6000815190506103c58161039f565b92915050565b600080604083850312156103e2576103e1610351565b5b60006103f08582860161037a565b9250506020610401858286016103b6565b915050925092905056fea2646970667358221220f4df463a7a6a85185d1c90fbea9cac42652428865bb112b824fc1446f1223a8b64736f6c63430008130033",
  "devdoc": {
    "kind": "dev",
    "methods": {},
    "version": 1
  },
  "userdoc": {
    "kind": "user",
    "methods": {},
    "version": 1
  },
  "storageLayout": {
    "storage": [
      {
        "astId": 6622,
        "contract": "contracts/PriceFeed.sol:PriceFeed",
        "label": "_EthToUsd",
        "offset": 0,
        "slot": "0",
        "type": "t_address"
      },
      {
        "astId": 6625,
        "contract": "contracts/PriceFeed.sol:PriceFeed",
        "label": "_InrToUsd",
        "offset": 0,
        "slot": "1",
        "type": "t_address"
      }
    ],
    "types": {
      "t_address": {
        "encoding": "inplace",
        "label": "address",
        "numberOfBytes": "20"
      }
    }
  }
}