{"abi":[{"type":"constructor","inputs":[{"name":"_priceFeedAddress","type":"address","internalType":"address"},{"name":"_priceFeedAddress2","type":"address","internalType":"address"}],"stateMutability":"nonpayable"},{"type":"function","name":"ETHtoUSD","inputs":[],"outputs":[{"name":"","type":"int256","internalType":"int256"}],"stateMutability":"view"},{"type":"function","name":"INRtoUSD","inputs":[],"outputs":[{"name":"","type":"int256","internalType":"int256"}],"stateMutability":"view"}],"bytecode":{"object":"0x608060405234801561001057600080fd5b506040516104b13803806104b18339818101604052810190610032919061011d565b816000806101000a81548173ffffffffffffffffffffffffffffffffffffffff021916908373ffffffffffffffffffffffffffffffffffffffff16021790555080600160006101000a81548173ffffffffffffffffffffffffffffffffffffffff021916908373ffffffffffffffffffffffffffffffffffffffff160217905550505061015d565b600080fd5b600073ffffffffffffffffffffffffffffffffffffffff82169050919050565b60006100ea826100bf565b9050919050565b6100fa816100df565b811461010557600080fd5b50565b600081519050610117816100f1565b92915050565b60008060408385031215610134576101336100ba565b5b600061014285828601610108565b925050602061015385828601610108565b9150509250929050565b6103458061016c6000396000f3fe608060405234801561001057600080fd5b50600436106100365760003560e01c80639bd713cf1461003b578063d279e00a14610059575b600080fd5b610043610077565b60405161005091906101d0565b60405180910390f35b610061610118565b60405161006e91906101d0565b60405180910390f35b600080600160009054906101000a900473ffffffffffffffffffffffffffffffffffffffff1673ffffffffffffffffffffffffffffffffffffffff1663feaf968c6040518163ffffffff1660e01b815260040160a060405180830381865afa1580156100e7573d6000803e3d6000fd5b505050506040513d601f19601f8201168201806040525081019061010b9190610294565b5050509150508091505090565b60008060008054906101000a900473ffffffffffffffffffffffffffffffffffffffff1673ffffffffffffffffffffffffffffffffffffffff1663feaf968c6040518163ffffffff1660e01b815260040160a060405180830381865afa158015610186573d6000803e3d6000fd5b505050506040513d601f19601f820116820180604052508101906101aa9190610294565b5050509150508091505090565b6000819050919050565b6101ca816101b7565b82525050565b60006020820190506101e560008301846101c1565b92915050565b600080fd5b600069ffffffffffffffffffff82169050919050565b61020f816101f0565b811461021a57600080fd5b50565b60008151905061022c81610206565b92915050565b61023b816101b7565b811461024657600080fd5b50565b60008151905061025881610232565b92915050565b6000819050919050565b6102718161025e565b811461027c57600080fd5b50565b60008151905061028e81610268565b92915050565b600080600080600060a086880312156102b0576102af6101eb565b5b60006102be8882890161021d565b95505060206102cf88828901610249565b94505060406102e08882890161027f565b93505060606102f18882890161027f565b92505060806103028882890161021d565b915050929550929590935056fea2646970667358221220705c55ff55f670525d74a2cba616d7960e12978e47d6792a61cddf1e4b51463564736f6c634300081a0033","linkReferences":{}},"methodIdentifiers":{"ETHtoUSD()":"9bd713cf","INRtoUSD()":"d279e00a"},"id":41}