{"abi":[{"type":"constructor","inputs":[{"name":"_priceFeedAddress","type":"address","internalType":"address"},{"name":"_priceFeedAddress2","type":"address","internalType":"address"}],"stateMutability":"nonpayable"},{"type":"function","name":"ETHtoUSD","inputs":[],"outputs":[{"name":"","type":"int256","internalType":"int256"}],"stateMutability":"view"},{"type":"function","name":"INRtoUSD","inputs":[],"outputs":[{"name":"","type":"int256","internalType":"int256"}],"stateMutability":"view"}],"bytecode":{"object":"0x608034608657601f6102aa38819003918201601f19168301916001600160401b03831184841017608b578084926040948552833981010312608657604b602060458360a1565b920160a1565b600080546001600160a01b039384166001600160a01b031991821617909155600180549290931691161790556040516101f590816100b58239f35b600080fd5b634e487b7160e01b600052604160045260246000fd5b51906001600160a01b038216820360865756fe608080604052600436101561001357600080fd5b60003560e01c9081639bd713cf146100cb575063d279e00a1461003557600080fd5b346100c65760003660031901126100c657600054604051633fabe5a360e21b81529060a090829060049082906001600160a01b03165afa80156100ba57602091600091610086575b50604051908152f35b6100a8915060a03d60a0116100b3575b6100a0818361013b565b81019061018a565b50505090503861007d565b503d610096565b6040513d6000823e3d90fd5b600080fd5b346100c65760003660031901126100c657600154633fabe5a360e21b825260a090829060049082906001600160a01b03165afa80156100ba576020916000916101175750604051908152f35b610130915060a03d60a0116100b3576100a0818361013b565b50505090508261007d565b90601f8019910116810190811067ffffffffffffffff82111761015d57604052565b634e487b7160e01b600052604160045260246000fd5b519069ffffffffffffffffffff821682036100c657565b908160a09103126100c65761019e81610173565b916020820151916040810151916101bc608060608401519301610173565b9056fea2646970667358221220edb2eba0fe78c7da59f1c9399b376cab1b58e84e23fc2468ff1678851f93e81564736f6c634300081a0033","linkReferences":{}},"methodIdentifiers":{"ETHtoUSD()":"9bd713cf","INRtoUSD()":"d279e00a"},"id":40}