{"abi":[{"type":"constructor","inputs":[],"stateMutability":"nonpayable"},{"type":"function","name":"DEFAULT_ADMIN_ROLE","inputs":[],"outputs":[{"name":"","type":"bytes32","internalType":"bytes32"}],"stateMutability":"view"},{"type":"function","name":"MINTER_ROLE","inputs":[],"outputs":[{"name":"","type":"bytes32","internalType":"bytes32"}],"stateMutability":"view"},{"type":"function","name":"MODERATOR_ROLE","inputs":[],"outputs":[{"name":"","type":"bytes32","internalType":"bytes32"}],"stateMutability":"view"},{"type":"function","name":"OWNER","inputs":[],"outputs":[{"name":"","type":"bytes32","internalType":"bytes32"}],"stateMutability":"view"},{"type":"function","name":"getRoleAdmin","inputs":[{"name":"role","type":"bytes32","internalType":"bytes32"}],"outputs":[{"name":"","type":"bytes32","internalType":"bytes32"}],"stateMutability":"view"},{"type":"function","name":"grantMinterRole","inputs":[{"name":"account","type":"address","internalType":"address"}],"outputs":[],"stateMutability":"nonpayable"},{"type":"function","name":"grantModeratorRole","inputs":[{"name":"account","type":"address","internalType":"address"}],"outputs":[],"stateMutability":"nonpayable"},{"type":"function","name":"grantRole","inputs":[{"name":"role","type":"bytes32","internalType":"bytes32"},{"name":"account","type":"address","internalType":"address"}],"outputs":[],"stateMutability":"nonpayable"},{"type":"function","name":"hasRole","inputs":[{"name":"role","type":"bytes32","internalType":"bytes32"},{"name":"account","type":"address","internalType":"address"}],"outputs":[{"name":"","type":"bool","internalType":"bool"}],"stateMutability":"view"},{"type":"function","name":"renounceRole","inputs":[{"name":"role","type":"bytes32","internalType":"bytes32"},{"name":"callerConfirmation","type":"address","internalType":"address"}],"outputs":[],"stateMutability":"nonpayable"},{"type":"function","name":"revokeRole","inputs":[{"name":"role","type":"bytes32","internalType":"bytes32"},{"name":"account","type":"address","internalType":"address"}],"outputs":[],"stateMutability":"nonpayable"},{"type":"function","name":"supportsInterface","inputs":[{"name":"interfaceId","type":"bytes4","internalType":"bytes4"}],"outputs":[{"name":"","type":"bool","internalType":"bool"}],"stateMutability":"view"},{"type":"event","name":"RoleAdminChanged","inputs":[{"name":"role","type":"bytes32","indexed":true,"internalType":"bytes32"},{"name":"previousAdminRole","type":"bytes32","indexed":true,"internalType":"bytes32"},{"name":"newAdminRole","type":"bytes32","indexed":true,"internalType":"bytes32"}],"anonymous":false},{"type":"event","name":"RoleGranted","inputs":[{"name":"role","type":"bytes32","indexed":true,"internalType":"bytes32"},{"name":"account","type":"address","indexed":true,"internalType":"address"},{"name":"sender","type":"address","indexed":true,"internalType":"address"}],"anonymous":false},{"type":"event","name":"RoleRevoked","inputs":[{"name":"role","type":"bytes32","indexed":true,"internalType":"bytes32"},{"name":"account","type":"address","indexed":true,"internalType":"address"},{"name":"sender","type":"address","indexed":true,"internalType":"address"}],"anonymous":false},{"type":"error","name":"AccessControlBadConfirmation","inputs":[]},{"type":"error","name":"AccessControlUnauthorizedAccount","inputs":[{"name":"account","type":"address","internalType":"address"},{"name":"neededRole","type":"bytes32","internalType":"bytes32"}]}],"bytecode":{"object":"0x60806040523461012457600080516020610b09833981519152600081815260208190527ff179aafcc4ff8137fca1ef3b9ec4d165f87016ba123e7973fba770bc55e240e48054600080516020610b4983398151915291829055909290917fbd79b86ffe0ab8e8776151514217cd7cacd52c909f66475c3af44e129f0b00ff9080a4600080516020610b29833981519152600081815260208190527f0781d7cac9c378efa22a7481e4d4d29704a680ddf504b3bc50b517700ee11e6d8054600080516020610b0983398151915291829055909290917fbd79b86ffe0ab8e8776151514217cd7cacd52c909f66475c3af44e129f0b00ff9080a461010033610129565b5061010a336101b5565b506101143361023b565b506040516107e790816102c28239f35b600080fd5b6001600160a01b0381166000908152600080516020610ae9833981519152602052604090205460ff166101af576001600160a01b03166000818152600080516020610ae983398151915260205260408120805460ff19166001179055339190600080516020610b4983398151915290600080516020610aa98339815191529080a4600190565b50600090565b6001600160a01b0381166000908152600080516020610b69833981519152602052604090205460ff166101af576001600160a01b03166000818152600080516020610b6983398151915260205260408120805460ff19166001179055339190600080516020610b0983398151915290600080516020610aa98339815191529080a4600190565b6001600160a01b0381166000908152600080516020610ac9833981519152602052604090205460ff166101af576001600160a01b03166000818152600080516020610ac983398151915260205260408120805460ff19166001179055339190600080516020610b2983398151915290600080516020610aa98339815191529080a460019056fe608080604052600436101561001357600080fd5b60003560e01c90816301ffc9a71461040057508063117803e3146103c5578063248a9ca3146103905780632f2ff15d1461035057806336568abe1461030a5780633dd1eb611461026c578063797669c91461023157806391d14854146101e4578063a217fddf146101c8578063aa232dc21461012a578063d5391393146100ef5763d547741f146100a357600080fd5b346100ea5760403660031901126100ea576100e86004356100c2610453565b906100e36100de82600052600060205260016040600020015490565b6104cb565b61070f565b005b600080fd5b346100ea5760003660031901126100ea5760206040517f9f2df0fed2c77648de5860a4cc508cd0818c85b8b8a1ab4ceeef8d981c8956a68152f35b346100ea5760203660031901126100ea576100e8610146610469565b336000908152600080516020610792833981519152602052604090205461016f9060ff1661047f565b7f71f3d55856e4058ed06ee057d79ada615f65cdf5f9ee88181b914225088f834f60009081526020527ff179aafcc4ff8137fca1ef3b9ec4d165f87016ba123e7973fba770bc55e240e4546101c3906104cb565b6105da565b346100ea5760003660031901126100ea57602060405160008152f35b346100ea5760403660031901126100ea576101fd610453565b600435600052600060205260406000209060018060a01b0316600052602052602060ff604060002054166040519015158152f35b346100ea5760003660031901126100ea5760206040517f71f3d55856e4058ed06ee057d79ada615f65cdf5f9ee88181b914225088f834f8152f35b346100ea5760203660031901126100ea576100e8610288610469565b33600090815260008051602061079283398151915260205260409020546102b19060ff1661047f565b7f9f2df0fed2c77648de5860a4cc508cd0818c85b8b8a1ab4ceeef8d981c8956a660009081526020527f0781d7cac9c378efa22a7481e4d4d29704a680ddf504b3bc50b517700ee11e6d54610305906104cb565b610506565b346100ea5760403660031901126100ea57610323610453565b336001600160a01b0382160361033f576100e89060043561070f565b63334bd91960e11b60005260046000fd5b346100ea5760403660031901126100ea576100e860043561036f610453565b9061038b6100de82600052600060205260016040600020015490565b610684565b346100ea5760203660031901126100ea5760206103bd600435600052600060205260016040600020015490565b604051908152f35b346100ea5760003660031901126100ea5760206040517f6270edb7c868f86fda4adedba75108201087268ea345934db8bad688e1feb91b8152f35b346100ea5760203660031901126100ea576004359063ffffffff60e01b82168092036100ea57602091637965db0b60e01b8114908115610442575b5015158152f35b6301ffc9a760e01b1490508361043b565b602435906001600160a01b03821682036100ea57565b600435906001600160a01b03821682036100ea57565b1561048657565b60405162461bcd60e51b815260206004820152601860248201527f4d7573742068617665204d4f44455241544f525f524f4c4500000000000000006044820152606490fd5b60008181526020818152604080832033845290915290205460ff16156104ee5750565b63e2517d3f60e01b6000523360045260245260446000fd5b6001600160a01b03811660009081527f0781d7cac9c378efa22a7481e4d4d29704a680ddf504b3bc50b517700ee11e6c602052604090205460ff166105d4576001600160a01b031660008181527f0781d7cac9c378efa22a7481e4d4d29704a680ddf504b3bc50b517700ee11e6c60205260408120805460ff191660011790553391907f9f2df0fed2c77648de5860a4cc508cd0818c85b8b8a1ab4ceeef8d981c8956a6907f2f8788117e7eff1d82e926ec794901d17c78024a50270940304540a733656f0d9080a4600190565b50600090565b6001600160a01b0381166000908152600080516020610792833981519152602052604090205460ff166105d4576001600160a01b0316600081815260008051602061079283398151915260205260408120805460ff191660011790553391907f71f3d55856e4058ed06ee057d79ada615f65cdf5f9ee88181b914225088f834f907f2f8788117e7eff1d82e926ec794901d17c78024a50270940304540a733656f0d9080a4600190565b6000818152602081815260408083206001600160a01b038616845290915290205460ff16610708576000818152602081815260408083206001600160a01b0395909516808452949091528120805460ff19166001179055339291907f2f8788117e7eff1d82e926ec794901d17c78024a50270940304540a733656f0d9080a4600190565b5050600090565b6000818152602081815260408083206001600160a01b038616845290915290205460ff1615610708576000818152602081815260408083206001600160a01b0395909516808452949091528120805460ff19169055339291907ff6391f5c32d9c69d2a47ea670b442974b53935d1edc7fd64eb21e047a839171b9080a460019056fef179aafcc4ff8137fca1ef3b9ec4d165f87016ba123e7973fba770bc55e240e3a264697066735822122093b428f55d67cbdbce4ef5320c598004fb7f639523b4eecc29f36f4bab40533c64736f6c634300081a00332f8788117e7eff1d82e926ec794901d17c78024a50270940304540a733656f0d0781d7cac9c378efa22a7481e4d4d29704a680ddf504b3bc50b517700ee11e6c1299b6a38f4cd1a4aadffdac39262d30244a01098753e138ed68abcfd87ee48171f3d55856e4058ed06ee057d79ada615f65cdf5f9ee88181b914225088f834f9f2df0fed2c77648de5860a4cc508cd0818c85b8b8a1ab4ceeef8d981c8956a66270edb7c868f86fda4adedba75108201087268ea345934db8bad688e1feb91bf179aafcc4ff8137fca1ef3b9ec4d165f87016ba123e7973fba770bc55e240e3","linkReferences":{}},"methodIdentifiers":{"DEFAULT_ADMIN_ROLE()":"a217fddf","MINTER_ROLE()":"d5391393","MODERATOR_ROLE()":"797669c9","OWNER()":"117803e3","getRoleAdmin(bytes32)":"248a9ca3","grantMinterRole(address)":"3dd1eb61","grantModeratorRole(address)":"aa232dc2","grantRole(bytes32,address)":"2f2ff15d","hasRole(bytes32,address)":"91d14854","renounceRole(bytes32,address)":"36568abe","revokeRole(bytes32,address)":"d547741f","supportsInterface(bytes4)":"01ffc9a7"},"id":43}