{"abi":[{"type":"constructor","inputs":[{"name":"_CIP","type":"uint256","internalType":"uint256"},{"name":"_BASE_RISK_RATE","type":"uint256","internalType":"uint256"},{"name":"_RISK_PREMIUM_RATE","type":"uint256","internalType":"uint256"},{"name":"_indai","type":"address","internalType":"address"},{"name":"_priceContract","type":"address","internalType":"address"}],"stateMutability":"nonpayable"},{"type":"function","name":"BASE_RISK_RATE","inputs":[],"outputs":[{"name":"","type":"uint256","internalType":"uint256"}],"stateMutability":"view"},{"type":"function","name":"CIP","inputs":[],"outputs":[{"name":"","type":"uint256","internalType":"uint256"}],"stateMutability":"view"},{"type":"function","name":"DEFAULT_ADMIN_ROLE","inputs":[],"outputs":[{"name":"","type":"bytes32","internalType":"bytes32"}],"stateMutability":"view"},{"type":"function","name":"MODERATOR_ROLE","inputs":[],"outputs":[{"name":"","type":"bytes32","internalType":"bytes32"}],"stateMutability":"view"},{"type":"function","name":"RISK_PREMIUM_RATE","inputs":[],"outputs":[{"name":"","type":"uint256","internalType":"uint256"}],"stateMutability":"view"},{"type":"function","name":"amountInrToEth","inputs":[{"name":"amountINR","type":"uint256","internalType":"uint256"}],"outputs":[{"name":"","type":"uint256","internalType":"uint256"}],"stateMutability":"view"},{"type":"function","name":"burnIndaiAndRelieveCollateral","inputs":[{"name":"amount","type":"uint256","internalType":"uint256"}],"outputs":[],"stateMutability":"nonpayable"},{"type":"function","name":"calculateMaxMintableDai","inputs":[{"name":"user","type":"address","internalType":"address"}],"outputs":[{"name":"max","type":"uint256","internalType":"uint256"}],"stateMutability":"view"},{"type":"function","name":"calculateMaxWithdrawableCollateral","inputs":[{"name":"user","type":"address","internalType":"address"}],"outputs":[{"name":"","type":"uint256","internalType":"uint256"}],"stateMutability":"view"},{"type":"function","name":"calculateVaultHealth","inputs":[{"name":"_user","type":"address","internalType":"address"}],"outputs":[{"name":"","type":"uint256","internalType":"uint256"}],"stateMutability":"nonpayable"},{"type":"function","name":"createOrUpdateVault","inputs":[],"outputs":[],"stateMutability":"payable"},{"type":"function","name":"getBASE_RISK_RATE","inputs":[],"outputs":[{"name":"","type":"uint256","internalType":"uint256"}],"stateMutability":"view"},{"type":"function","name":"getCIP","inputs":[],"outputs":[{"name":"","type":"uint256","internalType":"uint256"}],"stateMutability":"view"},{"type":"function","name":"getCurrentVaultId","inputs":[],"outputs":[{"name":"","type":"uint256","internalType":"uint256"}],"stateMutability":"view"},{"type":"function","name":"getRISK_PREMIUM_RATE","inputs":[],"outputs":[{"name":"","type":"uint256","internalType":"uint256"}],"stateMutability":"view"},{"type":"function","name":"getRoleAdmin","inputs":[{"name":"role","type":"bytes32","internalType":"bytes32"}],"outputs":[{"name":"","type":"bytes32","internalType":"bytes32"}],"stateMutability":"view"},{"type":"function","name":"getTotalCollateralPrice","inputs":[],"outputs":[{"name":"","type":"int256","internalType":"int256"}],"stateMutability":"view"},{"type":"function","name":"getTotalVaultDetails","inputs":[],"outputs":[{"name":"","type":"tuple[]","internalType":"struct CollateralSafekeep.vault[]","components":[{"name":"vaultId","type":"uint256","internalType":"uint256"},{"name":"userAddress","type":"address","internalType":"address"},{"name":"balance","type":"uint256","internalType":"uint256"},{"name":"balanceInINR","type":"uint256","internalType":"uint256"},{"name":"indaiIssued","type":"uint256","internalType":"uint256"},{"name":"vaultHealth","type":"uint256","internalType":"uint256"}]}],"stateMutability":"view"},{"type":"function","name":"getUserCollateralBalance","inputs":[{"name":"_address","type":"address","internalType":"address"}],"outputs":[{"name":"","type":"uint256","internalType":"uint256"}],"stateMutability":"view"},{"type":"function","name":"grantModeratorRole","inputs":[{"name":"account","type":"address","internalType":"address"}],"outputs":[],"stateMutability":"nonpayable"},{"type":"function","name":"grantRole","inputs":[{"name":"role","type":"bytes32","internalType":"bytes32"},{"name":"account","type":"address","internalType":"address"}],"outputs":[],"stateMutability":"nonpayable"},{"type":"function","name":"hasRole","inputs":[{"name":"role","type":"bytes32","internalType":"bytes32"},{"name":"account","type":"address","internalType":"address"}],"outputs":[{"name":"","type":"bool","internalType":"bool"}],"stateMutability":"view"},{"type":"function","name":"liquidateVault","inputs":[{"name":"_vaultAddress","type":"address","internalType":"address"}],"outputs":[],"stateMutability":"nonpayable"},{"type":"function","name":"mintIndai","inputs":[{"name":"amount","type":"uint256","internalType":"uint256"}],"outputs":[{"name":"","type":"uint256","internalType":"uint256"}],"stateMutability":"nonpayable"},{"type":"function","name":"renounceRole","inputs":[{"name":"role","type":"bytes32","internalType":"bytes32"},{"name":"callerConfirmation","type":"address","internalType":"address"}],"outputs":[],"stateMutability":"nonpayable"},{"type":"function","name":"revokeRole","inputs":[{"name":"role","type":"bytes32","internalType":"bytes32"},{"name":"account","type":"address","internalType":"address"}],"outputs":[],"stateMutability":"nonpayable"},{"type":"function","name":"supportsInterface","inputs":[{"name":"interfaceId","type":"bytes4","internalType":"bytes4"}],"outputs":[{"name":"","type":"bool","internalType":"bool"}],"stateMutability":"view"},{"type":"function","name":"userBalanceInInr","inputs":[{"name":"_address","type":"address","internalType":"address"}],"outputs":[{"name":"","type":"uint256","internalType":"uint256"}],"stateMutability":"view"},{"type":"function","name":"userIndexes","inputs":[{"name":"","type":"address","internalType":"address"}],"outputs":[{"name":"","type":"uint256","internalType":"uint256"}],"stateMutability":"view"},{"type":"function","name":"vaultDetailsForTheUser","inputs":[],"outputs":[{"name":"","type":"tuple","internalType":"struct CollateralSafekeep.vault","components":[{"name":"vaultId","type":"uint256","internalType":"uint256"},{"name":"userAddress","type":"address","internalType":"address"},{"name":"balance","type":"uint256","internalType":"uint256"},{"name":"balanceInINR","type":"uint256","internalType":"uint256"},{"name":"indaiIssued","type":"uint256","internalType":"uint256"},{"name":"vaultHealth","type":"uint256","internalType":"uint256"}]}],"stateMutability":"view"},{"type":"function","name":"withdrawFromVault","inputs":[{"name":"amount","type":"uint256","internalType":"uint256"}],"outputs":[],"stateMutability":"payable"},{"type":"event","name":"RoleAdminChanged","inputs":[{"name":"role","type":"bytes32","indexed":true,"internalType":"bytes32"},{"name":"previousAdminRole","type":"bytes32","indexed":true,"internalType":"bytes32"},{"name":"newAdminRole","type":"bytes32","indexed":true,"internalType":"bytes32"}],"anonymous":false},{"type":"event","name":"RoleGranted","inputs":[{"name":"role","type":"bytes32","indexed":true,"internalType":"bytes32"},{"name":"account","type":"address","indexed":true,"internalType":"address"},{"name":"sender","type":"address","indexed":true,"internalType":"address"}],"anonymous":false},{"type":"event","name":"RoleRevoked","inputs":[{"name":"role","type":"bytes32","indexed":true,"internalType":"bytes32"},{"name":"account","type":"address","indexed":true,"internalType":"address"},{"name":"sender","type":"address","indexed":true,"internalType":"address"}],"anonymous":false},{"type":"event","name":"thisIsARiskyVault","inputs":[{"name":"vaultId","type":"uint256","indexed":false,"internalType":"uint256"},{"name":"userAddress","type":"address","indexed":false,"internalType":"address"},{"name":"balance","type":"uint256","indexed":false,"internalType":"uint256"},{"name":"balanceInINR","type":"uint256","indexed":false,"internalType":"uint256"},{"name":"indaiIssued","type":"uint256","indexed":false,"internalType":"uint256"},{"name":"vaultHealth","type":"uint256","indexed":false,"internalType":"uint256"}],"anonymous":false},{"type":"error","name":"AccessControlBadConfirmation","inputs":[]},{"type":"error","name":"AccessControlUnauthorizedAccount","inputs":[{"name":"account","type":"address","internalType":"address"},{"name":"neededRole","type":"bytes32","internalType":"bytes32"}]},{"type":"error","name":"collateralSafekeep__userInDebt","inputs":[]},{"type":"error","name":"upkeepNotNeeded","inputs":[]}],"bytecode":{"object":"0x60e0604052346101d257604051601f611ce338819003918201601f19168301916001600160401b038311848410176101bc5780849260a0946040528339810103126101d257805160208201519060408301519261006a6080610063606084016101d7565b92016101d7565b906001600555610079336101eb565b50600280546001600160a01b039283166001600160a01b031991821617909155600380549390921692169190911790554260015560805260a05260c09081526040519081018181106001600160401b038211176101bc576040526000815260208101600081526040820160008152606083016000815260808401906000825260a08501926000845260065494680100000000000000008610156101bc5760018601806006558610156101a65760059560066000526006602060002091020196518755600187019060018060a01b0390511660018060a01b031982541617905551600286015551600385015551600484015551910155604051611a27908161029c8239608051818181610bcf0152818161107a01526114b5015260a051816110b5015260c0518161103f0152f35b634e487b7160e01b600052603260045260246000fd5b634e487b7160e01b600052604160045260246000fd5b600080fd5b51906001600160a01b03821682036101d257565b6001600160a01b0381166000908152600080516020611cc3833981519152602052604090205460ff16610295576001600160a01b03166000818152600080516020611cc383398151915260205260408120805460ff191660011790553391907f71f3d55856e4058ed06ee057d79ada615f65cdf5f9ee88181b914225088f834f907f2f8788117e7eff1d82e926ec794901d17c78024a50270940304540a733656f0d9080a4600190565b5060009056fe608080604052600436101561001357600080fd5b6000803560e01c91826301ffc9a714610f9f57508163076d081514610da5578163078e065d14610d3d57816316b7265714610b7f578163194d749414610b30578163248a9ca314610b035781632f2ff15d14610ac3578163310e84b514610a1f57816336568abe14610a7f57816346a1567a14610a29578163501c3a3c14610a2457816374cf45f814610a245781637649aef114610a1f578163797669c9146109f7578163839159fb1461017657816391d14854146109ad5781639c97c12d146109575781639dc1b45b14610908578163a217fddf146108ed578163aa232dc214610875578163ab84541314610801578163ae0b163f146107b2578163b603540f1461077a578163b9ebc0b414610673578163bb82813214610464578163c48589cb1461030c578163c6db1f16146102b6578163d46009221461021f578163d547741f146101d6578163d6805bc71461017b575063fb5989a61461017657600080fd5b61109d565b346101d35760203660031901126101d3576000805160206119d283398151915281526020818152604091829020336000908152915220546101be9060ff166111aa565b60206101cb6004356118e2565b604051908152f35b80fd5b346101d35760403660031901126101d35761021b6004356101f5611011565b9061021661021182600052600060205260016040600020015490565b6116de565b611860565b5080f35b346101d357806003193601126101d35761026e610268604060c093610242611296565b5033815260076020526102598282205415156110d8565b33815260076020522054611139565b506112da565b6102b4604051809260a0809180518452600180831b0360208201511660208501526040810151604085015260608101516060850152608081015160808501520151910152565bf35b346101d35760203660031901126101d3576101cb60209160406102d7610ff6565b6000805160206119d28339815191528352828552912033600090815290845260409020546103079060ff166111aa565b6113f8565b346101d357806003193601126101d3576000805160206119d2833981519152815260208181526040808320336000908152925290205461034e9060ff166111aa565b60065467ffffffffffffffff81116104505760405161037360208360051b0182611267565b818152600683526020810191837ff652222313e28459528d920b65115c16c04f3efc82aaedc97be59f3f377c0d3f845b83831061043257868587604051928392602084019060208552518091526040840192915b8181106103d5575050500390f35b91935091602060c082610424600194885160a0809180518452600180831b0360208201511660208501526040810151604085015260608101516060850152608081015160808501520151910152565b0194019101918493926103c7565b60066020600192610442856112da565b8152019201920191906103a3565b634e487b7160e01b82526041600452602482fd5b806003193601126101d357341561062457338152600760205260408120546105bf5761048e611296565b906040820134815260208301903382526005548452608084018381526104b334611560565b916064830292808404606414901517156105ab5760a086019283526104d734611560565b906060870191825260065468010000000000000000811015610597578060016105039201600655611139565b959095610583576005959697518755600187019060018060a01b039051166bffffffffffffffffffffffff60a01b8254161790555160028601555160038501555160048401555191015560055433825260076020528060408320556001810180911161056f5760055580f35b634e487b7160e01b82526011600452602482fd5b634e487b7160e01b87526004879052602487fd5b634e487b7160e01b87526041600452602487fd5b634e487b7160e01b85526011600452602485fd5b338152600760205260026105d66040832054611139565b50016105e3348254611289565b9055338152600760205261060760026105ff6040842054611139565b500154611560565b3382526007602052600361061e6040842054611139565b50015580f35b60405162461bcd60e51b815260206004820152602160248201527f45544820616d6f756e74206d7573742062652067726561746572207468616e206044820152600360fc1b6064820152608490fd5b346101d35760203660031901126101d357600435338252600760205261069e604083205415156110d8565b338252600760205260046106b56040842054611139565b5001541561076b5733825260076020528060046106d56040852054611139565b5001541061076b5760025482906001600160a01b0316803b1561076b5760405163079cc67960e41b8152336004820152602481018490529082908290604490829084905af1801561076f57610756575b5050338252600760205261074b60046107416040852054611139565b5001918254611187565b905561021b33611349565b8161076091611267565b61076b578183610725565b5080fd5b6040513d84823e3d90fd5b346101d35760203660031901126101d3576020906040906001600160a01b036107a1610ff6565b168152600783522054604051908152f35b346101d357806003193601126101d3576000805160206119d283398151915281526020818152604091829020336000908152915220546107f49060ff166111aa565b6020600554604051908152f35b346101d35760203660031901126101d357600261086a6040602093610824610ff6565b6000805160206119d28339815191528252818652828220336000908152908752839020546108549060ff166111aa565b6001600160a01b03168152600785522054611139565b500154604051908152f35b346101d35760203660031901126101d35761021b610891610ff6565b6000805160206119d283398151915283526020838152604080852033600090815292529020546108c39060ff166111aa565b6000805160206119d28339815191528352826020526108e860016040852001546116de565b611719565b346101d357806003193601126101d357602090604051908152f35b346101d357806003193601126101d3576000805160206119d2833981519152815260208181526040918290203360009081529152205461094a9060ff166111aa565b6020600454604051908152f35b346101d35760203660031901126101d3576101cb6020916040610978610ff6565b6000805160206119d28339815191528352828552912033600090815290845260409020546109a89060ff166111aa565b611349565b346101d35760403660031901126101d35760406109c8611011565b91600435815280602052209060018060a01b0316600052602052602060ff604060002054166040519015158152f35b346101d357806003193601126101d35760206040516000805160206119d28339815191528152f35b611027565b611062565b346101d35760203660031901126101d3576101cb6020916040610a4a610ff6565b6000805160206119d2833981519152835282855291203360009081529084526040902054610a7a9060ff166111aa565b611653565b346101d35760403660031901126101d357610a98611011565b336001600160a01b03821603610ab45761021b90600435611860565b63334bd91960e11b8252600482fd5b346101d35760403660031901126101d35761021b600435610ae2611011565b90610afe61021182600052600060205260016040600020015490565b6117d5565b346101d35760203660031901126101d35760206101cb600435600052600060205260016040600020015490565b346101d35760203660031901126101d357610b49610ff6565b506000805160206119d28339815191528152602081815260408083203360009081529252902054610b7c9060ff166111aa565b80f35b346101d35760203660031901126101d3576004353382526007602052610baa604083205415156110d8565b8015610d03573382526007602052610bf46005610bca6040852054611139565b5001547f0000000000000000000000000000000000000000000000000000000000000000106111f6565b610bfd33611653565b9081811015610cbf576002546001600160a01b031692833b156101d3576040516340c10f1960e01b8152336004820152602481018390529381908590604490829084905af1938415610cb257602094610ca2575b509033825260078452610c766004610c6c6040852054611139565b5001918254611289565b90556005610c976040610c8833611349565b93338152600787522054611139565b500155604051908152f35b81610cac91611267565b84610c51565b50604051903d90823e3d90fd5b606460405162461bcd60e51b815260206004820152602060248201527f656e74657220616d6f756e74206c657373207468616e204349502063726f73736044820152fd5b60405162461bcd60e51b8152602060048201526012602482015271195b9d195c881d985b1a5908185b5bdd5b9d60721b6044820152606490fd5b346101d35760203660031901126101d3576101cb60026105ff6040602094610d63610ff6565b6000805160206119d28339815191528252818752828220338352875282822054610d8f9060ff166111aa565b6001600160a01b03168152600786522054611139565b60203660031901126101d3576004353382526007602052610dcb604083205415156110d8565b8015610f49573382526007602052806002610de96040852054611139565b50015410610f04576096610dfc33611349565b1115610ecc57610e0b336113f8565b8111610e8e5781808080843382f115610cb2573382526007602052610e3860026107416040852054611139565b90553381526007602052610e5460026105ff6040842054611139565b33825260076020526003610e6b6040842054611139565b500155610e7733611349565b3382526007602052600561061e6040842054611139565b60405162461bcd60e51b8152602060048201526016602482015275796f752077696c6c20676f20696e746f20646562742160501b6044820152606490fd5b60405162461bcd60e51b815260206004820152601060248201526f436c65617220796f757220646562742160801b6044820152606490fd5b60405162461bcd60e51b815260206004820152601d60248201527f696e73756666696369656e742062616c616e636520696e207661756c740000006044820152606490fd5b60405162461bcd60e51b815260206004820152602860248201527f576974686472617720616d6f756e742073686f756c6420626520677265617465604482015267072207468616e20360c41b6064820152608490fd5b3461076b57602036600319011261076b5760043563ffffffff60e01b8116809103610ff25760209250637965db0b60e01b8114908115610fe1575b5015158152f35b6301ffc9a760e01b14905083610fda565b8280fd5b600435906001600160a01b038216820361100c57565b600080fd5b602435906001600160a01b038216820361100c57565b3461100c57600036600319011261100c5760206040517f00000000000000000000000000000000000000000000000000000000000000008152f35b3461100c57600036600319011261100c5760206040517f00000000000000000000000000000000000000000000000000000000000000008152f35b3461100c57600036600319011261100c5760206040517f00000000000000000000000000000000000000000000000000000000000000008152f35b156110df57565b60405162461bcd60e51b815260206004820152602c60248201527f596f7520646f6e7420686176652061205661756c742c2063726561746520612060448201526b7661756c742066697273742160a01b6064820152608490fd5b600654811015611171576006600081815291027ff652222313e28459528d920b65115c16c04f3efc82aaedc97be59f3f377c0d3f0191565b634e487b7160e01b600052603260045260246000fd5b9190820391821161119457565b634e487b7160e01b600052601160045260246000fd5b156111b157565b60405162461bcd60e51b815260206004820152601860248201527f4d7573742068617665204d4f44455241544f525f524f4c4500000000000000006044820152606490fd5b156111fd57565b60405162461bcd60e51b815260206004820152601060248201526f796f752061726520696e20646562742160801b6044820152606490fd5b60c0810190811067ffffffffffffffff82111761125157604052565b634e487b7160e01b600052604160045260246000fd5b90601f8019910116810190811067ffffffffffffffff82111761125157604052565b9190820180921161119457565b604051906112a382611235565b600060a0838281528260208201528260408201528260608201528260808201520152565b8181029291811591840414171561119457565b906040516112e781611235565b8254815260018301546001600160a01b0316602082015260028301546040820152600383015460608201526004830154608082015260059092015460a0830152565b8115611333570490565b634e487b7160e01b600052601260045260246000fd5b6001600160a01b031660008181526007602052604090205460039061136d90611139565b5001548160005260076020526004611389604060002054611139565b500154806113a857506064808202925081159183041417156111945790565b6305f5e10081029081046305f5e10003611194576113c591611329565b906064820291808304606414901517156111945760005260076020528060056113f2604060002054611139565b50015590565b6001600160a01b031660008181526007602052604090205460039061141c90611139565b500154908060005260076020526004611439604060002054611139565b500154908060005260076020526004611456604060002054611139565b5001546305f5e1008102908082046305f5e10014901517156111945761149890826000526007602052600361148f604060002054611139565b500154116111f6565b600052600760205260056114b0604060002054611139565b5001547f0000000000000000000000000000000000000000000000000000000000000000101561152957806114ec57506114e9906118e2565b90565b600381029081046003036111945760011c906305f5e1008202918083046305f5e1001490151715611194576114e99161152491611187565b6118e2565b60405162461bcd60e51b815260206004820152600f60248201526e1e5bdd48185c99481a5b881919589d608a1b6044820152606490fd5b600354604051639bd713cf60e01b81526001600160a01b0390911691602082600481865afa9182156116105760009261161c575b5060206004936040519485809263693cf00560e11b82525afa928315611610576000936115da575b50916115d16115d6926402540be400946112c7565b611329565b0490565b92506020833d602011611608575b816115f560209383611267565b8101031261100c579151916115d16115bc565b3d91506115e8565b6040513d6000823e3d90fd5b9291506020833d60201161164b575b8161163860209383611267565b8101031261100c57915190916020611594565b3d915061162b565b60018060a01b031680600052600760205260966005611676604060002054611139565b500154106116d85780600052600760205261169a60026105ff604060002054611139565b90600052600760205260046116b3604060002054611139565b5001548160011b9180830460021490151715611194576311e1a3006114e99204611187565b50600090565b60008181526020818152604080832033845290915290205460ff16156117015750565b63e2517d3f60e01b6000523360045260245260446000fd5b6001600160a01b03811660009081527ff179aafcc4ff8137fca1ef3b9ec4d165f87016ba123e7973fba770bc55e240e3602052604090205460ff166116d8576001600160a01b031660008181527ff179aafcc4ff8137fca1ef3b9ec4d165f87016ba123e7973fba770bc55e240e360205260408120805460ff191660011790553391906000805160206119d2833981519152907f2f8788117e7eff1d82e926ec794901d17c78024a50270940304540a733656f0d9080a4600190565b6000818152602081815260408083206001600160a01b038616845290915290205460ff16611859576000818152602081815260408083206001600160a01b0395909516808452949091528120805460ff19166001179055339291907f2f8788117e7eff1d82e926ec794901d17c78024a50270940304540a733656f0d9080a4600190565b5050600090565b6000818152602081815260408083206001600160a01b038616845290915290205460ff1615611859576000818152602081815260408083206001600160a01b0395909516808452949091528120805460ff19169055339291907ff6391f5c32d9c69d2a47ea670b442974b53935d1edc7fd64eb21e047a839171b9080a4600190565b600354604051639bd713cf60e01b8152906001600160a01b0316602082600481845afa9182156116105760009261199c575b5060206004916040519283809263693cf00560e11b82525afa90811561161057600091611968575b5061194a926115d1916112c7565b6402540be4008102908082046402540be40014901517156111945790565b90506020813d602011611994575b8161198360209383611267565b8101031261100c575161194a61193c565b3d9150611976565b9091506020813d6020116119c9575b816119b860209383611267565b8101031261100c5751906020611914565b3d91506119ab56fe71f3d55856e4058ed06ee057d79ada615f65cdf5f9ee88181b914225088f834fa26469706673582212206ea825497bd6d0ebea1d425c214a90a45abee093cfae2195e43bff1a68b4c52864736f6c634300081a0033f179aafcc4ff8137fca1ef3b9ec4d165f87016ba123e7973fba770bc55e240e3","linkReferences":{}},"methodIdentifiers":{"BASE_RISK_RATE()":"839159fb","CIP()":"74cf45f8","DEFAULT_ADMIN_ROLE()":"a217fddf","MODERATOR_ROLE()":"797669c9","RISK_PREMIUM_RATE()":"310e84b5","amountInrToEth(uint256)":"d6805bc7","burnIndaiAndRelieveCollateral(uint256)":"b9ebc0b4","calculateMaxMintableDai(address)":"46a1567a","calculateMaxWithdrawableCollateral(address)":"c6db1f16","calculateVaultHealth(address)":"9c97c12d","createOrUpdateVault()":"bb828132","getBASE_RISK_RATE()":"fb5989a6","getCIP()":"501c3a3c","getCurrentVaultId()":"ae0b163f","getRISK_PREMIUM_RATE()":"7649aef1","getRoleAdmin(bytes32)":"248a9ca3","getTotalCollateralPrice()":"9dc1b45b","getTotalVaultDetails()":"c48589cb","getUserCollateralBalance(address)":"ab845413","grantModeratorRole(address)":"aa232dc2","grantRole(bytes32,address)":"2f2ff15d","hasRole(bytes32,address)":"91d14854","liquidateVault(address)":"194d7494","mintIndai(uint256)":"16b72657","renounceRole(bytes32,address)":"36568abe","revokeRole(bytes32,address)":"d547741f","supportsInterface(bytes4)":"01ffc9a7","userBalanceInInr(address)":"078e065d","userIndexes(address)":"b603540f","vaultDetailsForTheUser()":"d4600922","withdrawFromVault(uint256)":"076d0815"},"id":38}