{"abi":[{"type":"constructor","inputs":[{"name":"_CIP","type":"uint256","internalType":"uint256"},{"name":"_BASE_RISK_RATE","type":"uint256","internalType":"uint256"},{"name":"_RISK_PREMIUM_RATE","type":"uint256","internalType":"uint256"},{"name":"_indai","type":"address","internalType":"address"},{"name":"_priceContract","type":"address","internalType":"address"}],"stateMutability":"nonpayable"},{"type":"function","name":"ADMIN_ROLE","inputs":[],"outputs":[{"name":"","type":"bytes32","internalType":"bytes32"}],"stateMutability":"view"},{"type":"function","name":"BASE_RISK_RATE","inputs":[],"outputs":[{"name":"","type":"uint256","internalType":"uint256"}],"stateMutability":"view"},{"type":"function","name":"CIP","inputs":[],"outputs":[{"name":"","type":"uint256","internalType":"uint256"}],"stateMutability":"view"},{"type":"function","name":"DEFAULT_ADMIN_ROLE","inputs":[],"outputs":[{"name":"","type":"bytes32","internalType":"bytes32"}],"stateMutability":"view"},{"type":"function","name":"MODERATOR_ROLE","inputs":[],"outputs":[{"name":"","type":"bytes32","internalType":"bytes32"}],"stateMutability":"view"},{"type":"function","name":"RISK_PREMIUM_RATE","inputs":[],"outputs":[{"name":"","type":"uint256","internalType":"uint256"}],"stateMutability":"view"},{"type":"function","name":"amountInrToEth","inputs":[{"name":"amountINR","type":"uint256","internalType":"uint256"}],"outputs":[{"name":"","type":"uint256","internalType":"uint256"}],"stateMutability":"view"},{"type":"function","name":"burnIndaiAndRelieveCollateral","inputs":[{"name":"amount","type":"uint256","internalType":"uint256"}],"outputs":[],"stateMutability":"nonpayable"},{"type":"function","name":"calculateMaxMintableDai","inputs":[{"name":"user","type":"address","internalType":"address"}],"outputs":[{"name":"max","type":"uint256","internalType":"uint256"}],"stateMutability":"view"},{"type":"function","name":"calculateMaxWithdrawableCollateral","inputs":[{"name":"user","type":"address","internalType":"address"}],"outputs":[{"name":"","type":"uint256","internalType":"uint256"}],"stateMutability":"view"},{"type":"function","name":"calculateVaultHealth","inputs":[{"name":"_user","type":"address","internalType":"address"}],"outputs":[{"name":"","type":"uint256","internalType":"uint256"}],"stateMutability":"nonpayable"},{"type":"function","name":"createOrUpdateVault","inputs":[],"outputs":[],"stateMutability":"payable"},{"type":"function","name":"getBASE_RISK_RATE","inputs":[],"outputs":[{"name":"","type":"uint256","internalType":"uint256"}],"stateMutability":"view"},{"type":"function","name":"getCIP","inputs":[],"outputs":[{"name":"","type":"uint256","internalType":"uint256"}],"stateMutability":"view"},{"type":"function","name":"getCurrentVaultId","inputs":[],"outputs":[{"name":"","type":"uint256","internalType":"uint256"}],"stateMutability":"view"},{"type":"function","name":"getRISK_PREMIUM_RATE","inputs":[],"outputs":[{"name":"","type":"uint256","internalType":"uint256"}],"stateMutability":"view"},{"type":"function","name":"getRoleAdmin","inputs":[{"name":"role","type":"bytes32","internalType":"bytes32"}],"outputs":[{"name":"","type":"bytes32","internalType":"bytes32"}],"stateMutability":"view"},{"type":"function","name":"getTotalCollateralPrice","inputs":[],"outputs":[{"name":"","type":"int256","internalType":"int256"}],"stateMutability":"view"},{"type":"function","name":"getTotalVaultDetails","inputs":[],"outputs":[{"name":"","type":"tuple[]","internalType":"struct CollateralSafekeep.vault[]","components":[{"name":"vaultId","type":"uint256","internalType":"uint256"},{"name":"userAddress","type":"address","internalType":"address"},{"name":"balance","type":"uint256","internalType":"uint256"},{"name":"balanceInINR","type":"uint256","internalType":"uint256"},{"name":"indaiIssued","type":"uint256","internalType":"uint256"},{"name":"vaultHealth","type":"uint256","internalType":"uint256"}]}],"stateMutability":"view"},{"type":"function","name":"getUserCollateralBalance","inputs":[{"name":"_address","type":"address","internalType":"address"}],"outputs":[{"name":"","type":"uint256","internalType":"uint256"}],"stateMutability":"view"},{"type":"function","name":"grantModeratorRole","inputs":[{"name":"account","type":"address","internalType":"address"}],"outputs":[],"stateMutability":"nonpayable"},{"type":"function","name":"grantRole","inputs":[{"name":"role","type":"bytes32","internalType":"bytes32"},{"name":"account","type":"address","internalType":"address"}],"outputs":[],"stateMutability":"nonpayable"},{"type":"function","name":"hasRole","inputs":[{"name":"role","type":"bytes32","internalType":"bytes32"},{"name":"account","type":"address","internalType":"address"}],"outputs":[{"name":"","type":"bool","internalType":"bool"}],"stateMutability":"view"},{"type":"function","name":"liquidateVault","inputs":[{"name":"_vaultAddress","type":"address","internalType":"address"}],"outputs":[],"stateMutability":"nonpayable"},{"type":"function","name":"mintIndai","inputs":[{"name":"amount","type":"uint256","internalType":"uint256"}],"outputs":[{"name":"","type":"uint256","internalType":"uint256"}],"stateMutability":"nonpayable"},{"type":"function","name":"renounceRole","inputs":[{"name":"role","type":"bytes32","internalType":"bytes32"},{"name":"callerConfirmation","type":"address","internalType":"address"}],"outputs":[],"stateMutability":"nonpayable"},{"type":"function","name":"revokeRole","inputs":[{"name":"role","type":"bytes32","internalType":"bytes32"},{"name":"account","type":"address","internalType":"address"}],"outputs":[],"stateMutability":"nonpayable"},{"type":"function","name":"supportsInterface","inputs":[{"name":"interfaceId","type":"bytes4","internalType":"bytes4"}],"outputs":[{"name":"","type":"bool","internalType":"bool"}],"stateMutability":"view"},{"type":"function","name":"userBalanceInInr","inputs":[{"name":"_address","type":"address","internalType":"address"}],"outputs":[{"name":"","type":"uint256","internalType":"uint256"}],"stateMutability":"view"},{"type":"function","name":"userIndexes","inputs":[{"name":"","type":"address","internalType":"address"}],"outputs":[{"name":"","type":"uint256","internalType":"uint256"}],"stateMutability":"view"},{"type":"function","name":"vaultDetailsForTheUser","inputs":[],"outputs":[{"name":"","type":"tuple","internalType":"struct CollateralSafekeep.vault","components":[{"name":"vaultId","type":"uint256","internalType":"uint256"},{"name":"userAddress","type":"address","internalType":"address"},{"name":"balance","type":"uint256","internalType":"uint256"},{"name":"balanceInINR","type":"uint256","internalType":"uint256"},{"name":"indaiIssued","type":"uint256","internalType":"uint256"},{"name":"vaultHealth","type":"uint256","internalType":"uint256"}]}],"stateMutability":"view"},{"type":"function","name":"withdrawFromVault","inputs":[{"name":"amount","type":"uint256","internalType":"uint256"}],"outputs":[],"stateMutability":"payable"},{"type":"event","name":"RoleAdminChanged","inputs":[{"name":"role","type":"bytes32","indexed":true,"internalType":"bytes32"},{"name":"previousAdminRole","type":"bytes32","indexed":true,"internalType":"bytes32"},{"name":"newAdminRole","type":"bytes32","indexed":true,"internalType":"bytes32"}],"anonymous":false},{"type":"event","name":"RoleGranted","inputs":[{"name":"role","type":"bytes32","indexed":true,"internalType":"bytes32"},{"name":"account","type":"address","indexed":true,"internalType":"address"},{"name":"sender","type":"address","indexed":true,"internalType":"address"}],"anonymous":false},{"type":"event","name":"RoleRevoked","inputs":[{"name":"role","type":"bytes32","indexed":true,"internalType":"bytes32"},{"name":"account","type":"address","indexed":true,"internalType":"address"},{"name":"sender","type":"address","indexed":true,"internalType":"address"}],"anonymous":false},{"type":"event","name":"thisIsARiskyVault","inputs":[{"name":"vaultId","type":"uint256","indexed":false,"internalType":"uint256"},{"name":"userAddress","type":"address","indexed":false,"internalType":"address"},{"name":"balance","type":"uint256","indexed":false,"internalType":"uint256"},{"name":"balanceInINR","type":"uint256","indexed":false,"internalType":"uint256"},{"name":"indaiIssued","type":"uint256","indexed":false,"internalType":"uint256"},{"name":"vaultHealth","type":"uint256","indexed":false,"internalType":"uint256"}],"anonymous":false},{"type":"error","name":"AccessControlBadConfirmation","inputs":[]},{"type":"error","name":"AccessControlUnauthorizedAccount","inputs":[{"name":"account","type":"address","internalType":"address"},{"name":"neededRole","type":"bytes32","internalType":"bytes32"}]},{"type":"error","name":"collateralSafekeep__userInDebt","inputs":[]},{"type":"error","name":"upkeepNotNeeded","inputs":[]}],"bytecode":{"object":"0x60e0604052346101dc57604051601f611df838819003918201601f19168301916001600160401b038311848410176101c65780849260a0946040528339810103126101dc57805160208201519060408301519261006a6080610063606084016101e1565b92016101e1565b906001600555610079336101f5565b5061008333610293565b50600280546001600160a01b039283166001600160a01b031991821617909155600380549390921692169190911790554260015560805260a05260c09081526040519081018181106001600160401b038211176101c6576040526000815260208101600081526040820160008152606083016000815260808401906000825260a08501926000845260065494680100000000000000008610156101c65760018601806006558610156101b05760059560066000526006602060002091020196518755600187019060018060a01b0390511660018060a01b031982541617905551600286015551600385015551600484015551910155604051611a6c908161032c8239608051818181610c14015281816110bf01526114fa015260a051816110fa015260c051816110840152f35b634e487b7160e01b600052603260045260246000fd5b634e487b7160e01b600052604160045260246000fd5b600080fd5b51906001600160a01b03821682036101dc57565b6001600160a01b0381166000908152600080516020611db8833981519152602052604090205460ff1661028d576001600160a01b03166000818152600080516020611db883398151915260205260408120805460ff191660011790553391907fa49807205ce4d355092ef5a8a18f56e8913cf4a201fbe287825b095693c2177590600080516020611d988339815191529080a4600190565b50600090565b6001600160a01b0381166000908152600080516020611dd8833981519152602052604090205460ff1661028d576001600160a01b03166000818152600080516020611dd883398151915260205260408120805460ff191660011790553391907f71f3d55856e4058ed06ee057d79ada615f65cdf5f9ee88181b914225088f834f90600080516020611d988339815191529080a460019056fe608080604052600436101561001357600080fd5b6000803560e01c91826301ffc9a714610fe457508163076d081514610dea578163078e065d14610d8257816316b7265714610bc4578163194d749414610b75578163248a9ca314610b485781632f2ff15d14610b08578163310e84b514610a2a57816336568abe14610ac457816346a1567a14610a6e578163501c3a3c14610a6957816374cf45f814610a6957816375b238fc14610a2f5781637649aef114610a2a578163797669c914610a02578163839159fb1461018157816391d14854146109b85781639c97c12d146109625781639dc1b45b14610913578163a217fddf146108f8578163aa232dc214610880578163ab8454131461080c578163ae0b163f146107bd578163b603540f14610785578163b9ebc0b41461067e578163bb8281321461046f578163c48589cb14610317578163c6db1f16146102c1578163d46009221461022a578163d547741f146101e1578163d6805bc714610186575063fb5989a61461018157600080fd5b6110e2565b346101de5760203660031901126101de57600080516020611a1783398151915281526020818152604091829020336000908152915220546101c99060ff166111ef565b60206101d6600435611927565b604051908152f35b80fd5b346101de5760403660031901126101de57610226600435610200611056565b9061022161021c82600052600060205260016040600020015490565b611723565b6118a5565b5080f35b346101de57806003193601126101de57610279610273604060c09361024d6112db565b50338152600760205261026482822054151561111d565b3381526007602052205461117e565b5061131f565b6102bf604051809260a0809180518452600180831b0360208201511660208501526040810151604085015260608101516060850152608081015160808501520151910152565bf35b346101de5760203660031901126101de576101d660209160406102e261103b565b600080516020611a178339815191528352828552912033600090815290845260409020546103129060ff166111ef565b61143d565b346101de57806003193601126101de57600080516020611a1783398151915281526020818152604080832033600090815292529020546103599060ff166111ef565b60065467ffffffffffffffff811161045b5760405161037e60208360051b01826112ac565b818152600683526020810191837ff652222313e28459528d920b65115c16c04f3efc82aaedc97be59f3f377c0d3f845b83831061043d57868587604051928392602084019060208552518091526040840192915b8181106103e0575050500390f35b91935091602060c08261042f600194885160a0809180518452600180831b0360208201511660208501526040810151604085015260608101516060850152608081015160808501520151910152565b0194019101918493926103d2565b6006602060019261044d8561131f565b8152019201920191906103ae565b634e487b7160e01b82526041600452602482fd5b806003193601126101de57341561062f57338152600760205260408120546105ca576104996112db565b906040820134815260208301903382526005548452608084018381526104be346115a5565b916064830292808404606414901517156105b65760a086019283526104e2346115a5565b9060608701918252600654680100000000000000008110156105a25780600161050e920160065561117e565b95909561058e576005959697518755600187019060018060a01b039051166bffffffffffffffffffffffff60a01b8254161790555160028601555160038501555160048401555191015560055433825260076020528060408320556001810180911161057a5760055580f35b634e487b7160e01b82526011600452602482fd5b634e487b7160e01b87526004879052602487fd5b634e487b7160e01b87526041600452602487fd5b634e487b7160e01b85526011600452602485fd5b338152600760205260026105e1604083205461117e565b50016105ee3482546112ce565b90553381526007602052610612600261060a604084205461117e565b5001546115a5565b33825260076020526003610629604084205461117e565b50015580f35b60405162461bcd60e51b815260206004820152602160248201527f45544820616d6f756e74206d7573742062652067726561746572207468616e206044820152600360fc1b6064820152608490fd5b346101de5760203660031901126101de5760043533825260076020526106a96040832054151561111d565b338252600760205260046106c0604084205461117e565b500154156107765733825260076020528060046106e0604085205461117e565b500154106107765760025482906001600160a01b0316803b156107765760405163079cc67960e41b8152336004820152602481018490529082908290604490829084905af1801561077a57610761575b50503382526007602052610756600461074c604085205461117e565b50019182546111cc565b90556102263361138e565b8161076b916112ac565b610776578183610730565b5080fd5b6040513d84823e3d90fd5b346101de5760203660031901126101de576020906040906001600160a01b036107ac61103b565b168152600783522054604051908152f35b346101de57806003193601126101de57600080516020611a1783398151915281526020818152604091829020336000908152915220546107ff9060ff166111ef565b6020600554604051908152f35b346101de5760203660031901126101de576002610875604060209361082f61103b565b600080516020611a1783398151915282528186528282203360009081529087528390205461085f9060ff166111ef565b6001600160a01b0316815260078552205461117e565b500154604051908152f35b346101de5760203660031901126101de5761022661089c61103b565b600080516020611a1783398151915283526020838152604080852033600090815292529020546108ce9060ff166111ef565b600080516020611a178339815191528352826020526108f36001604085200154611723565b61175e565b346101de57806003193601126101de57602090604051908152f35b346101de57806003193601126101de57600080516020611a1783398151915281526020818152604091829020336000908152915220546109559060ff166111ef565b6020600454604051908152f35b346101de5760203660031901126101de576101d6602091604061098361103b565b600080516020611a178339815191528352828552912033600090815290845260409020546109b39060ff166111ef565b61138e565b346101de5760403660031901126101de5760406109d3611056565b91600435815280602052209060018060a01b0316600052602052602060ff604060002054166040519015158152f35b346101de57806003193601126101de576020604051600080516020611a178339815191528152f35b61106c565b346101de57806003193601126101de5760206040517fa49807205ce4d355092ef5a8a18f56e8913cf4a201fbe287825b095693c217758152f35b6110a7565b346101de5760203660031901126101de576101d66020916040610a8f61103b565b600080516020611a17833981519152835282855291203360009081529084526040902054610abf9060ff166111ef565b611698565b346101de5760403660031901126101de57610add611056565b336001600160a01b03821603610af957610226906004356118a5565b63334bd91960e11b8252600482fd5b346101de5760403660031901126101de57610226600435610b27611056565b90610b4361021c82600052600060205260016040600020015490565b61181a565b346101de5760203660031901126101de5760206101d6600435600052600060205260016040600020015490565b346101de5760203660031901126101de57610b8e61103b565b50600080516020611a178339815191528152602081815260408083203360009081529252902054610bc19060ff166111ef565b80f35b346101de5760203660031901126101de576004353382526007602052610bef6040832054151561111d565b8015610d48573382526007602052610c396005610c0f604085205461117e565b5001547f00000000000000000000000000000000000000000000000000000000000000001061123b565b610c4233611698565b9081811015610d04576002546001600160a01b031692833b156101de576040516340c10f1960e01b8152336004820152602481018390529381908590604490829084905af1938415610cf757602094610ce7575b509033825260078452610cbb6004610cb1604085205461117e565b50019182546112ce565b90556005610cdc6040610ccd3361138e565b9333815260078752205461117e565b500155604051908152f35b81610cf1916112ac565b84610c96565b50604051903d90823e3d90fd5b606460405162461bcd60e51b815260206004820152602060248201527f656e74657220616d6f756e74206c657373207468616e204349502063726f73736044820152fd5b60405162461bcd60e51b8152602060048201526012602482015271195b9d195c881d985b1a5908185b5bdd5b9d60721b6044820152606490fd5b346101de5760203660031901126101de576101d6600261060a6040602094610da861103b565b600080516020611a178339815191528252818752828220338352875282822054610dd49060ff166111ef565b6001600160a01b0316815260078652205461117e565b60203660031901126101de576004353382526007602052610e106040832054151561111d565b8015610f8e573382526007602052806002610e2e604085205461117e565b50015410610f49576096610e413361138e565b1115610f1157610e503361143d565b8111610ed35781808080843382f115610cf7573382526007602052610e7d600261074c604085205461117e565b90553381526007602052610e99600261060a604084205461117e565b33825260076020526003610eb0604084205461117e565b500155610ebc3361138e565b33825260076020526005610629604084205461117e565b60405162461bcd60e51b8152602060048201526016602482015275796f752077696c6c20676f20696e746f20646562742160501b6044820152606490fd5b60405162461bcd60e51b815260206004820152601060248201526f436c65617220796f757220646562742160801b6044820152606490fd5b60405162461bcd60e51b815260206004820152601d60248201527f696e73756666696369656e742062616c616e636520696e207661756c740000006044820152606490fd5b60405162461bcd60e51b815260206004820152602860248201527f576974686472617720616d6f756e742073686f756c6420626520677265617465604482015267072207468616e20360c41b6064820152608490fd5b346107765760203660031901126107765760043563ffffffff60e01b81168091036110375760209250637965db0b60e01b8114908115611026575b5015158152f35b6301ffc9a760e01b1490508361101f565b8280fd5b600435906001600160a01b038216820361105157565b600080fd5b602435906001600160a01b038216820361105157565b346110515760003660031901126110515760206040517f00000000000000000000000000000000000000000000000000000000000000008152f35b346110515760003660031901126110515760206040517f00000000000000000000000000000000000000000000000000000000000000008152f35b346110515760003660031901126110515760206040517f00000000000000000000000000000000000000000000000000000000000000008152f35b1561112457565b60405162461bcd60e51b815260206004820152602c60248201527f596f7520646f6e7420686176652061205661756c742c2063726561746520612060448201526b7661756c742066697273742160a01b6064820152608490fd5b6006548110156111b6576006600081815291027ff652222313e28459528d920b65115c16c04f3efc82aaedc97be59f3f377c0d3f0191565b634e487b7160e01b600052603260045260246000fd5b919082039182116111d957565b634e487b7160e01b600052601160045260246000fd5b156111f657565b60405162461bcd60e51b815260206004820152601860248201527f4d7573742068617665204d4f44455241544f525f524f4c4500000000000000006044820152606490fd5b1561124257565b60405162461bcd60e51b815260206004820152601060248201526f796f752061726520696e20646562742160801b6044820152606490fd5b60c0810190811067ffffffffffffffff82111761129657604052565b634e487b7160e01b600052604160045260246000fd5b90601f8019910116810190811067ffffffffffffffff82111761129657604052565b919082018092116111d957565b604051906112e88261127a565b600060a0838281528260208201528260408201528260608201528260808201520152565b818102929181159184041417156111d957565b9060405161132c8161127a565b8254815260018301546001600160a01b0316602082015260028301546040820152600383015460608201526004830154608082015260059092015460a0830152565b8115611378570490565b634e487b7160e01b600052601260045260246000fd5b6001600160a01b03166000818152600760205260409020546003906113b29061117e565b50015481600052600760205260046113ce60406000205461117e565b500154806113ed57506064808202925081159183041417156111d95790565b6305f5e10081029081046305f5e100036111d95761140a9161136e565b906064820291808304606414901517156111d957600052600760205280600561143760406000205461117e565b50015590565b6001600160a01b03166000818152600760205260409020546003906114619061117e565b50015490806000526007602052600461147e60406000205461117e565b50015490806000526007602052600461149b60406000205461117e565b5001546305f5e1008102908082046305f5e10014901517156111d9576114dd9082600052600760205260036114d460406000205461117e565b5001541161123b565b600052600760205260056114f560406000205461117e565b5001547f0000000000000000000000000000000000000000000000000000000000000000101561156e5780611531575061152e90611927565b90565b600381029081046003036111d95760011c906305f5e1008202918083046305f5e10014901517156111d95761152e91611569916111cc565b611927565b60405162461bcd60e51b815260206004820152600f60248201526e1e5bdd48185c99481a5b881919589d608a1b6044820152606490fd5b600354604051639bd713cf60e01b81526001600160a01b0390911691602082600481865afa91821561165557600092611661575b5060206004936040519485809263693cf00560e11b82525afa9283156116555760009361161f575b509161161661161b926402540be4009461130c565b61136e565b0490565b92506020833d60201161164d575b8161163a602093836112ac565b8101031261105157915191611616611601565b3d915061162d565b6040513d6000823e3d90fd5b9291506020833d602011611690575b8161167d602093836112ac565b81010312611051579151909160206115d9565b3d9150611670565b60018060a01b0316806000526007602052609660056116bb60406000205461117e565b5001541061171d578060005260076020526116df600261060a60406000205461117e565b90600052600760205260046116f860406000205461117e565b5001548160011b91808304600214901517156111d9576311e1a30061152e92046111cc565b50600090565b60008181526020818152604080832033845290915290205460ff16156117465750565b63e2517d3f60e01b6000523360045260245260446000fd5b6001600160a01b03811660009081527ff179aafcc4ff8137fca1ef3b9ec4d165f87016ba123e7973fba770bc55e240e3602052604090205460ff1661171d576001600160a01b031660008181527ff179aafcc4ff8137fca1ef3b9ec4d165f87016ba123e7973fba770bc55e240e360205260408120805460ff19166001179055339190600080516020611a17833981519152907f2f8788117e7eff1d82e926ec794901d17c78024a50270940304540a733656f0d9080a4600190565b6000818152602081815260408083206001600160a01b038616845290915290205460ff1661189e576000818152602081815260408083206001600160a01b0395909516808452949091528120805460ff19166001179055339291907f2f8788117e7eff1d82e926ec794901d17c78024a50270940304540a733656f0d9080a4600190565b5050600090565b6000818152602081815260408083206001600160a01b038616845290915290205460ff161561189e576000818152602081815260408083206001600160a01b0395909516808452949091528120805460ff19169055339291907ff6391f5c32d9c69d2a47ea670b442974b53935d1edc7fd64eb21e047a839171b9080a4600190565b600354604051639bd713cf60e01b8152906001600160a01b0316602082600481845afa918215611655576000926119e1575b5060206004916040519283809263693cf00560e11b82525afa908115611655576000916119ad575b5061198f926116169161130c565b6402540be4008102908082046402540be40014901517156111d95790565b90506020813d6020116119d9575b816119c8602093836112ac565b81010312611051575161198f611981565b3d91506119bb565b9091506020813d602011611a0e575b816119fd602093836112ac565b810103126110515751906020611959565b3d91506119f056fe71f3d55856e4058ed06ee057d79ada615f65cdf5f9ee88181b914225088f834fa26469706673582212206ce950aeea3973eec3ce0e688d1e6a55eb85aab1c3e3c65a3b2ed371a0a4469564736f6c634300081a00332f8788117e7eff1d82e926ec794901d17c78024a50270940304540a733656f0d7d7ffb7a348e1c6a02869081a26547b49160dd3df72d1d75a570eb9b698292ecf179aafcc4ff8137fca1ef3b9ec4d165f87016ba123e7973fba770bc55e240e3","linkReferences":{}},"methodIdentifiers":{"ADMIN_ROLE()":"75b238fc","BASE_RISK_RATE()":"839159fb","CIP()":"74cf45f8","DEFAULT_ADMIN_ROLE()":"a217fddf","MODERATOR_ROLE()":"797669c9","RISK_PREMIUM_RATE()":"310e84b5","amountInrToEth(uint256)":"d6805bc7","burnIndaiAndRelieveCollateral(uint256)":"b9ebc0b4","calculateMaxMintableDai(address)":"46a1567a","calculateMaxWithdrawableCollateral(address)":"c6db1f16","calculateVaultHealth(address)":"9c97c12d","createOrUpdateVault()":"bb828132","getBASE_RISK_RATE()":"fb5989a6","getCIP()":"501c3a3c","getCurrentVaultId()":"ae0b163f","getRISK_PREMIUM_RATE()":"7649aef1","getRoleAdmin(bytes32)":"248a9ca3","getTotalCollateralPrice()":"9dc1b45b","getTotalVaultDetails()":"c48589cb","getUserCollateralBalance(address)":"ab845413","grantModeratorRole(address)":"aa232dc2","grantRole(bytes32,address)":"2f2ff15d","hasRole(bytes32,address)":"91d14854","liquidateVault(address)":"194d7494","mintIndai(uint256)":"16b72657","renounceRole(bytes32,address)":"36568abe","revokeRole(bytes32,address)":"d547741f","supportsInterface(bytes4)":"01ffc9a7","userBalanceInInr(address)":"078e065d","userIndexes(address)":"b603540f","vaultDetailsForTheUser()":"d4600922","withdrawFromVault(uint256)":"076d0815"},"id":38}