{"abi":[{"type":"constructor","inputs":[{"name":"_CIP","type":"uint256","internalType":"uint256"},{"name":"_BASE_RISK_RATE","type":"uint256","internalType":"uint256"},{"name":"_RISK_PREMIUM_RATE","type":"uint256","internalType":"uint256"},{"name":"_indai","type":"address","internalType":"address"},{"name":"_priceContract","type":"address","internalType":"address"}],"stateMutability":"nonpayable"},{"type":"function","name":"ADMIN_ROLE","inputs":[],"outputs":[{"name":"","type":"bytes32","internalType":"bytes32"}],"stateMutability":"view"},{"type":"function","name":"BASE_RISK_RATE","inputs":[],"outputs":[{"name":"","type":"uint256","internalType":"uint256"}],"stateMutability":"view"},{"type":"function","name":"CIP","inputs":[],"outputs":[{"name":"","type":"uint256","internalType":"uint256"}],"stateMutability":"view"},{"type":"function","name":"DEFAULT_ADMIN_ROLE","inputs":[],"outputs":[{"name":"","type":"bytes32","internalType":"bytes32"}],"stateMutability":"view"},{"type":"function","name":"MODERATOR_ROLE","inputs":[],"outputs":[{"name":"","type":"bytes32","internalType":"bytes32"}],"stateMutability":"view"},{"type":"function","name":"RISK_PREMIUM_RATE","inputs":[],"outputs":[{"name":"","type":"uint256","internalType":"uint256"}],"stateMutability":"view"},{"type":"function","name":"amountInrToEth","inputs":[{"name":"amountINR","type":"uint256","internalType":"uint256"}],"outputs":[{"name":"","type":"uint256","internalType":"uint256"}],"stateMutability":"view"},{"type":"function","name":"burnIndaiAndRelieveCollateral","inputs":[{"name":"amount","type":"uint256","internalType":"uint256"}],"outputs":[],"stateMutability":"nonpayable"},{"type":"function","name":"calculateMaxMintableDai","inputs":[{"name":"user","type":"address","internalType":"address"}],"outputs":[{"name":"max","type":"uint256","internalType":"uint256"}],"stateMutability":"view"},{"type":"function","name":"calculateMaxWithdrawableCollateral","inputs":[{"name":"user","type":"address","internalType":"address"}],"outputs":[{"name":"","type":"uint256","internalType":"uint256"}],"stateMutability":"view"},{"type":"function","name":"calculateVaultHealth","inputs":[{"name":"_user","type":"address","internalType":"address"}],"outputs":[{"name":"","type":"uint256","internalType":"uint256"}],"stateMutability":"nonpayable"},{"type":"function","name":"createVault","inputs":[],"outputs":[],"stateMutability":"payable"},{"type":"function","name":"getBASE_RISK_RATE","inputs":[],"outputs":[{"name":"","type":"uint256","internalType":"uint256"}],"stateMutability":"view"},{"type":"function","name":"getCIP","inputs":[],"outputs":[{"name":"","type":"uint256","internalType":"uint256"}],"stateMutability":"view"},{"type":"function","name":"getCurrentVaultId","inputs":[],"outputs":[{"name":"","type":"uint256","internalType":"uint256"}],"stateMutability":"view"},{"type":"function","name":"getRISK_PREMIUM_RATE","inputs":[],"outputs":[{"name":"","type":"uint256","internalType":"uint256"}],"stateMutability":"view"},{"type":"function","name":"getRoleAdmin","inputs":[{"name":"role","type":"bytes32","internalType":"bytes32"}],"outputs":[{"name":"","type":"bytes32","internalType":"bytes32"}],"stateMutability":"view"},{"type":"function","name":"getTotalCollateralPrice","inputs":[],"outputs":[{"name":"","type":"int256","internalType":"int256"}],"stateMutability":"view"},{"type":"function","name":"getTotalVaultDetails","inputs":[],"outputs":[{"name":"","type":"tuple[]","internalType":"struct CollateralSafekeep.vault[]","components":[{"name":"vaultId","type":"uint256","internalType":"uint256"},{"name":"userAddress","type":"address","internalType":"address"},{"name":"balance","type":"uint256","internalType":"uint256"},{"name":"balanceInINR","type":"uint256","internalType":"uint256"},{"name":"indaiIssued","type":"uint256","internalType":"uint256"},{"name":"vaultHealth","type":"uint256","internalType":"uint256"}]}],"stateMutability":"view"},{"type":"function","name":"getUserCollateralBalance","inputs":[{"name":"_address","type":"address","internalType":"address"}],"outputs":[{"name":"","type":"uint256","internalType":"uint256"}],"stateMutability":"view"},{"type":"function","name":"grantModeratorRole","inputs":[{"name":"account","type":"address","internalType":"address"}],"outputs":[],"stateMutability":"nonpayable"},{"type":"function","name":"grantRole","inputs":[{"name":"role","type":"bytes32","internalType":"bytes32"},{"name":"account","type":"address","internalType":"address"}],"outputs":[],"stateMutability":"nonpayable"},{"type":"function","name":"hasRole","inputs":[{"name":"role","type":"bytes32","internalType":"bytes32"},{"name":"account","type":"address","internalType":"address"}],"outputs":[{"name":"","type":"bool","internalType":"bool"}],"stateMutability":"view"},{"type":"function","name":"liquidateVault","inputs":[{"name":"_vaultAddress","type":"address","internalType":"address"}],"outputs":[],"stateMutability":"nonpayable"},{"type":"function","name":"mintIndai","inputs":[{"name":"amount","type":"uint256","internalType":"uint256"}],"outputs":[{"name":"","type":"uint256","internalType":"uint256"}],"stateMutability":"nonpayable"},{"type":"function","name":"renounceRole","inputs":[{"name":"role","type":"bytes32","internalType":"bytes32"},{"name":"callerConfirmation","type":"address","internalType":"address"}],"outputs":[],"stateMutability":"nonpayable"},{"type":"function","name":"revokeRole","inputs":[{"name":"role","type":"bytes32","internalType":"bytes32"},{"name":"account","type":"address","internalType":"address"}],"outputs":[],"stateMutability":"nonpayable"},{"type":"function","name":"supportsInterface","inputs":[{"name":"interfaceId","type":"bytes4","internalType":"bytes4"}],"outputs":[{"name":"","type":"bool","internalType":"bool"}],"stateMutability":"view"},{"type":"function","name":"updateVault","inputs":[],"outputs":[],"stateMutability":"payable"},{"type":"function","name":"userBalanceInInr","inputs":[{"name":"_address","type":"address","internalType":"address"}],"outputs":[{"name":"","type":"uint256","internalType":"uint256"}],"stateMutability":"view"},{"type":"function","name":"userIndexes","inputs":[{"name":"","type":"address","internalType":"address"}],"outputs":[{"name":"","type":"uint256","internalType":"uint256"}],"stateMutability":"view"},{"type":"function","name":"vaultDetailsForTheUser","inputs":[],"outputs":[{"name":"","type":"tuple","internalType":"struct CollateralSafekeep.vault","components":[{"name":"vaultId","type":"uint256","internalType":"uint256"},{"name":"userAddress","type":"address","internalType":"address"},{"name":"balance","type":"uint256","internalType":"uint256"},{"name":"balanceInINR","type":"uint256","internalType":"uint256"},{"name":"indaiIssued","type":"uint256","internalType":"uint256"},{"name":"vaultHealth","type":"uint256","internalType":"uint256"}]}],"stateMutability":"view"},{"type":"function","name":"withdrawFromVault","inputs":[{"name":"amount","type":"uint256","internalType":"uint256"}],"outputs":[],"stateMutability":"payable"},{"type":"event","name":"RoleAdminChanged","inputs":[{"name":"role","type":"bytes32","indexed":true,"internalType":"bytes32"},{"name":"previousAdminRole","type":"bytes32","indexed":true,"internalType":"bytes32"},{"name":"newAdminRole","type":"bytes32","indexed":true,"internalType":"bytes32"}],"anonymous":false},{"type":"event","name":"RoleGranted","inputs":[{"name":"role","type":"bytes32","indexed":true,"internalType":"bytes32"},{"name":"account","type":"address","indexed":true,"internalType":"address"},{"name":"sender","type":"address","indexed":true,"internalType":"address"}],"anonymous":false},{"type":"event","name":"RoleRevoked","inputs":[{"name":"role","type":"bytes32","indexed":true,"internalType":"bytes32"},{"name":"account","type":"address","indexed":true,"internalType":"address"},{"name":"sender","type":"address","indexed":true,"internalType":"address"}],"anonymous":false},{"type":"event","name":"thisIsARiskyVault","inputs":[{"name":"vaultId","type":"uint256","indexed":false,"internalType":"uint256"},{"name":"userAddress","type":"address","indexed":false,"internalType":"address"},{"name":"balance","type":"uint256","indexed":false,"internalType":"uint256"},{"name":"balanceInINR","type":"uint256","indexed":false,"internalType":"uint256"},{"name":"indaiIssued","type":"uint256","indexed":false,"internalType":"uint256"},{"name":"vaultHealth","type":"uint256","indexed":false,"internalType":"uint256"}],"anonymous":false},{"type":"error","name":"AccessControlBadConfirmation","inputs":[]},{"type":"error","name":"AccessControlUnauthorizedAccount","inputs":[{"name":"account","type":"address","internalType":"address"},{"name":"neededRole","type":"bytes32","internalType":"bytes32"}]},{"type":"error","name":"collateralSafekeep__userInDebt","inputs":[]},{"type":"error","name":"upkeepNotNeeded","inputs":[]}],"bytecode":{"object":"0x60e060405234801561001057600080fd5b5060405161407638038061407683398181016040528101906100329190610444565b600160058190555061006a7fa49807205ce4d355092ef5a8a18f56e8913cf4a201fbe287825b095693c217753361023c60201b60201c565b5061009b7f71f3d55856e4058ed06ee057d79ada615f65cdf5f9ee88181b914225088f834f3361023c60201b60201c565b5081600260006101000a81548173ffffffffffffffffffffffffffffffffffffffff021916908373ffffffffffffffffffffffffffffffffffffffff16021790555080600360006101000a81548173ffffffffffffffffffffffffffffffffffffffff021916908373ffffffffffffffffffffffffffffffffffffffff1602179055504260018190555084608081815250508360a081815250508260c0818152505060006040518060c0016040528060008152602001600073ffffffffffffffffffffffffffffffffffffffff1681526020016000815260200160008152602001600081526020016000815250905060068190806001815401808255809150506001900390600052602060002090600602016000909190919091506000820151816000015560208201518160010160006101000a81548173ffffffffffffffffffffffffffffffffffffffff021916908373ffffffffffffffffffffffffffffffffffffffff16021790555060408201518160020155606082015181600301556080820151816004015560a0820151816005015550505050505050506104bf565b600061024e838361033960201b60201c565b61032e57600160008085815260200190815260200160002060000160008473ffffffffffffffffffffffffffffffffffffffff1673ffffffffffffffffffffffffffffffffffffffff16815260200190815260200160002060006101000a81548160ff0219169083151502179055506102cb6103a360201b60201c565b73ffffffffffffffffffffffffffffffffffffffff168273ffffffffffffffffffffffffffffffffffffffff16847f2f8788117e7eff1d82e926ec794901d17c78024a50270940304540a733656f0d60405160405180910390a460019050610333565b600090505b92915050565b600080600084815260200190815260200160002060000160008373ffffffffffffffffffffffffffffffffffffffff1673ffffffffffffffffffffffffffffffffffffffff16815260200190815260200160002060009054906101000a900460ff16905092915050565b600033905090565b600080fd5b6000819050919050565b6103c3816103b0565b81146103ce57600080fd5b50565b6000815190506103e0816103ba565b92915050565b600073ffffffffffffffffffffffffffffffffffffffff82169050919050565b6000610411826103e6565b9050919050565b61042181610406565b811461042c57600080fd5b50565b60008151905061043e81610418565b92915050565b600080600080600060a086880312156104605761045f6103ab565b5b600061046e888289016103d1565b955050602061047f888289016103d1565b9450506040610490888289016103d1565b93505060606104a18882890161042f565b92505060806104b28882890161042f565b9150509295509295909350565b60805160a05160c051613b656105116000396000818161116701526117650152600081816117af0152612198015260008181610e21015281816112830152818161171b01526125a50152613b656000f3fe6080604052600436106101ee5760003560e01c8063797669c91161010d578063ae0b163f116100a0578063c6db1f161161006f578063c6db1f16146106ee578063d46009221461072b578063d547741f14610756578063d6805bc71461077f578063fb5989a6146107bc576101ee565b8063ae0b163f14610632578063b603540f1461065d578063b9ebc0b41461069a578063c48589cb146106c3576101ee565b80639dc1b45b116100dc5780639dc1b45b14610576578063a217fddf146105a1578063aa232dc2146105cc578063ab845413146105f5576101ee565b8063797669c9146104a6578063839159fb146104d157806391d14854146104fc5780639c97c12d14610539576101ee565b806336568abe116101855780637196e841116101545780637196e8411461041b57806374cf45f81461042557806375b238fc146104505780637649aef11461047b576101ee565b806336568abe1461038057806346a1567a146103a9578063501c3a3c146103e65780635d12928b14610411576101ee565b8063194d7494116101c1578063194d7494146102c6578063248a9ca3146102ef5780632f2ff15d1461032c578063310e84b514610355576101ee565b806301ffc9a7146101f3578063076d081514610230578063078e065d1461024c57806316b7265714610289575b600080fd5b3480156101ff57600080fd5b5061021a60048036038101906102159190612e6c565b6107e7565b6040516102279190612eb4565b60405180910390f35b61024a60048036038101906102459190612f05565b610861565b005b34801561025857600080fd5b50610273600480360381019061026e9190612f90565b610c74565b6040516102809190612fcc565b60405180910390f35b34801561029557600080fd5b506102b060048036038101906102ab9190612f05565b610d59565b6040516102bd9190612fcc565b60405180910390f35b3480156102d257600080fd5b506102ed60048036038101906102e89190612f90565b6110b8565b005b3480156102fb57600080fd5b506103166004803603810190610311919061301d565b611124565b6040516103239190613059565b60405180910390f35b34801561033857600080fd5b50610353600480360381019061034e9190613074565b611143565b005b34801561036157600080fd5b5061036a611165565b6040516103779190612fcc565b60405180910390f35b34801561038c57600080fd5b506103a760048036038101906103a29190613074565b611189565b005b3480156103b557600080fd5b506103d060048036038101906103cb9190612f90565b611204565b6040516103dd9190612fcc565b60405180910390f35b3480156103f257600080fd5b506103fb61127f565b6040516104089190612fcc565b60405180910390f35b6104196112a7565b005b610423611502565b005b34801561043157600080fd5b5061043a611719565b6040516104479190612fcc565b60405180910390f35b34801561045c57600080fd5b5061046561173d565b6040516104729190613059565b60405180910390f35b34801561048757600080fd5b50610490611761565b60405161049d9190612fcc565b60405180910390f35b3480156104b257600080fd5b506104bb611789565b6040516104c89190613059565b60405180910390f35b3480156104dd57600080fd5b506104e66117ad565b6040516104f39190612fcc565b60405180910390f35b34801561050857600080fd5b50610523600480360381019061051e9190613074565b6117d1565b6040516105309190612eb4565b60405180910390f35b34801561054557600080fd5b50610560600480360381019061055b9190612f90565b61183b565b60405161056d9190612fcc565b60405180910390f35b34801561058257600080fd5b5061058b6118bc565b60405161059891906130cd565b60405180910390f35b3480156105ad57600080fd5b506105b661192f565b6040516105c39190613059565b60405180910390f35b3480156105d857600080fd5b506105f360048036038101906105ee9190612f90565b611936565b005b34801561060157600080fd5b5061061c60048036038101906106179190612f90565b6119cc565b6040516106299190612fcc565b60405180910390f35b34801561063e57600080fd5b50610647611aa3565b6040516106549190612fcc565b60405180910390f35b34801561066957600080fd5b50610684600480360381019061067f9190612f90565b611b16565b6040516106919190612fcc565b60405180910390f35b3480156106a657600080fd5b506106c160048036038101906106bc9190612f05565b611b2e565b005b3480156106cf57600080fd5b506106d8611da9565b6040516106e59190613230565b60405180910390f35b3480156106fa57600080fd5b5061071560048036038101906107109190612f90565b611ef9565b6040516107229190612fcc565b60405180910390f35b34801561073757600080fd5b50610740611f74565b60405161074d91906132cd565b60405180910390f35b34801561076257600080fd5b5061077d60048036038101906107789190613074565b6120f7565b005b34801561078b57600080fd5b506107a660048036038101906107a19190612f05565b612119565b6040516107b39190612fcc565b60405180910390f35b3480156107c857600080fd5b506107d1612194565b6040516107de9190612fcc565b60405180910390f35b60007f7965db0b000000000000000000000000000000000000000000000000000000007bffffffffffffffffffffffffffffffffffffffffffffffffffffffff1916827bffffffffffffffffffffffffffffffffffffffffffffffffffffffff1916148061085a5750610859826121bc565b5b9050919050565b6000600760003373ffffffffffffffffffffffffffffffffffffffff1673ffffffffffffffffffffffffffffffffffffffff16815260200190815260200160002054116108e3576040517f08c379a00000000000000000000000000000000000000000000000000000000081526004016108da9061336b565b60405180910390fd5b60008111610926576040517f08c379a000000000000000000000000000000000000000000000000000000000815260040161091d906133fd565b60405180910390fd5b806006600760003373ffffffffffffffffffffffffffffffffffffffff1673ffffffffffffffffffffffffffffffffffffffff168152602001908152602001600020548154811061097a5761097961341d565b5b90600052602060002090600602016002015410156109cd576040517f08c379a00000000000000000000000000000000000000000000000000000000081526004016109c490613498565b60405180910390fd5b60966109d833612226565b11610a18576040517f08c379a0000000000000000000000000000000000000000000000000000000008152600401610a0f90613504565b60405180910390fd5b6000610a23336123b7565b905080821115610a68576040517f08c379a0000000000000000000000000000000000000000000000000000000008152600401610a5f90613570565b60405180910390fd5b3373ffffffffffffffffffffffffffffffffffffffff166108fc839081150290604051600060405180830381858888f19350505050158015610aae573d6000803e3d6000fd5b50816006600760003373ffffffffffffffffffffffffffffffffffffffff1673ffffffffffffffffffffffffffffffffffffffff1681526020019081526020016000205481548110610b0357610b0261341d565b5b90600052602060002090600602016002016000828254610b2391906135bf565b92505081905550610b976006600760003373ffffffffffffffffffffffffffffffffffffffff1673ffffffffffffffffffffffffffffffffffffffff1681526020019081526020016000205481548110610b8057610b7f61341d565b5b9060005260206000209060060201600201546126e0565b6006600760003373ffffffffffffffffffffffffffffffffffffffff1673ffffffffffffffffffffffffffffffffffffffff1681526020019081526020016000205481548110610bea57610be961341d565b5b906000526020600020906006020160030181905550610c0833612226565b6006600760003373ffffffffffffffffffffffffffffffffffffffff1673ffffffffffffffffffffffffffffffffffffffff1681526020019081526020016000205481548110610c5b57610c5a61341d565b5b9060005260206000209060060201600501819055505050565b6000610ca07f71f3d55856e4058ed06ee057d79ada615f65cdf5f9ee88181b914225088f834f336117d1565b610cdf576040517f08c379a0000000000000000000000000000000000000000000000000000000008152600401610cd69061363f565b60405180910390fd5b60006006600760008573ffffffffffffffffffffffffffffffffffffffff1673ffffffffffffffffffffffffffffffffffffffff1681526020019081526020016000205481548110610d3457610d3361341d565b5b9060005260206000209060060201600201549050610d51816126e0565b915050919050565b600080600760003373ffffffffffffffffffffffffffffffffffffffff1673ffffffffffffffffffffffffffffffffffffffff1681526020019081526020016000205411610ddc576040517f08c379a0000000000000000000000000000000000000000000000000000000008152600401610dd39061336b565b60405180910390fd5b60008211610e1f576040517f08c379a0000000000000000000000000000000000000000000000000000000008152600401610e16906136ab565b60405180910390fd5b7f00000000000000000000000000000000000000000000000000000000000000006006600760003373ffffffffffffffffffffffffffffffffffffffff1673ffffffffffffffffffffffffffffffffffffffff1681526020019081526020016000205481548110610e9357610e9261341d565b5b90600052602060002090600602016005015411610ee5576040517f08c379a0000000000000000000000000000000000000000000000000000000008152600401610edc90613717565b60405180910390fd5b6000610ef033612847565b9050808310610f34576040517f08c379a0000000000000000000000000000000000000000000000000000000008152600401610f2b90613783565b60405180910390fd5b600260009054906101000a900473ffffffffffffffffffffffffffffffffffffffff1673ffffffffffffffffffffffffffffffffffffffff166340c10f1933856040518363ffffffff1660e01b8152600401610f919291906137b2565b600060405180830381600087803b158015610fab57600080fd5b505af1158015610fbf573d6000803e3d6000fd5b50505050826006600760003373ffffffffffffffffffffffffffffffffffffffff1673ffffffffffffffffffffffffffffffffffffffff16815260200190815260200160002054815481106110175761101661341d565b5b9060005260206000209060060201600401600082825461103791906137db565b9250508190555061104733612226565b6006600760003373ffffffffffffffffffffffffffffffffffffffff1673ffffffffffffffffffffffffffffffffffffffff168152602001908152602001600020548154811061109a5761109961341d565b5b90600052602060002090600602016005018190555080915050919050565b6110e27f71f3d55856e4058ed06ee057d79ada615f65cdf5f9ee88181b914225088f834f336117d1565b611121576040517f08c379a00000000000000000000000000000000000000000000000000000000081526004016111189061363f565b60405180910390fd5b50565b6000806000838152602001908152602001600020600101549050919050565b61114c82611124565b61115581612a0c565b61115f8383612a20565b50505050565b7f000000000000000000000000000000000000000000000000000000000000000081565b611191612b11565b73ffffffffffffffffffffffffffffffffffffffff168173ffffffffffffffffffffffffffffffffffffffff16146111f5576040517f6697b23200000000000000000000000000000000000000000000000000000000815260040160405180910390fd5b6111ff8282612b19565b505050565b60006112307f71f3d55856e4058ed06ee057d79ada615f65cdf5f9ee88181b914225088f834f336117d1565b61126f576040517f08c379a00000000000000000000000000000000000000000000000000000000081526004016112669061363f565b60405180910390fd5b61127882612847565b9050919050565b60007f0000000000000000000000000000000000000000000000000000000000000000905090565b6000600760003373ffffffffffffffffffffffffffffffffffffffff1673ffffffffffffffffffffffffffffffffffffffff1681526020019081526020016000205414611329576040517f08c379a00000000000000000000000000000000000000000000000000000000081526004016113209061385b565b60405180910390fd5b6000341161136c576040517f08c379a0000000000000000000000000000000000000000000000000000000008152600401611363906138ed565b60405180910390fd5b611374612dc3565b3481604001818152505033816020019073ffffffffffffffffffffffffffffffffffffffff16908173ffffffffffffffffffffffffffffffffffffffff1681525050600554816000018181525050600081608001818152505060646113d8346126e0565b6113e2919061390d565b8160a00181815250506113f4346126e0565b81606001818152505060068190806001815401808255809150506001900390600052602060002090600602016000909190919091506000820151816000015560208201518160010160006101000a81548173ffffffffffffffffffffffffffffffffffffffff021916908373ffffffffffffffffffffffffffffffffffffffff16021790555060408201518160020155606082015181600301556080820151816004015560a082015181600501555050600554600760003373ffffffffffffffffffffffffffffffffffffffff1673ffffffffffffffffffffffffffffffffffffffff1681526020019081526020016000208190555060016005546114f991906137db565b60058190555050565b6000600760003373ffffffffffffffffffffffffffffffffffffffff1673ffffffffffffffffffffffffffffffffffffffff1681526020019081526020016000205411611584576040517f08c379a000000000000000000000000000000000000000000000000000000000815260040161157b9061336b565b60405180910390fd5b600034116115c7576040517f08c379a00000000000000000000000000000000000000000000000000000000081526004016115be906139c1565b60405180910390fd5b346006600760003373ffffffffffffffffffffffffffffffffffffffff1673ffffffffffffffffffffffffffffffffffffffff168152602001908152602001600020548154811061161b5761161a61341d565b5b9060005260206000209060060201600201600082825461163b91906137db565b925050819055506116af6006600760003373ffffffffffffffffffffffffffffffffffffffff1673ffffffffffffffffffffffffffffffffffffffff16815260200190815260200160002054815481106116985761169761341d565b5b9060005260206000209060060201600201546126e0565b6006600760003373ffffffffffffffffffffffffffffffffffffffff1673ffffffffffffffffffffffffffffffffffffffff16815260200190815260200160002054815481106117025761170161341d565b5b906000526020600020906006020160030181905550565b7f000000000000000000000000000000000000000000000000000000000000000081565b7fa49807205ce4d355092ef5a8a18f56e8913cf4a201fbe287825b095693c2177581565b60007f0000000000000000000000000000000000000000000000000000000000000000905090565b7f71f3d55856e4058ed06ee057d79ada615f65cdf5f9ee88181b914225088f834f81565b7f000000000000000000000000000000000000000000000000000000000000000081565b600080600084815260200190815260200160002060000160008373ffffffffffffffffffffffffffffffffffffffff1673ffffffffffffffffffffffffffffffffffffffff16815260200190815260200160002060009054906101000a900460ff16905092915050565b60006118677f71f3d55856e4058ed06ee057d79ada615f65cdf5f9ee88181b914225088f834f336117d1565b6118a6576040517f08c379a000000000000000000000000000000000000000000000000000000000815260040161189d9061363f565b60405180910390fd5b60006118b183612226565b905080915050919050565b60006118e87f71f3d55856e4058ed06ee057d79ada615f65cdf5f9ee88181b914225088f834f336117d1565b611927576040517f08c379a000000000000000000000000000000000000000000000000000000000815260040161191e9061363f565b60405180910390fd5b600454905090565b6000801b81565b6119607f71f3d55856e4058ed06ee057d79ada615f65cdf5f9ee88181b914225088f834f336117d1565b61199f576040517f08c379a00000000000000000000000000000000000000000000000000000000081526004016119969061363f565b60405180910390fd5b6119c97f71f3d55856e4058ed06ee057d79ada615f65cdf5f9ee88181b914225088f834f82611143565b50565b60006119f87f71f3d55856e4058ed06ee057d79ada615f65cdf5f9ee88181b914225088f834f336117d1565b611a37576040517f08c379a0000000000000000000000000000000000000000000000000000000008152600401611a2e9061363f565b60405180910390fd5b6006600760008473ffffffffffffffffffffffffffffffffffffffff1673ffffffffffffffffffffffffffffffffffffffff1681526020019081526020016000205481548110611a8a57611a8961341d565b5b9060005260206000209060060201600201549050919050565b6000611acf7f71f3d55856e4058ed06ee057d79ada615f65cdf5f9ee88181b914225088f834f336117d1565b611b0e576040517f08c379a0000000000000000000000000000000000000000000000000000000008152600401611b059061363f565b60405180910390fd5b600554905090565b60076020528060005260406000206000915090505481565b6000600760003373ffffffffffffffffffffffffffffffffffffffff1673ffffffffffffffffffffffffffffffffffffffff1681526020019081526020016000205411611bb0576040517f08c379a0000000000000000000000000000000000000000000000000000000008152600401611ba79061336b565b60405180910390fd5b60006006600760003373ffffffffffffffffffffffffffffffffffffffff1673ffffffffffffffffffffffffffffffffffffffff1681526020019081526020016000205481548110611c0557611c0461341d565b5b90600052602060002090600602016004015411611c2157600080fd5b806006600760003373ffffffffffffffffffffffffffffffffffffffff1673ffffffffffffffffffffffffffffffffffffffff1681526020019081526020016000205481548110611c7557611c7461341d565b5b9060005260206000209060060201600401541015611c9257600080fd5b600260009054906101000a900473ffffffffffffffffffffffffffffffffffffffff1673ffffffffffffffffffffffffffffffffffffffff166379cc679033836040518363ffffffff1660e01b8152600401611cef9291906137b2565b600060405180830381600087803b158015611d0957600080fd5b505af1158015611d1d573d6000803e3d6000fd5b50505050806006600760003373ffffffffffffffffffffffffffffffffffffffff1673ffffffffffffffffffffffffffffffffffffffff1681526020019081526020016000205481548110611d7557611d7461341d565b5b90600052602060002090600602016004016000828254611d9591906135bf565b92505081905550611da533612226565b5050565b6060611dd57f71f3d55856e4058ed06ee057d79ada615f65cdf5f9ee88181b914225088f834f336117d1565b611e14576040517f08c379a0000000000000000000000000000000000000000000000000000000008152600401611e0b9061363f565b60405180910390fd5b6006805480602002602001604051908101604052809291908181526020016000905b82821015611ef057838290600052602060002090600602016040518060c0016040529081600082015481526020016001820160009054906101000a900473ffffffffffffffffffffffffffffffffffffffff1673ffffffffffffffffffffffffffffffffffffffff1673ffffffffffffffffffffffffffffffffffffffff16815260200160028201548152602001600382015481526020016004820154815260200160058201548152505081526020019060010190611e36565b50505050905090565b6000611f257f71f3d55856e4058ed06ee057d79ada615f65cdf5f9ee88181b914225088f834f336117d1565b611f64576040517f08c379a0000000000000000000000000000000000000000000000000000000008152600401611f5b9061363f565b60405180910390fd5b611f6d826123b7565b9050919050565b611f7c612dc3565b6000600760003373ffffffffffffffffffffffffffffffffffffffff1673ffffffffffffffffffffffffffffffffffffffff1681526020019081526020016000205411611ffe576040517f08c379a0000000000000000000000000000000000000000000000000000000008152600401611ff59061336b565b60405180910390fd5b6006600760003373ffffffffffffffffffffffffffffffffffffffff1673ffffffffffffffffffffffffffffffffffffffff16815260200190815260200160002054815481106120515761205061341d565b5b90600052602060002090600602016040518060c0016040529081600082015481526020016001820160009054906101000a900473ffffffffffffffffffffffffffffffffffffffff1673ffffffffffffffffffffffffffffffffffffffff1673ffffffffffffffffffffffffffffffffffffffff168152602001600282015481526020016003820154815260200160048201548152602001600582015481525050905090565b61210082611124565b61210981612a0c565b6121138383612b19565b50505050565b60006121457f71f3d55856e4058ed06ee057d79ada615f65cdf5f9ee88181b914225088f834f336117d1565b612184576040517f08c379a000000000000000000000000000000000000000000000000000000000815260040161217b9061363f565b60405180910390fd5b61218d82612c0b565b9050919050565b60007f0000000000000000000000000000000000000000000000000000000000000000905090565b60007f01ffc9a7000000000000000000000000000000000000000000000000000000007bffffffffffffffffffffffffffffffffffffffffffffffffffffffff1916827bffffffffffffffffffffffffffffffffffffffffffffffffffffffff1916149050919050565b6000806006600760008573ffffffffffffffffffffffffffffffffffffffff1673ffffffffffffffffffffffffffffffffffffffff168152602001908152602001600020548154811061227c5761227b61341d565b5b906000526020600020906006020160030154905060006006600760008673ffffffffffffffffffffffffffffffffffffffff1673ffffffffffffffffffffffffffffffffffffffff16815260200190815260200160002054815481106122e5576122e461341d565b5b9060005260206000209060060201600401549050600081036123175760648261230e919061390d565b925050506123b2565b600060646305f5e1008361232b919061390d565b846123369190613a10565b612340919061390d565b9050806006600760008873ffffffffffffffffffffffffffffffffffffffff1673ffffffffffffffffffffffffffffffffffffffff16815260200190815260200160002054815481106123965761239561341d565b5b9060005260206000209060060201600501819055508093505050505b919050565b6000806006600760008573ffffffffffffffffffffffffffffffffffffffff1673ffffffffffffffffffffffffffffffffffffffff168152602001908152602001600020548154811061240d5761240c61341d565b5b906000526020600020906006020160030154905060006006600760008673ffffffffffffffffffffffffffffffffffffffff1673ffffffffffffffffffffffffffffffffffffffff16815260200190815260200160002054815481106124765761247561341d565b5b90600052602060002090600602016004015490506006600760008673ffffffffffffffffffffffffffffffffffffffff1673ffffffffffffffffffffffffffffffffffffffff16815260200190815260200160002054815481106124dd576124dc61341d565b5b9060005260206000209060060201600301546305f5e1006006600760008873ffffffffffffffffffffffffffffffffffffffff1673ffffffffffffffffffffffffffffffffffffffff16815260200190815260200160002054815481106125475761254661341d565b5b906000526020600020906006020160040154612563919061390d565b106125a3576040517f08c379a000000000000000000000000000000000000000000000000000000000815260040161259a90613717565b60405180910390fd5b7f00000000000000000000000000000000000000000000000000000000000000006006600760008773ffffffffffffffffffffffffffffffffffffffff1673ffffffffffffffffffffffffffffffffffffffff16815260200190815260200160002054815481106126175761261661341d565b5b90600052602060002090600602016005015411612669576040517f08c379a000000000000000000000000000000000000000000000000000000000815260040161266090613a8d565b60405180910390fd5b600081036126835761267a82612c0b565b925050506126db565b60006002600383612694919061390d565b61269e9190613a10565b905060006305f5e100826126b2919061390d565b9050600081856126c291906135bf565b905060006126cf82612c0b565b90508096505050505050505b919050565b600080600360009054906101000a900473ffffffffffffffffffffffffffffffffffffffff1673ffffffffffffffffffffffffffffffffffffffff16639bd713cf6040518163ffffffff1660e01b8152600401602060405180830381865afa158015612750573d6000803e3d6000fd5b505050506040513d601f19601f820116820180604052508101906127749190613ad9565b90506000600360009054906101000a900473ffffffffffffffffffffffffffffffffffffffff1673ffffffffffffffffffffffffffffffffffffffff1663d279e00a6040518163ffffffff1660e01b8152600401602060405180830381865afa1580156127e5573d6000803e3d6000fd5b505050506040513d601f19601f820116820180604052508101906128099190613ad9565b9050600081838661281a919061390d565b6128249190613a10565b905060006402540be400826128399190613a10565b905080945050505050919050565b600060966006600760008573ffffffffffffffffffffffffffffffffffffffff1673ffffffffffffffffffffffffffffffffffffffff168152602001908152602001600020548154811061289e5761289d61341d565b5b906000526020600020906006020160050154116128f0576040517f08c379a00000000000000000000000000000000000000000000000000000000081526004016128e790613717565b60405180910390fd5b60006006600760008573ffffffffffffffffffffffffffffffffffffffff1673ffffffffffffffffffffffffffffffffffffffff16815260200190815260200160002054815481106129455761294461341d565b5b90600052602060002090600602016002015490506000612964826126e0565b905060006006600760008773ffffffffffffffffffffffffffffffffffffffff1673ffffffffffffffffffffffffffffffffffffffff16815260200190815260200160002054815481106129bb576129ba61341d565b5b906000526020600020906006020160040154905060006311e1a3006002846129e3919061390d565b6129ed9190613a10565b9050600082826129fd91906135bf565b90508095505050505050919050565b612a1d81612a18612b11565b612d72565b50565b6000612a2c83836117d1565b612b0657600160008085815260200190815260200160002060000160008473ffffffffffffffffffffffffffffffffffffffff1673ffffffffffffffffffffffffffffffffffffffff16815260200190815260200160002060006101000a81548160ff021916908315150217905550612aa3612b11565b73ffffffffffffffffffffffffffffffffffffffff168273ffffffffffffffffffffffffffffffffffffffff16847f2f8788117e7eff1d82e926ec794901d17c78024a50270940304540a733656f0d60405160405180910390a460019050612b0b565b600090505b92915050565b600033905090565b6000612b2583836117d1565b15612c0057600080600085815260200190815260200160002060000160008473ffffffffffffffffffffffffffffffffffffffff1673ffffffffffffffffffffffffffffffffffffffff16815260200190815260200160002060006101000a81548160ff021916908315150217905550612b9d612b11565b73ffffffffffffffffffffffffffffffffffffffff168273ffffffffffffffffffffffffffffffffffffffff16847ff6391f5c32d9c69d2a47ea670b442974b53935d1edc7fd64eb21e047a839171b60405160405180910390a460019050612c05565b600090505b92915050565b600080600360009054906101000a900473ffffffffffffffffffffffffffffffffffffffff1673ffffffffffffffffffffffffffffffffffffffff16639bd713cf6040518163ffffffff1660e01b8152600401602060405180830381865afa158015612c7b573d6000803e3d6000fd5b505050506040513d601f19601f82011682018060405250810190612c9f9190613ad9565b90506000600360009054906101000a900473ffffffffffffffffffffffffffffffffffffffff1673ffffffffffffffffffffffffffffffffffffffff1663d279e00a6040518163ffffffff1660e01b8152600401602060405180830381865afa158015612d10573d6000803e3d6000fd5b505050506040513d601f19601f82011682018060405250810190612d349190613ad9565b90506000828583612d45919061390d565b612d4f9190613a10565b905060006402540be40082612d64919061390d565b905080945050505050919050565b612d7c82826117d1565b612dbf5780826040517fe2517d3f000000000000000000000000000000000000000000000000000000008152600401612db6929190613b06565b60405180910390fd5b5050565b6040518060c0016040528060008152602001600073ffffffffffffffffffffffffffffffffffffffff168152602001600081526020016000815260200160008152602001600081525090565b600080fd5b60007fffffffff0000000000000000000000000000000000000000000000000000000082169050919050565b612e4981612e14565b8114612e5457600080fd5b50565b600081359050612e6681612e40565b92915050565b600060208284031215612e8257612e81612e0f565b5b6000612e9084828501612e57565b91505092915050565b60008115159050919050565b612eae81612e99565b82525050565b6000602082019050612ec96000830184612ea5565b92915050565b6000819050919050565b612ee281612ecf565b8114612eed57600080fd5b50565b600081359050612eff81612ed9565b92915050565b600060208284031215612f1b57612f1a612e0f565b5b6000612f2984828501612ef0565b91505092915050565b600073ffffffffffffffffffffffffffffffffffffffff82169050919050565b6000612f5d82612f32565b9050919050565b612f6d81612f52565b8114612f7857600080fd5b50565b600081359050612f8a81612f64565b92915050565b600060208284031215612fa657612fa5612e0f565b5b6000612fb484828501612f7b565b91505092915050565b612fc681612ecf565b82525050565b6000602082019050612fe16000830184612fbd565b92915050565b6000819050919050565b612ffa81612fe7565b811461300557600080fd5b50565b60008135905061301781612ff1565b92915050565b60006020828403121561303357613032612e0f565b5b600061304184828501613008565b91505092915050565b61305381612fe7565b82525050565b600060208201905061306e600083018461304a565b92915050565b6000806040838503121561308b5761308a612e0f565b5b600061309985828601613008565b92505060206130aa85828601612f7b565b9150509250929050565b6000819050919050565b6130c7816130b4565b82525050565b60006020820190506130e260008301846130be565b92915050565b600081519050919050565b600082825260208201905092915050565b6000819050602082019050919050565b61311d81612ecf565b82525050565b61312c81612f52565b82525050565b60c0820160008201516131486000850182613114565b50602082015161315b6020850182613123565b50604082015161316e6040850182613114565b5060608201516131816060850182613114565b5060808201516131946080850182613114565b5060a08201516131a760a0850182613114565b50505050565b60006131b98383613132565b60c08301905092915050565b6000602082019050919050565b60006131dd826130e8565b6131e781856130f3565b93506131f283613104565b8060005b8381101561322357815161320a88826131ad565b9750613215836131c5565b9250506001810190506131f6565b5085935050505092915050565b6000602082019050818103600083015261324a81846131d2565b905092915050565b60c0820160008201516132686000850182613114565b50602082015161327b6020850182613123565b50604082015161328e6040850182613114565b5060608201516132a16060850182613114565b5060808201516132b46080850182613114565b5060a08201516132c760a0850182613114565b50505050565b600060c0820190506132e26000830184613252565b92915050565b600082825260208201905092915050565b7f596f7520646f6e7420686176652061205661756c742c2063726561746520612060008201527f7661756c74206669727374210000000000000000000000000000000000000000602082015250565b6000613355602c836132e8565b9150613360826132f9565b604082019050919050565b6000602082019050818103600083015261338481613348565b9050919050565b7f576974686472617720616d6f756e742073686f756c642062652067726561746560008201527f72207468616e2030000000000000000000000000000000000000000000000000602082015250565b60006133e76028836132e8565b91506133f28261338b565b604082019050919050565b60006020820190508181036000830152613416816133da565b9050919050565b7f4e487b7100000000000000000000000000000000000000000000000000000000600052603260045260246000fd5b7f696e73756666696369656e742062616c616e636520696e207661756c74000000600082015250565b6000613482601d836132e8565b915061348d8261344c565b602082019050919050565b600060208201905081810360008301526134b181613475565b9050919050565b7f436c65617220796f757220646562742100000000000000000000000000000000600082015250565b60006134ee6010836132e8565b91506134f9826134b8565b602082019050919050565b6000602082019050818103600083015261351d816134e1565b9050919050565b7f796f752077696c6c20676f20696e746f20646562742100000000000000000000600082015250565b600061355a6016836132e8565b915061356582613524565b602082019050919050565b600060208201905081810360008301526135898161354d565b9050919050565b7f4e487b7100000000000000000000000000000000000000000000000000000000600052601160045260246000fd5b60006135ca82612ecf565b91506135d583612ecf565b92508282039050818111156135ed576135ec613590565b5b92915050565b7f4d7573742068617665204d4f44455241544f525f524f4c450000000000000000600082015250565b60006136296018836132e8565b9150613634826135f3565b602082019050919050565b600060208201905081810360008301526136588161361c565b9050919050565b7f656e7465722076616c696420616d6f756e740000000000000000000000000000600082015250565b60006136956012836132e8565b91506136a08261365f565b602082019050919050565b600060208201905081810360008301526136c481613688565b9050919050565b7f796f752061726520696e20646562742100000000000000000000000000000000600082015250565b60006137016010836132e8565b915061370c826136cb565b602082019050919050565b60006020820190508181036000830152613730816136f4565b9050919050565b7f656e74657220616d6f756e74206c657373207468616e204349502063726f7373600082015250565b600061376d6020836132e8565b915061377882613737565b602082019050919050565b6000602082019050818103600083015261379c81613760565b9050919050565b6137ac81612f52565b82525050565b60006040820190506137c760008301856137a3565b6137d46020830184612fbd565b9392505050565b60006137e682612ecf565b91506137f183612ecf565b925082820190508082111561380957613808613590565b5b92915050565b7f596f7520616c726561647920686176652061207661756c740000000000000000600082015250565b60006138456018836132e8565b91506138508261380f565b602082019050919050565b6000602082019050818103600083015261387481613838565b9050919050565b7f45544820616d6f756e74206d7573742062652067726561746572207468616e2060008201527f3000000000000000000000000000000000000000000000000000000000000000602082015250565b60006138d76021836132e8565b91506138e28261387b565b604082019050919050565b60006020820190508181036000830152613906816138ca565b9050919050565b600061391882612ecf565b915061392383612ecf565b925082820261393181612ecf565b9150828204841483151761394857613947613590565b5b5092915050565b7f65746820616d6f756e74206d7573742062652067726561746572207468616e2060008201527f3000000000000000000000000000000000000000000000000000000000000000602082015250565b60006139ab6021836132e8565b91506139b68261394f565b604082019050919050565b600060208201905081810360008301526139da8161399e565b9050919050565b7f4e487b7100000000000000000000000000000000000000000000000000000000600052601260045260246000fd5b6000613a1b82612ecf565b9150613a2683612ecf565b925082613a3657613a356139e1565b5b828204905092915050565b7f796f752061726520696e20646562740000000000000000000000000000000000600082015250565b6000613a77600f836132e8565b9150613a8282613a41565b602082019050919050565b60006020820190508181036000830152613aa681613a6a565b9050919050565b613ab6816130b4565b8114613ac157600080fd5b50565b600081519050613ad381613aad565b92915050565b600060208284031215613aef57613aee612e0f565b5b6000613afd84828501613ac4565b91505092915050565b6000604082019050613b1b60008301856137a3565b613b28602083018461304a565b939250505056fea264697066735822122057b6146c85d1d617b961814a758e2510495c10eb960c02395bcfe316d16aa75f64736f6c634300081a0033","linkReferences":{}},"methodIdentifiers":{"ADMIN_ROLE()":"75b238fc","BASE_RISK_RATE()":"839159fb","CIP()":"74cf45f8","DEFAULT_ADMIN_ROLE()":"a217fddf","MODERATOR_ROLE()":"797669c9","RISK_PREMIUM_RATE()":"310e84b5","amountInrToEth(uint256)":"d6805bc7","burnIndaiAndRelieveCollateral(uint256)":"b9ebc0b4","calculateMaxMintableDai(address)":"46a1567a","calculateMaxWithdrawableCollateral(address)":"c6db1f16","calculateVaultHealth(address)":"9c97c12d","createVault()":"5d12928b","getBASE_RISK_RATE()":"fb5989a6","getCIP()":"501c3a3c","getCurrentVaultId()":"ae0b163f","getRISK_PREMIUM_RATE()":"7649aef1","getRoleAdmin(bytes32)":"248a9ca3","getTotalCollateralPrice()":"9dc1b45b","getTotalVaultDetails()":"c48589cb","getUserCollateralBalance(address)":"ab845413","grantModeratorRole(address)":"aa232dc2","grantRole(bytes32,address)":"2f2ff15d","hasRole(bytes32,address)":"91d14854","liquidateVault(address)":"194d7494","mintIndai(uint256)":"16b72657","renounceRole(bytes32,address)":"36568abe","revokeRole(bytes32,address)":"d547741f","supportsInterface(bytes4)":"01ffc9a7","updateVault()":"7196e841","userBalanceInInr(address)":"078e065d","userIndexes(address)":"b603540f","vaultDetailsForTheUser()":"d4600922","withdrawFromVault(uint256)":"076d0815"},"id":39}