{"abi":[{"type":"constructor","inputs":[{"name":"_CIP","type":"uint256","internalType":"uint256"},{"name":"_BASE_RISK_RATE","type":"uint256","internalType":"uint256"},{"name":"_RISK_PREMIUM_RATE","type":"uint256","internalType":"uint256"},{"name":"_indai","type":"address","internalType":"address"},{"name":"_priceContract","type":"address","internalType":"address"}],"stateMutability":"nonpayable"},{"type":"function","name":"BASE_RISK_RATE","inputs":[],"outputs":[{"name":"","type":"uint256","internalType":"uint256"}],"stateMutability":"view"},{"type":"function","name":"CIP","inputs":[],"outputs":[{"name":"","type":"uint256","internalType":"uint256"}],"stateMutability":"view"},{"type":"function","name":"DEFAULT_ADMIN_ROLE","inputs":[],"outputs":[{"name":"","type":"bytes32","internalType":"bytes32"}],"stateMutability":"view"},{"type":"function","name":"MODERATOR_ROLE","inputs":[],"outputs":[{"name":"","type":"bytes32","internalType":"bytes32"}],"stateMutability":"view"},{"type":"function","name":"RISK_PREMIUM_RATE","inputs":[],"outputs":[{"name":"","type":"uint256","internalType":"uint256"}],"stateMutability":"view"},{"type":"function","name":"amountInrToEth","inputs":[{"name":"amountINR","type":"uint256","internalType":"uint256"}],"outputs":[{"name":"","type":"uint256","internalType":"uint256"}],"stateMutability":"view"},{"type":"function","name":"burnIndaiAndRelieveCollateral","inputs":[{"name":"amount","type":"uint256","internalType":"uint256"}],"outputs":[],"stateMutability":"nonpayable"},{"type":"function","name":"calculateMaxMintableDai","inputs":[{"name":"user","type":"address","internalType":"address"}],"outputs":[{"name":"max","type":"uint256","internalType":"uint256"}],"stateMutability":"view"},{"type":"function","name":"calculateMaxWithdrawableCollateral","inputs":[{"name":"user","type":"address","internalType":"address"}],"outputs":[{"name":"","type":"uint256","internalType":"uint256"}],"stateMutability":"view"},{"type":"function","name":"calculateVaultHealth","inputs":[{"name":"_user","type":"address","internalType":"address"}],"outputs":[{"name":"","type":"uint256","internalType":"uint256"}],"stateMutability":"nonpayable"},{"type":"function","name":"createOrUpdateVault","inputs":[],"outputs":[],"stateMutability":"payable"},{"type":"function","name":"getBASE_RISK_RATE","inputs":[],"outputs":[{"name":"","type":"uint256","internalType":"uint256"}],"stateMutability":"view"},{"type":"function","name":"getCIP","inputs":[],"outputs":[{"name":"","type":"uint256","internalType":"uint256"}],"stateMutability":"view"},{"type":"function","name":"getCurrentVaultId","inputs":[],"outputs":[{"name":"","type":"uint256","internalType":"uint256"}],"stateMutability":"view"},{"type":"function","name":"getRISK_PREMIUM_RATE","inputs":[],"outputs":[{"name":"","type":"uint256","internalType":"uint256"}],"stateMutability":"view"},{"type":"function","name":"getRoleAdmin","inputs":[{"name":"role","type":"bytes32","internalType":"bytes32"}],"outputs":[{"name":"","type":"bytes32","internalType":"bytes32"}],"stateMutability":"view"},{"type":"function","name":"getTotalCollateralPrice","inputs":[],"outputs":[{"name":"","type":"int256","internalType":"int256"}],"stateMutability":"view"},{"type":"function","name":"getTotalVaultDetails","inputs":[],"outputs":[{"name":"","type":"tuple[]","internalType":"struct CollateralSafekeep.vault[]","components":[{"name":"vaultId","type":"uint256","internalType":"uint256"},{"name":"userAddress","type":"address","internalType":"address"},{"name":"balance","type":"uint256","internalType":"uint256"},{"name":"balanceInINR","type":"uint256","internalType":"uint256"},{"name":"indaiIssued","type":"uint256","internalType":"uint256"},{"name":"vaultHealth","type":"uint256","internalType":"uint256"}]}],"stateMutability":"view"},{"type":"function","name":"getUserCollateralBalance","inputs":[{"name":"_address","type":"address","internalType":"address"}],"outputs":[{"name":"","type":"uint256","internalType":"uint256"}],"stateMutability":"view"},{"type":"function","name":"grantModeratorRole","inputs":[{"name":"account","type":"address","internalType":"address"}],"outputs":[],"stateMutability":"nonpayable"},{"type":"function","name":"grantRole","inputs":[{"name":"role","type":"bytes32","internalType":"bytes32"},{"name":"account","type":"address","internalType":"address"}],"outputs":[],"stateMutability":"nonpayable"},{"type":"function","name":"hasRole","inputs":[{"name":"role","type":"bytes32","internalType":"bytes32"},{"name":"account","type":"address","internalType":"address"}],"outputs":[{"name":"","type":"bool","internalType":"bool"}],"stateMutability":"view"},{"type":"function","name":"liquidateVault","inputs":[{"name":"_vaultAddress","type":"address","internalType":"address"}],"outputs":[],"stateMutability":"nonpayable"},{"type":"function","name":"mintIndai","inputs":[{"name":"amount","type":"uint256","internalType":"uint256"}],"outputs":[{"name":"","type":"uint256","internalType":"uint256"}],"stateMutability":"nonpayable"},{"type":"function","name":"renounceRole","inputs":[{"name":"role","type":"bytes32","internalType":"bytes32"},{"name":"callerConfirmation","type":"address","internalType":"address"}],"outputs":[],"stateMutability":"nonpayable"},{"type":"function","name":"revokeRole","inputs":[{"name":"role","type":"bytes32","internalType":"bytes32"},{"name":"account","type":"address","internalType":"address"}],"outputs":[],"stateMutability":"nonpayable"},{"type":"function","name":"supportsInterface","inputs":[{"name":"interfaceId","type":"bytes4","internalType":"bytes4"}],"outputs":[{"name":"","type":"bool","internalType":"bool"}],"stateMutability":"view"},{"type":"function","name":"userBalanceInInr","inputs":[{"name":"_address","type":"address","internalType":"address"}],"outputs":[{"name":"","type":"uint256","internalType":"uint256"}],"stateMutability":"view"},{"type":"function","name":"userIndexes","inputs":[{"name":"","type":"address","internalType":"address"}],"outputs":[{"name":"","type":"uint256","internalType":"uint256"}],"stateMutability":"view"},{"type":"function","name":"vaultDetailsForTheUser","inputs":[],"outputs":[{"name":"","type":"tuple","internalType":"struct CollateralSafekeep.vault","components":[{"name":"vaultId","type":"uint256","internalType":"uint256"},{"name":"userAddress","type":"address","internalType":"address"},{"name":"balance","type":"uint256","internalType":"uint256"},{"name":"balanceInINR","type":"uint256","internalType":"uint256"},{"name":"indaiIssued","type":"uint256","internalType":"uint256"},{"name":"vaultHealth","type":"uint256","internalType":"uint256"}]}],"stateMutability":"view"},{"type":"function","name":"withdrawFromVault","inputs":[{"name":"amount","type":"uint256","internalType":"uint256"}],"outputs":[],"stateMutability":"payable"},{"type":"event","name":"RoleAdminChanged","inputs":[{"name":"role","type":"bytes32","indexed":true,"internalType":"bytes32"},{"name":"previousAdminRole","type":"bytes32","indexed":true,"internalType":"bytes32"},{"name":"newAdminRole","type":"bytes32","indexed":true,"internalType":"bytes32"}],"anonymous":false},{"type":"event","name":"RoleGranted","inputs":[{"name":"role","type":"bytes32","indexed":true,"internalType":"bytes32"},{"name":"account","type":"address","indexed":true,"internalType":"address"},{"name":"sender","type":"address","indexed":true,"internalType":"address"}],"anonymous":false},{"type":"event","name":"RoleRevoked","inputs":[{"name":"role","type":"bytes32","indexed":true,"internalType":"bytes32"},{"name":"account","type":"address","indexed":true,"internalType":"address"},{"name":"sender","type":"address","indexed":true,"internalType":"address"}],"anonymous":false},{"type":"event","name":"thisIsARiskyVault","inputs":[{"name":"vaultId","type":"uint256","indexed":false,"internalType":"uint256"},{"name":"userAddress","type":"address","indexed":false,"internalType":"address"},{"name":"balance","type":"uint256","indexed":false,"internalType":"uint256"},{"name":"balanceInINR","type":"uint256","indexed":false,"internalType":"uint256"},{"name":"indaiIssued","type":"uint256","indexed":false,"internalType":"uint256"},{"name":"vaultHealth","type":"uint256","indexed":false,"internalType":"uint256"}],"anonymous":false},{"type":"error","name":"AccessControlBadConfirmation","inputs":[]},{"type":"error","name":"AccessControlUnauthorizedAccount","inputs":[{"name":"account","type":"address","internalType":"address"},{"name":"neededRole","type":"bytes32","internalType":"bytes32"}]},{"type":"error","name":"collateralSafekeep__userInDebt","inputs":[]},{"type":"error","name":"upkeepNotNeeded","inputs":[]}],"bytecode":{"object":"0x60e060405234801561001057600080fd5b50604051613dac380380613dac83398181016040528101906100329190610413565b600160058190555061006a7f71f3d55856e4058ed06ee057d79ada615f65cdf5f9ee88181b914225088f834f3361020b60201b60201c565b5081600260006101000a81548173ffffffffffffffffffffffffffffffffffffffff021916908373ffffffffffffffffffffffffffffffffffffffff16021790555080600360006101000a81548173ffffffffffffffffffffffffffffffffffffffff021916908373ffffffffffffffffffffffffffffffffffffffff1602179055504260018190555084608081815250508360a081815250508260c0818152505060006040518060c0016040528060008152602001600073ffffffffffffffffffffffffffffffffffffffff1681526020016000815260200160008152602001600081526020016000815250905060068190806001815401808255809150506001900390600052602060002090600602016000909190919091506000820151816000015560208201518160010160006101000a81548173ffffffffffffffffffffffffffffffffffffffff021916908373ffffffffffffffffffffffffffffffffffffffff16021790555060408201518160020155606082015181600301556080820151816004015560a08201518160050155505050505050505061048e565b600061021d838361030860201b60201c565b6102fd57600160008085815260200190815260200160002060000160008473ffffffffffffffffffffffffffffffffffffffff1673ffffffffffffffffffffffffffffffffffffffff16815260200190815260200160002060006101000a81548160ff02191690831515021790555061029a61037260201b60201c565b73ffffffffffffffffffffffffffffffffffffffff168273ffffffffffffffffffffffffffffffffffffffff16847f2f8788117e7eff1d82e926ec794901d17c78024a50270940304540a733656f0d60405160405180910390a460019050610302565b600090505b92915050565b600080600084815260200190815260200160002060000160008373ffffffffffffffffffffffffffffffffffffffff1673ffffffffffffffffffffffffffffffffffffffff16815260200190815260200160002060009054906101000a900460ff16905092915050565b600033905090565b600080fd5b6000819050919050565b6103928161037f565b811461039d57600080fd5b50565b6000815190506103af81610389565b92915050565b600073ffffffffffffffffffffffffffffffffffffffff82169050919050565b60006103e0826103b5565b9050919050565b6103f0816103d5565b81146103fb57600080fd5b50565b60008151905061040d816103e7565b92915050565b600080600080600060a0868803121561042f5761042e61037a565b5b600061043d888289016103a0565b955050602061044e888289016103a0565b945050604061045f888289016103a0565b9350506060610470888289016103fe565b9250506080610481888289016103fe565b9150509295509295909350565b60805160a05160c0516138cc6104e06000396000818161111c01526112840152600081816112ce015261202d015260008181610dd6015281816112380152818161125e015261243a01526138cc6000f3fe6080604052600436106101d85760003560e01c806391d1485411610102578063b9ebc0b411610095578063d460092211610064578063d4600922146106e0578063d547741f1461070b578063d6805bc714610734578063fb5989a614610771576101d8565b8063b9ebc0b414610645578063bb8281321461066e578063c48589cb14610678578063c6db1f16146106a3576101d8565b8063aa232dc2116100d1578063aa232dc214610577578063ab845413146105a0578063ae0b163f146105dd578063b603540f14610608576101d8565b806391d14854146104a75780639c97c12d146104e45780639dc1b45b14610521578063a217fddf1461054c576101d8565b8063310e84b51161017a57806374cf45f81161014957806374cf45f8146103fb5780637649aef114610426578063797669c914610451578063839159fb1461047c576101d8565b8063310e84b51461033f57806336568abe1461036a57806346a1567a14610393578063501c3a3c146103d0576101d8565b806316b72657116101b657806316b7265714610273578063194d7494146102b0578063248a9ca3146102d95780632f2ff15d14610316576101d8565b806301ffc9a7146101dd578063076d08151461021a578063078e065d14610236575b600080fd5b3480156101e957600080fd5b5061020460048036038101906101ff9190612cd1565b61079c565b6040516102119190612d19565b60405180910390f35b610234600480360381019061022f9190612d6a565b610816565b005b34801561024257600080fd5b5061025d60048036038101906102589190612df5565b610c29565b60405161026a9190612e31565b60405180910390f35b34801561027f57600080fd5b5061029a60048036038101906102959190612d6a565b610d0e565b6040516102a79190612e31565b60405180910390f35b3480156102bc57600080fd5b506102d760048036038101906102d29190612df5565b61106d565b005b3480156102e557600080fd5b5061030060048036038101906102fb9190612e82565b6110d9565b60405161030d9190612ebe565b60405180910390f35b34801561032257600080fd5b5061033d60048036038101906103389190612ed9565b6110f8565b005b34801561034b57600080fd5b5061035461111a565b6040516103619190612e31565b60405180910390f35b34801561037657600080fd5b50610391600480360381019061038c9190612ed9565b61113e565b005b34801561039f57600080fd5b506103ba60048036038101906103b59190612df5565b6111b9565b6040516103c79190612e31565b60405180910390f35b3480156103dc57600080fd5b506103e5611234565b6040516103f29190612e31565b60405180910390f35b34801561040757600080fd5b5061041061125c565b60405161041d9190612e31565b60405180910390f35b34801561043257600080fd5b5061043b611280565b6040516104489190612e31565b60405180910390f35b34801561045d57600080fd5b506104666112a8565b6040516104739190612ebe565b60405180910390f35b34801561048857600080fd5b506104916112cc565b60405161049e9190612e31565b60405180910390f35b3480156104b357600080fd5b506104ce60048036038101906104c99190612ed9565b6112f0565b6040516104db9190612d19565b60405180910390f35b3480156104f057600080fd5b5061050b60048036038101906105069190612df5565b61135a565b6040516105189190612e31565b60405180910390f35b34801561052d57600080fd5b506105366113db565b6040516105439190612f32565b60405180910390f35b34801561055857600080fd5b5061056161144e565b60405161056e9190612ebe565b60405180910390f35b34801561058357600080fd5b5061059e60048036038101906105999190612df5565b611455565b005b3480156105ac57600080fd5b506105c760048036038101906105c29190612df5565b6114eb565b6040516105d49190612e31565b60405180910390f35b3480156105e957600080fd5b506105f26115c2565b6040516105ff9190612e31565b60405180910390f35b34801561061457600080fd5b5061062f600480360381019061062a9190612df5565b611635565b60405161063c9190612e31565b60405180910390f35b34801561065157600080fd5b5061066c60048036038101906106679190612d6a565b61164d565b005b6106766118c8565b005b34801561068457600080fd5b5061068d611c3e565b60405161069a9190613095565b60405180910390f35b3480156106af57600080fd5b506106ca60048036038101906106c59190612df5565b611d8e565b6040516106d79190612e31565b60405180910390f35b3480156106ec57600080fd5b506106f5611e09565b6040516107029190613132565b60405180910390f35b34801561071757600080fd5b50610732600480360381019061072d9190612ed9565b611f8c565b005b34801561074057600080fd5b5061075b60048036038101906107569190612d6a565b611fae565b6040516107689190612e31565b60405180910390f35b34801561077d57600080fd5b50610786612029565b6040516107939190612e31565b60405180910390f35b60007f7965db0b000000000000000000000000000000000000000000000000000000007bffffffffffffffffffffffffffffffffffffffffffffffffffffffff1916827bffffffffffffffffffffffffffffffffffffffffffffffffffffffff1916148061080f575061080e82612051565b5b9050919050565b6000600760003373ffffffffffffffffffffffffffffffffffffffff1673ffffffffffffffffffffffffffffffffffffffff1681526020019081526020016000205411610898576040517f08c379a000000000000000000000000000000000000000000000000000000000815260040161088f906131d0565b60405180910390fd5b600081116108db576040517f08c379a00000000000000000000000000000000000000000000000000000000081526004016108d290613262565b60405180910390fd5b806006600760003373ffffffffffffffffffffffffffffffffffffffff1673ffffffffffffffffffffffffffffffffffffffff168152602001908152602001600020548154811061092f5761092e613282565b5b9060005260206000209060060201600201541015610982576040517f08c379a0000000000000000000000000000000000000000000000000000000008152600401610979906132fd565b60405180910390fd5b609661098d336120bb565b116109cd576040517f08c379a00000000000000000000000000000000000000000000000000000000081526004016109c490613369565b60405180910390fd5b60006109d83361224c565b905080821115610a1d576040517f08c379a0000000000000000000000000000000000000000000000000000000008152600401610a14906133d5565b60405180910390fd5b3373ffffffffffffffffffffffffffffffffffffffff166108fc839081150290604051600060405180830381858888f19350505050158015610a63573d6000803e3d6000fd5b50816006600760003373ffffffffffffffffffffffffffffffffffffffff1673ffffffffffffffffffffffffffffffffffffffff1681526020019081526020016000205481548110610ab857610ab7613282565b5b90600052602060002090600602016002016000828254610ad89190613424565b92505081905550610b4c6006600760003373ffffffffffffffffffffffffffffffffffffffff1673ffffffffffffffffffffffffffffffffffffffff1681526020019081526020016000205481548110610b3557610b34613282565b5b906000526020600020906006020160020154612575565b6006600760003373ffffffffffffffffffffffffffffffffffffffff1673ffffffffffffffffffffffffffffffffffffffff1681526020019081526020016000205481548110610b9f57610b9e613282565b5b906000526020600020906006020160030181905550610bbd336120bb565b6006600760003373ffffffffffffffffffffffffffffffffffffffff1673ffffffffffffffffffffffffffffffffffffffff1681526020019081526020016000205481548110610c1057610c0f613282565b5b9060005260206000209060060201600501819055505050565b6000610c557f71f3d55856e4058ed06ee057d79ada615f65cdf5f9ee88181b914225088f834f336112f0565b610c94576040517f08c379a0000000000000000000000000000000000000000000000000000000008152600401610c8b906134a4565b60405180910390fd5b60006006600760008573ffffffffffffffffffffffffffffffffffffffff1673ffffffffffffffffffffffffffffffffffffffff1681526020019081526020016000205481548110610ce957610ce8613282565b5b9060005260206000209060060201600201549050610d0681612575565b915050919050565b600080600760003373ffffffffffffffffffffffffffffffffffffffff1673ffffffffffffffffffffffffffffffffffffffff1681526020019081526020016000205411610d91576040517f08c379a0000000000000000000000000000000000000000000000000000000008152600401610d88906131d0565b60405180910390fd5b60008211610dd4576040517f08c379a0000000000000000000000000000000000000000000000000000000008152600401610dcb90613510565b60405180910390fd5b7f00000000000000000000000000000000000000000000000000000000000000006006600760003373ffffffffffffffffffffffffffffffffffffffff1673ffffffffffffffffffffffffffffffffffffffff1681526020019081526020016000205481548110610e4857610e47613282565b5b90600052602060002090600602016005015411610e9a576040517f08c379a0000000000000000000000000000000000000000000000000000000008152600401610e919061357c565b60405180910390fd5b6000610ea5336126dc565b9050808310610ee9576040517f08c379a0000000000000000000000000000000000000000000000000000000008152600401610ee0906135e8565b60405180910390fd5b600260009054906101000a900473ffffffffffffffffffffffffffffffffffffffff1673ffffffffffffffffffffffffffffffffffffffff166340c10f1933856040518363ffffffff1660e01b8152600401610f46929190613617565b600060405180830381600087803b158015610f6057600080fd5b505af1158015610f74573d6000803e3d6000fd5b50505050826006600760003373ffffffffffffffffffffffffffffffffffffffff1673ffffffffffffffffffffffffffffffffffffffff1681526020019081526020016000205481548110610fcc57610fcb613282565b5b90600052602060002090600602016004016000828254610fec9190613640565b92505081905550610ffc336120bb565b6006600760003373ffffffffffffffffffffffffffffffffffffffff1673ffffffffffffffffffffffffffffffffffffffff168152602001908152602001600020548154811061104f5761104e613282565b5b90600052602060002090600602016005018190555080915050919050565b6110977f71f3d55856e4058ed06ee057d79ada615f65cdf5f9ee88181b914225088f834f336112f0565b6110d6576040517f08c379a00000000000000000000000000000000000000000000000000000000081526004016110cd906134a4565b60405180910390fd5b50565b6000806000838152602001908152602001600020600101549050919050565b611101826110d9565b61110a81612871565b6111148383612885565b50505050565b7f000000000000000000000000000000000000000000000000000000000000000081565b611146612976565b73ffffffffffffffffffffffffffffffffffffffff168173ffffffffffffffffffffffffffffffffffffffff16146111aa576040517f6697b23200000000000000000000000000000000000000000000000000000000815260040160405180910390fd5b6111b4828261297e565b505050565b60006111e57f71f3d55856e4058ed06ee057d79ada615f65cdf5f9ee88181b914225088f834f336112f0565b611224576040517f08c379a000000000000000000000000000000000000000000000000000000000815260040161121b906134a4565b60405180910390fd5b61122d826126dc565b9050919050565b60007f0000000000000000000000000000000000000000000000000000000000000000905090565b7f000000000000000000000000000000000000000000000000000000000000000081565b60007f0000000000000000000000000000000000000000000000000000000000000000905090565b7f71f3d55856e4058ed06ee057d79ada615f65cdf5f9ee88181b914225088f834f81565b7f000000000000000000000000000000000000000000000000000000000000000081565b600080600084815260200190815260200160002060000160008373ffffffffffffffffffffffffffffffffffffffff1673ffffffffffffffffffffffffffffffffffffffff16815260200190815260200160002060009054906101000a900460ff16905092915050565b60006113867f71f3d55856e4058ed06ee057d79ada615f65cdf5f9ee88181b914225088f834f336112f0565b6113c5576040517f08c379a00000000000000000000000000000000000000000000000000000000081526004016113bc906134a4565b60405180910390fd5b60006113d0836120bb565b905080915050919050565b60006114077f71f3d55856e4058ed06ee057d79ada615f65cdf5f9ee88181b914225088f834f336112f0565b611446576040517f08c379a000000000000000000000000000000000000000000000000000000000815260040161143d906134a4565b60405180910390fd5b600454905090565b6000801b81565b61147f7f71f3d55856e4058ed06ee057d79ada615f65cdf5f9ee88181b914225088f834f336112f0565b6114be576040517f08c379a00000000000000000000000000000000000000000000000000000000081526004016114b5906134a4565b60405180910390fd5b6114e87f71f3d55856e4058ed06ee057d79ada615f65cdf5f9ee88181b914225088f834f826110f8565b50565b60006115177f71f3d55856e4058ed06ee057d79ada615f65cdf5f9ee88181b914225088f834f336112f0565b611556576040517f08c379a000000000000000000000000000000000000000000000000000000000815260040161154d906134a4565b60405180910390fd5b6006600760008473ffffffffffffffffffffffffffffffffffffffff1673ffffffffffffffffffffffffffffffffffffffff16815260200190815260200160002054815481106115a9576115a8613282565b5b9060005260206000209060060201600201549050919050565b60006115ee7f71f3d55856e4058ed06ee057d79ada615f65cdf5f9ee88181b914225088f834f336112f0565b61162d576040517f08c379a0000000000000000000000000000000000000000000000000000000008152600401611624906134a4565b60405180910390fd5b600554905090565b60076020528060005260406000206000915090505481565b6000600760003373ffffffffffffffffffffffffffffffffffffffff1673ffffffffffffffffffffffffffffffffffffffff16815260200190815260200160002054116116cf576040517f08c379a00000000000000000000000000000000000000000000000000000000081526004016116c6906131d0565b60405180910390fd5b60006006600760003373ffffffffffffffffffffffffffffffffffffffff1673ffffffffffffffffffffffffffffffffffffffff168152602001908152602001600020548154811061172457611723613282565b5b9060005260206000209060060201600401541161174057600080fd5b806006600760003373ffffffffffffffffffffffffffffffffffffffff1673ffffffffffffffffffffffffffffffffffffffff168152602001908152602001600020548154811061179457611793613282565b5b90600052602060002090600602016004015410156117b157600080fd5b600260009054906101000a900473ffffffffffffffffffffffffffffffffffffffff1673ffffffffffffffffffffffffffffffffffffffff166379cc679033836040518363ffffffff1660e01b815260040161180e929190613617565b600060405180830381600087803b15801561182857600080fd5b505af115801561183c573d6000803e3d6000fd5b50505050806006600760003373ffffffffffffffffffffffffffffffffffffffff1673ffffffffffffffffffffffffffffffffffffffff168152602001908152602001600020548154811061189457611893613282565b5b906000526020600020906006020160040160008282546118b49190613424565b925050819055506118c4336120bb565b5050565b6000341161190b576040517f08c379a0000000000000000000000000000000000000000000000000000000008152600401611902906136e6565b60405180910390fd5b6000600760003373ffffffffffffffffffffffffffffffffffffffff1673ffffffffffffffffffffffffffffffffffffffff1681526020019081526020016000205403611aeb5761195a612c28565b3481604001818152505033816020019073ffffffffffffffffffffffffffffffffffffffff16908173ffffffffffffffffffffffffffffffffffffffff1681525050600554816000018181525050600081608001818152505060646119be34612575565b6119c89190613706565b8160a00181815250506119da34612575565b81606001818152505060068190806001815401808255809150506001900390600052602060002090600602016000909190919091506000820151816000015560208201518160010160006101000a81548173ffffffffffffffffffffffffffffffffffffffff021916908373ffffffffffffffffffffffffffffffffffffffff16021790555060408201518160020155606082015181600301556080820151816004015560a082015181600501555050600554600760003373ffffffffffffffffffffffffffffffffffffffff1673ffffffffffffffffffffffffffffffffffffffff168152602001908152602001600020819055506001600554611adf9190613640565b60058190555050611c3c565b346006600760003373ffffffffffffffffffffffffffffffffffffffff1673ffffffffffffffffffffffffffffffffffffffff1681526020019081526020016000205481548110611b3f57611b3e613282565b5b90600052602060002090600602016002016000828254611b5f9190613640565b92505081905550611bd36006600760003373ffffffffffffffffffffffffffffffffffffffff1673ffffffffffffffffffffffffffffffffffffffff1681526020019081526020016000205481548110611bbc57611bbb613282565b5b906000526020600020906006020160020154612575565b6006600760003373ffffffffffffffffffffffffffffffffffffffff1673ffffffffffffffffffffffffffffffffffffffff1681526020019081526020016000205481548110611c2657611c25613282565b5b9060005260206000209060060201600301819055505b565b6060611c6a7f71f3d55856e4058ed06ee057d79ada615f65cdf5f9ee88181b914225088f834f336112f0565b611ca9576040517f08c379a0000000000000000000000000000000000000000000000000000000008152600401611ca0906134a4565b60405180910390fd5b6006805480602002602001604051908101604052809291908181526020016000905b82821015611d8557838290600052602060002090600602016040518060c0016040529081600082015481526020016001820160009054906101000a900473ffffffffffffffffffffffffffffffffffffffff1673ffffffffffffffffffffffffffffffffffffffff1673ffffffffffffffffffffffffffffffffffffffff16815260200160028201548152602001600382015481526020016004820154815260200160058201548152505081526020019060010190611ccb565b50505050905090565b6000611dba7f71f3d55856e4058ed06ee057d79ada615f65cdf5f9ee88181b914225088f834f336112f0565b611df9576040517f08c379a0000000000000000000000000000000000000000000000000000000008152600401611df0906134a4565b60405180910390fd5b611e028261224c565b9050919050565b611e11612c28565b6000600760003373ffffffffffffffffffffffffffffffffffffffff1673ffffffffffffffffffffffffffffffffffffffff1681526020019081526020016000205411611e93576040517f08c379a0000000000000000000000000000000000000000000000000000000008152600401611e8a906131d0565b60405180910390fd5b6006600760003373ffffffffffffffffffffffffffffffffffffffff1673ffffffffffffffffffffffffffffffffffffffff1681526020019081526020016000205481548110611ee657611ee5613282565b5b90600052602060002090600602016040518060c0016040529081600082015481526020016001820160009054906101000a900473ffffffffffffffffffffffffffffffffffffffff1673ffffffffffffffffffffffffffffffffffffffff1673ffffffffffffffffffffffffffffffffffffffff168152602001600282015481526020016003820154815260200160048201548152602001600582015481525050905090565b611f95826110d9565b611f9e81612871565b611fa8838361297e565b50505050565b6000611fda7f71f3d55856e4058ed06ee057d79ada615f65cdf5f9ee88181b914225088f834f336112f0565b612019576040517f08c379a0000000000000000000000000000000000000000000000000000000008152600401612010906134a4565b60405180910390fd5b61202282612a70565b9050919050565b60007f0000000000000000000000000000000000000000000000000000000000000000905090565b60007f01ffc9a7000000000000000000000000000000000000000000000000000000007bffffffffffffffffffffffffffffffffffffffffffffffffffffffff1916827bffffffffffffffffffffffffffffffffffffffffffffffffffffffff1916149050919050565b6000806006600760008573ffffffffffffffffffffffffffffffffffffffff1673ffffffffffffffffffffffffffffffffffffffff168152602001908152602001600020548154811061211157612110613282565b5b906000526020600020906006020160030154905060006006600760008673ffffffffffffffffffffffffffffffffffffffff1673ffffffffffffffffffffffffffffffffffffffff168152602001908152602001600020548154811061217a57612179613282565b5b9060005260206000209060060201600401549050600081036121ac576064826121a39190613706565b92505050612247565b600060646305f5e100836121c09190613706565b846121cb9190613777565b6121d59190613706565b9050806006600760008873ffffffffffffffffffffffffffffffffffffffff1673ffffffffffffffffffffffffffffffffffffffff168152602001908152602001600020548154811061222b5761222a613282565b5b9060005260206000209060060201600501819055508093505050505b919050565b6000806006600760008573ffffffffffffffffffffffffffffffffffffffff1673ffffffffffffffffffffffffffffffffffffffff16815260200190815260200160002054815481106122a2576122a1613282565b5b906000526020600020906006020160030154905060006006600760008673ffffffffffffffffffffffffffffffffffffffff1673ffffffffffffffffffffffffffffffffffffffff168152602001908152602001600020548154811061230b5761230a613282565b5b90600052602060002090600602016004015490506006600760008673ffffffffffffffffffffffffffffffffffffffff1673ffffffffffffffffffffffffffffffffffffffff168152602001908152602001600020548154811061237257612371613282565b5b9060005260206000209060060201600301546305f5e1006006600760008873ffffffffffffffffffffffffffffffffffffffff1673ffffffffffffffffffffffffffffffffffffffff16815260200190815260200160002054815481106123dc576123db613282565b5b9060005260206000209060060201600401546123f89190613706565b10612438576040517f08c379a000000000000000000000000000000000000000000000000000000000815260040161242f9061357c565b60405180910390fd5b7f00000000000000000000000000000000000000000000000000000000000000006006600760008773ffffffffffffffffffffffffffffffffffffffff1673ffffffffffffffffffffffffffffffffffffffff16815260200190815260200160002054815481106124ac576124ab613282565b5b906000526020600020906006020160050154116124fe576040517f08c379a00000000000000000000000000000000000000000000000000000000081526004016124f5906137f4565b60405180910390fd5b600081036125185761250f82612a70565b92505050612570565b600060026003836125299190613706565b6125339190613777565b905060006305f5e100826125479190613706565b9050600081856125579190613424565b9050600061256482612a70565b90508096505050505050505b919050565b600080600360009054906101000a900473ffffffffffffffffffffffffffffffffffffffff1673ffffffffffffffffffffffffffffffffffffffff16639bd713cf6040518163ffffffff1660e01b8152600401602060405180830381865afa1580156125e5573d6000803e3d6000fd5b505050506040513d601f19601f820116820180604052508101906126099190613840565b90506000600360009054906101000a900473ffffffffffffffffffffffffffffffffffffffff1673ffffffffffffffffffffffffffffffffffffffff1663d279e00a6040518163ffffffff1660e01b8152600401602060405180830381865afa15801561267a573d6000803e3d6000fd5b505050506040513d601f19601f8201168201806040525081019061269e9190613840565b905060008183866126af9190613706565b6126b99190613777565b905060006402540be400826126ce9190613777565b905080945050505050919050565b600060966006600760008573ffffffffffffffffffffffffffffffffffffffff1673ffffffffffffffffffffffffffffffffffffffff168152602001908152602001600020548154811061273357612732613282565b5b9060005260206000209060060201600501541015612754576000905061286c565b60006006600760008573ffffffffffffffffffffffffffffffffffffffff1673ffffffffffffffffffffffffffffffffffffffff16815260200190815260200160002054815481106127a9576127a8613282565b5b906000526020600020906006020160020154905060006127c882612575565b905060006006600760008773ffffffffffffffffffffffffffffffffffffffff1673ffffffffffffffffffffffffffffffffffffffff168152602001908152602001600020548154811061281f5761281e613282565b5b906000526020600020906006020160040154905060006311e1a3006002846128479190613706565b6128519190613777565b9050600082826128619190613424565b905080955050505050505b919050565b6128828161287d612976565b612bd7565b50565b600061289183836112f0565b61296b57600160008085815260200190815260200160002060000160008473ffffffffffffffffffffffffffffffffffffffff1673ffffffffffffffffffffffffffffffffffffffff16815260200190815260200160002060006101000a81548160ff021916908315150217905550612908612976565b73ffffffffffffffffffffffffffffffffffffffff168273ffffffffffffffffffffffffffffffffffffffff16847f2f8788117e7eff1d82e926ec794901d17c78024a50270940304540a733656f0d60405160405180910390a460019050612970565b600090505b92915050565b600033905090565b600061298a83836112f0565b15612a6557600080600085815260200190815260200160002060000160008473ffffffffffffffffffffffffffffffffffffffff1673ffffffffffffffffffffffffffffffffffffffff16815260200190815260200160002060006101000a81548160ff021916908315150217905550612a02612976565b73ffffffffffffffffffffffffffffffffffffffff168273ffffffffffffffffffffffffffffffffffffffff16847ff6391f5c32d9c69d2a47ea670b442974b53935d1edc7fd64eb21e047a839171b60405160405180910390a460019050612a6a565b600090505b92915050565b600080600360009054906101000a900473ffffffffffffffffffffffffffffffffffffffff1673ffffffffffffffffffffffffffffffffffffffff16639bd713cf6040518163ffffffff1660e01b8152600401602060405180830381865afa158015612ae0573d6000803e3d6000fd5b505050506040513d601f19601f82011682018060405250810190612b049190613840565b90506000600360009054906101000a900473ffffffffffffffffffffffffffffffffffffffff1673ffffffffffffffffffffffffffffffffffffffff1663d279e00a6040518163ffffffff1660e01b8152600401602060405180830381865afa158015612b75573d6000803e3d6000fd5b505050506040513d601f19601f82011682018060405250810190612b999190613840565b90506000828583612baa9190613706565b612bb49190613777565b905060006402540be40082612bc99190613706565b905080945050505050919050565b612be182826112f0565b612c245780826040517fe2517d3f000000000000000000000000000000000000000000000000000000008152600401612c1b92919061386d565b60405180910390fd5b5050565b6040518060c0016040528060008152602001600073ffffffffffffffffffffffffffffffffffffffff168152602001600081526020016000815260200160008152602001600081525090565b600080fd5b60007fffffffff0000000000000000000000000000000000000000000000000000000082169050919050565b612cae81612c79565b8114612cb957600080fd5b50565b600081359050612ccb81612ca5565b92915050565b600060208284031215612ce757612ce6612c74565b5b6000612cf584828501612cbc565b91505092915050565b60008115159050919050565b612d1381612cfe565b82525050565b6000602082019050612d2e6000830184612d0a565b92915050565b6000819050919050565b612d4781612d34565b8114612d5257600080fd5b50565b600081359050612d6481612d3e565b92915050565b600060208284031215612d8057612d7f612c74565b5b6000612d8e84828501612d55565b91505092915050565b600073ffffffffffffffffffffffffffffffffffffffff82169050919050565b6000612dc282612d97565b9050919050565b612dd281612db7565b8114612ddd57600080fd5b50565b600081359050612def81612dc9565b92915050565b600060208284031215612e0b57612e0a612c74565b5b6000612e1984828501612de0565b91505092915050565b612e2b81612d34565b82525050565b6000602082019050612e466000830184612e22565b92915050565b6000819050919050565b612e5f81612e4c565b8114612e6a57600080fd5b50565b600081359050612e7c81612e56565b92915050565b600060208284031215612e9857612e97612c74565b5b6000612ea684828501612e6d565b91505092915050565b612eb881612e4c565b82525050565b6000602082019050612ed36000830184612eaf565b92915050565b60008060408385031215612ef057612eef612c74565b5b6000612efe85828601612e6d565b9250506020612f0f85828601612de0565b9150509250929050565b6000819050919050565b612f2c81612f19565b82525050565b6000602082019050612f476000830184612f23565b92915050565b600081519050919050565b600082825260208201905092915050565b6000819050602082019050919050565b612f8281612d34565b82525050565b612f9181612db7565b82525050565b60c082016000820151612fad6000850182612f79565b506020820151612fc06020850182612f88565b506040820151612fd36040850182612f79565b506060820151612fe66060850182612f79565b506080820151612ff96080850182612f79565b5060a082015161300c60a0850182612f79565b50505050565b600061301e8383612f97565b60c08301905092915050565b6000602082019050919050565b600061304282612f4d565b61304c8185612f58565b935061305783612f69565b8060005b8381101561308857815161306f8882613012565b975061307a8361302a565b92505060018101905061305b565b5085935050505092915050565b600060208201905081810360008301526130af8184613037565b905092915050565b60c0820160008201516130cd6000850182612f79565b5060208201516130e06020850182612f88565b5060408201516130f36040850182612f79565b5060608201516131066060850182612f79565b5060808201516131196080850182612f79565b5060a082015161312c60a0850182612f79565b50505050565b600060c08201905061314760008301846130b7565b92915050565b600082825260208201905092915050565b7f596f7520646f6e7420686176652061205661756c742c2063726561746520612060008201527f7661756c74206669727374210000000000000000000000000000000000000000602082015250565b60006131ba602c8361314d565b91506131c58261315e565b604082019050919050565b600060208201905081810360008301526131e9816131ad565b9050919050565b7f576974686472617720616d6f756e742073686f756c642062652067726561746560008201527f72207468616e2030000000000000000000000000000000000000000000000000602082015250565b600061324c60288361314d565b9150613257826131f0565b604082019050919050565b6000602082019050818103600083015261327b8161323f565b9050919050565b7f4e487b7100000000000000000000000000000000000000000000000000000000600052603260045260246000fd5b7f696e73756666696369656e742062616c616e636520696e207661756c74000000600082015250565b60006132e7601d8361314d565b91506132f2826132b1565b602082019050919050565b60006020820190508181036000830152613316816132da565b9050919050565b7f436c65617220796f757220646562742100000000000000000000000000000000600082015250565b600061335360108361314d565b915061335e8261331d565b602082019050919050565b6000602082019050818103600083015261338281613346565b9050919050565b7f796f752077696c6c20676f20696e746f20646562742100000000000000000000600082015250565b60006133bf60168361314d565b91506133ca82613389565b602082019050919050565b600060208201905081810360008301526133ee816133b2565b9050919050565b7f4e487b7100000000000000000000000000000000000000000000000000000000600052601160045260246000fd5b600061342f82612d34565b915061343a83612d34565b9250828203905081811115613452576134516133f5565b5b92915050565b7f4d7573742068617665204d4f44455241544f525f524f4c450000000000000000600082015250565b600061348e60188361314d565b915061349982613458565b602082019050919050565b600060208201905081810360008301526134bd81613481565b9050919050565b7f656e7465722076616c696420616d6f756e740000000000000000000000000000600082015250565b60006134fa60128361314d565b9150613505826134c4565b602082019050919050565b60006020820190508181036000830152613529816134ed565b9050919050565b7f796f752061726520696e20646562742100000000000000000000000000000000600082015250565b600061356660108361314d565b915061357182613530565b602082019050919050565b6000602082019050818103600083015261359581613559565b9050919050565b7f656e74657220616d6f756e74206c657373207468616e204349502063726f7373600082015250565b60006135d260208361314d565b91506135dd8261359c565b602082019050919050565b60006020820190508181036000830152613601816135c5565b9050919050565b61361181612db7565b82525050565b600060408201905061362c6000830185613608565b6136396020830184612e22565b9392505050565b600061364b82612d34565b915061365683612d34565b925082820190508082111561366e5761366d6133f5565b5b92915050565b7f45544820616d6f756e74206d7573742062652067726561746572207468616e2060008201527f3000000000000000000000000000000000000000000000000000000000000000602082015250565b60006136d060218361314d565b91506136db82613674565b604082019050919050565b600060208201905081810360008301526136ff816136c3565b9050919050565b600061371182612d34565b915061371c83612d34565b925082820261372a81612d34565b91508282048414831517613741576137406133f5565b5b5092915050565b7f4e487b7100000000000000000000000000000000000000000000000000000000600052601260045260246000fd5b600061378282612d34565b915061378d83612d34565b92508261379d5761379c613748565b5b828204905092915050565b7f796f752061726520696e20646562740000000000000000000000000000000000600082015250565b60006137de600f8361314d565b91506137e9826137a8565b602082019050919050565b6000602082019050818103600083015261380d816137d1565b9050919050565b61381d81612f19565b811461382857600080fd5b50565b60008151905061383a81613814565b92915050565b60006020828403121561385657613855612c74565b5b60006138648482850161382b565b91505092915050565b60006040820190506138826000830185613608565b61388f6020830184612eaf565b939250505056fea2646970667358221220f59769c45ed565a80bab0c01025521771ce068d60536c5fdee0bc7a474bf8a5664736f6c634300081a0033","linkReferences":{}},"methodIdentifiers":{"BASE_RISK_RATE()":"839159fb","CIP()":"74cf45f8","DEFAULT_ADMIN_ROLE()":"a217fddf","MODERATOR_ROLE()":"797669c9","RISK_PREMIUM_RATE()":"310e84b5","amountInrToEth(uint256)":"d6805bc7","burnIndaiAndRelieveCollateral(uint256)":"b9ebc0b4","calculateMaxMintableDai(address)":"46a1567a","calculateMaxWithdrawableCollateral(address)":"c6db1f16","calculateVaultHealth(address)":"9c97c12d","createOrUpdateVault()":"bb828132","getBASE_RISK_RATE()":"fb5989a6","getCIP()":"501c3a3c","getCurrentVaultId()":"ae0b163f","getRISK_PREMIUM_RATE()":"7649aef1","getRoleAdmin(bytes32)":"248a9ca3","getTotalCollateralPrice()":"9dc1b45b","getTotalVaultDetails()":"c48589cb","getUserCollateralBalance(address)":"ab845413","grantModeratorRole(address)":"aa232dc2","grantRole(bytes32,address)":"2f2ff15d","hasRole(bytes32,address)":"91d14854","liquidateVault(address)":"194d7494","mintIndai(uint256)":"16b72657","renounceRole(bytes32,address)":"36568abe","revokeRole(bytes32,address)":"d547741f","supportsInterface(bytes4)":"01ffc9a7","userBalanceInInr(address)":"078e065d","userIndexes(address)":"b603540f","vaultDetailsForTheUser()":"d4600922","withdrawFromVault(uint256)":"076d0815"},"id":39}