{"abi":[{"type":"constructor","inputs":[{"name":"_CIP","type":"uint256","internalType":"uint256"},{"name":"_baseRiskRate","type":"uint256","internalType":"uint256"},{"name":"_riskPremiumRate","type":"uint256","internalType":"uint256"},{"name":"_indai","type":"address","internalType":"address"},{"name":"_priceContract","type":"address","internalType":"address"}],"stateMutability":"nonpayable"},{"type":"function","name":"ADMIN_ROLE","inputs":[],"outputs":[{"name":"","type":"bytes32","internalType":"bytes32"}],"stateMutability":"view"},{"type":"function","name":"CIP","inputs":[],"outputs":[{"name":"","type":"uint256","internalType":"uint256"}],"stateMutability":"view"},{"type":"function","name":"DEFAULT_ADMIN_ROLE","inputs":[],"outputs":[{"name":"","type":"bytes32","internalType":"bytes32"}],"stateMutability":"view"},{"type":"function","name":"MODERATOR_ROLE","inputs":[],"outputs":[{"name":"","type":"bytes32","internalType":"bytes32"}],"stateMutability":"view"},{"type":"function","name":"baseRiskRate","inputs":[],"outputs":[{"name":"","type":"uint256","internalType":"uint256"}],"stateMutability":"view"},{"type":"function","name":"burnIndaiAndRelieveCollateral","inputs":[{"name":"amount","type":"uint256","internalType":"uint256"}],"outputs":[],"stateMutability":"nonpayable"},{"type":"function","name":"createVault","inputs":[],"outputs":[],"stateMutability":"payable"},{"type":"function","name":"getBaseRiskRate","inputs":[],"outputs":[{"name":"","type":"uint256","internalType":"uint256"}],"stateMutability":"view"},{"type":"function","name":"getCIP","inputs":[],"outputs":[{"name":"","type":"uint256","internalType":"uint256"}],"stateMutability":"view"},{"type":"function","name":"getCurrentVaultId","inputs":[],"outputs":[{"name":"","type":"uint256","internalType":"uint256"}],"stateMutability":"view"},{"type":"function","name":"getRiskPremiumRate","inputs":[],"outputs":[{"name":"","type":"uint256","internalType":"uint256"}],"stateMutability":"view"},{"type":"function","name":"getRoleAdmin","inputs":[{"name":"role","type":"bytes32","internalType":"bytes32"}],"outputs":[{"name":"","type":"bytes32","internalType":"bytes32"}],"stateMutability":"view"},{"type":"function","name":"getTotalCollateralPrice","inputs":[],"outputs":[{"name":"","type":"int256","internalType":"int256"}],"stateMutability":"view"},{"type":"function","name":"getTotalVaultDetails","inputs":[],"outputs":[{"name":"","type":"tuple[]","internalType":"struct CollateralSafekeep.vault[]","components":[{"name":"vaultId","type":"uint256","internalType":"uint256"},{"name":"userAddress","type":"address","internalType":"address"},{"name":"balance","type":"uint256","internalType":"uint256"},{"name":"balanceInINR","type":"uint256","internalType":"uint256"},{"name":"indaiIssued","type":"uint256","internalType":"uint256"},{"name":"vaultHealth","type":"uint256","internalType":"uint256"}]}],"stateMutability":"view"},{"type":"function","name":"getUserCollateralBalance","inputs":[{"name":"_address","type":"address","internalType":"address"}],"outputs":[{"name":"","type":"uint256","internalType":"uint256"}],"stateMutability":"view"},{"type":"function","name":"grantModeratorRole","inputs":[{"name":"account","type":"address","internalType":"address"}],"outputs":[],"stateMutability":"nonpayable"},{"type":"function","name":"grantRole","inputs":[{"name":"role","type":"bytes32","internalType":"bytes32"},{"name":"account","type":"address","internalType":"address"}],"outputs":[],"stateMutability":"nonpayable"},{"type":"function","name":"hasRole","inputs":[{"name":"role","type":"bytes32","internalType":"bytes32"},{"name":"account","type":"address","internalType":"address"}],"outputs":[{"name":"","type":"bool","internalType":"bool"}],"stateMutability":"view"},{"type":"function","name":"liquidateVault","inputs":[{"name":"_vaultAddress","type":"address","internalType":"address"}],"outputs":[],"stateMutability":"nonpayable"},{"type":"function","name":"mintIndai","inputs":[{"name":"amount","type":"uint256","internalType":"uint256"}],"outputs":[],"stateMutability":"nonpayable"},{"type":"function","name":"renounceRole","inputs":[{"name":"role","type":"bytes32","internalType":"bytes32"},{"name":"callerConfirmation","type":"address","internalType":"address"}],"outputs":[],"stateMutability":"nonpayable"},{"type":"function","name":"revokeRole","inputs":[{"name":"role","type":"bytes32","internalType":"bytes32"},{"name":"account","type":"address","internalType":"address"}],"outputs":[],"stateMutability":"nonpayable"},{"type":"function","name":"riskPremiumRate","inputs":[],"outputs":[{"name":"","type":"uint256","internalType":"uint256"}],"stateMutability":"view"},{"type":"function","name":"supportsInterface","inputs":[{"name":"interfaceId","type":"bytes4","internalType":"bytes4"}],"outputs":[{"name":"","type":"bool","internalType":"bool"}],"stateMutability":"view"},{"type":"function","name":"updateVault","inputs":[],"outputs":[],"stateMutability":"payable"},{"type":"function","name":"userIndexes","inputs":[{"name":"","type":"address","internalType":"address"}],"outputs":[{"name":"","type":"uint256","internalType":"uint256"}],"stateMutability":"view"},{"type":"function","name":"vaultDetailsForTheUser","inputs":[],"outputs":[{"name":"","type":"tuple","internalType":"struct CollateralSafekeep.vault","components":[{"name":"vaultId","type":"uint256","internalType":"uint256"},{"name":"userAddress","type":"address","internalType":"address"},{"name":"balance","type":"uint256","internalType":"uint256"},{"name":"balanceInINR","type":"uint256","internalType":"uint256"},{"name":"indaiIssued","type":"uint256","internalType":"uint256"},{"name":"vaultHealth","type":"uint256","internalType":"uint256"}]}],"stateMutability":"view"},{"type":"function","name":"withdrawFromVault","inputs":[{"name":"amount","type":"uint256","internalType":"uint256"}],"outputs":[],"stateMutability":"payable"},{"type":"event","name":"RoleAdminChanged","inputs":[{"name":"role","type":"bytes32","indexed":true,"internalType":"bytes32"},{"name":"previousAdminRole","type":"bytes32","indexed":true,"internalType":"bytes32"},{"name":"newAdminRole","type":"bytes32","indexed":true,"internalType":"bytes32"}],"anonymous":false},{"type":"event","name":"RoleGranted","inputs":[{"name":"role","type":"bytes32","indexed":true,"internalType":"bytes32"},{"name":"account","type":"address","indexed":true,"internalType":"address"},{"name":"sender","type":"address","indexed":true,"internalType":"address"}],"anonymous":false},{"type":"event","name":"RoleRevoked","inputs":[{"name":"role","type":"bytes32","indexed":true,"internalType":"bytes32"},{"name":"account","type":"address","indexed":true,"internalType":"address"},{"name":"sender","type":"address","indexed":true,"internalType":"address"}],"anonymous":false},{"type":"event","name":"thisIsARiskyVault","inputs":[{"name":"vaultId","type":"uint256","indexed":false,"internalType":"uint256"},{"name":"userAddress","type":"address","indexed":false,"internalType":"address"},{"name":"balance","type":"uint256","indexed":false,"internalType":"uint256"},{"name":"balanceInINR","type":"uint256","indexed":false,"internalType":"uint256"},{"name":"indaiIssued","type":"uint256","indexed":false,"internalType":"uint256"},{"name":"vaultHealth","type":"uint256","indexed":false,"internalType":"uint256"}],"anonymous":false},{"type":"error","name":"AccessControlBadConfirmation","inputs":[]},{"type":"error","name":"AccessControlUnauthorizedAccount","inputs":[{"name":"account","type":"address","internalType":"address"},{"name":"neededRole","type":"bytes32","internalType":"bytes32"}]},{"type":"error","name":"collateralSafekeep__userInDebt","inputs":[]},{"type":"error","name":"upkeepNotNeeded","inputs":[]}],"bytecode":{"object":"0x60e0604052346101e657604051601f611b7e38819003918201601f19168301916001600160401b038311848410176101d05780849260a0946040528339810103126101e657805160208201519060408301519261006a6080610063606084016101eb565b92016101eb565b90610074336101ff565b5061007e3361029d565b50600180546001600160a01b039283166001600160a01b0319918216178255600280549490931693169290921790554260035560809190915260a09190915260c09182526004556040519081018181106001600160401b038211176101d0576040526000815260208101600081526040820160008152606083016000815260808401906000825260a08501926000845260065494680100000000000000008610156101d05760018601806006558610156101ba5760059560066000526006602060002091020196518755600187019060018060a01b0390511660018060a01b0319825416179055516002860155516003850155516004840155519101556040516117e890816103368239608051818181610bcc01528181610e4f01528181611142015261139a015260a051816110d6015260c0518161117d0152f35b634e487b7160e01b600052603260045260246000fd5b634e487b7160e01b600052604160045260246000fd5b600080fd5b51906001600160a01b03821682036101e657565b6001600160a01b0381166000908152600080516020611b3e833981519152602052604090205460ff16610297576001600160a01b03166000818152600080516020611b3e83398151915260205260408120805460ff191660011790553391907fa49807205ce4d355092ef5a8a18f56e8913cf4a201fbe287825b095693c2177590600080516020611b1e8339815191529080a4600190565b50600090565b6001600160a01b0381166000908152600080516020611b5e833981519152602052604090205460ff16610297576001600160a01b03166000818152600080516020611b5e83398151915260205260408120805460ff191660011790553391907f71f3d55856e4058ed06ee057d79ada615f65cdf5f9ee88181b914225088f834f90600080516020611b1e8339815191529080a460019056fe608080604052600436101561001357600080fd5b600090813560e01c90816301ffc9a7146110655750806303f49b3514610417578063076d081514610d6457806316b7265714610b79578063194d749414610b29578063248a9ca314610af35780632f2ff15d14610ab257806336568abe14610a6d578063501c3a3c146107e25780635d12928b146108ac5780636a24180d146105845780637196e841146107e757806374cf45f8146107e257806375b238fc146107a7578063797669c91461077e57806391d14854146107335780639dc1b45b146106e3578063a217fddf146106c7578063aa232dc21461064e578063ab845413146105d9578063ae0b163f14610589578063b16a561514610584578063b603540f1461054b578063b9ebc0b41461041c578063c14a7cc814610417578063c48589cb14610280578063d4600922146101a15763d547741f1461015557600080fd5b3461019e57604036600319011261019e5761019a600435610174611114565b9061019561019082600052600060205260016040600020015490565b611478565b611600565b5080f35b80fd5b503461019e578060031936011261019e5760c0906101bd611351565b5033815260076020526101d660016040832054146111a0565b600461023060406101e5611351565b9333815260076020526101fa82822054611201565b505485523360208601523381526007602052600261021a83832054611201565b5001548286015233815260076020522054611201565b500154608082015261027e604051809260a0809180518452600180831b0360208201511660208501526040810151604085015260608101516060850152608081015160808501520151910152565bf35b503461019e578060031936011261019e5760008051602061179383398151915281526020818152604080832033600090815292529020546102c39060ff16611305565b60065467ffffffffffffffff8111610403576040516102e860208360051b01826112e3565b818152600683526020810191837ff652222313e28459528d920b65115c16c04f3efc82aaedc97be59f3f377c0d3f845b8383106103a757868587604051928392602084019060208552518091526040840192915b81811061034a575050500390f35b91935091602060c082610399600194885160a0809180518452600180831b0360208201511660208501526040810151604085015260608101516060850152608081015160808501520151910152565b01940191019184939261033c565b600660206001926040516103ba816112b1565b85548152848060a01b03858701541683820152600286015460408201526003860154606082015260048601546080820152600586015460a0820152815201920192019190610318565b634e487b7160e01b82526041600452602482fd5b6110be565b503461019e57602036600319011261019e57600435338252600760205261044960016040842054146111a0565b338252600760205260046104606040842054611201565b5001541561053c5733825260076020528060046104806040852054611201565b5001541061053c5760015482906001600160a01b0316803b1561053c5760405163079cc67960e41b8152336004820152602481018490529082908290604490829084905af1801561054057610527575b5050338252600760205260046104e96040842054611201565b50016104f682825461124f565b9055338252600760205261051c60036105126040852054611201565b5001918254611382565b905561019a336113fc565b81610531916112e3565b61053c5781386104d0565b5080fd5b6040513d84823e3d90fd5b503461019e57602036600319011261019e576020906040906001600160a01b036105736110fe565b168152600783522054604051908152f35b611165565b503461019e578060031936011261019e5760008051602061179383398151915281526020818152604091829020336000908152915220546105cc9060ff16611305565b6020600454604051908152f35b503461019e57602036600319011261019e57600261064360406020936105fd6110fe565b60008051602061179383398151915282528186528282203360009081529087528390205461062d9060ff16611305565b6001600160a01b03168152600785522054611201565b500154604051908152f35b503461019e57602036600319011261019e5761019a61066b6110fe565b600080516020611793833981519152835260208381526040808520336000908152925290205461069d9060ff16611305565b6000805160206117938339815191528352826020526106c26001604085200154611478565b6114b3565b503461019e578060031936011261019e57602090604051908152f35b503461019e578060031936011261019e5760008051602061179383398151915281526020818152604091829020336000908152915220546107269060ff16611305565b6020600554604051908152f35b503461019e57604036600319011261019e57604061074f611114565b91600435815280602052209060018060a01b0316600052602052602060ff604060002054166040519015158152f35b503461019e578060031936011261019e5760206040516000805160206117938339815191528152f35b503461019e578060031936011261019e5760206040517fa49807205ce4d355092ef5a8a18f56e8913cf4a201fbe287825b095693c217758152f35b61112a565b508060031936011261019e57338152600760205261080b60016040832054146111a0565b341561085d57338152600760205260026108286040832054611201565b5001610835348254611382565b905561084033611698565b338252600760205260036108576040842054611201565b50015580f35b60405162461bcd60e51b815260206004820152602160248201527f65746820616d6f756e74206d7573742062652067726561746572207468616e206044820152600360fc1b6064820152608490fd5b508060031936011261019e5733815260076020526040812054610a285734156109d9576108d7611351565b9060408201348152602083019033825260045484526080840183815260a08501916064835261090533611698565b9060608701918252600654680100000000000000008110156109c5578060016109319201600655611201565b9590956109b1576005959697518755600187019060018060a01b039051166bffffffffffffffffffffffff60a01b8254161790555160028601555160038501555160048401555191015560045433825260076020528060408320556001810180911161099d5760045580f35b634e487b7160e01b82526011600452602482fd5b634e487b7160e01b87526004879052602487fd5b634e487b7160e01b87526041600452602487fd5b60405162461bcd60e51b815260206004820152602160248201527f45544820616d6f756e74206d7573742062652067726561746572207468616e206044820152600360fc1b6064820152608490fd5b60405162461bcd60e51b815260206004820152601860248201527f596f7520616c726561647920686176652061207661756c7400000000000000006044820152606490fd5b503461019e57604036600319011261019e57610a87611114565b336001600160a01b03821603610aa35761019a90600435611600565b63334bd91960e11b8252600482fd5b503461019e57604036600319011261019e5761019a600435610ad2611114565b90610aee61019082600052600060205260016040600020015490565b611575565b503461019e57602036600319011261019e576020610b21600435600052600060205260016040600020015490565b604051908152f35b503461019e57602036600319011261019e57610b436110fe565b506000805160206117938339815191528152602081815260408083203360009081529252902054610b769060ff16611305565b80f35b503461019e57602036600319011261019e57600435903381526007602052610ba760016040832054146111a0565b8115610d2a5733815260076020526005610bc46040832054611201565b500154610bf37f0000000000000000000000000000000000000000000000000000000000000000809211611272565b610bfc33611698565b903383526007602052610c206004610c176040862054611201565b500154836113dc565b906064820282810460641483151715610d1657811115610d0757610c4d9291610c489161124f565b6113c9565b821015610cc3576001546001600160a01b0316803b1561053c576040516340c10f1960e01b8152336004820152602481018490529082908290604490829084905af1801561054057610cb3575b5090338252600760205260046108576040842054611201565b81610cbd916112e3565b38610c9a565b606460405162461bcd60e51b815260206004820152602060248201527f656e74657220616d6f756e74206c657373207468616e204349502063726f73736044820152fd5b6374eee20760e11b8452600484fd5b634e487b7160e01b85526011600452602485fd5b60405162461bcd60e51b8152602060048201526012602482015271195b9d195c881d985b1a5908185b5bdd5b9d60721b6044820152606490fd5b50602036600319011261019e576004353382526007602052610d8c60016040842054146111a0565b801561100f573382526007602052806002610daa6040852054611201565b50015410610fca576001610dbd3361138f565b151503610f85573382526007602052610ddc60016040842054146111a0565b33825260076020526003610df36040842054611201565b5001543383526007602052610e336004610e106040862054611201565b50015433855260076020526003610e2a6040872054611201565b50015411611272565b33835260076020526005610e4a6040852054611201565b5001547f000000000000000000000000000000000000000000000000000000000000000080911115610f4e576064039060648211610f3a57606491610e8e916113c9565b04811015610efc5781808080843382f115610eef57610eac336113fc565b33835260076020526005610ec36040852054611201565b5001553382526007602052610eea6002610ee06040852054611201565b500191825461124f565b905580f35b50604051903d90823e3d90fd5b60405162461bcd60e51b8152602060048201526016602482015275796f752077696c6c20676f20696e746f20646562742160501b6044820152606490fd5b634e487b7160e01b84526011600452602484fd5b60405162461bcd60e51b815260206004820152600f60248201526e1e5bdd48185c99481a5b881919589d608a1b6044820152606490fd5b60405162461bcd60e51b815260206004820152601d60248201527f436c65617220796f7572206465627420696e20746865207661756c74210000006044820152606490fd5b60405162461bcd60e51b815260206004820152601d60248201527f696e73756666696369656e742062616c616e636520696e207661756c740000006044820152606490fd5b60405162461bcd60e51b815260206004820152602860248201527f576974686472617720616d6f756e742073686f756c6420626520677265617465604482015267072207468616e20360c41b6064820152608490fd5b90503461053c57602036600319011261053c5760043563ffffffff60e01b81168091036110ba5760209250637965db0b60e01b81149081156110a9575b5015158152f35b6301ffc9a760e01b149050386110a2565b8280fd5b346110f95760003660031901126110f95760206040517f00000000000000000000000000000000000000000000000000000000000000008152f35b600080fd5b600435906001600160a01b03821682036110f957565b602435906001600160a01b03821682036110f957565b346110f95760003660031901126110f95760206040517f00000000000000000000000000000000000000000000000000000000000000008152f35b346110f95760003660031901126110f95760206040517f00000000000000000000000000000000000000000000000000000000000000008152f35b156111a757565b60405162461bcd60e51b815260206004820152602c60248201527f596f7520646f6e7420686176652061205661756c742c2063726561746520612060448201526b7661756c742066697273742160a01b6064820152608490fd5b600654811015611239576006600081815291027ff652222313e28459528d920b65115c16c04f3efc82aaedc97be59f3f377c0d3f0191565b634e487b7160e01b600052603260045260246000fd5b9190820391821161125c57565b634e487b7160e01b600052601160045260246000fd5b1561127957565b60405162461bcd60e51b815260206004820152601060248201526f796f752061726520696e20646562742160801b6044820152606490fd5b60c0810190811067ffffffffffffffff8211176112cd57604052565b634e487b7160e01b600052604160045260246000fd5b90601f8019910116810190811067ffffffffffffffff8211176112cd57604052565b1561130c57565b60405162461bcd60e51b815260206004820152601860248201527f4d7573742068617665204d4f44455241544f525f524f4c4500000000000000006044820152606490fd5b6040519061135e826112b1565b600060a0838281528260208201528260408201528260608201528260808201520152565b9190820180921161125c57565b611398906113fc565b7f000000000000000000000000000000000000000000000000000000000000000010156113c457600090565b600190565b8181029291811591840414171561125c57565b81156113e6570490565b634e487b7160e01b600052601260045260246000fd5b60018060a01b03168060005260076020526114456002611420604060002054611201565b500154826000526007602052600461143c604060002054611201565b500154906113dc565b9060648202918083046064149015171561125c576000526007602052806005611472604060002054611201565b50015590565b60008181526020818152604080832033845290915290205460ff161561149b5750565b63e2517d3f60e01b6000523360045260245260446000fd5b6001600160a01b03811660009081527ff179aafcc4ff8137fca1ef3b9ec4d165f87016ba123e7973fba770bc55e240e3602052604090205460ff1661156f576001600160a01b031660008181527ff179aafcc4ff8137fca1ef3b9ec4d165f87016ba123e7973fba770bc55e240e360205260408120805460ff19166001179055339190600080516020611793833981519152907f2f8788117e7eff1d82e926ec794901d17c78024a50270940304540a733656f0d9080a4600190565b50600090565b6000818152602081815260408083206001600160a01b038616845290915290205460ff166115f9576000818152602081815260408083206001600160a01b0395909516808452949091528120805460ff19166001179055339291907f2f8788117e7eff1d82e926ec794901d17c78024a50270940304540a733656f0d9080a4600190565b5050600090565b6000818152602081815260408083206001600160a01b038616845290915290205460ff16156115f9576000818152602081815260408083206001600160a01b0395909516808452949091528120805460ff19169055339291907ff6391f5c32d9c69d2a47ea670b442974b53935d1edc7fd64eb21e047a839171b9080a4600190565b91908260409103126110f9576020825192015190565b60018060a01b0316600052600760205260026116b8604060002054611201565b500154600254604080516379409b1960e01b815292916001600160a01b03169083600481845afa9081156117625760049360009261176e575b50604090815194858092631e64b99560e11b82525afa9081156117625761172a9360009261172d575b5061172591926113c9565b6113dc565b90565b61172592506117539060403d60401161175b575b61174b81836112e3565b810190611682565b90509161171a565b503d611741565b6040513d6000823e3d90fd5b604091925061178990823d841161175b5761174b81836112e3565b905091906116f156fe71f3d55856e4058ed06ee057d79ada615f65cdf5f9ee88181b914225088f834fa2646970667358221220c3e6e29b879f29d04e49cc72786f34f0274a47e77a7c252fba91efebb4ce653964736f6c634300081a00332f8788117e7eff1d82e926ec794901d17c78024a50270940304540a733656f0d7d7ffb7a348e1c6a02869081a26547b49160dd3df72d1d75a570eb9b698292ecf179aafcc4ff8137fca1ef3b9ec4d165f87016ba123e7973fba770bc55e240e3","linkReferences":{}},"methodIdentifiers":{"ADMIN_ROLE()":"75b238fc","CIP()":"74cf45f8","DEFAULT_ADMIN_ROLE()":"a217fddf","MODERATOR_ROLE()":"797669c9","baseRiskRate()":"c14a7cc8","burnIndaiAndRelieveCollateral(uint256)":"b9ebc0b4","createVault()":"5d12928b","getBaseRiskRate()":"03f49b35","getCIP()":"501c3a3c","getCurrentVaultId()":"ae0b163f","getRiskPremiumRate()":"6a24180d","getRoleAdmin(bytes32)":"248a9ca3","getTotalCollateralPrice()":"9dc1b45b","getTotalVaultDetails()":"c48589cb","getUserCollateralBalance(address)":"ab845413","grantModeratorRole(address)":"aa232dc2","grantRole(bytes32,address)":"2f2ff15d","hasRole(bytes32,address)":"91d14854","liquidateVault(address)":"194d7494","mintIndai(uint256)":"16b72657","renounceRole(bytes32,address)":"36568abe","revokeRole(bytes32,address)":"d547741f","riskPremiumRate()":"b16a5615","supportsInterface(bytes4)":"01ffc9a7","updateVault()":"7196e841","userIndexes(address)":"b603540f","vaultDetailsForTheUser()":"d4600922","withdrawFromVault(uint256)":"076d0815"},"id":35}