{
  "address": "0x5FbDB2315678afecb367f032d93F642f64180aa3",
  "abi": [
    {
      "inputs": [],
      "stateMutability": "nonpayable",
      "type": "constructor"
    },
    {
      "inputs": [],
      "name": "proxyAddress",
      "outputs": [
        {
          "internalType": "address",
          "name": "",
          "type": "address"
        }
      ],
      "stateMutability": "view",
      "type": "function"
    },
    {
      "inputs": [],
      "name": "readDataFeed",
      "outputs": [
        {
          "internalType": "uint256",
          "name": "",
          "type": "uint256"
        },
        {
          "internalType": "uint256",
          "name": "",
          "type": "uint256"
        }
      ],
      "stateMutability": "view",
      "type": "function"
    }
  ],
  "transactionHash": "0x42e7d9f11b2660487ecc587a8214c2b486648d5b920fda4a477d6ff737ae89a3",
  "args": [],
  "numDeployments": 1,
  "solcInputHash": "de75b78984d8e9300c1e37ced51df049",
  "bytecode": "0x60806040527326690f9f17fdc26d419371315bc17950a0fc90ed6000806101000a81548173ffffffffffffffffffffffffffffffffffffffff021916908373ffffffffffffffffffffffffffffffffffffffff16021790555034801561006457600080fd5b506102f8806100746000396000f3fe608060405234801561001057600080fd5b50600436106100365760003560e01c806323f5c02d1461003b57806380eb9be614610059575b600080fd5b610043610078565b60405161005091906101ab565b60405180910390f35b61006161009c565b60405161006f9291906101df565b60405180910390f35b60008054906101000a900473ffffffffffffffffffffffffffffffffffffffff1681565b60008060008060008054906101000a900473ffffffffffffffffffffffffffffffffffffffff1673ffffffffffffffffffffffffffffffffffffffff166357de26a46040518163ffffffff1660e01b81526004016040805180830381865afa15801561010c573d6000803e3d6000fd5b505050506040513d601f19601f820116820180604052508101906101309190610282565b63ffffffff16915091506000827bffffffffffffffffffffffffffffffffffffffffffffffffffffffff1690508082945094505050509091565b600073ffffffffffffffffffffffffffffffffffffffff82169050919050565b60006101958261016a565b9050919050565b6101a58161018a565b82525050565b60006020820190506101c0600083018461019c565b92915050565b6000819050919050565b6101d9816101c6565b82525050565b60006040820190506101f460008301856101d0565b61020160208301846101d0565b9392505050565b600080fd5b600081601b0b9050919050565b6102238161020d565b811461022e57600080fd5b50565b6000815190506102408161021a565b92915050565b600063ffffffff82169050919050565b61025f81610246565b811461026a57600080fd5b50565b60008151905061027c81610256565b92915050565b6000806040838503121561029957610298610208565b5b60006102a785828601610231565b92505060206102b88582860161026d565b915050925092905056fea2646970667358221220874175f4a31ade67f977f36def227adc5fcc4579580c60033f37d77ed0bd020c64736f6c63430008130033",
  "devdoc": {
    "kind": "dev",
    "methods": {},
    "version": 1
  },
  "userdoc": {
    "kind": "user",
    "methods": {},
    "version": 1
  },
  "storageLayout": {
    "storage": [
      {
        "astId": 6788,
        "contract": "contracts/priceFeed.sol:PriceFeed",
        "label": "proxyAddress",
        "offset": 0,
        "slot": "0",
        "type": "t_address"
      }
    ],
    "types": {
      "t_address": {
        "encoding": "inplace",
        "label": "address",
        "numberOfBytes": "20"
      }
    }
  }
}